:020000040800F2
:1000000000000120C121000841210008432100080F
:100010004521000847210008492100080000000090
:10002000000000000000000000000000D15900089E
:100030004B21000800000000615A00084D21000813
:1000400009220008092200080922000809220008E4
:1000500009220008092200080922000809220008D4
:1000600009220008092200080922000809220008C4
:1000700009220008092200080922000809220008B4
:1000800009220008092200080922000809220008A4
:100090000922000809220008092200080922000894
:1000A0000922000809220008092200080922000884
:1000B0006521000809220008092200080922000819
:1000C0000922000809220008092200080922000864
:1000D00009220008092200080922000871210008ED
:1000E0000922000809220008092200080922000844
:1000F0000922000809220008092200080922000834
:100100000922000809220008092200080922000823
:100110000922000809220008092200080922000813
:100120000922000809220008092200080922000803
:1001300000000000000000000000000000000000BF
:1001400000000000000000000000000000000000AF
:10015000000000000000000000000000000000009F
:10016000000000000000000000000000000000008F
:10017000000000000000000000000000000000007F
:10018000000000000000000000000000000000006F
:10019000000000000000000000000000000000005F
:1001A000000000000000000000000000000000004F
:1001B000000000000000000000000000000000003F
:1001C000000000000000000000000000000000002F
:1001D000000000000000000000000000000000001F
:0401E0005FF8E0F1F3
:1001F00010B5054C237833B9044B13B10448AFF361
:1002000000800123237010BD740000200000000056
:10021000EC67000808B5034B1BB103490348AFF373
:10022000008008BD0000000078000020EC67000896
:1002300070B54FF0FF0C4CF4E06C1CEA11541DBF7C
:100240001CEA135594EA0C0F95EA0C0F00F0DEF847
:100250002C4481EA030621EA4C5123EA4C5350EA2C
:10026000013518BF52EA033541F4801143F480137D
:1002700038D0A0FB02CE4FF00005E1FB02E506F00E
:100280000042E0FB03E54FF00006E1FB03569CF063
:10029000000F18BF4EF0010EA4F1FF04B6F5007F69
:1002A00064F5407404D25FEA4E0E6D4146EB0606DB
:1002B00042EAC62141EA55514FEAC52040EA5E5064
:1002C0004FEACE2EB4F1FD0C88BFBCF5E06F1ED80E
:1002D000BEF1004F08BF5FEA500E50F1000041EB45
:1002E000045170BD06F0004646EA010140EA0200F2
:1002F00081EA0301B4EB5C04C2BFD4EB0C0541EA14
:10030000045170BD41F480114FF0000E013C00F328
:10031000AB8014F1360FDEBF002001F0004170BD4C
:10032000C4F10004203C35DA0C341BDC04F1140465
:10033000C4F1200500FA05F320FA04F001FA05F2F1
:1003400040EA020001F0004221F0004110EBD370BE
:1003500021FA04F642EB06015EEA430E08BF20EAEA
:10036000D37070BDC4F10C04C4F1200500FA04F38D
:1003700020FA05F001FA04F240EA020001F000411F
:1003800010EBD37041F100015EEA430E08BF20EA92
:10039000D37070BDC4F1200500FA05F24EEA020EDA
:1003A00020FA04F301FA05F243EA020321FA04F009
:1003B00001F0004121FA04F220EA020000EBD370C0
:1003C0005EEA430E08BF20EAD37070BD94F0000FC0
:1003D0000FD101F00046400041EB010111F4801FF4
:1003E00008BF013CF7D041EA060195F0000F18BFA5
:1003F000704703F00046520043EB030313F4801FE1
:1004000008BF013DF7D043EA0603704794EA0C0F9A
:100410000CEA135518BF95EA0C0F0CD050EA4106B0
:1004200018BF52EA4306D1D181EA030101F000412D
:100430004FF0000070BD50EA410606BF1046194655
:1004400052EA430619D094EA0C0F02D150EA013661
:1004500013D195EA0C0F05D152EA03361CBF1046A2
:1004600019460AD181EA030101F0004141F0FE4141
:1004700041F470014FF0000070BD41F0FE4141F4C5
:10048000780170BD81F0004102E000BF83F00043BD
:1004900030B54FEA41044FEA430594EA050F08BF1F
:1004A00090EA020F1FBF54EA000C55EA020C7FEAE3
:1004B000645C7FEA655C00F0E2804FEA5454D4EB60
:1004C0005555B8BF6D420CDD2C4480EA020281EA2A
:1004D000030382EA000083EA010180EA020281EA62
:1004E0000303362D88BF30BD11F0004F4FEA0131B4
:1004F0004FF4801C4CEA113102D0404261EB4101C3
:1005000013F0004F4FEA03334CEA133302D0524248
:1005100063EB430394EA050F00F0A780A4F1010404
:10052000D5F1200E0DDB02FA0EFC22FA05F280183E
:1005300041F1000103FA0EF2801843FA05F3594124
:100540000EE0A5F120050EF1200E012A03FA0EFCA3
:1005500028BF4CF0020C43FA05F3C01851EBE371CD
:1005600001F0004507D54FF0000EDCF1000C7EEBEA
:1005700000006EEB0101B1F5801F1BD3B1F5001F28
:100580000CD349085FEA30004FEA3C0C04F1010447
:100590004FEA445212F5800F80F09A80BCF1004F70
:1005A00008BF5FEA500C50F1000041EB045141EAF2
:1005B000050130BD5FEA4C0C404141EB0101013CBB
:1005C00028BFB1F5801FE9D291F0000F04BF0146AA
:1005D0000020B1FA81F308BF2033A3F10B03B3F17C
:1005E00020020CDA0C3208DD02F1140CC2F10C020C
:1005F00001FA0CF021FA02F10CE002F11402D8BF6A
:10060000C2F1200C01FA02F120FA0CFCDCBF41EA35
:100610000C019040E41AA2BF01EB0451294330BD04
:100620006FEA04041F3C1CDA0C340EDC04F11404E1
:10063000C4F1200220FA04F001FA02F340EA0300B8
:1006400021FA04F345EA030130BDC4F10C04C4F1FE
:10065000200220FA02F001FA04F340EA03002946DE
:1006600030BD21FA04F0294630BD94F0000F83F428
:10067000801306BF81F480110134013D4EE77FEA0B
:10068000645C18BF7FEA655C29D094EA050F08BF57
:1006900090EA020F05D054EA000C04BF1946104638
:1006A00030BD91EA030F1EBF0021002030BD5FEA7C
:1006B000545C05D14000494128BF41F0004130BDA4
:1006C00014F580043CBF01F5801130BD01F00045F8
:1006D00045F0FE4141F470014FF0000030BD7FEA6B
:1006E000645C1ABF194610467FEA655C1CBF0B4666
:1006F000024650EA013406BF52EA033591EA030F7D
:1007000041F4002130BD00BF90F0000F04BF002174
:10071000704730B54FF4806404F132044FF00005A7
:100720004FF0000150E700BF90F0000F04BF002120
:10073000704730B54FF4806404F1320410F0004586
:1007400048BF40424FF000013EE700BF42004FEA81
:10075000E2014FEA31014FEA02701FBF12F07F43FE
:1007600093F07F4F81F06051704732F07F4208BFB5
:10077000704793F07F4F04BF41F40021704730B5BC
:100780004FF4607401F0004521F000411CE700BF08
:1007900050EA010208BF704730B54FF000050AE08B
:1007A00050EA010208BF704730B511F0004502D58C
:1007B000404261EB41014FF4806404F132045FEA8E
:1007C000915C3FF4D8AE4FF003025FEADC0C18BF37
:1007D00003325FEADC0C18BF033202EBDC02C2F129
:1007E000200300FA03FC20FA02F001FA03FE40EABB
:1007F0000E0021FA02F11444BDE600BF4A0011D2F6
:1008000012F5001211D20DD56FF47873B3EB62526A
:100810000ED44FEAC12343F0004343EA505323FA76
:1008200002F070474FF00000704750EA013002D1EB
:100830004FF0FF3070474FF000007047F0B587B0C1
:1008400001AA16461F4B03F108051446186859689B
:10085000083303C4AB422246F7D118689B88206056
:10086000A38000230C211848CDF81230ADF81630C3
:1008700003F076FA154A1649164805F0F3FA164DB4
:10088000164F144C29460522384603F0B2FD0A21C2
:100890003246084601F0CCF92946204605F002FB15
:1008A000224628210A2001F0C3F94FF480610C4848
:1008B00002F095F901F022F94FF4FA7003F04AFEC4
:1008C000E0E700BF046800088C1B002038680008BF
:1008D00018680008291C0020D41B0020501A002092
:1008E000001801402DE9F04F082189B0A64803F017
:1008F00037FA3C21A54802F0A4FDDFF8A882A34CFA
:10090000A34805F06BFA4FF47A7647F6171290FB7E
:10091000F6F3904206FB13069B4D3BDC42F20F724E
:10092000904206DC002B00F0248200222B68DA6360
:10093000E6E70A3B142BF8D801A252F823F000BFD7
:100940000B0A0008CD0A0008AD0B00082B090008AF
:100950002B0900082B0900082B0900082B090008A7
:100960002B0900082B090008570C00080B0D000884
:10097000350D00082B0900082B0900082B09000879
:100980002B0900082B0900082B0900082B09000877
:10099000C5090008282BC8D101224FF480517D4899
:1009A00002F018F900222021404602F013F9032634
:1009B00040F6AC59784F3A782B68182A1FD8013E78
:1009C000F9D114E001224FF48051724802F002F98B
:1009D00000222021404602F0FDF8032640F6AC59E3
:1009E0006D4F3A782B68222A03D8013EF9D1DE6395
:1009F00086E7C3F83C90322003F0ACFDF1E7C3F882
:100A00003C90322003F0A6FDD5E7236801224FF485
:100A1000805160485F6A02F0DDF8002220214046E4
:100A200002F0D8F840F6AC522B684FF0000BDA63B6
:100A300001F02EFC4FF4027302464FF6FF79734328
:100A4000DFF864A10093009B9B4507D3012E7FF440
:100A500057AF4FF47A7003F07DFD51E7019201F03A
:100A600017FC019A801A3228EDD92268556A12685B
:100A7000D30624D5AF421EDD7D1B2A46514603A86E
:100A800005F0F0F91421322003AA01F0D1F8226810
:100A90004249126803A8C2F3001205F0E3F91421D9
:100AA0000A2003AA01F0C4F82268AB44576A01F097
:100AB000EFFB0246C7E7A9EB05053D44DDE7AF4282
:100AC00001DAED1BD9E7A9EB0707F6E72368012256
:100AD0004FF480512F485E6A02F07CF800222021FA
:100AE000404602F077F840F6C4122B684FF0000B36
:100AF000DA6301F0CDFB4FF6FF770246DFF8A890EE
:100B000009F1070ABBF5366F05D300232A68D363C2
:100B1000234A1370F4E6009201F0BAFB009A801A9F
:100B20003228EFD923685A6A1B68D80625D5964221
:100B300020DDB31A1A46494603A8009305F092F93E
:100B40001421322003AA01F073F82268514612687A
:100B500003A8C2F3001205F085F914210A2003AAA4
:100B600001F066F82268566A01F092FB009B02468B
:100B70009B44C7E7BA1AB318DCE7964201DA931B25
:100B8000D8E7BE1BF7E700BFC0190020081A0020F5
:100B9000291C002000180140B81900202368000813
:100BA000A1000020001001401C68000823680122F9
:100BB0004FF4805170485E6A02F00CF80022202148
:100BC000404602F007F84FF448722B684FF0000BD4
:100BD000DA6301F05DFB4FF6FF770346DFF8A4917F
:100BE00009F1070ABBF5C37FBFF48AAE009301F099
:100BF0004FFB009BC01A3228F4D923685A6A1B683D
:100C0000D90622D59642D6BFBA1AB51A95192A46E0
:100C1000494603A805F026F91421322003AA01F061
:100C200007F8236851461A6803A8C2F3001205F0BA
:100C300019F914210A2003AA00F0FAFF2368AB4433
:100C40005E6A01F025FB0346CCE79642AABFBD1BB6
:100C5000951BAD18DBE7236800224FF4805146480E
:100C60005F6A01F0B7FF01222021404601F0B2FF88
:100C700040F2DC522B684FF0000BDA6301F008FB06
:100C80004FF4027302464FF6FF797343DFF8F4A086
:100C90000093009B9B45BFF4D9AE019201F0F8FA96
:100CA000019A801A3228F4D92268556A1268D3064C
:100CB00024D5AF421EDD7D1B2A46514603A805F010
:100CC000D1F81421322003AA00F0B2FF22682B4988
:100CD000126803A8C2F3001205F0C4F814210A2018
:100CE00003AA00F0A5FF2268AB44576A01F0D0FACE
:100CF0000246CEE7A9EB05053D44DDE7AF4201DA48
:100D0000ED1BD9E7A9EB0707F6E7642003F022FC07
:100D100000224FF48051184801F05CFF0122404648
:100D2000202101F057FF40F2DC522C202B68704349
:100D3000DA6390E6642003F00DFC00224FF480514A
:100D40000D4801F047FF01222021404601F042FFFB
:100D50004FF4C87225202B687043DA6303F0FAFB66
:100D60005522074B64201B681A6400222B68DA6343
:100D700071E62A68D363C3E50018014023680008C0
:100D80008C1B00201C6800082DE9F04F0C21BB488B
:100D900089B002F0E5FF3C21B94802F052FB012581
:100DA000B84805F01BF84FF47A7647F6171390FB16
:100DB000F6F7984206FB1706B04C41DC42F20F737F
:100DC00098420ADC002F00F075824C22AE4B1B6863
:100DD0001A64002223681A64E2E70A3FDFF8A89247
:100DE000142FF2D801A353F827F000BFC70E000854
:100DF000A30F0008A1100008CB0D0008CB0D0008C0
:100E0000CB0D0008CB0D0008CB0D0008CB0D000862
:100E1000CB0D0008671100082F1200086D120008A2
:100E2000CB0D0008CB0D0008CB0D0008CB0D000842
:100E3000CB0D0008CB0D0008CB0D0008770E000885
:100E4000282FC2D14A22904B4FF400411B688F4893
:100E50001A64012201F0BEFE00224FF400618B48AB
:100E600001F0B8FE03258A4E32782368182A23D869
:100E7000013DF9D117E04A22D9F800304FF4004182
:100E80001A648248012201F0A5FE00224FF400619D
:100E90007E4801F09FFE03257D4E32782368222A8A
:100EA00003D8013DF9D11D6479E74FF42F62322058
:100EB0001A6403F04FFBF0E74FF42F6232201A64FC
:100EC00003F048FBD0E74A226D4D4FF400412B68F8
:100ED0006E485F6AD9F800304FF0000B1A640122A7
:100EE00001F078FE00224FF40061684801F072FEC4
:100EF0004FF42F622368A8461A6401F0C9F94FF431
:100F0000027302464FF6FF797343DFF890A1009316
:100F1000009B9B450AD300222368012E1A647FF4AC
:100F20003EAF4FF47A7003F015FB38E7019201F001
:100F3000AFF9019A801A3228EAD9D8F80020556A08
:100F40001268D30626D5AF4220DD7D1B2A465146C6
:100F500003A804F087FF1E21322003AA00F068FED8
:100F6000D8F800204B49126803A8C2F3001204F01D
:100F700079FF1E210A2003AA00F05AFED8F80020AB
:100F8000AB44576A01F084F90246C1E7A9EB0505B5
:100F90003D44DBE7AF4201DAED1BD7E7A9EB0707DA
:100FA000F6E75D210122D9F80030354F19643A4D3A
:100FB0003B684FF4004135485E6A2A7001F00AFE32
:100FC00000224FF40061314801F004FE4FF44872F2
:100FD00023684FF000081A6401F05AF94FF6FF79C0
:100FE0000246DFF8B8A000950AF10F0BB8F5C37FF1
:100FF00007D30025009A23681278002A39D11A6491
:10100000CDE6019201F044F9019A801A3228EDD917
:101010003A68556A1268D00624D5AE421EDD751BAB
:101020002A46514603A804F01DFF1E21322003AAC0
:1010300000F0FEFD3A685946126803A8C2F3001298
:1010400004F010FF1E210A2003AA00F0F1FD3A6807
:10105000A844566A01F01CF90246C7E7A9EB05054A
:101060003544DDE7AE4201DAAD1BD9E7A9EB060650
:10107000F6E71D64642003F06DFABBE7C019002099
:10108000C41A0020291C00208C1B0020000C0140E9
:10109000B81900202B680008A10000201C68000877
:1010A0003A22D9F800308F4E1A64336801224FF487
:1010B00000418D485D6A01F08DFD00224FF4006112
:1010C000894801F087FD40F6C41223684FF0000AFA
:1010D0001A6401F0DDF840F65B280346834F07F100
:1010E0000F09C24502D90022236888E7009301F066
:1010F000CFF8009BC01A3228F3D933685A6A1B68AC
:10110000D90627D595421FDDA5EB020B5A46394675
:1011100003A804F0A7FE1E21322003AA00F088FDD8
:10112000336849461A6803A8C2F3001204F09AFE15
:101130001E210A2003AA00F07BFD3368DA445D6AB1
:1011400001F0A6F80346CCE7C2F57F42FF3205EB7B
:10115000020BDBE7954202DAA2EB050BD6E7C5F5F9
:101160007F45FF35F3E74A225E4D4FF400412B687F
:101170005D485F6AD9F800304FF0000B1A64002216
:1011800001F028FD01224FF40061574801F022FDD3
:101190004FF496622368A8461A6401F079F84FF478
:1011A000027302464FF6FF797343DFF840A10093C4
:1011B000009B9B45BFF4AFAE019201F069F8019A24
:1011C000801A3228F4D9D8F80020556A1268D3065C
:1011D00026D5AF4220DD7D1B2A46514603A804F0E8
:1011E00041FE1E21322003AA00F022FDD8F8002083
:1011F0003F49126803A8C2F3001204F033FE1E2117
:101200000A2003AA00F014FDD8F80020AB44576A66
:1012100001F03EF80246CBE7A9EB05053D44DBE7CC
:10122000AF4201DAED1BD7E7A9EB0707F6E75D222E
:10123000D9F8003064201A6403F08CF900224FF4CE
:101240000041294801F0C6FC01224FF40061264804
:1012500001F0C0FC4FF4C8722B20236870431A645D
:1012600003F078F94A22D9F80030C8E63A22D9F8D2
:10127000003064201A6403F06DF900224FF400413D
:10128000194801F0A7FC01224FF40061164801F053
:10129000A1FC40F2DC522620236870431A6403F05C
:1012A00059F95522D9F8003064201A6400222368C5
:1012B0001A6438E623681F64002D3FF471AD4D2297
:1012C0000C4B0D491B680D481A640D4A04F0CAFD09
:1012D0004FF6FF73052209490A4802F0BFFE3D465A
:1012E0005EE500BFC41A0020000C01401C68000825
:1012F0002B6800088C1B002018680008241C0020A4
:101300003E680008501A00200022034B1B685A62F6
:101310005A6A8242FCD37047DC1B002000000000A8
:1013200070B5037F0446042B13D1274E337835461E
:1013300083B9082102F0E0F8244B186001233370D0
:1013400023681A6A22F400721A621A6A42F400725E
:101350001A6270BD012BFCD1082102F0CDF81C4BA4
:101360002468186000236362184B1A4A1B6898426D
:1013700020D9C31A13601068FFF7C6F910A3D3E988
:101380000023FEF755FF0022134BFEF751FFFFF736
:1013900035FA124B187000232B70236A23F4007364
:1013A0002362236A23620E4B1A68D36823F0020378
:1013B000D360CEE7DFD2C3F57F43FF330344D9E7E1
:1013C0009CC420B07268A13FA000002098000020BB
:1013D0009C000020900000200000E03F94000020CE
:1013E000DC1B002010B50B4C01224FF400512046AD
:1013F00001F0F0FB0A20FFF787FF00224FF40051B5
:10140000204601F0E7FB044B1A68D36843F002035F
:10141000D36010BD00140140DC1B002070B51B4CD4
:1014200086B03C21204602F00CF82368184C3C2181
:1014300020465B6A02F005F82368164E5B6A00F0EE
:1014400027FF0821144802F08DFC144C144D20464F
:1014500001F0A0F84FF0FF31204600F031FF2046A8
:1014600000F0DAFFFFF7BEFF32780E4901A82A70BC
:1014700004F0F8FC322101AA462000F0D9FB32200A
:1014800003F068F8012003F065F8E0E7C41A0020D3
:10149000081A002094000020DC1B0020541B0020B0
:1014A000B81900203368000810B596B02422002136
:1014B0000DA804F0CFFC1422002101A804F0CAFCFE
:1014C000182200210DEB020004F0C4FC02240122CA
:1014D00010230CA8CDE910230C9401F095FB0146D4
:1014E00008B172B6FEE70F23CDE90300CDE9013064
:1014F000059001A801F05EFD08B172B6FEE7089004
:1015000006A8069401F012FE08B172B6FEE716B006
:1015100010BD000080B59CB000F09CFEFFF7C4FF3A
:101520001022002113A804F095FCA94B4FF4AF51F1
:101530009A69A84842F040029A619A69002502F02F
:1015400040020192019A9A69012442F010029A61C4
:101550009A694FF0020902F010020292029A9A6907
:10156000032642F004029A619A694FF0200802F0C3
:1015700004020392039A9A694FF4805742F00802DA
:101580009A619A6902F008020492049A9A6942F0F8
:1015900020029A619B69002203F020030593059BBA
:1015A00001F018FB00223C218B4801F013FB0022C4
:1015B00020218A4801F00EFB00224FF408418848A0
:1015C00001F008FB00224FF40051864801F002FBB5
:1015D0004FF4BC637F4813A9CDE91334CDE9155905
:1015E00001F00EFA3C237C4813A9CDE9133416967A
:1015F000159501F005FA794813A9CDE91384CDE9D1
:10160000155601F0FDF9734813A9CDE91374CDE91E
:10161000155601F0F5F94FF40843CDE915564FF48E
:1016200000566F4813A9CDE9133401F0E9F96D486C
:1016300013A9CDE91364CDE9155901F0E1F91022A0
:1016400029460DEB080004F005FC1C2229460CA8D5
:10165000CDE9065504F0FEFB4246294613A804F0E6
:10166000F9FB614C614B2046C4E9003541F61F434C
:10167000C4E90555C4E90335A56002F045F808B191
:1016800072B6FEE7204608A9089702F069FA08B189
:1016900072B6FEE7204602F063F808B172B6FEE7C4
:1016A000CDE9060006A9204602F0D4FB024608B1A7
:1016B00072B6FEE76023CDE90E00CDE90C30CDE92E
:1016C000100012900CA9204602F02EF908B172B653
:1016D000FEE7042220460CA902F026F908B172B6F2
:1016E000FEE7082220460CA902F01EF908B172B6E6
:1016F000FEE70C2220460CA902F016F908B172B6DA
:10170000FEE7CDE91300CDE91500CDE917061A90E3
:1017100013A9204602F0D4FB044608B172B6FEE7D6
:101720000146CDE90C00102213A804F093FB4FF002
:10173000804507232E48C0E900534FF6FE738460AE
:10174000C0E90334846102F037F808B172B6FEE7ED
:10175000002327480CA9CDE90C3302F07BFB08B12C
:1017600072B6FEE701251390CDE9145016900822B9
:101770001F4813A902F066F908B172B6FEE71D4CC6
:101780001D4BCDE90C00C4E9003041F61F43C4E90C
:1017900003300323CDE913300A23CDE91550CDE9F9
:1017A0001730CDE91950A060A06113A920461B9302
:1017B00002F02EF808B172B6FEE7CDE90C000CA9D4
:1017C000204602F047FB0546C0B172B6FEE700BFF7
:1017D00000100240001801400008014000100140C4
:1017E000000C014000140140C019002000340140E9
:1017F000DC1B00200C1B00200004004001461022CE
:1018000008A804F027FB1C2229460CA8CDE90655A0
:1018100004F020FB2946202213A804F01BFBA02380
:10182000864C87492046C4E900134FF47A73C4E913
:1018300003358023A5606561A36101F065FF08B1F0
:1018400072B6FEE74FF48053204608A9089302F0D1
:1018500087F908B172B6FEE7204601F081FF08B1B2
:1018600072B6FEE7CDE9060006A9204602F0F2FABC
:1018700008B172B6FEE76023CDE91000CDE90C3067
:101880000E9012900C2220460CA902F04DF808B1DF
:1018900072B6FEE74FF40053CDE91300CDE9150011
:1018A00017901A9013A92046189302F009FB08B16B
:1018B00072B6FEE7614800F0C5FB4FF4E1336148C2
:1018C000614A0C24C0E900230023C0E90233C0E9C7
:1018D00005430361C36102F093FB08B172B6FEE7F2
:1018E00001254FF00A094FF6FF780327574E584B52
:1018F000CDE90C00C6E90030C6E90380CDE91370DC
:10190000CDE91550CDE91790CDE91950B060B0611F
:1019100013A93046CDF86C9001F07AFF08B172B689
:10192000FEE7CDE90C000CA9304602F093FA08B1AD
:1019300072B6FEE7474E484BCDE90C00C6E90030D1
:10194000C6E90208CDE91370CDE91550CDE917902D
:10195000CDE919503061B06113A93046CDF86C90D3
:1019600001F056FF08B172B6FEE7CDE90C000CA9F4
:10197000304602F06FFA08B172B6FEE74FF4602706
:10198000364E374BCDE913001590B060307330758B
:10199000706030463360F761356100F083FE08B156
:1019A00072B6FEE70B23159013A93046CDE9133527
:1019B00000F036FD08B172B6FEE72A4E2A4BCDE99B
:1019C00013001590B060307330757060304633602E
:1019D000F761356100F066FE08B172B6FEE715905A
:1019E00013A93046CDE9134500F01AFD044608B1AD
:1019F00072B6FEE700F03CF902F014FD21461B4AE6
:101A00001B4802F04BFD1B4B214618601A4A1B482D
:101A100002F044FD1A4B214618601A4A1A4802F097
:101A20003DFD1A4B21461860194A1A4802F036FD4E
:101A3000194B186002F012FDFEE700BF8C1B00205E
:101A4000002C0140501A002000480040081A0020D5
:101A500000080040C41A0020000C0040541B002065
:101A600000240140941A002000280140E468000886
:101A70003D080008BC1900209C680008890D00087A
:101A8000841B002078680008E5080008881B0020F7
:101A9000C06800081D140008B41900207047000039
:101AA00070B50A46044601B101224FF48071124814
:101AB00001F090F80825104E00222021304601F058
:101AC00089F823064CBF012200224021304601F054
:101AD00081F8013D01222021304601F07BF86400AD
:101AE00015F0FF05E4B2E7D1BDE8704001224FF4E4
:101AF0008071014801F06EB80018014070B5B02443
:101B00000E4E00212046FFF7CBFF00210846FFF7CD
:101B1000C7FF00211020FFF7C3FF002516F835008E
:101B200001210135FFF7BCFF802DF7D10134E4B26C
:101B3000B82C06F10106E4D170BD00BF2E1C0020B8
:101B4000082300200749002201F832000132802AD0
:101B5000FAD1013B13F0FF0301F10101F3D1FFF7CB
:101B6000CDBF00BF2E1C0020030630B513D43F2983
:101B700011D8012301F00705094CC908C1F107017B
:101B8000C5F10705C9B204EBC00003FA05F5435CD3
:101B900012B12B43435430BD23EA0503FAE700BFDB
:101BA0002E1C00202DE9F74FA2F1200598461E4B70
:101BB000EDB203EB051300930C23824689460C46D5
:101BC00000271A4A9DF830B003FB05230193B8455E
:101BD00002D103B0BDE8F08FB8F10C0F0CBF019B30
:101BE000009BDE5D04F10803DDB2330658BFBBFA8B
:101BF0008BF2214604F101044CBF5A46520950466B
:101C0000E4B2FFF7B1FFA4EB090276004245F6B259
:101C100007D14D460AF101005FFA80FA2C460137E0
:101C2000D5E7A542E1D1F9E77C6D00080869000815
:101C3000F7B504460D460127561E16F8013F0BB9AD
:101C400003B0F0BD7A2C82BF1035EDB200243A2DDE
:101C500003D90025FFF774FF2C46009720460C237C
:101C6000294632780834FFF79DFFE4B2E5E700002B
:101C700010B500F0BDFF404B404C1A6A22F0010243
:101C80001A621A6A22F004021A6200F0B7FF0022F8
:101C90008021204600F09EFF642000F0FFFA012220
:101CA0002046802100F096FF0021AE20FFF7F8FECD
:101CB0000021D520FFF7F4FE00215020FFF7F0FEB1
:101CC0000021A820FFF7ECFE00213F20FFF7E8FEEF
:101CD0000021D320FFF7E4FE00210846FFF7E0FED5
:101CE00000214020FFF7DCFE00218D20FFF7D8FE09
:101CF00000211420FFF7D4FE00212020FFF7D0FEA2
:101D000000210220FFF7CCFE0021A120FFF7C8FE32
:101D10000021C020FFF7C4FE0021DA20FFF7C0FE3B
:101D200000211220FFF7BCFE00218120FFF7B8FE42
:101D30000021EF20FFF7B4FE0021D920FFF7B0FE0D
:101D40000021F120FFF7ACFE0021DB20FFF7A8FE09
:101D500000213020FFF7A4FE0021A420FFF7A0FE01
:101D60000021A620FFF79CFE0021AF20FFF798FE80
:101D7000BDE81040FFF7E4BE00100240001801402B
:101D8000114B07B59A690F2142F001029A619A69D5
:101D90006FF0010002F001020092009ADA6942F04D
:101DA0008052DA61DB69002203F080530193019BCA
:101DB00000F014FD054A536823F0E06343F000731C
:101DC000536003B05DF804FB0010024000000140C6
:101DD000102210B5044688B00DEB0200002104F07B
:101DE00039F823681B4A93421CD11B4B9A6942F471
:101DF00000729A619A6902F400720092009A9A69DC
:101E000042F010029A619B6903F010030193019B59
:101E1000022304930323114804A9059300F0F0FD65
:101E200008B010BD0E4A9342FAD10B4B9A6942F4A6
:101E300080629A619A6902F480620292029A9A69B7
:101E400042F010029A619B6903F010030393039B15
:101E50000423DEE70024014000100240001001408E
:101E600000280140102210B5044688B00DEB020096
:101E7000002103F0EFFF2368174A93420BD1174B61
:101E80009A6942F400629A619B6903F400630193CA
:101E9000019B08B010BD124A9342FAD10F4B114872
:101EA0009A6904A942F400529A619A6902F40052B4
:101EB0000292029A9A6942F010029A619B694FF469
:101EC000707203F010030393039B0223CDE90423F4
:101ED000079300F095FDDCE7002C01400010024064
:101EE000003401400010014010B5044686B01022B5
:101EF000002102A803F0AEFF2368B3F1804F2ED17A
:101F000003F50433DA69002442F00102DA61DA6988
:101F1000144802F001020092009A9A6902A942F064
:101F200008029A619B69049403F008030193019BE2
:101F30004FF48063CDE9023400F062FD0A4A1C20B0
:101F40005368052123F4407343F0E06343F40073C6
:101F50005360224600F042FC1C2000F071FC06B0E9
:101F600010BD00BF000C01400000014010B5044648
:101F70008AB01022002106A803F06CFF23682B4AC8
:101F800093421AD12A4BDA6942F00202DA61DA6925
:101F900002F002020092009A9A6942F004029A61E9
:101FA0009B6903F004030193019BC0230693002364
:101FB0002048CDE9073306A91CE01F4A93421DD1F2
:101FC0001B4B1E48DA6906A942F00402DA61DA699D
:101FD00002F004020292029A9A6942F008029A619F
:101FE0009B69C02203F008030393039B0023CDE900
:101FF0000623089300F004FD0AB010BD104A934276
:10200000FAD10B4BDA6942F00802DA61DA6902F0C0
:1020100008020492049A9A6942F004029A619B6948
:1020200003F004030593059B0323BFE7000400406E
:10203000001002400008014000080040000C014070
:10204000000C004010B5044686B01022002102A802
:1020500003F000FF2268104B9A421BD103F5644342
:102060009A690E4842F040029A619B694FF480429F
:1020700003F040030193019B022302A9CDE902234F
:10208000059300F0BDFC064A536843F0E06343F05B
:10209000C003536006B010BD002C01400018014081
:1020A0000000014010B5044686B01022002102A8AD
:1020B00003F0D0FE22681F4B9A4239D103F5E43376
:1020C000DA691D4842F48022DA61DA6902A902F471
:1020D00080220092009A9A69002442F010029A61CC
:1020E0009B694FF4806203F010030193019B02236C
:1020F000CDE902230323059300F082FC4FF4006333
:102100000D4802A9CDE90234049400F079FC0B4A91
:1021100027205368052123F0300343F0E06343F0A8
:1021200010035360224600F059FB272000F088FB83
:1021300006B010BD00480040001001400000014002
:10214000FEE7FEE7FEE7FEE7FEE7704708B500F0B2
:1021500093F803F0BDF9012803D0BDE8084003F06F
:10216000A1BC08BD014801F0E1B900BFDC1B0020A3
:10217000014802F025B800BF501A00200B4B024660
:10218000196810B509B90A491960186809490A4C53
:102190000244091B8A4206D903F024FE0C23036083
:1021A0004FF0FF3010BD1A60FCE700BFA400002014
:1021B000882000200000012000040000704700007B
:1021C0000C480D490D4A002302E0D458C450043392
:1021D000C4188C42F9D30A4A0A4C002301E0136068
:1021E0000432A242FBD3FFF7E9FF03F001FEFFF741
:1021F00091F970470000002074000020E47400088A
:102200007400002084200020FEE7000038B50E4B4B
:10221000054618784FF47A73B3FBF0F30B4A106855
:10222000B0FBF3F000F01AFB044658B90F2D09D8A3
:10223000024629464FF0FF3000F0D0FA2046044B0A
:102240001D6038BD0120FCE70400002000000020D4
:1022500008000020074A08B51368032043F0100364
:10226000136000F0A9FA0F20FFF7D0FFFFF788FDF9
:10227000002008BD00200240034A044B11681B786F
:102280000B441360704700BF302000200400002082
:10229000014B1868704700BF3020002038B5044655
:1022A000FFF7F6FF0546631C1EBF044B1B78E418BE
:1022B000FFF7EEFF431BA342FAD338BD0400002012
:1022C000F7B5002504460E460195FFF7E1FF2368A8
:1022D00007469A68D20508D50120A36A84F82450DD
:1022E00043F02003A36203B0F0BD5A68D50503D4C0
:1022F000DB6A13F4700F40D0414B02201D6800F0E0
:102300008DFF22683F4B1169B5FBF0F519423E4B3A
:1023100054D1D0683D49084250D1116919425ED16B
:10232000D26803F16E431A4214BF292314235D437C
:10233000019BAB4225D2721C5CD0002E55D1019B73
:10234000AB4257D2A36A43F00403A36200230BE01D
:10235000701C13D066B923681B6813F002030CD1FC
:10236000A26A42F00402A262032084F82430BAE791
:10237000FFF78EFFC01BB042EDD8226813689907A3
:10238000E6D56FF0120322681360A36A43F400736A
:10239000A362936803F46023B3F5602F2ED1207BF2
:1023A00000282BD1A36A23F48073A362A36ADB0401
:1023B00024D4A36A43F00103A36294E7116919428C
:1023C00003D1D168124B19420BD01169114B19423C
:1023D00009D1D2681A4214BFFC235423A7E729234A
:1023E000A5E75423A3E7FC23A1E7FFF751FFC01B98
:1023F000B042A4D8019B0133019399E7002072E712
:102400000000002024499224922449122449920079
:1024100092244900499224000368D86C7047000058
:10242000002373B5019390F824300446012B6CD03F
:10243000012380F824304D680268062D086805EBFA
:10244000850322D81F26556B053B9E4025EA0605CD
:1024500000FA03F32B43536309288B6800EB400514
:102460004FF0070129D9D6681E3DA94026EA01018F
:10247000AB400B43D360A0F11003012B25D9002002
:10248000002384F8243002B070BD0C2D4FF01F05DE
:1024900009D8166B233B9D4026EA050500FA03F395
:1024A0002B431363D8E7D66A413B9D4026EA0505D6
:1024B00000FA03F32B43D362CEE71069A94020EA68
:1024C0000101AB400B431361D9E7114B9A4216D17E
:1024D00093681B02D3D49368102843F400039360DD
:1024E000CDD10C4B0C4A1B68B3FBF2F20A235343C9
:1024F0000193019B002BC2D0019B013BF8E7A36A2B
:10250000012043F02003A362BAE70220BBE700BF2B
:10251000002401400000002040420F00002337B596
:102520000193036804469A68D20702D5002003B0DD
:1025300030BD9A6842F001029A60144B144A1B683D
:10254000B3FBF2F30193019BE3B9FFF7A1FE05464C
:1025500023689B68DB07E9D4FFF79AFE401B02283B
:10256000F6D923689B6813F00103F1D1A26A012018
:1025700042F01002A262E26A84F8243042F00102C2
:10258000E262D4E7019B013BDCE700BF00000020D2
:1025900040420F0010B590F824300446012B54D06F
:1025A000012380F82430FFF7B9FF002849D1A36A3E
:1025B000274A23F4407323F0010343F48073A3629A
:1025C0002368934204D123494A6812F4702F2ED114
:1025D000A26A22F48012A2625A68520541BFA26A1E
:1025E00022F4405242F48052A262A26A12F4805253
:1025F0001CBFE26A22F00602E262002284F8242074
:102600006FF002021A609A6802F46022B2F5602F3D
:1026100013D10F4A934205D1A2F58062526812F499
:10262000702F0AD19A6842F4A0029A6010BDA26A83
:1026300042F48012A2624A68CFE79A6842F480129C
:10264000F3E7002384F82430F0E70220EEE700BF30
:10265000002801400024014038B5036804469A6808
:10266000D10701D4002038BD9A6822F001029A6097
:10267000FFF70EFE054623689B68DB07F2D5FFF7E0
:1026800007FE401B0228F6D923689B68DA07F2D5BB
:10269000A36A012043F01003A362E36A43F001033D
:1026A000E362E0E7F8B50446002877D0836A23B9EF
:1026B000C36280F82430FFF78BFB2046FFF7CCFF86
:1026C000A36A13F010036BD1002869D1A26A374EB8
:1026D00022F4885222F0020242F00202A262D4E9FD
:1026E0000021B242E56904D1B5F5402F08BF4FF48F
:1026F0000025267B41EA46012943A568B5F5807F80
:1027000037D0012D0CBF4FF4807C4FF0000C277D9B
:10271000012F06D17EBBA769013F4CEA473646F43C
:10272000006C5668B5F5807F26F4694646EA0C06CB
:10273000566097681E4E06EA070646EA010696604E
:1027400001D0012D02D12369013B1B05D56A25F477
:1027500070052B43D3629268164B1340994213D1F4
:102760000023E362A36A23F0030343F00103A3629F
:10277000F8BDAC46CBE7A66A46F02006A662E66A3C
:1027800046F00106E662CCE7A36A23F0120343F0A9
:102790001003A362E36A43F00103E3620120E7E769
:1027A000A36A43F01003A362F8E700BF003C0140B6
:1027B000FDF7E1FFFE0E1FFF07490302CA6803F49D
:1027C000E06322F4E0621204120C134343F0BF638F
:1027D00043F40033CB60704700ED00E0164B30B59A
:1027E000DC68C4F30224C4F10703251D042B28BFB1
:1027F0000423062D4FF0FF3598BF002405FA03F39C
:1028000088BF033C21EA0303A34005FA04F422EA4B
:102810000402002843EA0203ACBF00F16040074A0B
:102820004FEA0313DBB2ABBF00F5614000F00F00CD
:1028300080F80033135430BD00ED00E014ED00E0EB
:10284000002808DB0123420900F01F0003FA00F012
:10285000014B43F82200704700E100E00138B0F17D
:10286000807F0AD2F021064B064A586082F8231076
:102870000020072298601A6070470120704700BF4F
:1028800010E000E000ED00E090F82130022B06D0CF
:1028900004238363002380F82030012070470368FD
:1028A0001A6822F00E021A601A6822F001021A60F9
:1028B0000123D0E90F218B4053604FF480730384D0
:1028C0000020704708B590F82130022B03D0042374
:1028D0008363012008BD036843491A6822F00E0291
:1028E0001A601A6822F001021A60404A934241D9E4
:1028F0008B4238D014318B4237D014318B4236D0D2
:1029000014318B4223D014318B4223D014318B42AB
:1029100023D0934224D002F56272934223D0143222
:10292000934222D01432934221D01432934214BFE6
:102930004FF480334FF480532D4A53604FF480732B
:102940000384436B002B4DD098470020C2E74FF41F
:102950008053F1E74FF48033EEE74FF48013EBE759
:102960004FF08073E8E70123E6E71023E4E74FF434
:102970008073E1E78B422ED01E498B422DD014315B
:102980008B422CD014318B4219D014318B4219D088
:1029900014318B4219D093421AD0174A93421AD05D
:1029A0001432934219D01432934218D01432934205
:1029B00014BF4FF480334FF48053104ABDE74FF4F7
:1029C0008053FAE74FF48033F7E74FF48013F4E7CE
:1029D0004FF08073F1E70123EFE71023EDE74FF4A9
:1029E0008073EAE7184675E708000240800002405D
:1029F000000402401C0002400804024000000240A3
:102A00002DE9F74F002216466B4F6C4BDFF8B4C12F
:102A1000DFF8B4E10C6834FA06F502D103B0BDE882
:102A2000F08F4FF0010808FA06F804EA080538EAC2
:102A3000040440F082804C68032C07D8013C022C2F
:102A400000F28D80DFE804F09EA3A900122C00F0B4
:102A5000A18074D8112C00F09780FF2D98BF82467A
:102A60004FF00F0988BF00F1040A4FEA8604DAF834
:102A7000008088BF203C09FA04FB28EA0B0802FA10
:102A800004F448EA0404CAF80040D1F804A01AF09B
:102A9000805F52D0BC6926F0030844F00104BC6199
:102AA000BC6908F1804804F00104019408F58038FD
:102AB00006F0030B019C4FEA8B0BD8F8084009FA8B
:102AC0000BF924EA09093E4CA0426AD004F580645F
:102AD000A04268D004F58064A04266D004F580640A
:102AE000A04264D004F58064A04262D060450CBF6F
:102AF0000524062404FA0BF444EA0904C8F8084043
:102B00001C681AF4803F14BF2C43AC431C605C6803
:102B10001AF4003F14BF2C43AC435C609C681AF469
:102B2000801F14BF2C43AC439C60DC681AF4001F68
:102B300014BF254324EA0505DD6001366AE77445C4
:102B40000DD018D8DFF884904C4508D009F57029CD
:102B50004C4504D0A9F580194C457FF47EAF8A68B6
:102B6000EAB1012A08BFC0F810804FF0080218BF70
:102B7000C0F8148071E7DFF858904C45EFD009F5A4
:102B80008039E9E7CA6868E7CA68043265E7CA6855
:102B9000083262E7CA680C325FE700225DE7042270
:102BA0005BE70024A6E70124A4E70224A2E70324AC
:102BB000A0E704249EE700BF00100240000401408B
:102BC00000080140001C014000002210000012100B
:102BD000000031100AB1016170470904FBE7C368C6
:102BE00001EA030221EA030141EA0241016170475F
:102BF0000122014B1A60704720000E420022014B57
:102C00001A60704720000E422DE9F341054638B3A3
:102C10000368DB0710D42B689F075ED42B68190765
:102C200000F195802B685A0700F1BF80E869002801
:102C300040F02C81002029E08F4C636803F00C03E6
:102C4000042B07D0636803F00C03082B0AD16368D8
:102C5000DE0307D523689C03DDD56B68002BDAD132
:102C6000012013E06B68B3F5803F12D1236843F471
:102C700080332360FFF70CFB064623689803CAD411
:102C8000FFF706FB801B6428F7D9032002B0BDE8DC
:102C9000F0819BB9236823F480332360236823F4F5
:102CA00080232360FFF7F4FA064623689903B2D520
:102CB000FFF7EEFA801B6428F7D9E6E7B3F5A02FFB
:102CC000236803D143F480232360CFE723F48033C8
:102CD0002360236823F48023CBE7674C636813F0F9
:102CE0000C0F07D0636803F00C03082B10D1636846
:102CF000DA030DD423689B0702D52B69012BAFD1D2
:102D000023686A6923F0F80343EAC203236085E776
:102D10002A695A4B6AB101221A60FFF7B9FA0646CE
:102D200023689F07ECD4FFF7B3FA801B0228F7D97A
:102D3000ABE71A60FFF7ACFA0646236898077FF501
:102D40006DAFFFF7A5FA801B0228F6D99DE7AA69A7
:102D5000494E4B4BDAB101221A60FFF799FA04464B
:102D6000736A9B070DD54FF4FA52464B1B68B3FBB1
:102D7000F2F3019300BF019B5A1E0192002BF9D17F
:102D800050E7FFF785FA001B0228E9D97DE71A60B2
:102D9000FFF77EFA0446736A9F077FF543AFFFF79C
:102DA00077FA001B0228F6D96FE7334CE369D800A5
:102DB00024D40127E36943F08053E361E36903F01E
:102DC00080530093009B304E3368D90518D5EB68CB
:102DD000012B26D1236A43F001032362FFF758FA3F
:102DE00041F288380646236A9B073FD5002F3FF4FF
:102DF0001DAFE36923F08053E36117E70027E2E7A3
:102E0000336843F480733360FFF742FA80463368D7
:102E1000DA05DCD4FFF73CFAA0EB08006428F6D909
:102E200033E7ABB9236A41F2883823F00103236208
:102E3000236A23F004032362FFF72AFA0646236A73
:102E40009807D3D5FFF724FA801B4045F7D91CE734
:102E5000052B236A03D143F004032362BAE723F06E
:102E600001032362236A23F00403B6E7FFF710FA95
:102E7000801B4045B7D908E70010024000004242DD
:102E80008004424200000020007000402A4B5A6833
:102E90001C4602F00C02082A3DD00023274E0228CF
:102EA00033602BD1FFF7F4F90746236899011FD44B
:102EB0002B6AB3F5803F05D16268A96822F400321D
:102EC0000A436260696A62680B4322F47412134316
:102ED000636001233360FFF7DBF9054623689A013D
:102EE0003FF5A8AEFFF7D4F9401B0228F6D9CCE68F
:102EF000FFF7CEF9C01B0228D7D9C6E6FFF7C8F9FD
:102F0000054623689B017FF595AEFFF7C1F9401B8D
:102F10000228F6D9B9E601283FF4B8AE5B682A6A00
:102F200003F4803191427FF49BAE6A6A03F470131C
:102F300093423FF47FAE93E60010024060004242AD
:102F400030B5184B87B002AC03F110052246186863
:102F50005968083303C2AB421446F7D140F201234B
:102F60001149ADF804304B6803F00C02082A17D160
:102F7000C3F3834206A80244DB0312F8102C0CD5DD
:102F80004B680A48C3F34043504306AA134413F85E
:102F9000143CB0FBF3F007B030BD05485043FAE7EE
:102FA0000248F8E7847300080010024000127A001B
:102FB00000093D002DE9F0410D46044610B90120FD
:102FC000BDE8F081444A136803F007038B4228D31D
:102FD00021688E0730D4CA0743D43F4A136803F0F0
:102FE0000703AB4265D822683C4D12F0040F6CD148
:102FF000130706D56B68226923F4605343EAC203C2
:103000006B60FFF79DFF6B68354AC3F30313D35C16
:10301000D840344B1860344B1868FFF7F7F800209D
:10302000CEE7136823F007030B431360136803F024
:1030300007038B42C3D1CBE7284B11F0040F1EBF0F
:103040005A6842F4E0625A60080742BF5A6842F484
:1030500060525A605A68A06822F0F00202435A6037
:10306000B9E762681D4E012A33681AD113F4003F94
:10307000A5D0736841F2883823F0030313437360CB
:10308000FFF706F907467368626803F00C03B3EBB9
:10309000820FA2D0FFF7FCF8C01B4045F3D90320F4
:1030A0008EE7022A02D113F0007FE1E713F0020F4E
:1030B000DEE7136823F007032B431360136803F064
:1030C0000703AB427FF47BAF8DE76B68E16823F4C5
:1030D000E0630B436B608BE700200240001002406E
:1030E0006C7300080000002008000020044B054A13
:1030F0005B68C3F30223D35C034A1068D84070476F
:10310000001002407C73000800000020044B054AB8
:103110005B68C3F3C223D35C034A1068D84070478E
:10312000001002407C7300080000002003682DE9B5
:10313000F341D907054620D5354CE369DA0032D48E
:103140000127E36943F08053E361E36903F08053AF
:103150000193019B2F4E3368DB0526D5236A13F4B8
:10316000407336D1236A6A6823F4407313432362A1
:103170001FB1E36923F08053E3612868830706D514
:103180002349AB684A6822F440421A434A6010F06F
:1031900010001BD01E4A69695368002023F4800385
:1031A0000B43536012E00027D4E7336843F4807385
:1031B0003360FFF76DF880463368D805CED4FFF74B
:1031C00067F8A0EB08006428F6D9032002B0BDE838
:1031D000F0816A6802F440729A42C3D001200E4A1C
:1031E000236A1060002023F4407110602162D90727
:1031F000B8D5FFF74DF841F288380646236A9A079A
:10320000B0D4FFF745F8801B4045F7D9DDE700BF94
:10321000001002400070004040044242034670B576
:103220003C4A86B002AD02F110062C461068516887
:10323000083203C4B2422546F7D140F20122082BDE
:10324000ADF804200AD8002B2ED0013B072B5FD805
:10325000DFE803F032505E2D5E5E5E2D102B57D1FD
:103260002D4A5168136813F080731DD0C1F3834356
:10327000C90348BF516806A844BFC1F340410918BB
:10328000034444BF11F8141C244852684CBFB0FBDF
:10329000F1F0234813F8103C520200FB03F303D46F
:1032A00003205B00B3FBF0F3184606B070BD06B018
:1032B000BDE87040FFF744BE40F20231164A136A7F
:1032C0001940B1F5817F20D003F44073B3F5007F3E
:1032D00007D1536A49F6404213F0020318BF134660
:1032E000E2E7B3F5407F13D113684FF2244213F4A1
:1032F0000033F3E7FFF70AFF074B5B68C3F3813343
:1033000001335B00B0FBF3F3CEE74FF40043CBE7B0
:103310000023C9E7847300080010024000127A00FD
:1033200000093D00036A70B523F001030362036ADC
:10333000446882690D6822F073022A438D6823F085
:1033400002032B430E4DA84202D00E4EB04210D1C4
:10335000CE6823F008033343A84223F0040302D0CD
:10336000084DA84205D1D1E9055624F440743543EF
:103370002C43446082614A684263036270BD00BFAF
:10338000002C014000340140036A70B523F48073BF
:103390000362036A4468C2690D6822F073022A431B
:1033A0008D6823F4007343EA0523114DA84203D02E
:1033B00005F50065A84214D1CD6823F4006343EA03
:1033C00005230B4D23F48063A84203D005F5006567
:1033D000A84206D1D1E9055624F44054354344EAC5
:1033E00005144460C2614A68C263036270BD00BFD5
:1033F000002C0140036A30B523F480530362036A52
:103400004468C2690D6822F4E64242EA05228D68EA
:1034100023F4005343EA0533084DA84203D005F5D1
:103420000065A84204D14D6924F4804444EA85141F
:103430004460C2614A680264036230BD002C0140EE
:103440007047034630B590F83E2090F83F0093F85F
:10345000425093F84340D2B2C0B2EDB2E4B2C1B927
:10346000012A45D1012D45D1022283F83E2083F85F
:1034700042201A68116A21F001011162116A41F0BB
:103480000101002011621A68136843F00103136000
:1034900030BD042911D101282AD1012CF8D10222F2
:1034A00083F83F2083F843201A68116A21F0100145
:1034B0001162116A41F01001E3E7012A18D10128D5
:1034C00018D1012DE4D1012CE2D1022283F83E2053
:1034D00083F83F2083F8422083F843201A68116A5A
:1034E00021F001011162116A41F001011162DCE772
:1034F0000120CDE71046CBE7082910D004D841B110
:10350000042909D0002070470C29FBD10368186CEE
:1035100070470368586B70470368986B704703687F
:10352000D86B70477047704770477047036810B595
:103530001A69044691070ED5DA6892070BD56FF029
:1035400002021A61012202779B699B0777D0FDF77F
:10355000E7FE0023237723681A69500710D5DA683D
:1035600051070DD56FF004021A61022222779B6980
:10357000204613F4407F68D0FDF7D2FE0023237766
:1035800023681A6912070FD5DA6810070CD56FF097
:1035900008021A6104222277DB69204699075AD073
:1035A000FDF7BEFE0023237723681A69D20610D5E3
:1035B000DA68D0060DD56FF010021A610822227762
:1035C000DB69204613F4407F4BD0FDF7A9FE0023B2
:1035D000237723681A69D10708D5DA68D20705D599
:1035E0006FF0010220461A61FFF79CFF23681A69F9
:1035F000100608D5DA68110605D56FF0800220465E
:103600001A6100F084FC23681A69520608D5DA684A
:10361000500605D56FF0400220461A61FFF785FF7E
:1036200023681A69910622D5DA6892061FD56FF0D1
:1036300020022046BDE810401A6100F067BCFFF789
:1036400072FF2046FFF770FF83E7FFF76CFF20460D
:10365000FFF76AFF92E7FFF766FF2046FFF764FF78
:10366000A0E7FFF760FF2046FFF75EFFAFE710BD62
:10367000244A0368904212D002F5006290420ED0B4
:10368000B0F1804F0BD0A2F59832904207D002F5EE
:103690008062904203D002F5806290421DD14A6858
:1036A00023F070031343174A904212D002F50062D0
:1036B00090420ED0B0F1804F0BD0A2F598329042DC
:1036C00007D002F58062904203D002F580629042FA
:1036D00003D1CA6823F4407313434A6923F080037B
:1036E000134303608B68C3620B688362054B984287
:1036F00003D003F50063984201D10B6903630123F2
:1037000043617047002C014010B5044630B390F877
:103710003D3003F0FF021BB980F83C20FEF7A2FB0E
:103720000223206884F83D30211DFFF7A1FF01230B
:10373000002084F8463084F83E3084F83F3084F826
:10374000403084F8413084F8423084F8433084F8C3
:10375000443084F8453084F83D3010BD0120FCE74A
:1037600010B5044630B390F83D3003F0FF021BB9AA
:1037700080F83C20FFF764FE0223206884F83D3087
:10378000211DFFF775FF0123002084F8463084F8DF
:103790003E3084F83F3084F8403084F8413084F87B
:1037A000423084F8433084F8443084F8453084F85B
:1037B0003D3010BD0120FCE710B5044630B390F851
:1037C0003D3003F0FF021BB980F83C20FEF78CFB74
:1037D0000223206884F83D30211DFFF749FF0123B3
:1037E000002084F8463084F83E3084F83F3084F876
:1037F000403084F8413084F8423084F8433084F813
:10380000443084F8453084F83D3010BD0120FCE799
:10381000F8B50D46044600284DD090F83D3003F031
:10382000FF021BB980F83C20FEF7A0FB02232146D3
:1038300084F83D3051F8040B836823F4804323F06F
:1038400007038360FFF714FF20682B68866882698E
:10385000A9681E43AB6922F4407222F0030241EAD8
:103860000323134323F47C422B69E9691B0143EAD8
:103870000123E968076A0B43296A22F0FC0243EA44
:1038800001331343696927F022026F68866047EAB3
:1038900001178361174301230762002084F8463033
:1038A00084F83E3084F83F3084F8423084F8433066
:1038B00084F83D30F8BD0120FCE70000036A70B5D4
:1038C00023F010030362036A446882690D6822F4DE
:1038D000E64242EA05228D6823F0200343EA0513FD
:1038E000104DA84203D005F50065A84214D1CD685B
:1038F00023F0800343EA05130A4D23F04003A84256
:1039000003D005F50065A84206D1D1E9055624F497
:103910004064354344EA8504446082614A688263B6
:10392000036270BD002C014038B590F83C3004466D
:10393000012B52D00123082A80F83C303CD006D815
:10394000C2B1042A27D0002084F83C0038BD0C2ADC
:10395000F9D10068FFF74EFD23680969DA6942F47E
:103960000062DA61DA6922F48062DA61DA6942EAD5
:10397000012230E00068FFF7D5FC236809699A69E5
:1039800042F008029A619A6922F004029A619A69E7
:103990000A439A61D7E70068FFF790FF2368096937
:1039A0009A6942F400629A619A6922F480629A618B
:1039B0009A6942EA0122ECE70068FFF7E5FC236818
:1039C0000969DA6942F00802DA61DA6922F0040270
:1039D000DA61DA690A43DA61B5E70220B6E7000086
:1039E00070B5046A164E24F001040462B042846982
:1039F000056A21D006F50066B0421DD0B0F1804FB7
:103A00001AD0A6F59836B04216D006F58066B042B8
:103A100012D006F58066B0420ED044F001021B01C0
:103A2000DBB222F0F0021A4301F00A0125F00A038A
:103A300019438261016270BD24F003042243EEE762
:103A4000002C0140F8B590F83C300446012B0E469E
:103A5000154679D0012380F83C30F368006806C928
:103A600075B9FFF7BDFF2368B1689A6922F00C02AF
:103A70009A619A690A439A61002084F83C00F8BD73
:103A8000042DB66822D1056A090125F010050562EA
:103A90008769D0F820E027F4407C1D034CEA022C13
:103AA0002CF4704CADB22EF0A00E01F0A00145EA4E
:103AB0000C0541EA0E0185610162836923F44063CC
:103AC0008361836943EA06268661D5E7082D056A86
:103AD0001CD125F480750562C769056A27F00307C4
:103AE00017431B010902DBB227F0F00725F400752C
:103AF00001F400711F432943C7610162C36923F0C8
:103B00000C03C361C3691E43C661B5E725F4805544
:103B10000562C569076A25F4407545EA02251B035D
:103B2000090325F470459BB227F4005701F40051B6
:103B30002B433943C3610162C36923F44063C3610A
:103B4000C36943EA0626DFE7022098E710B58468D8
:103B50000A4324F47F4442EA03222243826010BDD8
:103B600070B590F83C300446012B4FF0020027D08E
:103B7000012384F83D00206884F83C30836823F4F6
:103B80007F4323F0770383600B68602B4DD032D8DE
:103B9000402B62D015D8202B03D009D833F0100267
:103BA00008D1826822F07002134343F0070320E03B
:103BB000302BF6D00123002084F83D3084F83C00FF
:103BC00070BD502BF6D14A68CE68016A056A21F0B3
:103BD0000A0125F00105056283690A4323F0F00319
:103BE00043EA061383610262836823F0700343F0A3
:103BF00057038360DEE7702B0CD0B3F5005FD9D19B
:103C0000CB68D1E90121FFF7A1FF2268936843F453
:103C1000804308E0CB68D1E90121FFF797FF2268D4
:103C2000936843F077039360C4E74D68CE68016AF8
:103C300021F0100101628269036A22F4704223F0CC
:103C4000A00343EA051342EA0632826103628368F5
:103C500023F0700343F06703CBE74A68CE68016A3C
:103C6000056A21F00A0125F00105056283690A430E
:103C700023F0F00343EA061383610262836823F0B2
:103C8000700343F04703B4E710B50124036A01F061
:103C90001F018C4023EA04030362036A8A401A432B
:103CA000026210BD10B5044629B990F83E30012BD0
:103CB0001DD0012032E0042907D190F83F30012BBC
:103CC000F7D1022380F83F3014E0082907D190F89B
:103CD0004030012BEDD1022380F840300AE090F80B
:103CE0004130012BE5D1022380F8413002E002236C
:103CF00080F83E3001222068FFF7C6FF2368154A8E
:103D000093420CD014498B4209D0B3F1804F10D1AB
:103D10009A6802F00702062A16D1002010BD596CDD
:103D2000934241F400415964F2D00B4A9342EFD0E0
:103D3000EBE70A4A9342EBD002F580629342E7D068
:103D400002F580629342E3D01A6842F001021A60E1
:103D5000E3E700BF002C01400034014000040040B4
:103D6000FFF7A0BF10B5044600293AD190F83E00F5
:103D700094F84230C0B20128DBB266D1012B65D184
:103D800002232068002942D184F83E3084F8423072
:103D9000C36843F00203C3600122FFF775FF236885
:103DA0002B4A934212D002F5006293420ED0B3F137
:103DB000804F0BD0A2F59832934207D002F5806273
:103DC000934203D002F58062934204D19A6802F0D4
:103DD0000702062A03D01A6842F001021A60002086
:103DE00034E0042905D190F83F0094F84330C0B284
:103DF000C1E708290BBF90F8400094F8410094F8FF
:103E0000443094F845300CBFC0B2C0B2B3E70429C7
:103E100007D184F83F3084F84330C36843F004038B
:103E2000B9E7082907D184F8403084F84430C368E2
:103E300043F00803AFE70C2984F8413084F845309B
:103E4000AAD1C36843F01003A5E7012010BD00BF4D
:103E5000002C014030B590F83C300246012B4FF069
:103E600002002AD0136882F83D005C680D6824F0D7
:103E700070042C4398685C60104CA34212D004F587
:103E80000064A3420ED0B3F1804F0BD0A4F5983458
:103E9000A34207D004F58064A34203D004F58064F4
:103EA000A34204D1496820F08000014399600123B6
:103EB000002082F83D3082F83C0030BD002C0140EB
:103EC00090F83C30012B1FD0CB688A6823F44073F4
:103ED00013434A6823F4806313430A6823F400639E
:103EE00013430A6923F4805313434A6923F40053AC
:103EF0001343CA6923F480431343026853640023C5
:103F000080F83C3018467047022070477047704771
:103F10000368DA6822F49072DA605A6922F00102CA
:103F20005A61026B012A02BFDA6822F01002DA60DD
:103F3000202380F83E3000230363704710B5044609
:103F40000368C1681A6922F440520A431A61826800
:103F50000069D9680243606921F4B05121F00C0175
:103F600002430A43DA605A69A16922F440720A43A3
:103F70005A610E4A934215D1FFF7C8F819234343FB
:103F8000626820689200B3FBF2F36422B3FBF2F1A3
:103F900002FB11331B013233B3FBF2F303EB0113CA
:103FA000836010BDFFF7A2F8E8E700BF00380140CA
:103FB000F8B504460E4617461D462268136836EAD1
:103FC000030301D1002014E06B1CF7D095B92368DE
:103FD0000320DA6822F4D072DA605A6922F0010212
:103FE0005A61202384F83D3084F83E30002384F861
:103FF0003C30F8BDFEF74CF9C01B8542DDD2E6E748
:1040000010B5044640B390F83D3003F0FF021BB9F1
:1040100080F83C20FEF746F82423226884F83D30DF
:10402000D368204623F40053D360FFF787FF23684B
:1040300000201A6922F490421A615A6922F02A0279
:104040005A61DA6842F40052DA602023206484F86E
:104050003D3084F83E3010BD0120FCE72DE9F843E7
:10406000994690F83D300446202B0E46174648D11D
:10407000002944D0002A42D090F83C30012B40D097
:104080000123002580F83C302123056480F83D3071
:10409000FEF7FEF8A3688046B3F5805FA784E78447
:1040A00003D123690BB935461E46002384F83C3002
:1040B000E38C9BB253B94B46424640212046FFF762
:1040C00077FF50B9202384F83D3007E04B46424645
:1040D00080212046FFF76CFF10B10320BDE8F88374
:1040E00022684EB935F8023BC3F308035360E18CF4
:1040F000013989B2E184DBE716F8013BF6E70120DC
:10410000ECE70220EAE77047704708B50023406AF1
:10411000C385C384FFF7F8FF08BD704713B590F857
:104120003E30222B49D18168836AB1F5805F0268F5
:1041300033D10169002933D15268C2F3080223F850
:10414000022BC48D8362013CA4B2C4851CBB0368EE
:10415000DA6822F02002DA60DA6822F48072DA602B
:104160005A6922F001025A61202280F83E20026B37
:10417000012A1FD10463DA6822F01002DA601A689B
:10418000D20605D501941A6801925B680193019BE0
:10419000818DFFF7C2FF002010E039B9016929B90C
:1041A0005268D2B21A70836A0133CAE7526802F0C9
:1041B0007F02F7E7FDF772FCEDE7022002B010BDC9
:1041C000036837B51A68044612F00F0FD9685D69A5
:1041D00008D195065FD58D065DD503B0BDE83040AA
:1041E000FFF79CBF05F0010001F49075054352D024
:1041F000D50705D5CB0542BF236C43F001032364EB
:10420000550704D518B1236C43F0020323649307C8
:1042100004D518B1236C43F004032364150707D5B4
:1042200001F0200303431EBF236C43F00803236403
:10423000236C53B3920604D58B0602D52046FFF7B4
:104240006DFF236820465B69256C03F0400305F091
:1042500008051D431BD0FFF75BFE23685A6955060E
:1042600010D55A69A06B22F040025A6150B1534BED
:104270004363FEF727FB40B1A06B436B03B0BDE87F
:10428000304018472046FFF73FFF03B030BDFFF72F
:104290003BFF2564F9E7206B012855D1D00653D5A3
:1042A000CD0651D5002101911A6801925A680192F8
:1042B000019A5A6912F040022AD0A06B0268526833
:1042C00092B2002AE1D0A58D9542DED9E2858269BD
:1042D000202A15D0DA6822F48072DA605A6922F056
:1042E00001025A615A6922F040025A61202284F880
:1042F0003E202163DA6822F01002DA60FEF7C4FA89
:10430000E38DA18DC91A89B22046FFF706FFBCE7ED
:10431000E18D88B2E18D89B20029B6D0A18D091A4C
:1043200089B20029B1D0D86820F49070D86058695B
:1043300020F001005861202084F83E002263DA68F2
:1043400022F01002DA60DFE7100626D50D0624D52C
:1043500094F83D20212A98D1A168226AB1F5805FA6
:1043600016D12169A1B932F8021BC1F308015960C5
:104370002262E28C013A92B2E284002A85D1DA68A4
:1043800022F08002DA60DA6842F04002DA607CE70C
:10439000511C216212785A60EBE750067FF575AF29
:1043A0004A067FF572AFDA68204622F04002DA60F2
:1043B000202384F83D30FFF7A6FE66E70B41000896
:1043C000C28582858162034622220020186483F818
:1043D0003C0083F83E201B68DA6842F48072DA60A1
:1043E0005A6942F001025A61DA6842F02002DA604A
:1043F000704770B490F83E60202E10D161B15AB170
:1044000090F83C40012C0AD0012480F83C40002464
:10441000046370BCFFF7D4BF012070BC704702205A
:10442000FBE70000EFF3058313B16FF00500704761
:10443000EFF31083002BF8D1074B1868022806D140
:10444000EFF31183002BF0D14FF0FF3070470028BD
:10445000FAD101221A6070470403002010B5EFF36F
:10446000058313B16FF0050010BDEFF31084002C2D
:10447000F8D1094B1A68022A06D1EFF31183002BF9
:10448000F0D14FF0FF30EFE7012AFAD102221A6093
:1044900000F0A0FD2046E7E704030020F0B5144635
:1044A000002287B00B460592EFF3058252BBEFF373
:1044B00010823ABB264A1268022A02D1EFF3118217
:1044C00002BBF8B100228DF81320002C30D02168F7
:1044D00009B90DF11301A569002D08BF18256A1E41
:1044E000372AAC462AD86268D20727D4666966B1F3
:1044F000B208D4E9027E57B1BEF15B0F02D924693C
:1045000004B1EEB9059807B0F0BD8022F1E7BEF125
:10451000000FF7D12469002CF4D105ACCDE900C41B
:1045200092B200F02AFD01281CBF00230593E9E7A1
:104530004FF0180C80220DF11301EEE70020E2E7A6
:10454000CDE90147009500F0E1FC0590DAE700BFF6
:104550000403002008B5EFF3058313B16FF00500E5
:1045600008BDEFF31083002BF8D1074B1B68022B1B
:1045700003D1EFF31183002BF0D10028F0D000F02D
:104580007FFE0020ECE700BF04030020034B036024
:10459000034B0B6080231360704700BFA80200200C
:1045A000A8000020034B0360034B0B604FF48073A3
:1045B0001360704708070020080300204FF0FF3207
:1045C00000F10803C0E90223436003610023036094
:1045D000704700230361704743689A684B608A60A4
:1045E0009A685160996003680861013303607047FD
:1045F00030B50C68631C0AD103695A684A6091603F
:104600008B605960036808610133036030BD00F1BD
:104610000802134652681568A542FAD9EDE7036906
:10462000D0E901128A6051605968814208BF5A601E
:10463000002202611A68013A1A601868704710B5C2
:10464000044601F0D7F9A46B01F0F6F9B4FA84F04E
:10465000400910BDF8B51546026C0446866B52B988
:10466000076847BB406800F043FF054667600136B6
:104670002846A663F8BD65B9806801F0DDFBA36834
:10468000226C13446268A3609342F0D32368A36052
:10469000EDE7C06801F0D0FB226CE36851429B1A41
:1046A0002268E36093423EBF63685B18E360022DBB
:1046B00001D116B1013E0025D9E73546D7E70346BB
:1046C0001A6C084610B462B1DC68596814448C4214
:1046D00028BF1968DC6028BFD960D96810BC01F018
:1046E000ABBB10BC704770B5044601F083F994F879
:1046F000455004F124066DB2002D14DCFF2384F82C
:10470000453001F099F901F075F994F8445004F13D
:1047100010066DB2002D12DCFF2384F84430BDE892
:10472000704001F089B9636A002BE7D0304600F091
:1047300041FE08B100F0C6FE013D6DB2DCE7236921
:10474000002BE9D0304600F035FE08B100F0BAFE8B
:10475000013D6DB2DEE7000038B50D46044640B9B4
:104760004FF0500383F31188BFF36F8FBFF34F8F68
:10477000FEE701F03FF9D4E90F314B432268D0182E
:104780005B1A13446060E3600020FF23A063A26013
:1047900084F8443084F8453095B9236963B104F155
:1047A000100000F007FE38B14FF08052094B1A603C
:1047B000BFF34F8FBFF36F8F01F03EF9012038BD7B
:1047C00004F11000FFF7FAFE04F12400FFF7F6FEF3
:1047D000F2E700BF04ED00E037B50D461C4640B9D6
:1047E0004FF0500383F31188BFF36F8FBFF34F8FE8
:1047F000FEE743B94FF0500383F31188BFF36F8F87
:10480000BFF34F8FFEE74AB191B94FF0500383F3E6
:104810001188BFF36F8FBFF34F8FFEE741B14FF0A9
:10482000500383F31188BFF36F8FBFF34F8FFEE701
:1048300050230193019B502B08D04FF0500383F37A
:104840001188BFF36F8FBFF34F8FFEE70121002D5B
:1048500008BF2246C4E90F0584F8461020462260AE
:10486000FFF77AFF20469DF8183084F84C3003B0EB
:1048700030BD00002DE9FF4788461F4604460192DF
:1048800040B94FF0500383F31188BFF36F8FBFF32C
:104890004F8FFEE751B9036C43B14FF0500383F3E0
:1048A0001188BFF36F8FBFF34F8FFEE7022F0BD13D
:1048B000E36B012B08D04FF0500383F31188BFF353
:1048C0006F8FBFF34F8FFEE700F002FE064650B930
:1048D000019B4BB14FF0500383F31188BFF36F8FEF
:1048E000BFF34F8FFEE700264FF00009DFF8E4A08A
:1048F00037E0019D1DB901F09FF8002050E016B986
:1049000002A800F097FD01F097F800F0A7FB01F076
:1049100071F894F84430FF2B08BF84F8449094F861
:104920004530FF2B08BF84F8459001F085F801A9B8
:1049300002A800F08BFD002846D101F05BF8A26BC5
:10494000E36B9A422FD101F077F8019904F110003E
:1049500000F0F6FC2046FFF7C6FE00F01DFC50B349
:10496000012601F047F8A26BE36B9A4201D3022FB4
:10497000BFD13A4641462046FFF76CFE636A1BB141
:1049800004F1240000F016FD38B14FF08052114BB5
:104990001A60BFF34F8FBFF36F8F01F04DF8012006
:1049A00004B0BDE8F08701F047F82046FFF79BFE12
:1049B00000F0F2FBD4E74FF08053CAF80030BFF3A9
:1049C0004F8FBFF36F8FCBE72046FFF78CFE00F0D1
:1049D000E3FB92E704ED00E02DE9F84389469046B9
:1049E0001F46044640B94FF0500383F31188BFF3CC
:1049F0006F8FBFF34F8FFEE751B9036C43B14FF098
:104A0000500383F31188BFF36F8FBFF34F8FFEE71F
:104A1000022F0BD1E36B012B08D04FF0500383F32F
:104A20001188BFF36F8FBFF34F8FFEE701F0C2F81D
:104A3000EFF311864FF0500383F31188BFF36F8FAC
:104A4000BFF34F8FA26BE36B9A4201D3022F22D1A7
:104A500094F845503A46494620466DB2FFF7FAFDB4
:104A60006B1C13D1636A0BB901200BE004F1240025
:104A700000F0A0FC0028F7D0B8F1000FF4D001201E
:104A8000C8F8000086F31188BDE8F88301356DB2DF
:104A900084F84550E8E70020F4E700002DE9F043F2
:104AA00085B00F460446019240B94FF0500383F39E
:104AB0001188BFF36F8FBFF34F8FFEE751B9036CBF
:104AC00043B14FF0500383F31188BFF36F8FBFF3EF
:104AD0004F8FFEE700F0FCFC064650B9019B4BB13E
:104AE0004FF0500383F31188BFF36F8FBFF34F8FE5
:104AF000FEE700264FF00008DFF8DC903BE0019D68
:104B00001DB900F099FF002052E016B902A800F08C
:104B100091FC00F091FF00F0A1FA00F06BFF94F817
:104B20004430FF2B08BF84F8448094F84530FF2BB5
:104B300008BF84F8458000F07FFF01A902A800F0BB
:104B400085FC00283DD12046FFF779FD98B30199F7
:104B500004F1240000F0F4FB2046FFF7C4FD00F050
:104B60001BFB38B94FF08053C9F80030BFF34F8FAB
:104B7000BFF36F8F012600F03DFFA56B002DBED067
:104B800039462046013DFFF79AFDA563236963B1CD
:104B900004F1100000F00EFC38B14FF080520E4BC3
:104BA0001A60BFF34F8FBFF36F8F00F045FF0120F6
:104BB00005B0BDE8F0832046FFF795FD00F0ECFA64
:104BC000D8E72046FFF78FFD00F0E6FA2046FFF712
:104BD00036FD0028CED096E704ED00E0002330B586
:104BE000064A52F8335002EBC3041DB942F83310A1
:104BF000606030BD0133082BF3D1FAE73420002088
:104C000070B504460D46164600F0F4FE94F84430A4
:104C1000FF2B04BF002384F8443094F84530FF2B69
:104C200004BF002384F8453000F006FFA36B2BB9C6
:104C30003246294604F1240000F09CFB2046BDE8E2
:104C40007040FFF750BD00002DE9F041044600F030
:104C5000D1FE2F4B2F4D1A682F4F01321A602E684C
:104C6000002E49D12C601B68012B1FD1B84640464D
:104C70000136FFF7A3FC382E08F11408F7D1DFF84E
:104C8000C480264E4046FFF799FC3046FFF796FC5D
:104C90002348FFF793FC2348FFF790FC2248FFF7D7
:104CA0008DFC224BC3F80080214B1E601420214A4A
:104CB000136801331360204A63641168E36A8B420E
:104CC00000FB037004F1040188BF1360FFF784FC4C
:104CD00000F0B2FE194B1B6863B12B68DA6AE36A15
:104CE0009A4207D24FF08052154B1A60BFF34F8F94
:104CF000BFF36F8FBDE8F081104B1B68002BD5D13F
:104D00002B68DA6AE36A9A4298BF2C60CEE700BF4C
:104D1000D00B00206407002070070020FC0B00204F
:104D2000180C0020440C0020300C002068070020E4
:104D30006C070020E00B0020E40B00202C0C00206E
:104D400004ED00E0E80B0020064A13681968064BE2
:104D500019B94FF0FF321A6070471268D268D268F2
:104D60005268F8E768070020100C00202DE9F04792
:104D70000D46DDE909844FEA82094A460646A52127
:104D8000206B1F4601F066F8226BA9F104099144DB
:104D90006B1E29F0070904F134020F3513F8011FC7
:104DA00002F8011B197809B1AB42F7D1089D4FF009
:104DB000000A372D28BF3725201DC4E9135AE562A4
:104DC00084F843A0FFF705FCC5F1380504F118008D
:104DD000FFF7FFFBC4F854A03A4631464846246129
:104DE000A561646284F858A000F0DEFD2060B8F18F
:104DF000000F01D0C8F80040BDE8F08710B590F86A
:104E0000593004463BB9006B00F0B0FF2046BDE8C6
:104E1000104000F0ABBF012BF9D0022B08D04FF0AF
:104E2000500383F31188BFF36F8FBFF34F8FFEE7FB
:104E300010BD000080B5DFF85C80124F124C134D9E
:104E4000236863B9124B1B68012BF8D94FF08053CC
:104E5000C8F80030BFF34F8FBFF36F8FEEE700F05D
:104E6000C9FDFB68DE68301DFFF7D9FB2B68013BED
:104E70002B602368013B236000F0DEFD3046FFF726
:104E8000BDFFDDE7440C0020D40B0020D00B002038
:104E90007007002004ED00E0F8B50546154B164EEE
:104EA0001C6830680F460430FFF7B9FB6B1C3346B3
:104EB00007D137B1316811480431BDE8F840FFF738
:104EC0008BBB1A686419546007D30D4A10681968BF
:104ED000BDE8F8400431FFF78BBB0A4A1068196837
:104EE0000431FFF785FB084B1A68A24288BF1C609B
:104EF000F8BD00BF580C002064070020300C0020D3
:104F00006C07002068070020100C002070B586B0E8
:104F1000DDE90B5445B94FF0500383F31188BFF31B
:104F20006F8FBFF34F8FFEE744B94FF0500383F309
:104F30001188BFF36F8FBFF34F8FFEE75C26049697
:104F4000049E5C2E08D04FF0500383F31188BFF30A
:104F50006F8FBFF34F8FFEE72563022584F859500A
:104F600005AD01950A9D02940095FFF7FFFE2046CE
:104F7000FFF76AFE059806B070BD2DE9F0430746BD
:104F800085B0900088461646994600F065FE0546B5
:104F9000E8B15C2000F060FE0446A8B1002380F870
:104FA00059300D9B056301930C9B3246414602909C
:104FB000009338464B46FFF7D9FE2046FFF744FEE4
:104FC000012005B0BDE8F083284600F0CFFE4FF089
:104FD000FF30F6E710B5002488B007AA06A905A897
:104FE000CDE90544FFF7D2FA059B079A0293069B89
:104FF0001549CDE9004315482346FFF787FFA8B1BF
:1050000000F00AFB012813D14FF0500383F31188FD
:10501000BFF36F8FBFF34F8F4FF0FF320C4B1A600F
:105020000C4B18600C4B1C6000F06CFD08B010BD00
:105030000130FBD14FF0500383F31188BFF36F8F22
:10504000BFF34F8FFEE700BF95730008354E000891
:10505000100C00202C0C0020580C0020024A136871
:1050600001331360704700BFDC0B0020014B186850
:10507000704700BF580C00202DE9F84F3B4B1B68D0
:10508000002B6DD13A4B1D6801351D60BDB9394B00
:105090001A68126842B14FF0500383F31188BFF3CE
:1050A0006F8FBFF34F8FFEE7334A1968106818609F
:1050B0001160324A136801331360FFF745FE304E2A
:1050C000002433682F4FAB4210D92F4B1B68DA6A8C
:1050D00014235343FB58022B28BF01242B4B1B687E
:1050E000002B0CBF20460120BDE8F88FDFF884902C
:1050F000DFF8A0A0D9F800301B681BB94FF0FF33D0
:105100003360E2E7D9F80030DB68D3F80CB0DBF8A5
:105110000420954201D23260D7E70BF104084046E3
:10512000FFF77DFADBF828201AB10BF11800FFF722
:1051300076FA1423DBF82C00DAF80020414690427E
:1051400088BFCAF8000003FB0070FFF745FA0E4B5A
:10515000DBF82C201968CB6A9A4228BF0124C9E7E2
:105160000B4A0024136801331360B7E7DC0B0020FF
:10517000580C0020680700206C070020140C002049
:10518000100C002070070020640700205C0C002039
:10519000D80B0020E40B00202DE9F0412F4C2368B0
:1051A00043B94FF0500383F31188BFF36F8FBFF300
:1051B0004F8FFEE700F01EFC2368013B236024684C
:1051C0002CB1002400F038FC2046BDE8F081244BCF
:1051D0001B68002BF5D0234D234EDFF8A0801DE087
:1051E000EB68DC68271D04F11800FFF718FA384651
:1051F000FFF715FA1420E36A326800FB038093423C
:10520000394688BF3360FFF7E7F9184BE26A1B683D
:10521000DB6A9A4202D30122154B1A602B68002BDD
:10522000DED10CB1FFF790FD124D2C6844B101277F
:105230000F4EFFF721FF00B13760013CF9D12C6020
:105240000B4B1B68002BBCD04FF080520A4B1A60EE
:10525000BFF34F8FBFF36F8F0124B3E7DC0B002048
:10526000D00B0020180C0020E40B00206407002065
:105270005C0C0020D80B002004ED00E0700700203B
:1052800008B540B94FF080520D4B1A60BFF34F8FF5
:10529000BFF36F8F08BD0B4B196841B14FF050033E
:1052A00083F31188BFF36F8FBFF34F8FFEE7FFF7D4
:1052B000D5FEFFF7F1FDFFF76FFF0028E2D0E9E729
:1052C00004ED00E0DC0B0020184BF0B51A68184B19
:1052D00012B101221A60F0BD1A60164A1427164650
:1052E000154D2B6807FB03F15458501894B14468CE
:1052F000083164680A44944208BF6268446008BF89
:105300004260142202FB03625268D1680B4A1160AA
:105310002B60E0E743B94FF0500383F31188BFF3EC
:105320006F8FBFF34F8FFEE7013BDBE7DC0B002005
:105330005C0C002070070020E40B002064070020B4
:1053400010B50C4640B94FF0500383F31188BFF3FA
:105350006F8FBFF34F8FFEE7054B19681831FFF7CA
:1053600047F92046BDE810400121FFF795BD00BF79
:105370006407002038B50D46144640B94FF050037D
:1053800083F31188BFF36F8FBFF34F8FFEE7084B96
:1053900019681831FFF720F9002C214608BF28466C
:1053A000BDE8384018BF4FF0FF30FFF775BD00BFB4
:1053B0006407002038B5C368DC6844B94FF0500377
:1053C00083F31188BFF36F8FBFF34F8FFEE704F1B4
:1053D00018052846FFF723F9104B1B68DBB9251D7C
:1053E0002846FFF71CF90E4A14201168E36A8B4225
:1053F000294688BF13600B4A00FB0320FFF7ECF837
:10540000094BE26A1B68DB6A9A4285BF0120074BA1
:105410000020186038BD29460548EFE7DC0B002066
:10542000E40B002070070020640700205C0C0020C3
:10543000180C0020034B1B680360034B1B68436080
:10544000704700BF140C0020580C002070B50C46AB
:10545000054640B94FF0500383F31188BFF36F8FB7
:10546000BFF34F8FFEE741B94FF0500383F311882C
:10547000BFF36F8FBFF34F8FFEE700F0BBFA0F4B08
:10548000196823685A1C10D00D482E6800686A6895
:10549000864201D08A420FD9881A83420AD95B1A00
:1054A000134428462360FFF7C5FF002400F0C4FA28
:1054B000204670BD002323600124F7E7580C00202C
:1054C000140C00200122014B1A6070475C0C002074
:1054D000054B1B6833B1054B1B68002B0CBF02202A
:1054E00000207047012070472C0C0020DC0B0020AE
:1054F00038B508B9002038BD1B4B1C68844208D061
:105500004FF0500383F31188BFF36F8FBFF34F8FBA
:10551000FEE7236D43B94FF0500383F31188BFF3C7
:105520006F8FBFF34F8FFEE7E16AE26C013B914260
:105530002365DFD0002BDDD1251D2846FFF76FF84E
:105540001420E36CC3F13802A261084AE3621168D7
:105550008B4288BF1360064A294600FB0320FFF7F1
:105560003BF80120C7E700BF64070020E40B0020E0
:1055700070070020F7B5114C00F03CFA2568BDB962
:105580000F4F104E3846FFF719F83046FFF716F860
:105590000D4B10211F600D4B0A201E600C4A0D4B55
:1055A0000095FFF719F9206010B10B49FFF716FBC2
:1055B00003B0BDE8F04000F03FBA00BF840D00200A
:1055C000080D00201C0D0020600C0020640C002041
:1055D000680C0020340D00209A730008914208B531
:1055E000416000610AD8D21A83699A420DD2084BF1
:1055F000011D1868FEF7FCFF002008BD9A4201D289
:10560000994202D2034B011DF3E70120F5E700BFE9
:10561000640C0020600C002010B588B0FFF7AAFFD2
:10562000124B1B68B3B1002407AA06A905A8CDE94F
:105630000544FEF7B7FF059B079A0293069B0C49AA
:10564000019302230B4800932346FFF75FFC0A4BAC
:10565000186040B94FF0500383F31188BFF36F8F88
:10566000BFF34F8FFEE7012008B010BD840D00206E
:105670009F73000851570008880D00207FB516461B
:1056800004461A4640B94FF0500383F31188BFF324
:105690006F8FBFF34F8FFEE70D4D286880B105294E
:1056A000CDE9001602940DDCFFF712FF002302285B
:1056B00018BF1A46694608BF089A2868FFF7DAF843
:1056C00004B070BD00236946FFF786F9F8E700BF14
:1056D000840D00202DE9F3414FF000081A4D2B688E
:1056E0001A6832B9194A11681360296002B0BDE81E
:1056F000F081DB68DC681E68271D3846FEF78FFFE7
:10570000636A20469847E369012BE8D1A3693344D3
:105710009E4206D23946286863602461FEF768FF1E
:10572000DDE70023324619462046CDF80080FFF71A
:10573000A5FF0028D3D14FF0500383F31188BFF3A6
:105740006F8FBFF34F8FFEE7600C0020640C0020CA
:105750002DE9F04F774EDFF8EC91B04687B0336813
:10576000D3F800B0BBF1000F48D0DB68D3F800A03D
:10577000FFF774FCFFF77AFC6F4D04462B682F4649
:1057800098423DD2FFF7A6FF2C60FFF705FD4FF0D2
:10579000000BDFF8ACA10022DAF8000002A9FFF745
:1057A0007DF90028DBD0029B0498002B72DB049C5F
:1057B0006369002B76D1FFF759FC3B680546984298
:1057C00001D2FFF787FF029B3D60092BE3D801A2BE
:1057D00052F823F0AD580008AD580008AD58000845
:1057E00097570008FB58000821590008AD580008D9
:1057F000AD58000897570008FB580008DA46B7E78D
:105800002860BBF1000F2AD0824541D8FFF7C4FCC5
:10581000D8F80030DB68DD68281DFEF700FFEB6973
:10582000012B18D1A9695346224628465144FFF757
:10583000D5FE80B100235246194628460093FFF753
:105840001DFF40B94FF0500383F31188BFF36F8FF2
:10585000BFF34F8FFEE728466B6A984797E7374BB1
:105860001B681A68B2FA82F25209354BAAEB04019E
:105870001868FFF7C5F9FFF78FFC002887D14FF0B4
:105880008053C9F80030BFF34F8FBFF36F8F7EE7AF
:105890000022EAE7039B05999847029B002BFFF63D
:1058A0007AAF84E7201DFEF7BAFE84E7A169039B67
:1058B0002A4620461944FFF791FE00283FF46BAFBB
:1058C000636A20469847E369012B7FF464AF0023A5
:1058D000A269039920460A44CDF800B01946FFF7A3
:1058E000CDFE00287FF457AF4FF0500383F31188AB
:1058F000BFF36F8FBFF34F8FFEE70399A16141B9EB
:105900004FF0500383F31188BFF36F8FBFF34F8FB6
:10591000FEE72B462A4620462944FFF75FFE3AE77A
:1059200094F82C30002B7FF436AF204600F01EFA9E
:1059300031E700BF600C0020300D0020640C002017
:10594000840D002004ED00E006480068006880F344
:10595000088862B661B6BFF34F8FBFF36F8F00DF69
:1059600000BF000008ED00E0002382B001930D4B62
:105970001B68013308D04FF0500383F31188BFF345
:105980006F8FBFF34F8FFEE74FF0500383F3118803
:10599000BFF36F8FBFF34F8F019B002BFCD002B082
:1059A000704700BF0C0000204FF0807340F8043CAB
:1059B000054B21F0010140F8081C40F80C3C40F870
:1059C000202C4038704700BF6959000800000000D3
:1059D000074B19680868B0E8F00F80F30988BFF337
:1059E0006F8F4FF0000080F311884EF00D0E70475E
:1059F000640700204FF0500383F31188BFF36F8FCB
:105A0000BFF34F8F0A4A13680133012B13600DD186
:105A1000084B1B6813F0FF0F08D04FF0500383F3BF
:105A20001188BFF36F8FBFF34F8FFEE7704700BF42
:105A30000C00002004ED00E0084A136843B94FF061
:105A4000500383F31188BFF36F8FBFF34F8FFEE7CF
:105A5000013B13600BB983F3118870470C000020E1
:105A6000EFF30980BFF36F8F0D4B1A6820E9F00F39
:105A700010602DE908404FF0500080F31188FFF7C7
:105A800023FC4FF0000080F31188BDE8084019683E
:105A90000868B0E8F00F80F30988BFF36F8F704794
:105AA0006407002008B54FF0500383F31188BFF35B
:105AB0006F8FBFF34F8FFFF7DFFA18B14FF08052AF
:105AC000024B1A60002383F3118808BD04ED00E047
:105AD0000023084A084913600B604FF47A71074BA2
