:020000040800F2
:1000000000000120C51A0008511A0008531A000800
:10001000551A0008571A0008591A00080000000075
:10002000000000000000000000000000A14E0008D9
:100030005B1A000800000000314F00085D1A00083C
:100040000D1B00080D1B00080D1B00080D1B0008F0
:100050000D1B00080D1B00080D1B00080D1B0008E0
:100060000D1B00080D1B00080D1B00080D1B0008D0
:100070000D1B00080D1B00080D1B00080D1B0008C0
:100080000D1B00080D1B00080D1B00080D1B0008B0
:100090000D1B00080D1B00080D1B00080D1B0008A0
:1000A0000D1B00080D1B00080D1B00080D1B000890
:1000B0000D1B00080D1B00080D1B00080D1B000880
:1000C0000D1B00080D1B00080D1B00080D1B000870
:1000D0000D1B00080D1B00080D1B0008751A0008F9
:1000E0000D1B00080D1B00080D1B00080D1B000850
:1000F0000D1B00080D1B00080D1B00080D1B000840
:100100000D1B00080D1B00080D1B00080D1B00082F
:100110000D1B00080D1B00080D1B00080D1B00081F
:100120000D1B00080D1B00080D1B00080D1B00080F
:1001300000000000000000000000000000000000BF
:1001400000000000000000000000000000000000AF
:10015000000000000000000000000000000000009F
:10016000000000000000000000000000000000008F
:10017000000000000000000000000000000000007F
:10018000000000000000000000000000000000006F
:10019000000000000000000000000000000000005F
:1001A000000000000000000000000000000000004F
:1001B000000000000000000000000000000000003F
:1001C000000000000000000000000000000000002F
:1001D000000000000000000000000000000000001F
:0401E0005FF8E0F1F3
:1001F00010B5054C237833B9044B13B10448AFF361
:1002000000800123237010BD740000200000000056
:10021000BC5C000808B5034B1BB103490348AFF3AE
:10022000008008BD0000000078000020BC5C0008D1
:10023000F0B587B001AA16461F4B03F10805144616
:1002400018685968083303C4AB422246F7D11868CE
:100250009B882060A38000230C211848CDF8123021
:10026000ADF8163003F060F8154A1649164805F047
:1002700061F8164D164F144C29460522384603F0F6
:1002800022FB0A213246084601F05EF92946204643
:1002900005F070F8224628210A2001F055F94FF4A4
:1002A00080610C4802F01DF901F0B4F84FF4FA70C7
:1002B00003F0BAFBE0E700BFD45C00087C1B002021
:1002C000085D0008E85C0008191C0020C41B002021
:1002D000401A0020001801402DE9F04F082189B094
:1002E000AB4803F021F83C21AA4802F02CFDDFF8CE
:1002F000C082A84CA84804F0D9FF4FF47A7647F69C
:10030000171290FBF6F3904206FB1306A04D3BDC60
:1003100042F20F72904206DC002B00F02D82002288
:100320002B68DA63E6E70A3B142BF8D801A252F8EF
:1003300023F000BF09040008CB040008B50500083D
:100340001F0300081F0300081F0300081F03000805
:100350001F0300081F0300081F0300085D060008B4
:10036000110700083B0700081F0300081F030008CF
:100370001F0300081F0300081F0300081F030008D5
:100380001F030008BF030008282BC8D101224FF427
:100390008051824802F0A0F800222021404602F05D
:1003A0009BF80A2640F2DC597D4F3B782A68103BC7
:1003B000032B23D80023013ED363F6D19AE7012211
:1003C0004FF48051754802F087F800222021404602
:1003D00002F082F80A2640F2DC59714F3B782A6815
:1003E0001C3B012B04D80023013ED363F6D181E7E7
:1003F000C2F83C90642003F017FBEFE7C2F83C9092
:10040000642003F011FBD0E7236801224FF48051F0
:1004100062485F6A02F060F800222021404602F044
:100420005BF840F2DC522B684FF0000BDA6301F00E
:10043000B1FB4FF4027302464FF6FF797343DFF8C6
:1004400068A10093009B9B4507D3012E7FF452AF18
:100450004FF47A7003F0E8FA4CE7019201F09AFB4E
:10046000019A801A3228EDD92268556A1268D3069B
:1004700024D5AF421EDD7D1B2A46514603A804F059
:1004800059FF1421322003AA01F05EF82268454981
:10049000126803A8C2F3001204F04CFF14210A20D2
:1004A00003AA01F051F82268AB44576A01F072FBCD
:1004B0000246C7E7A9EB05053D44DDE7AF4201DA97
:1004C000ED1BD9E7A9EB0707F6E7236801224FF4F4
:1004D000805132485E6A01F0FFFF00222021404631
:1004E00001F0FAFF40F2DC522B684FF0000BDA63A8
:1004F00001F050FB40F6634902462B4F07F1070A13
:10050000CB4508D900232A68D363284A1370C82032
:1005100003F08AFA9CE7009201F03CFB009A801AF3
:100520003228EDD923685A6A1B68D80627D5964227
:1005300020DDB31A1A46394603A8009304F0FAFEE8
:100540001421322003AA00F0FFFF226851461268EE
:1005500003A8C2F3001204F0EDFE14210A2003AA3E
:1005600000F0F2FF2268566A01F014FB009B02467D
:100570009B44C5E7C2F57F42FF32B318DAE79642E3
:1005800001DA931BD6E7C6F57F46FF36F5E700BFD5
:10059000B0190020F8190020191C00200018014093
:1005A000A8190020F35C0008EC5C00089000002013
:1005B00000100140236801224FF4805170485E6AA8
:1005C00001F08AFF00222021404601F085FF4FF410
:1005D000C8722B684FF0000BDA6301F0DBFA4FF6BC
:1005E000FF770346DFF8A49109F1070ABBF5C37F43
:1005F0008DD2009301F0CEFA009BC01A3228F5D9B3
:1006000023685A6A1B68D90622D59642D6BFBA1A01
:10061000B51A95192A46494603A804F08BFE142101
:10062000322003AA00F090FF236851461A6803A8FD
:10063000C2F3001204F07EFE14210A2003AA00F087
:1006400083FF2368AB445E6A01F0A4FA0346CDE75A
:100650009642AABFBD1B951BAD18DBE7236800229D
:100660004FF4805146485F6A01F036FF0122202195
:10067000404601F031FF40F2DC522B684FF0000B96
:10068000DA6301F087FA4FF4027302464FF6FF79FE
:100690007343DFF8F8A00093009B9B45BFF4D5AEF1
:1006A000019201F077FA019A801A3228F4D922686F
:1006B000556A1268D30624D5AF421EDD7D1B2A463B
:1006C000514603A804F036FE1421322003AA00F09C
:1006D0003BFF22682B49126803A8C2F3001204F002
:1006E00029FE14210A2003AA00F02EFF2268AB4441
:1006F000576A01F04FFA0246CEE7A9EB05053D44E3
:10070000DDE7AF4201DAED1BD9E7A9EB0707F6E712
:10071000642003F089F900224FF48051184801F059
:10072000DBFE01224046202101F0D6FE40F2DC52E1
:100730002C202B687043DA638CE6642003F074F994
:1007400000224FF480510E4801F0C6FE0122202104
:10075000404601F0C1FE4FF4C87225202B6870435B
:10076000DA6303F061F95522074B64201B681A64B1
:1007700000222B68DA636DE62A68D363BAE500BF0E
:1007800000180140F35C00087C1B0020EC5C0008B2
:100790002DE9F04F0C21C04889B002F0C5FD3C2185
:1007A000BE4802F0D0FA0124BD4804F07FFD4FF4AA
:1007B0007A7390FBF3F603FB160847F6171398427B
:1007C000B54D41DC42F20F7398420ADC002E00F076
:1007D0009B824C22B34B1B681A6400222B681A645C
:1007E000E2E7A6F10A03AF4E142BF2D801A252F8A9
:1007F00023F000BFD1080008A9090008D50A0008A5
:10080000D3070008D3070008D3070008D307000860
:10081000D3070008D3070008D3070008C50B00085A
:10082000870C0008C30C0008D3070008D307000892
:10083000D3070008D3070008D3070008D307000830
:10084000D307000881080008282EC2D14A22954B00
:100850004FF400411B6894481A64012201F03CFEE9
:1008600000224FF40061904801F036FE0A248F4EBA
:1008700033782A68103B032B23D8013CF8D117E0CA
:100880004A2233684FF400411A648748012201F07C
:1008900023FE00224FF40061834801F01DFE0A246C
:1008A000824E33782A681C3B012B03D8013CF8D1D7
:1008B000146478E74FF47A736420136403F0B4F897
:1008C000EFE74FF47A736420136403F0ADF8CFE7D9
:1008D0004A22724C4FF40041236873485F6A3368C0
:1008E0004FF0000B1A64012201F0F6FD00224FF4D4
:1008F00000616D4801F0F0FD4FF47A722B682646D6
:100900001A6401F047F94FF4027302464FF6FF797B
:1009100003FB08F3DFF8A0A10093009B9B450BD3DA
:1009200000222B68B8F1010F1A647FF43CAF4FF43A
:100930007A7003F079F836E7019201F02BF9019A09
:10094000801A3228E9D93268546A1268D00624D550
:10095000A7421EDD3C1B2246514603A804F0EAFCD8
:100960001E21322003AA00F0EFFD326850491268C0
:1009700003A8C2F3001204F0DDFC1E210A2003AA22
:1009800000F0E2FD3268A344576A01F003F9024621
:10099000C3E7A9EB04043C44DDE7A74201DAE41B0A
:1009A000D9E7A9EB0707F6E75D2101223368DFF8F5
:1009B000EC8019643F4CD8F800304FF400413A48BD
:1009C0005F6A227001F088FD00224FF40061364812
:1009D00001F082FD4FF4C8722B684FF0000B1A64CF
:1009E00001F0D8F84FF6FF790246DFF8CCA000946A
:1009F000BBF5C37F1BD30024009A2B681278002A12
:100A000063D11A64C82003F00FF85D2233684FF4F5
:100A1000FA701A6403F008F83A2233684FF4FA7057
:100A20001A6403F001F84C2233681A64BBE60192A1
:100A300001F0B0F8019A801A3228D9D9D8F80020EC
:100A4000546A1268D10639D5A74220DD3C1B2246E4
:100A5000514603A804F06EFC1E21322003AA00F0C8
:100A600073FDD8F800201249126803A8C2F30012DF
:100A700004F060FC1E210A2003AA00F065FDD8F8EE
:100A80000020A344576A01F085F80246B0E7A9EBBD
:100A900004043C44DBE700BFB0190020B41A002076
:100AA000191C00207C1B0020000C0140A81900200C
:100AB000FB5C000890000020EC5C0008A74201DA13
:100AC000E41BC4E7A9EB0707E3E71C64642002F01A
:100AD000ABFF91E73A223368974C1A6423680122EE
:100AE0004FF4004195485F6A01F0F6FC00224FF494
:100AF0000061924801F0F0FC40F2DC522B684FF0AC
:100B0000000A1A6401F046F8A0460246DFF848924F
:100B100009F10F0B40F6DD239A4516D900222B6808
:100B2000C8201A6402F080FF5D2233684FF4FA7027
:100B30001A6402F079FF3A2233684FF4FA701A64AB
:100B400002F072FF4D2233686FE7009201F022F845
:100B5000009A801A3228DDD9D8F80020546A126829
:100B6000D20627D5A74220DD3C1B2246494603A8D2
:100B700004F0E0FB1E21322003AA00F0E5FCD8F8C7
:100B800000205946126803A8C2F3001204F0D2FBF9
:100B90001E210A2003AA00F0D7FCD8F80020A244A6
:100BA000576A00F0F7FF0246B4E7C4F57F44FF340C
:100BB0003C44DAE7A74201DAE41BD6E7C7F57F47F2
:100BC000FF37F5E74A225C4C4FF4004123685B484D
:100BD0005F6A33684FF0000B1A64002201F07CFC5E
:100BE00001224FF40061554801F076FC4FF4966203
:100BF0002B6826461A6400F0CDFF4FF402730246BC
:100C00004FF6FF7903FB08F3DFF84CA10093009B3C
:100C10009B45BFF485AE019200F0BCFF019A801A9B
:100C20003228F4D93268546A1268D30624D5A74210
:100C30001EDD3C1B2246514603A804F07BFB1E210F
:100C4000322003AA00F080FC32683D49126803A8F4
:100C5000C2F3001204F06EFB1E210A2003AA00F06A
:100C600073FC3268A344576A00F094FF0246CEE753
:100C7000A9EB04043C44DDE7A74201DAE41BD9E711
:100C8000A9EB0707F6E75D22336864201A6402F0D7
:100C9000CBFE00224FF40041284801F01DFC012248
:100CA0004FF40061254801F017FC4FF4C8722B2067
:100CB0002B6800FB08F01A6402F0B6FE4A22336883
:100CC000B3E63A22336864201A6402F0ADFE0022D3
:100CD0004FF40041194801F0FFFB01224FF400617D
:100CE000164801F0F9FB40F2DC5226202B6800FB8D
:100CF00008F01A6402F098FE5522336864201A64E2
:100D000000222B681A6414E62B681E64002C3FF442
:100D10004BAD4D220B4B0C491B680C481A640C4A16
:100D200004F008FB4FF6FF7305220849094802F05A
:100D3000FFFB344638E500BFB41A0020000C014028
:100D4000FB5C00087C1B0020E85C0008141C0020F1
:100D50000E5D0008401A0020EC5C00082DE9F0410F
:100D6000234C86B03C21204601F0EDFF2368214C46
:100D70003C2120465B6A01F0E6FF23681E4D5B6A5A
:100D800000F008FF1D4FDFF878800A26002428466F
:100D900001F082F84FF0FF31284600F013FF28469B
:100DA00000F0BCFF48F2E80280B2B2FBF0F2134957
:100DB000D2B201A804F0BEFA01A804F077FA013E0D
:100DC0000444E4D10A2294FBF2F2394601A888F8DF
:100DD000002004F0AFFA322002F026FE3221462035
:100DE00001AA00F0B1FB012002F01EFECDE700BF1A
:100DF000B41A0020F8190020441B0020035D0008ED
:100E0000A819002010B596B0242200210DA804F0E6
:100E100089FA1422002101A804F084FA1822002182
:100E20000DEB020004F07EFA0224012210230CA82C
:100E3000CDE910230C9401F069FB014608B172B6AC
:100E4000FEE70F23CDE90300CDE90130059001A8AD
:100E500001F032FD08B172B6FEE7089006A80694CC
:100E600001F0E6FD08B172B6FEE716B010BD000055
:100E700080B59AB000F070FEFFF7C4FF1022002189
:100E800011A804F04FFAAF4B4FF4AF519A69AE4836
:100E900042F040029A619A69012602F040020092F3
:100EA000009A9A69002542F010029A619A69032417
:100EB00002F010020192019A9A694FF0200842F064
:100EC00004029A619A694FF4805702F00402029278
:100ED000029A9A6942F008029A619B69002203F023
:100EE00008030393039B01F0F7FA00223C21974883
:100EF00001F0F2FA00222021954801F0EDFA0022DB
:100F00004FF40841934801F0E7FA4FF4BC63CDE990
:100F1000113602238C4811A9CDE9135301F0F2F9DF
:100F20003C238A4811A9CDE911361494139501F098
:100F3000E9F9874811A9CDE91354CDE9118601F0EB
:100F4000E1F9814811A9CDE91354CDE9117601F0F9
:100F5000D9F94FF408437F4811A9CDE91136CDE9FD
:100F6000135401F0CFF91022294606A804F0DAF94B
:100F70001C2229460AA8CDE9045504F0D3F94246BB
:100F8000294611A804F0CEF9734C744B2046C4E9ED
:100F9000003541F61F43C4E90555C4E90335A56092
:100FA00001F078FF08B172B6FEE7204606A9069761
:100FB00002F0B9F808B172B6FEE7204601F096FFDC
:100FC00008B172B6FEE7CDE9040004A9204602F09C
:100FD000ADF9024608B172B6FEE76023CDE90C0018
:100FE000CDE90A30CDE90E0010900AA9204602F0A2
:100FF00035F808B172B6FEE7042220460AA902F0CD
:101000002DF808B172B6FEE7082220460AA902F0C0
:1010100025F808B172B6FEE70C2220460AA902F0B4
:101020001DF808B172B6FEE74FF40053CDE9110088
:10103000CDE913001590189011A92046169302F0DF
:10104000ABF9034608B172B6FEE74FF08042CDE936
:101050000A00434811A9C0E900234FF6FF72CDE909
:101060001163C0E90323CDE91363CDE91533CDE95D
:10107000176383608361199301F064FF08B172B64E
:10108000FEE7002336480AA9CDE90A3302F04EF9FB
:1010900008B172B6FEE7334C334B0122C4E900308D
:1010A00041F61F43C4E903300323CDE911300A237D
:1010B000CDE90A00CDE91320CDE91530CDE917209F
:1010C000A060A06111A92046199301F03BFF08B16F
:1010D00072B6FEE7CDE90A000AA9204602F026F919
:1010E000054608B172B6FEE70146102206A804F0D4
:1010F00019F91C2229460AA8CDE9045504F012F971
:101100002946202211A804F00DF9A023174C1849F4
:101110002046C4E900134FF47A73C4E903358023F1
:10112000A5606561A36101F0B5FE08B172B6FEE786
:101130004FF48053204606A9069301F0F4FFC8B18E
:1011400072B6FEE70010024000180140000801409E
:1011500000100140000C0140B01900200034014093
:10116000CC1B0020FC1A0020000400407C1B002047
:10117000002C0140204601F0B9FE08B172B6FEE72E
:10118000CDE9040004A9204602F0D0F808B172B6F7
:10119000FEE76023CDE90E00CDE90A300C901090F7
:1011A0000C2220460AA901F059FF08B172B6FEE7E9
:1011B0004FF40053CDE91100CDE9130015901890BC
:1011C00011A92046169302F0E7F8054608B172B659
:1011D000FEE7204600F0BEFB4FF4E1335F48604A73
:1011E000C0E90255C0E900230C230561C0E90535BB
:1011F000C56102F06FF908B172B6FEE70023012461
:101200004FF00A084FF6FF770326564D564A2846F8
:1012100011A9CDE90A33C5E90023C5E90373CDE976
:101220001163CDE91343CDE91583CDE91743AB60D5
:10123000AB61CDF8648001F085FE08B172B6FEE7BF
:10124000CDE90A000AA9284602F070F808B172B682
:10125000FEE7464D464BCDE90A00C5E90030C5E939
:101260000207CDE91160CDE91340CDE91580CDE944
:1012700017402861A86111A92846CDF8648001F0C3
:1012800061FE08B172B6FEE7CDE90A000AA9284658
:1012900002F04CF808B172B6FEE74FF46026354D07
:1012A000354BCDE911001390A8602873287568604C
:1012B00028462B60EE612C6100F076FE08B172B614
:1012C000FEE70B23139011A92846CDE9113400F055
:1012D00029FD08B172B6FEE7284D294BCDE9110072
:1012E0001390A86028732875686028462B60EE610B
:1012F0002C6100F059FE08B172B6FEE70C23139082
:1013000011A92846CDE9113400F00CFD044608B1BE
:1013100072B6FEE700F038F902F0EEFA2146194AFB
:10132000194802F025FB194B21461860184A194844
:1013300002F01EFB184B21461860184A184802F0AC
:1013400017FB184B21461860174A184802F010FB8B
:10135000174B186002F0ECFAFEE700BF401A0020BD
:1013600000480040F819002000080040B41A00208E
:10137000000C0040441B002000240140841A00207F
:1013800000280140B45D000831020008AC190020BB
:101390006C5D000891070008741B0020485D000880
:1013A000D9020008781B0020905D00085D0D000840
:1013B000A41900207047000070B50A46044601B128
:1013C00001224FF48071124801F086F80825104E72
:1013D00000222021304601F07FF823064CBF012275
:1013E00000224021304601F077F8013D0122202102
:1013F000304601F071F8640015F0FF05E4B2E7D162
:10140000BDE8704001224FF48071014801F064B8DA
:101410000018014070B5B0240E4E00212046FFF7A1
:10142000CBFF00210846FFF7C7FF00211020FFF780
:10143000C3FF002516F8350001210135FFF7BCFF79
:10144000802DF7D10134E4B2B82C06F10106E4D1C5
:1014500070BD00BF1E1C0020082300200749002289
:1014600001F832000132802AFAD1013B13F0FF0368
:1014700001F10101F3D1FFF7CDBF00BF1E1C002019
:10148000030630B513D43F2911D8012301F0070515
:10149000094CC908C1F10701C5F10705C9B204EB40
:1014A000C00003FA05F5435C12B12B43435430BD31
:1014B00023EA0503FAE700BF1E1C00202DE9F74FC1
:1014C000A2F1200598461E4BEDB203EB05130093E5
:1014D0000C23824689460C4600271A4A9DF830B0F4
:1014E00003FB05230193B84502D103B0BDE8F08F9B
:1014F000B8F10C0F0CBF019B009BDE5D04F10803EB
:10150000DDB2330658BFBBFA8BF2214604F1010469
:101510004CBF5A4652095046E4B2FFF7B1FFA4EB64
:10152000090276004245F6B207D14D460AF10100A4
:101530005FFA80FA2C460137D5E7A542E1D1F9E7F9
:101540004C620008D85D0008F7B504460D46012737
:10155000561E16F8013F0BB903B0F0BD7A2C82BFBE
:101560001035EDB200243A2D03D90025FFF774FFA2
:101570002C46009720460C23294632780834FFF782
:101580009DFFE4B2E5E7000010B500F0B3FF404B6B
:10159000404C1A6A22F001021A621A6A22F004020E
:1015A0001A6200F0ADFF00228021204600F094FF77
:1015B000642000F0F5FA01222046802100F08CFF23
:1015C0000021AE20FFF7F8FE0021D520FFF7F4FE42
:1015D00000215020FFF7F0FE0021A820FFF7ECFECD
:1015E00000213F20FFF7E8FE0021D320FFF7E4FEB3
:1015F00000210846FFF7E0FE00214020FFF7DCFE57
:1016000000218D20FFF7D8FE00211420FFF7D4FE23
:1016100000212020FFF7D0FE00210220FFF7CCFEA2
:101620000021A120FFF7C8FE0021C020FFF7C4FE63
:101630000021DA20FFF7C0FE00211220FFF7BCFED8
:1016400000218120FFF7B8FE0021EF20FFF7B4FE54
:101650000021D920FFF7B0FE0021F120FFF7ACFEFA
:101660000021DB20FFF7A8FE00213020FFF7A4FEB9
:101670000021A420FFF7A0FE0021A620FFF79CFE7A
:101680000021AF20FFF798FEBDE81040FFF7E4BE51
:101690000010024000180140114B07B59A690F2154
:1016A00042F001029A619A696FF0010002F00102B2
:1016B0000092009ADA6942F08052DA61DB69002216
:1016C00003F080530193019B00F00AFD054A536823
:1016D00023F0E06343F00073536003B05DF804FB54
:1016E0000010024000000140102210B5044688B0EE
:1016F0000DEB0200002103F015FE23681B4A934204
:101700001CD11B4B9A6942F400729A619A6902F4E7
:1017100000720092009A9A6942F010029A619B69E5
:1017200003F010030193019B022304930323114848
:1017300004A9059300F0E6FD08B010BD0E4A9342DF
:10174000FAD10B4B9A6942F480629A619A6902F469
:1017500080620292029A9A6942F010029A619B6931
:1017600003F010030393039B0423DEE700240140EE
:10177000001002400010014000280140102210B566
:10178000044688B00DEB0200002103F0CBFD236876
:10179000174A93420BD1174B9A6942F400629A613F
:1017A0009B6903F400630193019B08B010BD124ACA
:1017B0009342FAD10F4B11489A6904A942F400529E
:1017C0009A619A6902F400520292029A9A6942F06E
:1017D00010029A619B694FF4707203F01003039337
:1017E000039B0223CDE90423079300F08BFDDCE784
:1017F000002C014000100240003401400010014064
:1018000010B504468EB0102200210AA803F08AFD0C
:101810002368B3F1804F39D103F50433DA6900242A
:1018200042F00102DA61DA69434802F001020192F2
:10183000019A9A690AA942F004029A619A6902F02F
:1018400004020292029A9A6942F008029A619B6924
:101850000C9403F008030393039B4FF40043CDE97A
:101860000A3400F04FFD082334480AA9CDE90A34B0
:101870000C9400F047FD324A536823F4407343F060
:10188000E06343F4807353600EB010BD2D4A934261
:101890001AD12D4BDA6942F00202DA61DA6902F0FC
:1018A00002020492049A9A6942F004029A619B69C6
:1018B00003F004030593059BC0230A9300231E48ED
:1018C000CDE90B330AA91CE0204A93421CD11E4BE0
:1018D0001A48DA690AA942F00402DA61DA6902F008
:1018E00004020692069A9A6942F008029A619B697C
:1018F000C02203F008030793079B0023CDE90A23C6
:101900000C9300F0FFFCBFE7114A9342BCD10E4B91
:10191000DA6942F00802DA61DA6902F00802089234
:10192000089A9A6942F004029A619B6903F00403E1
:101930000993099B0323C0E700080140000C014004
:101940000000014000040040001002400008004078
:10195000000C004010B5044686B01022002102A8F9
:1019600003F0E0FC2268104B9A421BD103F564435C
:101970009A690E4842F040029A619B694FF4804296
:1019800003F040030193019B022302A9CDE9022346
:10199000059300F0B7FC064A536843F0E06343F058
:1019A000C003536006B010BD002C01400018014078
:1019B0000000014010B5044686B01022002102A8A4
:1019C00003F0B0FC22681F4B9A4239D103F5E4338F
:1019D000DA691D4842F48022DA61DA6902A902F468
:1019E00080220092009A9A69002442F010029A61C3
:1019F0009B694FF4806203F010030193019B022363
:101A0000CDE902230323059300F07CFC4FF400632F
:101A10000D4802A9CDE90234049400F073FC0B4A8E
:101A200027205368052123F0300343F0E06343F09F
:101A300010035360224600F053FB272000F082FB86
:101A400006B010BD004800400010014000000140F9
:101A5000FEE7FEE7FEE7FEE7FEE7704708B500F0A9
:101A60008DF802F09FFF012803D0BDE8084003F085
:101A700081BA08BD014801F00DBE00BF401A002028
:101A80000B4B0246196810B509B90A491960186864
:101A900009490A4C0244091B8A4206D903F00AFC90
:101AA0000C2303604FF0FF3010BD1A60FCE700BF4D
:101AB0009400002078200020000001200004000095
:101AC000704700000C480D490D4A002302E0D4582D
:101AD000C4500433C4188C42F9D30A4A0A4C002378
:101AE00001E013600432A242FBD3FFF7E9FF03F0E9
:101AF000E7FBFFF7BDF970470000002074000020ED
:101B0000B46900087400002074200020FEE7000083
:101B100038B50E4B054618784FF47A73B3FBF0F3E3
:101B20000B4A1068B0FBF3F000F01AFB044658B9FA
:101B30000F2D09D8024629464FF0FF3000F0D0FAA9
:101B40002046044B1D6038BD0120FCE70400002046
:101B50000000002008000020074A08B51368032091
:101B600043F01003136000F0A9FA0F20FFF7D0FF35
:101B7000FFF792FD002008BD00200240034A044BFD
:101B800011681B780B441360704700BF20200020B1
:101B900004000020014B1868704700BF202000207F
:101BA00038B50446FFF7F6FF0546631C1EBF044B1D
:101BB0001B78E418FFF7EEFF431BA342FAD338BDAE
:101BC00004000020F7B5002504460E460195FFF7F6
:101BD000E1FF236807469A68D20508D50120A36A69
:101BE00084F8245043F02003A36203B0F0BD5A6888
:101BF000D50503D4DB6A13F4700F40D0414B0220AB
:101C00001D6800F08DFF22683F4B1169B5FBF0F5B0
:101C100019423E4B54D1D0683D49084250D1116918
:101C200019425ED1D26803F16E431A4214BF2923D0
:101C300014235D43019BAB4225D2721C5CD0002E65
:101C400055D1019BAB4257D2A36A43F00403A36270
:101C500000230BE0701C13D066B923681B6813F0D7
:101C600002030CD1A26A42F00402A262032084F8AB
:101C70002430BAE7FFF78EFFC01BB042EDD82268D0
:101C800013689907E6D56FF0120322681360A36A00
:101C900043F40073A362936803F46023B3F5602FE9
:101CA0002ED1207B00282BD1A36A23F48073A3625A
:101CB000A36ADB0424D4A36A43F00103A36294E77C
:101CC0001169194203D1D168124B19420BD0116925
:101CD000114B194209D1D2681A4214BFFC23542374
:101CE000A7E72923A5E75423A3E7FC23A1E7FFF7F0
:101CF00051FFC01BB042A4D8019B0133019399E767
:101D0000002072E700000020244992249224491206
:101D10002449920092244900499224000368D86C17
:101D200070470000002373B5019390F824300446F7
:101D3000012B6CD0012380F824304D680268062DF9
:101D4000086805EB850322D81F26556B053B9E408E
:101D500025EA060500FA03F32B43536309288B6831
:101D600000EB40054FF0070129D9D6681E3DA94078
:101D700026EA0101AB400B43D360A0F11003012B15
:101D800025D90020002384F8243002B070BD0C2D2A
:101D90004FF01F0509D8166B233B9D4026EA050529
:101DA00000FA03F32B431363D8E7D66A413B9D4007
:101DB00026EA050500FA03F32B43D362CEE7106948
:101DC000A94020EA0101AB400B431361D9E7114B55
:101DD0009A4216D193681B02D3D49368102843F417
:101DE00000039360CDD10C4B0C4A1B68B3FBF2F29D
:101DF0000A2353430193019B002BC2D0019B013B5B
:101E0000F8E7A36A012043F02003A362BAE70220A7
:101E1000BBE700BF002401400000002040420F004B
:101E2000002337B50193036804469A68D20702D5A8
:101E3000002003B030BD9A6842F001029A60144B52
:101E4000144A1B68B3FBF2F30193019BE3B9FFF75C
:101E5000A1FE054623689B68DB07E9D4FFF79AFEDD
:101E6000401B0228F6D923689B6813F00103F1D1C7
:101E7000A26A012042F01002A262E26A84F82430D1
:101E800042F00102E262D4E7019B013BDCE700BFC4
:101E90000000002040420F0010B590F824300446A6
:101EA000012B54D0012380F82430FFF7B9FF00281C
:101EB00049D1A36A274A23F4407323F0010343F472
:101EC0008073A3622368934204D123494A6812F4C1
:101ED000702F2ED1A26A22F48012A2625A68520593
:101EE00041BFA26A22F4405242F48052A262A26A26
:101EF00012F480521CBFE26A22F00602E262002263
:101F000084F824206FF002021A609A6802F46022BA
:101F1000B2F5602F13D10F4A934205D1A2F580622A
:101F2000526812F4702F0AD19A6842F4A0029A60A3
:101F300010BDA26A42F48012A2624A68CFE79A6892
:101F400042F48012F3E7002384F82430F0E7022003
:101F5000EEE700BF002801400024014038B50368C7
:101F600004469A68D10701D4002038BD9A6822F04F
:101F700001029A60FFF70EFE054623689B68DB07A7
:101F8000F2D5FFF707FE401B0228F6D923689B68AD
:101F9000DA07F2D5A36A012043F01003A362E36AD3
:101FA00043F00103E362E0E7F8B50446002877D088
:101FB000836A23B9C36280F82430FFF795FB20467B
:101FC000FFF7CCFFA36A13F010036BD1002869D18F
:101FD000A26A374E22F4885222F0020242F0020234
:101FE000A262D4E90021B242E56904D1B5F5402FDF
:101FF00008BF4FF40025267B41EA46012943A56826
:10200000B5F5807F37D0012D0CBF4FF4807C4FF0A9
:10201000000C277D012F06D17EBBA769013F4CEA4A
:10202000473646F4006C5668B5F5807F26F469465D
:1020300046EA0C06566097681E4E06EA070646EA10
:102040000106966001D0012D02D12369013B1B05D9
:10205000D56A25F470052B43D3629268164B134062
:10206000994213D10023E362A36A23F0030343F0F0
:102070000103A362F8BDAC46CBE7A66A46F0200692
:10208000A662E66A46F00106E662CCE7A36A23F0A0
:10209000120343F01003A362E36A43F00103E36217
:1020A0000120E7E7A36A43F01003A362F8E700BF4B
:1020B000003C0140FDF7E1FFFE0E1FFF0749030250
:1020C000CA6803F4E06322F4E0621204120C1343C2
:1020D00043F0BF6343F40033CB60704700ED00E092
:1020E000164B30B5DC68C4F30224C4F10703251D88
:1020F000042B28BF0423062D4FF0FF3598BF002482
:1021000005FA03F388BF033C21EA0303A34005FA61
:1021100004F422EA0402002843EA0203ACBF00F1FF
:102120006040074A4FEA0313DBB2ABBF00F56140E2
:1021300000F00F0080F80033135430BD00ED00E0D4
:1021400014ED00E0002808DB0123420900F01F0025
:1021500003FA00F0014B43F82200704700E100E071
:102160000138B0F1807F0AD2F021064B064A586050
:1021700082F823100020072298601A60704701201F
:10218000704700BF10E000E000ED00E090F8213063
:10219000022B06D004238363002380F82030012023
:1021A000704703681A6822F00E021A601A6822F05B
:1021B00001021A600123D0E90F218B4053604FF4D4
:1021C000807303840020704708B590F82130022BFB
:1021D00003D004238363012008BD036843491A68C0
:1021E00022F00E021A601A6822F001021A60404AB8
:1021F000934241D98B4238D014318B4237D01431BD
:102200008B4236D014318B4223D014318B4223D0F1
:1022100014318B4223D0934224D002F56272934250
:1022200023D01432934222D01432934221D014325C
:10223000934214BF4FF480334FF480532D4A5360C0
:102240004FF480730384436B002B4DD098470020DC
:10225000C2E74FF48053F1E74FF48033EEE74FF4D9
:102260008013EBE74FF08073E8E70123E6E71023E4
:10227000E4E74FF48073E1E78B422ED01E498B4296
:102280002DD014318B422CD014318B4219D0143103
:102290008B4219D014318B4219D093421AD0174A6D
:1022A00093421AD01432934219D01432934218D068
:1022B0001432934214BF4FF480334FF48053104ACA
:1022C000BDE74FF48053FAE74FF48033F7E74FF45C
:1022D0008013F4E74FF08073F1E70123EFE7102359
:1022E000EDE74FF48073EAE7184675E7080002400F
:1022F00080000240000402401C000240080402402A
:10230000000002402DE9F74F002216466B4F6C4B40
:10231000DFF8B4C1DFF8B4E10C6834FA06F502D195
:1023200003B0BDE8F08F4FF0010808FA06F804EAA0
:10233000080538EA040440F082804C68032C07D872
:10234000013C022C00F28D80DFE804F09EA3A9007E
:10235000122C00F0A18074D8112C00F09780FF2D72
:1023600098BF82464FF00F0988BF00F1040A4FEA78
:102370008604DAF8008088BF203C09FA04FB28EACA
:102380000B0802FA04F448EA0404CAF80040D1F841
:1023900004A01AF0805F52D0BC6926F0030844F014
:1023A0000104BC61BC6908F1804804F00104019497
:1023B00008F5803806F0030B019C4FEA8B0BD8F828
:1023C000084009FA0BF924EA09093E4CA0426AD0F8
:1023D00004F58064A04268D004F58064A04266D011
:1023E00004F58064A04264D004F58064A04262D009
:1023F00060450CBF0524062404FA0BF444EA0904E2
:10240000C8F808401C681AF4803F14BF2C43AC4342
:102410001C605C681AF4003F14BF2C43AC435C6042
:102420009C681AF4801F14BF2C43AC439C60DC688A
:102430001AF4001F14BF254324EA0505DD600136A8
:102440006AE774450DD018D8DFF884904C4508D061
:1024500009F570294C4504D0A9F580194C457FF445
:102460007EAF8A68EAB1012A08BFC0F810804FF039
:10247000080218BFC0F8148071E7DFF858904C4587
:10248000EFD009F58039E9E7CA6868E7CA6804321D
:1024900065E7CA68083262E7CA680C325FE7002263
:1024A0005DE704225BE70024A6E70124A4E70224F9
:1024B000A2E70324A0E704249EE700BF0010024027
:1024C0000004014000080140001C014000002210EF
:1024D00000001210000031100AB1016170470904B8
:1024E000FBE7C36801EA030221EA030141EA024172
:1024F000016170470122014B1A60704720000E42B3
:102500000022014B1A60704720000E422DE9F34172
:10251000054638B30368DB0710D42B689F075ED4E9
:102520002B68190700F195802B685A0700F1BF80CE
:10253000E869002840F02C81002029E08F4C636876
:1025400003F00C03042B07D0636803F00C03082B83
:102550000AD16368DE0307D523689C03DDD56B6869
:10256000002BDAD1012013E06B68B3F5803F12D164
:10257000236843F480332360FFF70CFB064623688F
:102580009803CAD4FFF706FB801B6428F7D9032001
:1025900002B0BDE8F0819BB9236823F48033236047
:1025A000236823F480232360FFF7F4FA06462368A8
:1025B0009903B2D5FFF7EEFA801B6428F7D9E6E756
:1025C000B3F5A02F236803D143F480232360CFE722
:1025D00023F480332360236823F48023CBE7674C04
:1025E000636813F00C0F07D0636803F00C03082B2B
:1025F00010D16368DA030DD423689B0702D52B69D9
:10260000012BAFD123686A6923F0F80343EAC203C0
:10261000236085E72A695A4B6AB101221A60FFF7E5
:10262000B9FA064623689F07ECD4FFF7B3FA801B7C
:102630000228F7D9ABE71A60FFF7ACFA0646236821
:1026400098077FF56DAFFFF7A5FA801B0228F6D932
:102650009DE7AA69494E4B4BDAB101221A60FFF798
:1026600099FA0446736A9B070DD54FF4FA52464B0C
:102670001B68B3FBF2F3019300BF019B5A1E01924A
:10268000002BF9D150E7FFF785FA001B0228E9D9A2
:102690007DE71A60FFF77EFA0446736A9F077FF5AD
:1026A00043AFFFF777FA001B0228F6D96FE7334CE8
:1026B000E369D80024D40127E36943F08053E36140
:1026C000E36903F080530093009B304E3368D905D3
:1026D00018D5EB68012B26D1236A43F0010323624E
:1026E000FFF758FA41F288380646236A9B073FD520
:1026F000002F3FF41DAFE36923F08053E36117E738
:102700000027E2E7336843F480733360FFF742FA4F
:1027100080463368DA05DCD4FFF73CFAA0EB08000A
:102720006428F6D933E7ABB9236A41F2883823F03D
:1027300001032362236A23F004032362FFF72AFACA
:102740000646236A9807D3D5FFF724FA801B404535
:10275000F7D91CE7052B236A03D143F00403236256
:10276000BAE723F001032362236A23F00403B6E7E8
:10277000FFF710FA801B4045B7D908E70010024068
:1027800000004242800442420000002000700040ED
:102790002A4B5A681C4602F00C02082A3DD000233E
:1027A000274E022833602BD1FFF7F4F90746236840
:1027B00099011FD42B6AB3F5803F05D16268A968DF
:1027C00022F400320A436260696A62680B4322F4B1
:1027D00074121343636001233360FFF7DBF905468E
:1027E00023689A013FF5A8AEFFF7D4F9401B0228F1
:1027F000F6D9CCE6FFF7CEF9C01B0228D7D9C6E63A
:10280000FFF7C8F9054623689B017FF595AEFFF7F2
:10281000C1F9401B0228F6D9B9E601283FF4B8AE49
:102820005B682A6A03F4803191427FF49BAE6A6A46
:1028300003F4701393423FF47FAE93E6001002401E
:102840006000424230B5184B87B002AC03F110056E
:10285000224618685968083303C2AB421446F7D1C0
:1028600040F201231149ADF804304B6803F00C022B
:10287000082A17D1C3F3834206A80244DB0312F8E7
:10288000102C0CD54B680A48C3F34043504306AAAA
:10289000134413F8143CB0FBF3F007B030BD054807
:1028A0005043FAE70248F8E7546800080010024075
:1028B00000127A0000093D002DE9F0410D46044662
:1028C00010B90120BDE8F081444A136803F0070302
:1028D0008B4228D321688E0730D4CA0743D43F4A9D
:1028E000136803F00703AB4265D822683C4D12F031
:1028F000040F6CD1130706D56B68226923F460536B
:1029000043EAC2036B60FFF79DFF6B68354AC3F370
:102910000313D35CD840344B1860344B1868FFF76E
:10292000F7F80020CEE7136823F007030B4313608A
:10293000136803F007038B42C3D1CBE7284B11F098
:10294000040F1EBF5A6842F4E0625A60080742BF93
:102950005A6842F460525A605A68A06822F0F00245
:1029600002435A60B9E762681D4E012A33681AD1E2
:1029700013F4003FA5D0736841F2883823F00303B5
:1029800013437360FFF706F907467368626803F044
:102990000C03B3EB820FA2D0FFF7FCF8C01B40453D
:1029A000F3D903208EE7022A02D113F0007FE1E77A
:1029B00013F0020FDEE7136823F007032B431360C5
:1029C000136803F00703AB427FF47BAF8DE76B68BE
:1029D000E16823F4E0630B436B608BE70020024067
:1029E000001002403C6800080000002008000020A1
:1029F000044B054A5B68C3F30223D35C034A1068A7
:102A0000D8407047001002404C68000800000020C9
:102A1000044B054A5B68C3F3C223D35C034A1068C6
:102A2000D8407047001002404C68000800000020A9
:102A300003682DE9F341D907054620D5354CE369F4
:102A4000DA0032D40127E36943F08053E361E3699C
:102A500003F080530193019B2F4E3368DB0526D58D
:102A6000236A13F4407336D1236A6A6823F44073EF
:102A7000134323621FB1E36923F08053E3612868A5
:102A8000830706D52349AB684A6822F440421A43BB
:102A90004A6010F010001BD01E4A6969536800207C
:102AA00023F480030B43536012E00027D4E733681C
:102AB00043F480733360FFF76DF880463368D805C0
:102AC000CED4FFF767F8A0EB08006428F6D90320FE
:102AD00002B0BDE8F0816A6802F440729A42C3D045
:102AE00001200E4A236A1060002023F44071106018
:102AF0002162D907B8D5FFF74DF841F2883806466C
:102B0000236A9A07B0D4FFF745F8801B4045F7D9F0
:102B1000DDE700BF00100240007000404004424268
:102B2000034670B53C4A86B002AD02F110062C4651
:102B300010685168083203C4B2422546F7D140F20A
:102B40000122082BADF804200AD8002B2ED0013B1F
:102B5000072B5FD8DFE803F032505E2D5E5E5E2DFE
:102B6000102B57D12D4A5168136813F080731DD074
:102B7000C1F38343C90348BF516806A844BFC1F3EA
:102B800040410918034444BF11F8141C24485268FA
:102B90004CBFB0FBF1F0234813F8103C520200FB8D
:102BA00003F303D403205B00B3FBF0F3184606B035
:102BB00070BD06B0BDE87040FFF744BE40F2023180
:102BC000164A136A1940B1F5817F20D003F440738F
:102BD000B3F5007F07D1536A49F6404213F0020370
:102BE00018BF1346E2E7B3F5407F13D113684FF2E5
:102BF000244213F40033F3E7FFF70AFF074B5B6847
:102C0000C3F3813301335B00B0FBF3F3CEE74FF442
:102C10000043CBE70023C9E75468000800100240D6
:102C200000127A0000093D00036A70B523F0010329
:102C30000362036A446882690D6822F073022A43C2
:102C40008D6823F002032B430E4DA84202D00E4E96
:102C5000B04210D1CE6823F008033343A84223F0DA
:102C6000040302D0084DA84205D1D1E9055624F449
:102C7000407435432C43446082614A684263036276
:102C800070BD00BF002C014000340140036A70B5E4
:102C900023F480730362036A4468C2690D6822F0FA
:102CA00073022A438D6823F4007343EA0523114D10
:102CB000A84203D005F50065A84214D1CD6823F4DD
:102CC000006343EA05230B4D23F48063A84203D03D
:102CD00005F50065A84206D1D1E9055624F4405413
:102CE000354344EA05144460C2614A68C263036222
:102CF00070BD00BF002C0140036A30B523F480533F
:102D00000362036A4468C2690D6822F4E64242EA3B
:102D100005228D6823F4005343EA0533084DA84289
:102D200003D005F50065A84204D14D6924F4804420
:102D300044EA85144460C2614A680264036230BD9B
:102D4000002C01407047034630B590F83E2090F8C3
:102D50003F0093F8425093F84340D2B2C0B2EDB274
:102D6000E4B2C1B9012A45D1012D45D1022283F82F
:102D70003E2083F842201A68116A21F00101116295
:102D8000116A41F00101002011621A68136843F0D2
:102D90000103136030BD042911D101282AD1012C6F
:102DA000F8D1022283F83F2083F843201A68116A81
:102DB00021F010011162116A41F01001E3E7012ACC
:102DC00018D1012818D1012DE4D1012CE2D1022221
:102DD00083F83E2083F83F2083F8422083F8432085
:102DE0001A68116A21F001011162116A41F00101B2
:102DF0001162DCE70120CDE71046CBE7244A0368E7
:102E0000904212D002F5006290420ED0B0F1804F95
:102E10000BD0A2F59832904207D002F58062904222
:102E200003D002F5806290421DD14A6823F07003FE
:102E30001343174A904212D002F5006290420ED01E
:102E4000B0F1804F0BD0A2F59832904207D002F536
:102E50008062904203D002F58062904203D1CA683A
:102E600023F4407313434A6923F080031343036040
:102E70008B68C3620B688362054B984203D003F5ED
:102E80000063984201D10B690363012343617047DA
:102E9000002C014010B5044630B390F83D3003F0EB
:102EA000FF021BB980F83C20FEF768FC0223206873
:102EB00084F83D30211DFFF7A1FF0123002084F895
:102EC000463084F83E3084F83F3084F8403084F84F
:102ED000413084F8423084F8433084F8443084F838
:102EE000453084F83D3010BD0120FCE710B50446A4
:102EF00030B390F83D3003F0FF021BB980F83C205E
:102F0000FFF720FF0223206884F83D30211DFFF7E2
:102F100075FF0123002084F8463084F83E3084F8A1
:102F20003F3084F8403084F8413084F8423084F8EF
:102F3000433084F8443084F8453084F83D3010BD87
:102F40000120FCE7F8B50D46044600284DD090F866
:102F50003D3003F0FF021BB980F83C20FEF750FC27
:102F60000223214684F83D3051F8040B836823F492
:102F7000804323F007038360FFF740FF20682B683E
:102F800086688269A9681E43AB6922F4407222F008
:102F9000030241EA0323134323F47C422B69E969CA
:102FA0001B0143EA0123E968076A0B43296A22F0FF
:102FB000FC0243EA01331343696927F022026F6878
:102FC000866047EA011783611743012307620020E7
:102FD00084F8463084F83E3084F83F3084F842303C
:102FE00084F8433084F83D30F8BD0120FCE7000050
:102FF000036A70B523F010030362036A44688269B0
:103000000D6822F4E64242EA05228D6823F020038F
:1030100043EA0513104DA84203D005F50065A84208
:1030200014D1CD6823F0800343EA05130A4D23F041
:103030004003A84203D005F50065A84206D1D1E9B6
:10304000055624F44064354344EA850444608261B3
:103050004A688263036270BD002C014038B590F865
:103060003C300446012B52D00123082A80F83C3022
:103070003CD006D8C2B1042A27D0002084F83C00F6
:1030800038BD0C2AF9D10068FFF736FE23680969BC
:10309000DA6942F40062DA61DA6922F48062DA61A4
:1030A000DA6942EA012230E00068FFF7BDFD2368DB
:1030B00009699A6942F008029A619A6922F0040249
:1030C0009A619A690A439A61D7E70068FFF790FF0F
:1030D000236809699A6942F400629A619A6922F444
:1030E00080629A619A6942EA0122ECE70068FFF780
:1030F000CDFD23680969DA6942F00802DA61DA690C
:1031000022F00402DA61DA690A43DA61B5E70220E3
:10311000B6E710B584680A4324F47F4442EA0322E8
:103120002243826010BD70B590F83C300446012BFC
:103130004FF0020027D0012384F83D00206884F876
:103140003C30836823F47F4323F0770383600B686C
:10315000602B4DD032D8402B62D015D8202B03D015
:1031600009D833F0100208D1826822F070021343AC
:1031700043F0070320E0302BF6D00123002084F831
:103180003D3084F83C0070BD502BF6D14A68CE68C3
:10319000016A056A21F00A0125F0010505628369CB
:1031A0000A4323F0F00343EA061383610262836853
:1031B00023F0700343F057038360DEE7702B0CD0DD
:1031C000B3F5005FD9D1CB68D1E90121FFF7A1FFA9
:1031D0002268936843F4804308E0CB68D1E9012179
:1031E000FFF797FF2268936843F077039360C4E783
:1031F0004D68CE68016A21F0100101628269036A9C
:1032000022F4704223F0A00343EA051342EA063297
:1032100082610362836823F0700343F06703CBE7A6
:103220004A68CE68016A056A21F00A0125F00105A5
:10323000056283690A4323F0F00343EA06138361BE
:103240000262836823F0700343F04703B4E710B5CC
:103250000124036A01F01F018C4023EA0403036286
:10326000036A8A401A43026210BD000010B504468A
:1032700029B990F83E30012B1DD0012032E00429FD
:1032800007D190F83F30012BF7D1022380F83F306F
:1032900014E0082907D190F84030012BEDD102232A
:1032A00080F840300AE090F84130012BE5D102234C
:1032B00080F8413002E0022380F83E30012220688D
:1032C000FFF7C5FF2368154A93420CD014498B427F
:1032D00009D0B3F1804F10D19A6802F00702062A94
:1032E00016D1002010BD596C934241F4004159643D
:1032F000F2D00B4A9342EFD0EBE70A4A9342EBD06D
:1033000002F580629342E7D002F580629342E3D0F7
:103310001A6842F001021A60E3E700BF002C014086
:103320000034014000040040FFF7A0BF30B590F822
:103330003C300246012B4FF002002AD0136882F87D
:103340003D005C680D6824F070042C4398685C6054
:10335000104CA34212D004F50064A3420ED0B3F186
:10336000804F0BD0A4F59834A34207D004F58064B5
:10337000A34203D004F58064A34204D1496820F03D
:103380008000014399600123002082F83D3082F8DB
:103390003C0030BD002C014090F83C30012B1FD088
:1033A000CB688A6823F4407313434A6823F480632C
:1033B00013430A6823F4006313430A6923F4805318
:1033C00013434A6923F400531343CA6923F4804327
:1033D000134302685364002380F83C30184670475A
:1033E000022070470368DA6822F49072DA605A6942
:1033F00022F001025A61026B012A02BFDA6822F050
:103400001002DA60202380F83E3000230363704707
:1034100010B504460368C1681A6922F440520A4391
:103420001A6182680069D9680243606921F4B05169
:1034300021F00C0102430A43DA605A69A16922F4BF
:1034400040720A435A610E4A934215D1FFF7E0FADF
:1034500019234343626820689200B3FBF2F36422AD
:10346000B3FBF2F102FB11331B013233B3FBF2F376
:1034700003EB0113836010BDFFF7BAFAE8E700BF62
:1034800000380140F8B504460E4617461D4622682E
:10349000136836EA030301D1002014E06B1CF7D057
:1034A00095B923680320DA6822F4D072DA605A6989
:1034B00022F001025A61202384F83D3084F83E3026
:1034C000002384F83C30F8BDFEF764FBC01B854246
:1034D000DDD2E6E710B5044640B390F83D3003F086
:1034E000FF021BB980F83C20FEF764FA242322680F
:1034F00084F83D30D368204623F40053D360FFF7AF
:1035000087FF236800201A6922F490421A615A69E1
:1035100022F02A025A61DA6842F40052DA6020236B
:10352000206484F83D3084F83E3010BD0120FCE773
:103530002DE9F843994690F83D300446202B0E467D
:10354000174648D1002944D0002A42D090F83C3098
:10355000012B40D00123002580F83C302123056455
:1035600080F83D30FEF716FBA3688046B3F5805F18
:10357000A784E78403D123690BB935461E4600238F
:1035800084F83C30E38C9BB253B94B464246402111
:103590002046FFF777FF50B9202384F83D3007E03D
:1035A0004B46424680212046FFF76CFF10B10320B6
:1035B000BDE8F88322684EB935F8023BC3F308032F
:1035C0005360E18C013989B2E184DBE716F8013BF5
:1035D000F6E70120ECE70220EAE77047704708B5FC
:1035E0000023406AC385C384FFF7F8FF08BD704716
:1035F00013B590F83E30222B49D18168836AB1F52A
:10360000805F026833D10169002933D15268C2F367
:10361000080223F8022BC48D8362013CA4B2C48546
:103620001CBB0368DA6822F02002DA60DA6822F450
:103630008072DA605A6922F001025A61202280F811
:103640003E20026B012A1FD10463DA6822F01002C7
:10365000DA601A68D20605D501941A6801925B688F
:103660000193019B818DFFF7C2FF002010E039B963
:10367000016929B95268D2B21A70836A0133CAE764
:10368000526802F07F02F7E7FDF794FEEDE70220B3
:1036900002B010BD036837B51A68044612F00F0F68
:1036A000D9685D6908D195065FD58D065DD503B0F3
:1036B000BDE83040FFF79CBF05F0010001F49075B4
:1036C000054352D0D50705D5CB0542BF236C43F047
:1036D00001032364550704D518B1236C43F002039A
:1036E0002364930704D518B1236C43F004032364C7
:1036F000150707D501F0200303431EBF236C43F0D9
:1037000008032364236C53B3920604D58B0602D5B9
:103710002046FFF76DFF236820465B69256C03F0A8
:10372000400305F008051D431BD0FFF75BFE23682F
:103730005A69550610D55A69A06B22F040025A61A9
:1037400050B1534B4363FEF73FFD40B1A06B436B59
:1037500003B0BDE8304018472046FFF73FFF03B0F5
:1037600030BDFFF73BFF2564F9E7206B012855D1F9
:10377000D00653D5CD0651D5002101911A6801928A
:103780005A680192019A5A6912F040022AD0A06B3D
:103790000268526892B2002AE1D0A58D9542DED926
:1037A000E2858269202A15D0DA6822F48072DA6014
:1037B0005A6922F001025A615A6922F040025A61A4
:1037C000202284F83E202163DA6822F01002DA60B9
:1037D000FEF7DCFCE38DA18DC91A89B22046FFF704
:1037E00006FFBCE7E18D88B2E18D89B20029B6D031
:1037F000A18D091A89B20029B1D0D86820F490703F
:10380000D860586920F001005861202084F83E00FB
:103810002263DA6822F01002DA60DFE7100626D5AC
:103820000D0624D594F83D20212A98D1A168226A5A
:10383000B1F5805F16D12169A1B932F8021BC1F33D
:10384000080159602262E28C013A92B2E284002AB5
:1038500085D1DA6822F08002DA60DA6842F040024C
:10386000DA607CE7511C216212785A60EBE750065F
:103870007FF575AF4A067FF572AFDA68204622F011
:103880004002DA60202384F83D30FFF7A6FE66E7A9
:10389000DF350008C285828581620346222200202E
:1038A000186483F83C0083F83E201B68DA6842F411
:1038B0008072DA605A6942F001025A61DA6842F0B5
:1038C0002002DA60704770B490F83E60202E10D16C
:1038D00061B15AB190F83C40012C0AD0012480F823
:1038E0003C400024046370BCFFF7D4BF012070BCCF
:1038F00070470220FBE70000EFF3058313B16FF080
:1039000005007047EFF31083002BF8D1074B1868C0
:10391000022806D1EFF31183002BF0D14FF0FF30D6
:1039200070470028FAD101221A607047F402002083
:1039300010B5EFF3058313B16FF0050010BDEFF381
:103940001084002CF8D1094B1A68022A06D1EFF333
:103950001183002BF0D14FF0FF30EFE7012AFAD1AD
:1039600002221A6000F0A0FD2046E7E7F4020020E2
:10397000F0B51446002287B00B460592EFF305829E
:1039800052BBEFF310823ABB264A1268022A02D1D8
:10399000EFF3118202BBF8B100228DF81320002C46
:1039A00030D0216809B90DF11301A569002D08BFB8
:1039B00018256A1E372AAC462AD86268D20727D44F
:1039C000666966B1B208D4E9027E57B1BEF15B0FF9
:1039D00002D9246904B1EEB9059807B0F0BD802280
:1039E000F1E7BEF1000FF7D12469002CF4D105AC4A
:1039F000CDE900C492B200F02AFD01281CBF0023CB
:103A00000593E9E74FF0180C80220DF11301EEE762
:103A10000020E2E7CDE90147009500F0E1FC0590C8
:103A2000DAE700BFF402002008B5EFF3058313B115
:103A30006FF0050008BDEFF31083002BF8D1074BA2
:103A40001B68022B03D1EFF31183002BF0D1002868
:103A5000F0D000F07FFE0020ECE700BFF402002071
:103A6000034B0360034B0B6080231360704700BF60
:103A70009802002098000020034B0360034B0B606A
:103A80004FF4807313607047F8060020F80200209E
:103A90004FF0FF3200F10803C0E9022343600361E5
:103AA00000230360704700230361704743689A68EE
:103AB0004B608A609A6851609960036808610133BD
:103AC0000360704730B50C68631C0AD103695A68FB
:103AD0004A6091608B60596003680861013303603C
:103AE00030BD00F10802134652681568A542FAD9A4
:103AF000EDE70369D0E901128A605160596881429B
:103B000008BF5A60002202611A68013A1A601868F8
:103B1000704710B5044601F0D5F9A46B01F0F4F933
:103B2000B4FA84F0400910BDF8B51546026C04469D
:103B3000866B52B9076847BB406800F043FF0546F3
:103B4000676001362846A663F8BD65B9806801F054
:103B5000DBFBA368226C13446268A3609342F0D33A
:103B60002368A360EDE7C06801F0CEFB226CE36838
:103B700051429B1A2268E36093423EBF63685B1820
:103B8000E360022D01D116B1013E0025D9E735468B
:103B9000D7E703461A6C084610B462B1DC6859686E
:103BA00014448C4228BF1968DC6028BFD960D968EA
:103BB00010BC01F0A9BB10BC704770B5044601F001
:103BC00081F994F8455004F124066DB2002D14DCFF
:103BD000FF2384F8453001F097F901F073F994F868
:103BE000445004F110066DB2002D12DCFF2384F85E
:103BF0004430BDE8704001F087B9636A002BE7D01C
:103C0000304600F041FE08B100F0C6FE013D6DB245
:103C1000DCE72369002BE9D0304600F035FE08B11F
:103C200000F0BAFE013D6DB2DEE7000038B50D468A
:103C3000044640B94FF0500383F31188BFF36F8FF0
:103C4000BFF34F8FFEE701F03DF9D4E90F314B434D
:103C50002268D0185B1A13446060E3600020FF23E1
:103C6000A063A26084F8443084F8453095B9236994
:103C700063B104F1100000F007FE38B14FF080523C
:103C8000094B1A60BFF34F8FBFF36F8F01F03CF900
:103C9000012038BD04F11000FFF7FAFE04F1240002
:103CA000FFF7F6FEF2E700BF04ED00E037B50D4682
:103CB0001C4640B94FF0500383F31188BFF36F8F58
:103CC000BFF34F8FFEE743B94FF0500383F31188E2
:103CD000BFF36F8FBFF34F8FFEE74AB191B94FF03B
:103CE000500383F31188BFF36F8FBFF34F8FFEE74D
:103CF00041B14FF0500383F31188BFF36F8FBFF3CF
:103D00004F8FFEE750230193019B502B08D04FF0BB
:103D1000500383F31188BFF36F8FBFF34F8FFEE71C
:103D20000121002D08BF2246C4E90F0584F8461082
:103D300020462260FFF77AFF20469DF8183084F86D
:103D40004C3003B030BD00002DE9FF4788461F46C8
:103D50000446019240B94FF0500383F31188BFF33A
:103D60006F8FBFF34F8FFEE751B9036C43B14FF034
:103D7000500383F31188BFF36F8FBFF34F8FFEE7BC
:103D8000022F0BD1E36B012B08D04FF0500383F3CC
:103D90001188BFF36F8FBFF34F8FFEE700F002FE75
:103DA000064650B9019B4BB14FF0500383F3118885
:103DB000BFF36F8FBFF34F8FFEE700264FF0000970
:103DC000DFF8E4A037E0019D1DB901F09DF8002067
:103DD00050E016B902A800F097FD01F095F800F048
:103DE000A7FB01F06FF894F84430FF2B08BF84F86C
:103DF000449094F84530FF2B08BF84F8459001F0BB
:103E000083F801A902A800F08BFD002846D101F03B
:103E100059F8A26BE36B9A422FD101F075F8019922
:103E200004F1100000F0F6FC2046FFF7C6FE00F09B
:103E30001DFC50B3012601F045F8A26BE36B9A42DA
:103E400001D3022FBFD13A4641462046FFF76CFE10
:103E5000636A1BB104F1240000F016FD38B14FF085
:103E60008052114B1A60BFF34F8FBFF36F8F01F079
:103E70004BF8012004B0BDE8F08701F045F820467A
:103E8000FFF79BFE00F0F2FBD4E74FF08053CAF837
:103E90000030BFF34F8FBFF36F8FCBE72046FFF7A4
:103EA0008CFE00F0E3FB92E704ED00E02DE9F8431F
:103EB000894690461F46044640B94FF0500383F3AD
:103EC0001188BFF36F8FBFF34F8FFEE751B9036CBB
:103ED00043B14FF0500383F31188BFF36F8FBFF3EB
:103EE0004F8FFEE7022F0BD1E36B012B08D04FF071
:103EF000500383F31188BFF36F8FBFF34F8FFEE73B
:103F000001F0C0F8EFF311864FF0500383F31188EE
:103F1000BFF36F8FBFF34F8FA26BE36B9A4201D356
:103F2000022F22D194F845503A46494620466DB2B8
:103F3000FFF7FAFD6B1C13D1636A0BB901200BE08C
:103F400004F1240000F0A0FC0028F7D0B8F1000F25
:103F5000F4D00120C8F8000086F31188BDE8F8838A
:103F600001356DB284F84550E8E70020F4E7000021
:103F70002DE9F04385B00F460446019240B94FF059
:103F8000500383F31188BFF36F8FBFF34F8FFEE7AA
:103F900051B9036C43B14FF0500383F31188BFF361
:103FA0006F8FBFF34F8FFEE700F0FCFC064650B961
:103FB000019B4BB14FF0500383F31188BFF36F8F18
:103FC000BFF34F8FFEE700264FF00008DFF8DC90CC
:103FD0003BE0019D1DB900F097FF002052E016B9AB
:103FE00002A800F091FC00F08FFF00F0A1FA00F0B1
:103FF00069FF94F84430FF2B08BF84F8448094F89C
:104000004530FF2B08BF84F8458000F07DFF01A9F3
:1040100002A800F085FC00283DD12046FFF779FD7D
:1040200098B3019904F1240000F0F4FB2046FFF757
:10403000C4FD00F01BFB38B94FF08053C9F80030C5
:10404000BFF34F8FBFF36F8F012600F03BFFA56BCF
:10405000002DBED039462046013DFFF79AFDA563ED
:10406000236963B104F1100000F00EFC38B14FF089
:1040700080520E4B1A60BFF34F8FBFF36F8F00F06B
:1040800043FF012005B0BDE8F0832046FFF795FD12
:1040900000F0ECFAD8E72046FFF78FFD00F0E6FAD3
:1040A0002046FFF736FD0028CED096E704ED00E06D
:1040B000002330B5064A52F8335002EBC3041DB951
:1040C00042F83310606030BD0133082BF3D1FAE7BA
:1040D0002420002070B504460D46164600F0F2FE7E
:1040E00094F84430FF2B04BF002384F8443094F844
:1040F0004530FF2B04BF002384F8453000F004FF57
:10410000A36B2BB93246294604F1240000F09CFB36
:104110002046BDE87040FFF750BD00002DE9F0419A
:10412000044600F0CFFE2F4B2F4D1A682F4F01325F
:104130001A602E68002E49D12C601B68012B1FD1FC
:10414000B84640460136FFF7A3FC382E08F11408A4
:10415000F7D1DFF8C480264E4046FFF799FC304681
:10416000FFF796FC2348FFF793FC2348FFF790FCEA
:104170002248FFF78DFC224BC3F80080214B1E60C4
:104180001420214A136801331360204A63641168C4
:10419000E36A8B4200FB037004F1040188BF1360E3
:1041A000FFF784FC00F0B0FE194B1B6863B12B686D
:1041B000DA6AE36A9A4207D24FF08052154B1A60CE
:1041C000BFF34F8FBFF36F8FBDE8F081104B1B68BB
:1041D000002BD5D12B68DA6AE36A9A4298BF2C602B
:1041E000CEE700BFC00B002054070020600700206E
:1041F000EC0B0020080C0020340C0020200C0020C8
:10420000580700205C070020D00B0020D40B0020B2
:104210001C0C002004ED00E0D80B0020064A1368B7
:104220001968064B19B94FF0FF321A6070471268CF
:10423000D268D2685268F8E758070020000C0020C6
:104240002DE9F0470D46DDE909844FEA82094A4627
:104250000646A521206B1F4601F064F8226BA9F1E8
:10426000040991446B1E29F0070904F134020F354B
:1042700013F8011F02F8011B197809B1AB42F7D1FD
:10428000089D4FF0000A372D28BF3725201DC4E9AF
:10429000135AE56284F843A0FFF705FCC5F1380521
:1042A00004F11800FFF7FFFBC4F854A03A4631466A
:1042B00048462461A561646284F858A000F0DEFDE0
:1042C0002060B8F1000F01D0C8F80040BDE8F087C9
:1042D00010B590F8593004463BB9006B00F0AEFFC2
:1042E0002046BDE8104000F0A9BF012BF9D0022BF9
:1042F00008D04FF0500383F31188BFF36F8FBFF3E3
:104300004F8FFEE710BD000080B5DFF85C80124FD4
:10431000124C134D236863B9124B1B68012BF8D95B
:104320004FF08053C8F80030BFF34F8FBFF36F8F4B
:10433000EEE700F0C7FDFB68DE68301DFFF7D9FB34
:104340002B68013B2B602368013B236000F0DCFD00
:104350003046FFF7BDFFDDE7340C0020C40B002022
:10436000C00B00206007002004ED00E0F8B5054612
:10437000154B164E1C6830680F460430FFF7B9FB2A
:104380006B1C334607D137B1316811480431BDE8A1
:10439000F840FFF78BBB1A686419546007D30D4AC5
:1043A00010681968BDE8F8400431FFF78BBB0A4A72
:1043B000106819680431FFF785FB084B1A68A242A0
:1043C00088BF1C60F8BD00BF480C002054070020C7
:1043D000200C00205C07002058070020000C002063
:1043E00070B586B0DDE90B5445B94FF0500383F347
:1043F0001188BFF36F8FBFF34F8FFEE744B94FF0C3
:10440000500383F31188BFF36F8FBFF34F8FFEE725
:104410005C260496049E5C2E08D04FF0500383F374
:104420001188BFF36F8FBFF34F8FFEE7256302251F
:1044300084F8595005AD01950A9D02940095FFF747
:10444000FFFE2046FFF76AFE059806B070BD2DE915
:10445000F043074685B0900088461646994600F01E
:1044600063FE0546E8B15C2000F05EFE0446A8B19C
:10447000002380F859300D9B056301930C9B324655
:1044800041460290009338464B46FFF7D9FE20463E
:10449000FFF744FE012005B0BDE8F083284600F098
:1044A000CDFE4FF0FF30F6E710B5002488B007AA24
:1044B00006A905A8CDE90544FFF7D2FA059B079A9E
:1044C0000293069B1549CDE9004315482346FFF7A3
:1044D00087FFA8B100F00AFB012813D14FF0500369
:1044E00083F31188BFF36F8FBFF34F8F4FF0FF320D
:1044F0000C4B1A600C4B18600C4B1C6000F06AFDF2
:1045000008B010BD0130FBD14FF0500383F3118888
:10451000BFF36F8FBFF34F8FFEE700BF65680008E2
:1045200009430008000C00201C0C0020480C00204F
:10453000024A136801331360704700BFCC0B0020A0
:10454000014B1868704700BF480C00202DE9F84F58
:104550003B4B1B68002B6DD13A4B1D6801351D602C
:10456000BDB9394B1A68126842B14FF0500383F35A
:104570001188BFF36F8FBFF34F8FFEE7334A19687F
:10458000106818601160324A136801331360FFF736
:1045900045FE304E002433682F4FAB4210D92F4BCD
:1045A0001B68DA6A14235343FB58022B28BF0124EB
:1045B0002B4B1B68002B0CBF20460120BDE8F88F59
:1045C000DFF88490DFF8A0A0D9F800301B681BB991
:1045D0004FF0FF333360E2E7D9F80030DB68D3F8FF
:1045E0000CB0DBF80420954201D23260D7E70BF122
:1045F00004084046FFF77DFADBF828201AB10BF1DA
:104600001800FFF776FA1423DBF82C00DAF8002004
:104610004146904288BFCAF8000003FB0070FFF7D4
:1046200045FA0E4BDBF82C201968CB6A9A4228BF5A
:104630000124C9E70B4A0024136801331360B7E76C
:10464000CC0B0020480C0020580700205C070020FD
:10465000040C0020000C00206007002054070020FC
:104660004C0C0020C80B0020D40B00202DE9F04199
:104670002F4C236843B94FF0500383F31188BFF3E5
:104680006F8FBFF34F8FFEE700F01CFC2368013BE8
:10469000236024682CB1002400F036FC2046BDE8DD
:1046A000F081244B1B68002BF5D0234D234EDFF8FF
:1046B000A0801DE0EB68DC68271D04F11800FFF7FF
:1046C00018FA3846FFF715FA1420E36A326800FB3F
:1046D00003809342394688BF3360FFF7E7F9184BF0
:1046E000E26A1B68DB6A9A4202D30122154B1A6008
:1046F0002B68002BDED10CB1FFF790FD124D2C681A
:1047000044B101270F4EFFF721FF00B13760013C94
:10471000F9D12C600B4B1B68002BBCD04FF08052A2
:104720000A4B1A60BFF34F8FBFF36F8F0124B3E7BB
:10473000CC0B0020C00B0020080C0020D40B002064
:10474000540700204C0C0020C80B002004ED00E0B2
:104750006007002008B540B94FF080520D4B1A6039
:10476000BFF34F8FBFF36F8F08BD0B4B196841B17B
:104770004FF0500383F31188BFF36F8FBFF34F8F58
:10478000FEE7FFF7D5FEFFF7F1FDFFF76FFF00280B
:10479000E2D0E9E704ED00E0CC0B0020184BF0B5C7
:1047A0001A68184B12B101221A60F0BD1A60164A3D
:1047B00014271646154D2B6807FB03F15458501863
:1047C00094B14468083164680A44944208BF62683E
:1047D000446008BF4260142202FB03625268D16841
:1047E0000B4A11602B60E0E743B94FF0500383F3AD
:1047F0001188BFF36F8FBFF34F8FFEE7013BDBE7FD
:10480000CC0B00204C0C002060070020D40B0020B3
:104810005407002010B50C4640B94FF0500383F305
:104820001188BFF36F8FBFF34F8FFEE7054B1968F9
:104830001831FFF747F92046BDE810400121FFF786
:1048400095BD00BF5407002038B50D46144640B949
:104850004FF0500383F31188BFF36F8FBFF34F8F77
:10486000FEE7084B19681831FFF720F9002C2146A4
:1048700008BF2846BDE8384018BF4FF0FF30FFF7AB
:1048800075BD00BF5407002038B5C368DC6844B963
:104890004FF0500383F31188BFF36F8FBFF34F8F37
:1048A000FEE704F118052846FFF723F9104B1B68B3
:1048B000DBB9251D2846FFF71CF90E4A14201168A4
:1048C000E36A8B42294688BF13600B4A00FB032032
:1048D000FFF7ECF8094BE26A1B68DB6A9A4285BF76
:1048E0000120074B0020186038BD29460548EFE736
:1048F000CC0B0020D40B00206007002054070020C0
:104900004C0C0020080C0020034B1B680360034B79
:104910001B684360704700BF040C0020480C002057
:1049200070B50C46054640B94FF0500383F311882B
:10493000BFF36F8FBFF34F8FFEE741B94FF05003C6
:1049400083F31188BFF36F8FBFF34F8FFEE700F043
:10495000B9FA0F4B196823685A1C10D00D482E68FD
:1049600000686A68864201D08A420FD9881A834259
:104970000AD95B1A134428462360FFF7C5FF0024B9
:1049800000F0C2FA204670BD002323600124F7E73F
:10499000480C0020040C00200122014B1A607047D3
:1049A0004C0C0020054B1B6833B1054B1B68002BDA
:1049B0000CBF022000207047012070471C0C002013
:1049C000CC0B002038B508B9002038BD1B4B1C6843
:1049D000844208D04FF0500383F31188BFF36F8FE8
:1049E000BFF34F8FFEE7236D43B94FF0500383F3BE
:1049F0001188BFF36F8FBFF34F8FFEE7E16AE26C60
:104A0000013B91422365DFD0002BDDD1251D2846D7
:104A1000FFF76FF81420E36CC3F13802A261084A73
:104A2000E36211688B4288BF1360064A294600FB87
:104A30000320FFF73BF80120C7E700BF5407002021
:104A4000D40B002060070020F7B5114C00F03AFAB3
:104A50002568BDB90F4F104E3846FFF719F830469C
:104A6000FFF716F80D4B10211F600D4B0A201E603A
:104A70000C4A0D4B0095FFF719F9206010B10B4956
:104A8000FFF716FB03B0BDE8F04000F03DBA00BFF1
:104A9000740D0020F80C00200C0D0020500C00209C
:104AA000540C0020580C0020240D00206A680008D7
:104AB000914208B5416000610AD8D21A83699A42CE
:104AC0000DD2084B011D1868FEF7FCFF002008BD41
:104AD0009A4201D2994202D2034B011DF3E7012011
:104AE000F5E700BF540C0020500C002010B588B032
:104AF000FFF7AAFF124B1B68B3B1002407AA06A94F
:104B000005A8CDE90544FEF7B7FF059B079A029378
:104B1000069B0C49019302230B4800932346FFF7A1
:104B20005FFC0A4B186040B94FF0500383F31188C3
:104B3000BFF36F8FBFF34F8FFEE7012008B010BDAA
:104B4000740D00206F680008254C0008780D0020C7
:104B50007FB5164604461A4640B94FF0500383F31A
:104B60001188BFF36F8FBFF34F8FFEE70D4D28689D
:104B700080B10529CDE9001602940DDCFFF712FF84
:104B80000023022818BF1A46694608BF089A2868F9
:104B9000FFF7DAF804B070BD00236946FFF786F925
:104BA000F8E700BF740D00202DE9F3414FF0000835
:104BB0001A4D2B681A6832B9194A116813602960B6
:104BC00002B0BDE8F081DB68DC681E68271D38464E
:104BD000FEF78FFF636A20469847E369012BE8D10F
:104BE000A36933449E4206D2394628686360246133
:104BF000FEF768FFDDE70023324619462046CDF870
:104C00000080FFF7A5FF0028D3D14FF0500383F3B6
:104C10001188BFF36F8FBFF34F8FFEE7500C00205A
:104C2000540C00202DE9F04F774EDFF8EC91B046A0
:104C300087B03368D3F800B0BBF1000F48D0DB6811
:104C4000D3F800A0FFF774FCFFF77AFC6F4D044621
:104C50002B682F4698423DD2FFF7A6FF2C60FFF746
:104C600005FD4FF0000BDFF8ACA10022DAF80000E0
:104C700002A9FFF77DF90028DBD0029B0498002BE6
:104C800072DB049C6369002B76D1FFF759FC3B680B
:104C90000546984201D2FFF787FF029B3D60092B32
:104CA000E3D801A252F823F0814D0008814D00089D
:104CB000814D00086B4C0008CF4D0008F54D0008F1
:104CC000814D0008814D00086B4C0008CF4D000855
:104CD000DA46B7E72860BBF1000F2AD0824541D8F9
:104CE000FFF7C4FCD8F80030DB68DD68281DFEF74C
:104CF00000FFEB69012B18D1A969534622462846CB
:104D00005144FFF7D5FE80B100235246194628468C
:104D10000093FFF71DFF40B94FF0500383F3118854
:104D2000BFF36F8FBFF34F8FFEE728466B6A98473C
:104D300097E7374B1B681A68B2FA82F25209354B73
:104D4000AAEB04011868FFF7C5F9FFF78FFC0028EC
:104D500087D14FF08053C9F80030BFF34F8FBFF3B6
:104D60006F8F7EE70022EAE7039B05999847029B35
:104D7000002BFFF67AAF84E7201DFEF7BAFE84E72A
:104D8000A169039B2A4620461944FFF791FE00289B
:104D90003FF46BAF636A20469847E369012B7FF4C9
:104DA00064AF0023A269039920460A44CDF800B0FD
:104DB0001946FFF7CDFE00287FF457AF4FF05003A0
:104DC00083F31188BFF36F8FBFF34F8FFEE7039913
:104DD000A16141B94FF0500383F31188BFF36F8F86
:104DE000BFF34F8FFEE72B462A4620462944FFF7A4
:104DF0005FFE3AE794F82C30002B7FF436AF204664
:104E000000F01CFA31E700BF500C0020200D0020FC
:104E1000540C0020740D002004ED00E006480068EA
:104E2000006880F3088862B661B6BFF34F8FBFF3A6
:104E30006F8F00DF00BF000008ED00E0002382B0AC
:104E400001930D4B1B68013308D04FF0500383F3DF
:104E50001188BFF36F8FBFF34F8FFEE74FF0500302
:104E600083F31188BFF36F8FBFF34F8F019B002B2C
:104E7000FCD002B0704700BF0C0000204FF08073E0
:104E800040F8043C054B21F0010140F8081C40F8B3
:104E90000C3C40F8202C4038704700BF3D4E0008C5
:104EA000074B19680868B0E8F00F80F30988BFF372
:104EB0006F8F4FF0000080F311884EF00D0E704799
:104EC000540700204FF0500383F31188BFF36F8F16
:104ED000BFF34F8F0A4A13680133012B13600DD1C2
:104EE000084B1B6813F0FF0F08D04FF0500383F3FB
:104EF0001188BFF36F8FBFF34F8FFEE7704700BF7E
:104F00000C00002004ED00E0084A136843B94FF09C
:104F1000500383F31188BFF36F8FBFF34F8FFEE70A
:104F2000013B13600BB983F3118870470C0000201C
:104F3000EFF30980BFF36F8F0D4B1A6820E9F00F74
:104F400010602DE908404FF0500080F31188FFF702
:104F500025FC4FF0000080F31188BDE80840196877
:104F60000868B0E8F00F80F30988BFF36F8F7047CF
:104F70005407002008B54FF0500383F31188BFF3A6
:104F80006F8FBFF34F8FFFF7E1FA18B14FF08052E8
:104F9000024B1A60002383F3118808BD04ED00E082
:104FA0000023084A084913600B604FF47A71074BDD
:104FB0001B68B3FBF1F30649013B0B600723136049
:104FC000704700BF10E000E018E000E000000020A3
:104FD00014E000E013B5264B00211A78D2B20192FA
:104FE000FF221A701B78234ADBB28DF803309DF83C
:104FF000033003F05003137007231F4A13609DF81A
:1050000003005C1E00060CD411B1032B136011D0F9
:105010004FF0500383F31188BFF36F8FBFF34F8FAF
:10502000FEE79DF8033001215B00DBB28DF8033011
:105030002346E4E74FF4407300241360019B0C4ABD
:10504000DBB213700D4B1A6842F470021A601A68D2
:1050500042F070421A60FFF7A3FF094B1C60FFF794
:10506000DDFEFFF79BFBFFF7E9FE204602B010BD17
:1050700000E400E07C0D0020800D002020ED00E029
:105080000C000020EFF305830F2B0ED9104A9B5C18
:10509000104A12789A4208D94FF0500383F31188CE
:1050A000BFF36F8FBFF34F8FFEE70B4B0B4A1B68AD
:1050B000126803F4E063934208D94FF0500383F37E
:1050C0001188BFF36F8FBFF34F8FFEE7704700BFAC
:1050D000F0E300E07C0D00200CED00E0800D0020EE
:1050E00010B50F4B1A461B688342FBD35468111945
:1050F000884201BF4168104609195160446801198E
:105100008B4207D1074909688B421FBF59681B684A
:10511000091941609042036018BF106010BD00BFC4
:1051200094190020840D00202DE9F0410446FFF77A
:10513000FFF93B4B3B481A689C46D2B900213A4ADA
:105140003A4B55071CBF073222F007021A6059601C
:10515000374B23F00703C3E90011991AC2E9003164
:10516000CCF80030334B1960334B19604FF00043DB
:105170000360076827424ED1002C3FD004F108039A
:1051800061071CBF23F007030833002B43D02A4AD2
:10519000166890469E423ED3244A15686968994233
:1051A00001D22868A8B9DCF80000A84233D02868EA
:1051B000C91A10291468106012D9E81842070BD0D8
:1051C0004FF0500383F31188BFF36F8FBFF34F8FFE
:1051D000FEE72A460546E1E741606B60FFF780FF86
:1051E0006B681449F61A1F4300230868C8F800606A
:1051F000864238BF0E6008346F602B60FFF736FAC6
:1052000063070AD04FF0500383F31188BFF36F8F09
:10521000BFF34F8FFEE70024F0E72046BDE8F081A2
:10522000840D002088190020880D0020941900208A
:1052300080190020901900208C19002010B5044618
:1052400070B3184A50F8043C1268134208D14FF06A
:10525000500383F31188BFF36F8FBFF34F8FFEE7C7
:1052600050F8081C41B14FF0500383F31188BFF38D
:105270006F8FBFF34F8FFEE723EA020340F8043C31
:10528000FFF756F9084A54F8043C1168A4F10800E5
:105290000B441360FFF724FFBDE81040FFF7E6B9A9
:1052A00010BD00BF881900208C1900200A2200219F
:1052B00000F0EEB8014B1868704700BF10000020E6
:1052C00070B500260C4D0D4C641BA410A64209D1EC
:1052D00000F0F4FC00260A4D0A4C641BA410A64200
:1052E00005D170BD55F8043B98470136EEE755F8F7
:1052F000043B98470136F2E7AC690008AC69000846
:10530000AC690008B06900080A44914200F1FF331B
:1053100000D1704710B511F8014B914203F8014FCD
:10532000F9D110BD03460244934200D1704703F8FF
:10533000011BF9E70EB46FF0004100B59CB01DAB46
:1053400002900690079104910848094953F8042BEC
:105350000591006802A9019300F000F90022029B68
:105360001A701CB05DF804EB03B070471000002009
:105370000802FFFF034611F8012B03F8012B002A56
:10538000F9D17047012B2DE9F047864601D0242B37
:1053900006D9FFF78FFF162303600020BDE8F087D2
:1053A0008C463A4E60461CF8014BA55D15F0080589
:1053B000F8D12D2C33D14FF001089CF8004000F1BA
:1053C000020C002B5DD0102B0CD1302C0AD19CF894
:1053D000000000F0DF0058284ED110239CF8014057
:1053E0000CF1020C002508F10047013FB7FBF3F96F
:1053F000284603FB197AA4F13006092E18D8344642
:10540000A34224DD002D1FDB81451DD301D1A24520
:105410001ADB012500FB03401CF8014BEBE72B2CAA
:1054200008BF9CF80040A84608BF00F1020CC8E77E
:10543000A4F14106192E01D8373CE1E7A4F1610639
:10544000192E04D8573CDBE74FF0FF35E4E7002D79
:1054500008DA22233846CEF80030002A9ED00CF11C
:10546000FF3107E0B8F1000F00D04042002A95D08C
:10547000002DF4D1116091E73024002BB2D1082324
:10548000B0E7302CA3D00A23ACE700BF786800084F
:1054900013460A46014602480068FFF773BF00BF83
:1054A000100000202DE9F0478E6882469E420C468F
:1054B00090461F4638D88A8912F4906F32D02568FA
:1054C00009690133A5EB010965694B4405EB450505
:1054D00005EBD5756D109D4238BF1D46530531D57E
:1054E000294600F045FB064650B90C234FF0FF302B
:1054F000CAF80030A38943F04003A381BDE8F087D8
:105500004A462169FFF700FFA38923F4906343F023
:105510008003A38126614E4426603E466561A5EB6B
:105520000905A560BE4200D93E4632464146206884
:1055300000F0B8FAA36822689B1B32440020A360E5
:105540002260DBE72A4600F06DFB06460028E1D129
:105550005046216900F0C0FAC7E700002DE9F04F7E
:1055600098468B8907461B060D4614469DB00ED5FE
:105570000B6963B9402100F0FBFA2860286120B96B
:105580000C233B604FF0FF30D1E040236B610023E0
:10559000099320238DF8293030234FF00109CDF8ED
:1055A0000C80DFF8A4818DF82A3023469A4613F840
:1055B000012B0AB1252AF9D1BAEB040B0BD05B46BB
:1055C000224629463846FFF76DFF013000F0AA80D9
:1055D000099A5A4409929AF80030002B00F0A280F0
:1055E00000234FF0FF32CDE905230AF1010A0493AD
:1055F00007938DF853301A935446052214F8011B73
:10560000514800F041FA049AD8B9D00644BF20238B
:105610008DF85330110744BF2B238DF853309AF87F
:1056200000302A2B15D0544600204FF00A0C079A60
:10563000214611F8013B303B092B4ED9B0B10792FE
:1056400014E0A0EB080309FA03F31343A246049302
:10565000D2E7039B191D1B680391002BBBBF5B4264
:1056600042F0020207930793B8BF049223782E2BCF
:105670000CD163782A2B35D1039B02341A1D1B6889
:105680000392002BB8BF4FF0FF330593DFF8C8A09B
:1056900003225046217800F0F7F940B14023A0EBF7
:1056A0000A0003FA00F0049B01340343049314F846
:1056B000011B062225488DF8281000F0E5F9002886
:1056C00038D0234B1BBB039B073323F0070308335E
:1056D0000393099B3344099367E70C4601200CFBB5
:1056E0000232A5E700234FF00A0C19460134059356
:1056F000204610F8012B303A092A03D9002BC5D0D7
:105700000591C3E7044601230CFB0121F0E703AB3D
:1057100000932A4638460F4B04A9AFF30080421C81
:105720000646D6D1AB895B063FF52CAF09981DB074
:10573000BDE8F08F03AB00932A463846054B04A919
:1057400000F07CF8EBE700BF786900088269000888
:1057500000000000A55400087E6900082DE9F0470C
:10576000164699468A680B6907469342B8BF1346A6
:10577000336091F843200C46DDF820800AB10133F4
:1057800033602368990642BF33680233336025686B
:1057900015F0060506D104F1190AE36832689B1A70
:1057A000AB4228DC94F84320131E226818BF012363
:1057B00092062DD44946384604F14302C0470130D1
:1057C00020D02368E56803F00603042B18BF0025EA
:1057D00032684FF00006A36808BFAD1A226908BFFF
:1057E00025EAE5759342C4BF9B1AED181A34B542F9
:1057F0001AD1002008E00123524649463846C047E6
:10580000013003D14FF0FF30BDE8F0870135C4E728
:105810003020E11881F843005A1C94F845102244C6
:10582000023382F84310C5E7012322464946384631
:10583000C0470130E6D00136D9E700002DE9FF4727
:105840000C46277E9146782F80469A460C9904F1A3
:10585000430207D8622F0AD8002F00F0D980582FB2
:1058600000F0A48004F1420684F842703AE0A7F107
:105870006303152BF6D801A050F823F0D558000883
:10588000E958000865580008655800086558000880
:1058900065580008E9580008655800086558000870
:1058A0006558000865580008F7590008195900089C
:1058B000D95900086558000865580008195A0008A9
:1058C000655800081959000865580008655800080F
:1058D000E15900080B6804F142061A1D1B680A60B2
:1058E00084F842300123A4E0256808682E0600F100
:1058F00004030AD505680B60002D03DA2D236D42E1
:1059000084F843300A235E4819E015F0400F05681B
:105910000B6018BF2DB2EFE70B682568181D0860F3
:10592000280601D51D6802E06906FBD51D886F2F8A
:105930000CBF08230A235248002184F843106668EC
:10594000002EA8BF2168A660A4BF21F00401216039
:105950000DB9002E4DD01646B5FBF3F103FB1157E0
:10596000C75D06F8017D2F46BB420D46F4D9082BD2
:105970000BD12368DF0708D5236961689942DEBF30
:10598000302306F8013C06F1FF36921B22614B469C
:1059900021464046CDF800A003AAFFF7DFFE013004
:1059A0004CD14FF0FF3004B0BDE8F087344884F8A4
:1059B00045700E68236856F8045B1F060E6014D508
:1059C000D90744BF43F0200323601DB9236823F0A7
:1059D000200323601023AFE7236843F020032360F4
:1059E0007823284884F84530E3E75E0648BFADB227
:1059F000E6E71646BBE70B6826681D1D60690D606B
:105A000035061B6801D5186002E07106FBD51880C9
:105A1000002316462361BAE70B681A1D0A601E6848
:105A200000213046626800F02FF808B1801B6060EA
:105A300063682361002384F84330A8E7324649466F
:105A400040462369D0470130ABD023689B0713D46D
:105A5000E068039B9842B8BF1846A4E7012332468A
:105A600049464046D04701309BD00135E368039951
:105A70005B1AAB42F2DCEBE7002504F11906F5E70F
:105A8000896900089A690008034610B5C9B2024442
:105A90009342184601D1002003E0047801338C4280
:105AA000F6D110BD884210B501EB020402D9844240
:105AB000234607D8431EA14208D011F8012B03F852
:105AC000012FF8E7014602448A4200D110BD13F8C5
:105AD000014D02F8014DF7E738B50546002943D0DE
