:020000040800F2
:100000000000012029320008A9310008AB310008A6
:10001000AD310008AF310008B13100080000000028
:1000200000000000000000000000000091660008D1
:10003000B33100080000000021670008B531000856
:100040007132000871320008713200087132000804
:1000500071320008713200087132000871320008F4
:1000600071320008713200087132000871320008E4
:1000700071320008713200087132000871320008D4
:1000800071320008713200087132000871320008C4
:1000900071320008713200087132000871320008B4
:1000A00071320008713200087132000871320008A4
:1000B000CD31000871320008713200087132000839
:1000C0007132000871320008713200087132000884
:1000D000713200087132000871320008D93100080D
:1000E0007132000871320008713200087132000864
:1000F0007132000871320008713200087132000854
:100100007132000871320008713200087132000843
:100110007132000871320008713200087132000833
:100120007132000871320008713200087132000823
:1001300000000000000000000000000000000000BF
:1001400000000000000000000000000000000000AF
:10015000000000000000000000000000000000009F
:10016000000000000000000000000000000000008F
:10017000000000000000000000000000000000007F
:10018000000000000000000000000000000000006F
:10019000000000000000000000000000000000005F
:1001A000000000000000000000000000000000004F
:1001B000000000000000000000000000000000003F
:1001C000000000000000000000000000000000002F
:1001D000000000000000000000000000000000001F
:0401E0005FF8E0F1F3
:1001F00010B5054C237833B9044B13B10448AFF361
:1002000000800123237010BD740000200000000056
:10021000AC74000808B5034B1BB103490348AFF3A6
:10022000008008BD0000000078000020AC740008C9
:1002300070B54FF0FF0C4CF4E06C1CEA11541DBF7C
:100240001CEA135594EA0C0F95EA0C0F00F0DEF847
:100250002C4481EA030621EA4C5123EA4C5350EA2C
:10026000013518BF52EA033541F4801143F480137D
:1002700038D0A0FB02CE4FF00005E1FB02E506F00E
:100280000042E0FB03E54FF00006E1FB03569CF063
:10029000000F18BF4EF0010EA4F1FF04B6F5007F69
:1002A00064F5407404D25FEA4E0E6D4146EB0606DB
:1002B00042EAC62141EA55514FEAC52040EA5E5064
:1002C0004FEACE2EB4F1FD0C88BFBCF5E06F1ED80E
:1002D000BEF1004F08BF5FEA500E50F1000041EB45
:1002E000045170BD06F0004646EA010140EA0200F2
:1002F00081EA0301B4EB5C04C2BFD4EB0C0541EA14
:10030000045170BD41F480114FF0000E013C00F328
:10031000AB8014F1360FDEBF002001F0004170BD4C
:10032000C4F10004203C35DA0C341BDC04F1140465
:10033000C4F1200500FA05F320FA04F001FA05F2F1
:1003400040EA020001F0004221F0004110EBD370BE
:1003500021FA04F642EB06015EEA430E08BF20EAEA
:10036000D37070BDC4F10C04C4F1200500FA04F38D
:1003700020FA05F001FA04F240EA020001F000411F
:1003800010EBD37041F100015EEA430E08BF20EA92
:10039000D37070BDC4F1200500FA05F24EEA020EDA
:1003A00020FA04F301FA05F243EA020321FA04F009
:1003B00001F0004121FA04F220EA020000EBD370C0
:1003C0005EEA430E08BF20EAD37070BD94F0000FC0
:1003D0000FD101F00046400041EB010111F4801FF4
:1003E00008BF013CF7D041EA060195F0000F18BFA5
:1003F000704703F00046520043EB030313F4801FE1
:1004000008BF013DF7D043EA0603704794EA0C0F9A
:100410000CEA135518BF95EA0C0F0CD050EA4106B0
:1004200018BF52EA4306D1D181EA030101F000412D
:100430004FF0000070BD50EA410606BF1046194655
:1004400052EA430619D094EA0C0F02D150EA013661
:1004500013D195EA0C0F05D152EA03361CBF1046A2
:1004600019460AD181EA030101F0004141F0FE4141
:1004700041F470014FF0000070BD41F0FE4141F4C5
:10048000780170BD81F0004102E000BF83F00043BD
:1004900030B54FEA41044FEA430594EA050F08BF1F
:1004A00090EA020F1FBF54EA000C55EA020C7FEAE3
:1004B000645C7FEA655C00F0E2804FEA5454D4EB60
:1004C0005555B8BF6D420CDD2C4480EA020281EA2A
:1004D000030382EA000083EA010180EA020281EA62
:1004E0000303362D88BF30BD11F0004F4FEA0131B4
:1004F0004FF4801C4CEA113102D0404261EB4101C3
:1005000013F0004F4FEA03334CEA133302D0524248
:1005100063EB430394EA050F00F0A780A4F1010404
:10052000D5F1200E0DDB02FA0EFC22FA05F280183E
:1005300041F1000103FA0EF2801843FA05F3594124
:100540000EE0A5F120050EF1200E012A03FA0EFCA3
:1005500028BF4CF0020C43FA05F3C01851EBE371CD
:1005600001F0004507D54FF0000EDCF1000C7EEBEA
:1005700000006EEB0101B1F5801F1BD3B1F5001F28
:100580000CD349085FEA30004FEA3C0C04F1010447
:100590004FEA445212F5800F80F09A80BCF1004F70
:1005A00008BF5FEA500C50F1000041EB045141EAF2
:1005B000050130BD5FEA4C0C404141EB0101013CBB
:1005C00028BFB1F5801FE9D291F0000F04BF0146AA
:1005D0000020B1FA81F308BF2033A3F10B03B3F17C
:1005E00020020CDA0C3208DD02F1140CC2F10C020C
:1005F00001FA0CF021FA02F10CE002F11402D8BF6A
:10060000C2F1200C01FA02F120FA0CFCDCBF41EA35
:100610000C019040E41AA2BF01EB0451294330BD04
:100620006FEA04041F3C1CDA0C340EDC04F11404E1
:10063000C4F1200220FA04F001FA02F340EA0300B8
:1006400021FA04F345EA030130BDC4F10C04C4F1FE
:10065000200220FA02F001FA04F340EA03002946DE
:1006600030BD21FA04F0294630BD94F0000F83F428
:10067000801306BF81F480110134013D4EE77FEA0B
:10068000645C18BF7FEA655C29D094EA050F08BF57
:1006900090EA020F05D054EA000C04BF1946104638
:1006A00030BD91EA030F1EBF0021002030BD5FEA7C
:1006B000545C05D14000494128BF41F0004130BDA4
:1006C00014F580043CBF01F5801130BD01F00045F8
:1006D00045F0FE4141F470014FF0000030BD7FEA6B
:1006E000645C1ABF194610467FEA655C1CBF0B4666
:1006F000024650EA013406BF52EA033591EA030F7D
:1007000041F4002130BD00BF90F0000F04BF002174
:10071000704730B54FF4806404F132044FF00005A7
:100720004FF0000150E700BF90F0000F04BF002120
:10073000704730B54FF4806404F1320410F0004586
:1007400048BF40424FF000013EE700BF42004FEA81
:10075000E2014FEA31014FEA02701FBF12F07F43FE
:1007600093F07F4F81F06051704732F07F4208BFB5
:10077000704793F07F4F04BF41F40021704730B5BC
:100780004FF4607401F0004521F000411CE700BF08
:1007900050EA010208BF704730B54FF000050AE08B
:1007A00050EA010208BF704730B511F0004502D58C
:1007B000404261EB41014FF4806404F132045FEA8E
:1007C000915C3FF4D8AE4FF003025FEADC0C18BF37
:1007D00003325FEADC0C18BF033202EBDC02C2F129
:1007E000200300FA03FC20FA02F001FA03FE40EABB
:1007F0000E0021FA02F11444BDE600BF4A0011D2F6
:1008000012F5001211D20DD56FF47873B3EB62526A
:100810000ED44FEAC12343F0004343EA505323FA76
:1008200002F070474FF00000704750EA013002D1EB
:100830004FF0FF3070474FF000007047F0B587B0C1
:1008400001AA16461F4B03F108051446186859689B
:10085000083303C4AB422246F7D118689B88206056
:10086000A38000230C211848CDF81230ADF81630C3
:1008700004F0D8F8154A1649164806F053F9164DF3
:10088000164F144C29460522384604F014FC0A2160
:100890003246084602F000FA2946204606F062F980
:1008A000224628210A2002F0F7F94FF480610C4813
:1008B00003F07BF802F056F94FF4FA7004F0ACFC48
:1008C000E0E700BFC4740008901B0020F874000823
:1008D000D87400082D1C0020D81B0020501A0020BE
:1008E00000180140000000002DE9F04F0821B94830
:1008F0008BB004F097F83C21B74803F004FCB748EC
:1009000006F0CCF84FF47A764AF2270290FBF6F321
:10091000904206FB1306AF4C4EDC42F20F7290423F
:1009200006DC002B00F03F8600222368DA63E6E74E
:100930000A3B1E2BF8D801A252F823F0BF0F000883
:10094000A3100008611100083712000829090008E7
:100950002909000829090008290900080D0F0008C5
:1009600029090008B11300083915000869150008A5
:100970002909000829090008290900086F1400083E
:100980002909000829090008290900084D0A00085A
:10099000290900082909000829090008290900086F
:1009A000290900082909000829090008290900085F
:1009B00029090008F10B0008322B00F09B813C2B29
:1009C000B2D1854E012233684FF4805184485D6A6C
:1009D00002F0E6FF00222021824802F0E1FF41F20E
:1009E00070722368DA6302F087FC009B0246072BD3
:1009F00012DD4FF40277AA464FF0000B4FF6FF7856
:100A0000D91F07FB01F3DFF8E491019309F1070710
:100A1000019B5B4500F23A82002523680122DD63D9
:100A20004FF480516E4802F0BBFF2A4620216D48EA
:100A300002F0B6FF032541F270776B4E32782368DF
:100A4000182A00F25E82013DF8D1A5E0624F012232
:100A50003B684FF4805162485D6A02F0A1FF20219B
:100A60000022604802F09CFF40F6746223684FF455
:100A70000276DA6302F040FC03460A205A4ADFF8A5
:100A80006C9111784FF0000BB1FBF0F0009005383D
:100A900070434F294FF6FF78019009F1070A02923F
:100AA0005FD8019A5A455FD90393029B1A78252A89
:100AB0005AD902F021FC039BC01A1928F1D93B68CE
:100AC0005E6A1B68DB0678D5AE4272DAAE1B324630
:100AD000494605A806F026F81421322005AA02F09E
:100AE000DBF83B6851461A6805A8C2F3001206F00D
:100AF00019F814210A2005AA02F0CEF83B68B34485
:100B00005D6A02F0F9FB0346CBE7039302F0F4FBC6
:100B1000039BC01A192824D93B685E6A1B68DA0651
:100B200040D5AE423ADAAE1B3246494605A805F03A
:100B3000F9FF1421322005AA02F0AEF83B685146B5
:100B40001A6805A8C2F3001205F0ECFF14210A2070
:100B500005AA02F0A1F83B68B3445D6A02F0CCFB41
:100B60000346019A9345D0D3002523680122DD6313
:100B70004FF480511A4802F013FF2A4620211948E9
:100B800002F00EFF032540F67466029A236812787D
:100B9000242A19D8013DF8D1DD63B0E6A8EB06069A
:100BA0002E44C1E7AE4201DD761BBDE7A8EB05058B
:100BB000F6E7A8EB06062E4489E7AE4201DD761B78
:100BC00085E7A8EB0505F6E7DE63322004F024FB99
:100BD000DBE700BFC0190020081A00202D1C0020F0
:100BE0000018014000100140B8190020DC74000812
:100BF000A14E012233684FF48051A0485D6A02F093
:100C0000CFFE002220219E4802F0CAFE40F6746208
:100C10002368DA6302F070FB009B0246072B11DDAC
:100C20004FF40277AA464FF0000B4FF6FF78D91F1A
:100C300007FB01F3DFF85092019309F10707019BCD
:100C40009B4518D3002523680122DD634FF48051B2
:100C50008A4802F0A5FE2A462021894802F0A0FE1B
:100C6000032540F67467874E32782368182A3CD8EB
:100C7000013DF9D190E7029202F03EFB029A801A00
:100C80001928DCD93268556A1268D00625D5554531
:100C9000AABFA8EB0505AAEB050555442A46494617
:100CA00005A805F03FFF1421322005AA01F0F4FF4A
:100CB000336839461A6805A8C2F3001205F032FFFE
:100CC00005AA14210A2001F0E7FF3368AB44D3F8EA
:100CD00024A002F011FB0246B1E75545D6BFA8EBB0
:100CE0000A03A5EB0A05ED18D8E7DF63322004F00C
:100CF00093FAB9E7604F01223B684FF480515F4897
:100D00005D6A02F04DFE202100225D4802F048FE9F
:100D100041F2707223684FF40276DA6302F0ECFA63
:100D200003460A20574ADFF8609111784FF0000B14
:100D3000B1FBF0F00090053870434F294FF6FF7873
:100D4000019009F1070A02925FD8019A93455FD298
:100D50000393029B1A78252A5AD902F0CDFA039BF5
:100D6000C01A1928F1D93B685E6A1B68DA0677D584
:100D7000AE4271DAAE1B3246494605A805F0D2FEF6
:100D80001421322005AA01F087FF3B6851461A68FA
:100D900005A8C2F3001205F0C5FE14210A2005AA19
:100DA00001F07AFF3B68B3445D6A02F0A5FA03469E
:100DB000CBE7039302F0A0FA039BC01A192824D9A9
:100DC0003B685E6A1B68D9063FD5AE4239DAAE1B76
:100DD0003246494605A805F0A5FE1421322005AA91
:100DE00001F05AFF3B6851461A6805A8C2F3001289
:100DF00005F098FE14210A2005AA01F04DFF3B687A
:100E0000B3445D6A02F078FA0346019A5A45D0D895
:100E1000002523680122DD634FF48051174802F05A
:100E2000BFFD2A462021164802F0BAFD032541F2F3
:100E30007076029A23681278242A18D8013DF8D1D6
:100E4000AAE6A8EB06062E44C2E7AE4201DD761BF9
:100E5000BEE7A8EB0505F6E7A8EB06062E448AE7F1
:100E6000AE4201DD761B86E7A8EB0505F6E7DE63FB
:100E7000322004F0D1F9DCE7081A00200018014004
:100E800000100140B8190020DC740008029202F042
:100E900033FA029A801A19287FF6BAAD3268556A79
:100EA0001268D30625D5AA45D6BFA8EB0505AAEB3F
:100EB000050555442A46494605A805F033FE142188
:100EC000322005AA01F0E8FE336839461A6805A801
:100ED000C2F3001205F026FE05AA14210A2001F033
:100EE000DBFE3368AB44D3F824A002F005FA0246D7
:100EF0008EE5AA45AABFA8EB0A03A5EB0A05ED18E3
:100F0000D8E7DF63322004F087F997E5C04F01226C
:100F10003B684FF48051BF485E6A02F041FD0022F9
:100F20002021BD4802F03CFD4FF47A7223684FF057
:100F3000000BDA6302F0E0F94FF6FF780346DFF8C2
:100F4000E49209F1070ABBF5437FBFF4EDAC0193CE
:100F500002F0D2F9019BC01A3228F4D93B685D6ACD
:100F60001B68D80624D5AE421EDD751B2A464946AD
:100F700005A805F0D7FD1421322005AA01F08CFE4A
:100F80003B6851461A6805A8C2F3001205F0CAFD75
:100F900014210A2005AA01F07FFE3B68AB445E6A7B
:100FA00002F0AAF90346CEE7A8EB05053544DDE7D4
:100FB000AE4201DAAD1BD9E7A8EB0606F6E7944D81
:100FC00001222B684FF4805192485F6A02F0E8FCDE
:100FD00020210022904802F0E3FC40F6746223686E
:100FE0004FF0000BDA6302F087F980464FF402708D
:100FF0007043FFF789FB84A3D3E90023FFF718F9B7
:10100000FFF7FCFBA946DFF81CA20190019B9B4562
:101010000BD300222368013E012EDA633FF66FAC4A
:101020004FF47A7004F0F8F869E402F065F9A0EB87
:1010300008001928EAD9D9F800305D6A1B68D9067A
:1010400027D5AF4220DD7D1B2A46514605A805F075
:1010500069FD1421322005AA01F01EFED9F80030E6
:101060006E491A6805A8C2F3001205F05BFD142151
:101070000A2005AA01F010FED9F80030AB445F6ADF
:1010800002F03AF98046C1E7C5F57F45FF353D449A
:10109000DAE7AF4201DAED1BD6E7C7F57F47FF3746
:1010A000F5E75B4F01223B684FF4805159485E6A77
:1010B00002F076FC00222021574802F071FC40F635
:1010C000C41223684FF0000BDA6302F015F940F602
:1010D000C3290346DFF84C8108F1070ACB4505D93F
:1010E00000232268D3634E4A137008E4019302F090
:1010F00003F9019BC01A3228F0D93B685D6A1B686E
:10110000DA0625D5AE421EDD751B2A46414605A8E6
:1011100005F008FD1421322005AA01F0BDFD3B6851
:1011200051461A6805A8C2F3001205F0FBFC142111
:101130000A2005AA01F0B0FD3B68AB445E6A02F0EC
:10114000DBF80346CAE7C5F57F45FF353544DCE7E4
:10115000AE4201DAAD1BD8E7C6F57F46FF36F5E7AC
:101160002B4F01223B684FF480512A485E6A02F0FF
:1011700017FC00222021284802F012FC4FF448728C
:1011800023684FF0000BDA6302F0B6F84FF6FF78F1
:101190000346DFF8909009F1070ABBF5027FBFF420
:1011A000C3AB019302F0A8F8019BC01A3228F4D90E
:1011B0003B685D6A1B68DB0636D5AE421EDD751BDB
:1011C0002A46494605A805F0ADFC1421322005AA9F
:1011D00001F062FD3B6851461A6805A8C2F300128F
:1011E00005F0A0FC14210A2005AA01F055FD3B687A
:1011F000AB445E6A02F080F80346CEE7A8EB050533
:101200003544DDE7AFF30080333333333333EB3F23
:10121000081A00200018014000100140E374000883
:10122000A1000020DC740008AE4201DAAD1BC7E764
:10123000A8EB0606E4E7DFF8F8820122D8F80030D0
:101240004FF48051B6485E6A02F0AAFB00222021CA
:10125000B44802F0A5FB4FF4487223684FF0000B2E
:10126000DA6302F049F8474602464FF6FF79DFF8A5
:10127000C4A2BBF5027F54D300222368AA4DDA63CF
:101280002A78012A40F08580D8F800304FF4805148
:10129000A3485E6A02F084FB00222021A14802F0EC
:1012A0007FFB40F6746223684FF0000BDA6302F0B4
:1012B00023F84FF6FF780346DFF8789209F1070A22
:1012C000BBF5827FBFF430AB019302F015F8019BB0
:1012D000C01A1928F4D93B685D6A1B68D90660D525
:1012E000AE425ADD751B2A46494605A805F01AFC90
:1012F0001421322005AA01F0CFFC3B6851461A6840
:1013000005A8C2F3001205F00DFC14210A2005AA5D
:1013100001F0C2FC3B68AB445E6A01F0EDFF03469E
:10132000CEE7019201F0E8FF019A801A3228A0D995
:101330003A68556A1268D00624D5AE421EDD751B88
:101340002A46514605A805F0EDFB1421322005AAD6
:1013500001F0A2FC3A687549126805A8C2F30012B0
:1013600005F0E0FB14210A2005AA01F095FC3A687B
:10137000AB44566A01F0C0FF02467AE7A9EB0505C7
:101380003544DDE7AE4201DAAD1BD9E7A9EB06062D
:10139000F6E70A2003F040FF72E7A8EB05053544A5
:1013A000A1E7AE4201DAAD1B9DE7A8EB0606F6E722
:1013B0005F4D00222B684FF4805159485F6A02F05C
:1013C000EFFA01222021574802F0EAFA40F674624F
:1013D00023684FF0000BDA6301F08EFF4FF40272C6
:1013E0000346A8464FF6FF797243DFF848A1019201
:1013F000019A9345BFF40DAE029301F07DFF029B6D
:10140000C01A3228F4D9D8F800305D6A1B68DA06B1
:1014100026D5AF4220DD7D1B2A46514605A805F0A2
:1014200081FB1421322005AA01F036FCD8F80030E7
:101430003E491A6805A8C2F3001205F073FB142197
:101440000A2005AA01F028FCD8F80030AB445F6AF6
:1014500001F052FF0346CBE7A9EB05053D44DBE76E
:10146000AF4201DAED1BD7E7A9EB0707F6E7304FEC
:1014700000223B684FF4805129485E6A02F090FADE
:1014800001222021274802F08BFA4FF4487223688A
:101490004FF0000BDA6301F02FFF4FF6FF780346A1
:1014A000DFF8909009F1070ABBF59C7FBFF43CAAD6
:1014B000019301F021FF019BC01A3228F4D93B6847
:1014C0005D6A1B68DB0624D5AE421EDD751B2A460D
:1014D000494605A805F026FB1421322005AA01F093
:1014E000DBFB3B6851461A6805A8C2F3001205F001
:1014F00019FB14210A2005AA01F0CEFB3B68AB447E
:101500005E6A01F0F9FE0346CEE7A8EB0505354417
:10151000DDE7AE4201DAAD1BD9E7A8EB0606F6E738
:1015200000180140001001408C1B0020E3740008EB
:10153000081A0020DC740008642003F06DFE00220D
:101540004FF480511A4802F02BFA01222021194849
:1015500002F026FA40F2DC522C2023687043DA6352
:1015600003F05AFEFFF7E0B9642003F055FE0022B5
:101570004FF480510E4802F013FA012220210D4849
:1015800002F00EFA4FF4C872252023687043DA6324
:1015900003F042FE5522084B64201B681A640022A7
:1015A0002368DA633EE52268D363FFF7A8B900BF7A
:1015B0000018014000100140901B002000000000B6
:1015C0002DE9F04F0C218BB0C04803F02BFA3C21E1
:1015D000BF4802F098FD4FF00109BD4CBD4805F031
:1015E0005DFA4FF47A774AF2270390FBF7F69842B8
:1015F00007FB1607B54D55DC42F20F7398420ADC23
:10160000002E00F09A864C22B34B1B681A6400220D
:101610002B681A64E2E7A6F10A03AF4E1E2BF2D83C
:1016200001A252F823F000BFFD1C0008E71D0008CE
:10163000E11E00089F1F0008071600080716000893
:1016400007160008071600083F1C000807160008C8
:1016500029210008B7220008F72200080716000811
:101660000716000807160008FF21000807160008E3
:101670000716000807160008471700080716000895
:1016800007160008071600080716000807160008C6
:1016900007160008071600080716000807160008B6
:1016A00009190008322EDFF8308200F0B5813C2E97
:1016B000A9D14A2223684FF400415E6AD8F800306D
:1016C00086481A64012202F06BF94FF4006100228F
:1016D000824802F065F94FF496522B681A6401F0C3
:1016E0000BFE009B0146072B0EDD4FF40277073BF4
:1016F0007B43B34600274FF6FF79DFF8ECA1019357
:10170000019BBB4200F25A8200264A222B684FF40A
:1017100000411E64D8F8003070481A64012202F0BB
:101720003FF932464FF400616C4802F039F9032664
:101730004FF496586A4F3A782B68182A00F279824B
:10174000013EF8D1B4E04A2223684FF400415F6AB9
:10175000336862481A64012202F022F94FF40061F2
:1017600000225E4802F01CF940F654322B684FF01C
:10177000000B1A6401F0C0FD02460A20584B4FF4DA
:10178000027C19784FF6FF79B1FBF0F00090053834
:101790000CFB00F04F29DFF850A10190029368D8AC
:1017A000019B5B4568D9029B03921978252963D96F
:1017B00001F0A2FD039A801A1928F1D921684A6A1A
:1017C0000968CB0640F192809742D6BFA9EB020888
:1017D000A7EB0208B8444246514605A805F0A2F915
:1017E0001E21322005AA01F057FA22683D491268ED
:1017F00005A8C2F3001205F095F91E210A2005AADA
:1018000001F04AFA2268C344576A01F075FD0246A6
:10181000C6E7039201F070FD039A801A192828D9AF
:1018200021684A6A0968C90646D59742D6BFA9EB1E
:101830000208A7EB0208B8444246514605A805F045
:1018400071F91E21322005AA01F026FA22682549E5
:10185000126805A8C2F3001205F064F91E210A20DF
:1018600005AA01F019FA2268C344576A01F044FD41
:101870000246019B5B45CCD800274A222B684FF4D7
:1018800000411F64336815481A64012202F088F889
:101890003A464FF40061114802F082F8032640F600
:1018A0005437029A2B681278242A28D8013EF8D19E
:1018B0001E644FF0010991E69742AABFA9EB070702
:1018C000A2EB070807EB0208B6E700BFC01900202B
:1018D000C41A00202D1C0020901B0020000C014089
:1018E000B8190020EB740008DC7400089742AABF06
:1018F000A9EB0707A2EB070807EB02086BE71F64D9
:10190000322003F089FCCCE74A2223684FF40041DF
:101910005F6A3368A5481A64012202F041F84FF467
:1019200000610022A14802F03BF840F654322B68D7
:101930001A6401F0E1FC009B0146072B0FDD4FF418
:101940000278073B08FB03F3BB464FF000084FF655
:10195000FF79DFF864A20193019B43451CD800275F
:101960004A222B684FF400411F6433688F481A6481
:10197000012202F015F83A464FF400618B4802F05C
:101980000FF8032640F65438894F3A782B68182A06
:101990003CD8013EF9D18BE7029101F0ADFC0299F0
:1019A000401A1928D8D921684F6A0968C80625D570
:1019B000BB45D6BFA9EB0707ABEB07075F443A4629
:1019C000514605A805F0AEF81E21322005AA01F007
:1019D00063F922687749126805A8C2F3001205F07E
:1019E000A1F81E210A2005AA01F056F92268B84480
:1019F000D2F824B001F080FC0146ADE7BB45AABF98
:101A0000A9EB0B02A7EB0B07BF18D8E7C3F8408080
:101A1000322003F001FCB8E74A2223684FF400416A
:101A20005E6AD8F8003061481A64012201F0B8FFFC
:101A30004FF4006100225D4801F0B2FF4FF496526E
:101A40002B684FF402771A6401F056FC02460A2014
:101A5000574B4FF0000B19784FF6FF79B1FBF0F0C0
:101A60000090053878434F29DFF84CA1019002938C
:101A70005FD8019B5B455FD9029B039219782529AA
:101A80005AD901F039FC039A801A1928F1D9226831
:101A9000576A1268D2067CD5B74276DAF71B3A4607
:101AA000514605A805F03EF81E21322005AA01F096
:101AB000F3F822683F49126805A8C2F3001205F046
:101AC00031F81E210A2005AA01F0E6F82268BB447D
:101AD000566A01F011FC0246CBE7039201F00CFCC0
:101AE000039A801A192824D92268576A1268D106E5
:101AF00044D5B7423EDAF71B3A46514605A805F0F1
:101B000011F81E21322005AA01F0C6F822682949E1
:101B1000126805A8C2F3001205F004F81E210A207D
:101B200005AA01F0B9F82268BB44566A01F0E4FB4B
:101B30000246019B5B45D0D800264A222B684FF411
:101B400000411E64D8F8003018481A64012201F0E0
:101B500027FF32464FF40061144801F021FF0326AD
:101B60004FF49657029A2B681278242A18D8013E0F
:101B7000F8D19DE6A9EB07073744BDE7B74201DD81
:101B8000BF1BB9E7A9EB0606F6E7A9EB0707374441
:101B900085E7B74201DDBF1B81E7A9EB0606F6E743
:101BA0001F64322003F038FBDCE700BF000C01406B
:101BB000B8190020EB740008DC740008029101F0F1
:101BC0009BFB0299401A19287FF69AAD21684E6A4C
:101BD0000968CB0625D5B345D6BFA9EB0606ABEB06
:101BE00006065E443246514605A804F09BFF1E21BE
:101BF000322005AA01F050F82268B549126805A8FC
:101C0000C2F3001204F08EFF1E210A2005AA01F083
:101C100043F822683744D2F824B001F06DFB014646
:101C20006EE5B345AABFA9EB0B02A6EB0B06B618EF
:101C3000D8E7C3F84080322003F0EEFA7BE53A2281
:101C400033684FF400411A6423680122A1485F6A97
:101C500001F0A6FE00224FF400619E4801F0A0FEB4
:101C600040F6C4122B684FF0000B1A6401F044FBDD
:101C700041F24B390346DFF8608208F10F0ACB4589
:101C800002D900222B68DDE0019301F035FB019BB6
:101C9000C01A3228F3D923685E6A1B68D80625D596
:101CA000B7421EDDBE1B3246414605A804F03AFF8E
:101CB0001E21322005AA00F0EFFF236851461A6862
:101CC00005A8C2F3001204F02DFF1E210A2005AA68
:101CD00000F0E2FF2368B3445F6A01F00DFB0346A6
:101CE000CDE7C6F57F46FF363E44DCE7B74201DA72
:101CF000F61BD8E7C7F57F47FF37F5E74A22236889
:101D00004FF40041D3F82480336872481A640122EA
:101D100001F046FE4FF4006100226E4801F040FEE3
:101D200040F654322B684FF000091A6401F0E4FACF
:101D300001904FF402707843FEF7E6FC62A3D3E90A
:101D40000023FEF775FAFEF759FD4FF6FF7ADFF82C
:101D500088B10290029B99450BD300222B68013F6A
:101D6000012F1A643FF6A5AD4FF47A7003F054FAD0
:101D70009FE501F0C1FA019BC01A1928EAD922682F
:101D8000566A1268D10626D5B04520DDA8EB0606B6
:101D90003246594605A804F0C5FE1E21322005AA88
:101DA00000F07AFF22684A49126805A8C2F30012BF
:101DB00004F0B8FE1E210A2005AA00F06DFF22687B
:101DC000B144D2F8248001F097FA0190C2E7AAEB5F
:101DD00006064644DCE7B04502DAA6EB0806D7E77C
:101DE000AAEB0808F5E75D2101223368DFF8EC80F3
:101DF000196423684FF4004136485F6A88F8002070
:101E000001F0CEFD00224FF40061324801F0C8FD20
:101E10004FF448722B684FF0000B1A6401F06CFA13
:101E20004FF6FF790246DFF8B0A0CDF804800AF142
:101E30000F08BBF5027F07D30026019A2B681278A2
:101E4000002A39D11A6434E5029201F055FA029A57
:101E5000801A3228EDD92268566A1268D20624D533
:101E6000B7421EDDBE1B3246514605A804F05AFE9D
:101E70001E21322005AA00F00FFF22684146126899
:101E800005A8C2F3001204F04DFE1E210A2005AA87
:101E900000F002FF2268B344576A01F02DFA0246AF
:101EA000C7E7A9EB06063E44DDE7B74201DAF61BB9
:101EB000D9E7A9EB0707F6E71E64642003F0ACF945
:101EC000BBE700BFAFF30080333333333333EB3F33
:101ED000EB740008000C0140DC740008A100002035
:101EE0003A2233684FF400411A6423680122BE4845
:101EF0005F6A01F055FD00224FF40061BA4801F01D
:101F00004FFD40F6C4122B684FF0000B1A6401F02D
:101F1000F3F94FF6FF780346DFF8D89209F10F0A7C
:101F2000BBF51C6F03D300222B681A648AE7019368
:101F300001F0E2F9019BC01A3228F1D923685E6AE8
:101F40001B68DB0624D5B7421EDDBE1B3246494660
:101F500005A804F0E7FD1E21322005AA00F09CFE32
:101F6000236851461A6805A8C2F3001204F0DAFD8E
:101F70001E210A2005AA00F08FFE2368B3445F6A81
:101F800001F0BAF90346CBE7A8EB06063E44DDE7CD
:101F9000B74201DAF61BD9E7A8EB0707F6E74FF0DF
:101FA00000093A22914B4FF4004183F800903368C6
:101FB0008D481A6423680122D3F8248001F0F0FCD4
:101FC0004A464FF40061884801F0EAFC40F6C4122A
:101FD0002B68DFF820A21A6401F08EF902460AF19C
:101FE0000F0B40F6F313994555D94FF0000B012222
:101FF0004A212B687C48C3F840B07C4B4FF6FF78F1
:102000001A702368DFF8EC915F6A336809F10F0AF0
:1020100019644FF4004101F0C3FC5A464FF40061CB
:10202000714801F0BDFC40F654322B681A6401F08F
:1020300063F90346BBF5827FBFF423AE019301F041
:102040005BF9019BC01A1928F4D923685E6A1B68E2
:10205000D90662D5B7425CDDBE1B3246494605A8AB
:1020600004F060FD1E21322005AA00F015FE236851
:1020700051461A6805A8C2F3001204F053FD1E2150
:102080000A2005AA00F008FE2368B3445F6A01F045
:1020900033F90346CEE7019201F02EF9019A801A36
:1020A00032289ED92268576A1268D00627D5B845CB
:1020B00020DDA8EB07073A46514605A804F032FD9B
:1020C0001E21322005AA00F0E7FD22685946126859
:1020D00005A8C2F3001204F025FD1E210A2005AA5E
:1020E00000F0DAFD2268B944D2F8248001F004F946
:1020F000024676E7C7F57F47FF374744DBE7B84539
:1021000002DAA7EB0807D6E7C8F57F4808F1FF0811
:10211000F3E7A8EB06063E449FE7B74201DAF61B59
:102120009BE7A8EB0707F6E74A2223684FF4004134
:10213000D3F8248033682C481A64002201F030FC64
:1021400001224FF40061284801F02AFC40F6543285
:102150002B684FF0000B1A6401F0CEF84FF40273B5
:1021600002464FF6FF797B43DFF888A00193019B7D
:102170009B45BFF4F2AD029201F0BEF8029A801ABC
:102180003228F4D92268566A1268D20626D5B0459C
:1021900020DDA8EB06063246514605A804F0C2FC35
:1021A0001E21322005AA00F077FD2268104912682E
:1021B00005A8C2F3001204F0B5FC1E210A2005AAEE
:1021C00000F06AFD2268B344D2F8248001F094F84C
:1021D0000246CCE7A9EB06064644DCE7B0450BDA3D
:1021E000A6EB0806D7E700BF000C01408C1B0020BF
:1021F000EB740008DC740008A9EB0808ECE73A224D
:1022000033684FF400411A642368002257485F6A1C
:1022100001F0C6FB01224FF40061544801F0C0FBFD
:1022200040F6C4122B684FF0000B1A6401F064F8FA
:102230004FF6FF780346DFF84C9109F10F0ABBF522
:102240008F6FBFF41EAD019301F056F8019BC01AC9
:102250003228F4D923685E6A1B68DB0624D5B742AE
:102260001EDDBE1B3246494605A804F05BFC1E215C
:10227000322005AA00F010FD236851461A6805A80F
:10228000C2F3001204F04EFC1E210A2005AA00F041
:1022900003FD2368B3445F6A01F02EF80346CEE7DE
:1022A000A8EB06063E44DDE7B74201DAF61BD9E7A4
:1022B000A8EB0707F6E75D22336864201A6402F092
:1022C000ABFF00224FF40041284801F069FB0122D6
:1022D0004FF40061254801F063FB4FF4C8722B20D6
:1022E0002B6878431A6402F097FF00222B681A6467
:1022F0004A223368A6E53A22336864201A6402F061
:102300008BFF00224FF40041184801F049FB0122E5
:102310004FF40061154801F043FB40F2DC522620E7
:102320002B6878431A6402F077FF552233686420E3
:102330001A6400222B681A6418E52B681E64B9F130
:10234000000F3FF44BA94D22094B0A491B680A486C
:102350001A640A4A04F0E6FB4FF6FF7305220649A9
:10236000074802F0DDFCB146FFF738B9000C014028
:10237000901B0020D8740008281C0020FE74000860
:10238000501A0020DC7400080022034B1B685A62BC
:102390005A6A8242FCD37047E01B00200000000014
:1023A00070B5037F0446042B13D1274E337835468E
:1023B00083B9082101F002FF244B18600123337018
:1023C00023681A6A22F400721A621A6A42F40072CE
:1023D0001A6270BD012BFCD1082101F0EFFE1C4BED
:1023E0002468186000236362184B1A4A1B689842DD
:1023F00020D9C31A13601068FEF786F910A3D3E939
:102400000023FDF715FF0022134BFDF711FFFEF728
:10241000F5F9124B187000232B70236A23F4007314
:102420002362236A23620E4B1A68D36823F00203E7
:10243000D360CEE7DFD2C3F57F43FF330344D9E750
:102440009CC420B07268A13FA0000020980000202A
:102450009C000020900000200000E03F940000203D
:10246000E01B002010B50B4C01224FF40051204618
:1024700001F096FA0A20FFF787FF00224FF400517F
:10248000204601F08DFA044B1A68D36843F002032A
:10249000D36010BD00140140E01B002070B5164C45
:1024A00086B03C21204601F02EFE2368134C3C21CF
:1024B00020465B6A01F027FE2368114E5B6A00F03C
:1024C0001BFF08210F4802F0AFFA0F4D0F4CFFF72A
:1024D000C9FF3278214601A82A7004F023FB32217B
:1024E00001AA462000F0D8FB322002F095FE012020
:1024F00002F092FEEBE700BFC41A0020081A002089
:1025000094000020E01B0020B8190020F37400089C
:1025100010B596B0242200210DA804F0FBFA142275
:10252000002101A804F0F6FA182200210DEB0200A8
:1025300004F0F0FA0224012210230CA8CDE91023A4
:102540000C9401F047FA014608B172B6FEE70F237A
:10255000CDE90300CDE90130059001A801F010FCA0
:1025600008B172B6FEE7089006A8069401F0C4FC14
:1025700008B172B6FEE716B010BD000080B59CB081
:1025800000F09CFEFFF7C4FF1022002113A804F006
:10259000C1FAA94B4FF4AF519A69A84842F04002E2
:1025A0009A619A69002502F040020192019A9A69A3
:1025B000012442F010029A619A694FF0020902F078
:1025C00010020292029A9A69032642F004029A616A
:1025D0009A694FF0200802F004020392039A9A6964
:1025E0004FF4805742F008029A619A6902F008029B
:1025F0000492049A9A6942F020029A619B6900222F
:1026000003F020030593059B01F0CAF900223C2149
:102610008B4801F0C5F9002220218A4801F0C0F959
:1026200000224FF40841884801F0BAF900224FF423
:102630000051864801F0B4F94FF4BC637F4813A9F8
:10264000CDE91334CDE9155901F0C0F83C237C489D
:1026500013A9CDE913341696159501F0B7F879480A
:1026600013A9CDE91384CDE9155601F0AFF87348ED
:1026700013A9CDE91374CDE9155601F0A7F84FF46D
:102680000843CDE915564FF400566F4813A9CDE91C
:10269000133401F09BF86D4813A9CDE91364CDE91B
:1026A000155901F093F8102229460DEB080004F0AB
:1026B00031FA1C2229460CA8CDE9065504F02AFA65
:1026C0004246294613A804F025FA614C614B204686
:1026D000C4E9003541F61F43C4E90555C4E9033593
:1026E000A56001F073FE08B172B6FEE7204608A9A6
:1026F000089702F097F808B172B6FEE7204601F09D
:1027000091FE08B172B6FEE7CDE9060006A92046A3
:1027100002F002FA024608B172B6FEE76023CDE984
:102720000E00CDE90C30CDE9100012900CA9204626
:1027300001F05CFF08B172B6FEE7042220460CA946
:1027400001F054FF08B172B6FEE7082220460CA93A
:1027500001F04CFF08B172B6FEE70C2220460CA92E
:1027600001F044FF08B172B6FEE7CDE91300CDE9F0
:102770001500CDE917061A9013A9204602F002FAB7
:10278000044608B172B6FEE70146CDE90C001022FE
:1027900013A804F0BFF94FF0804507232E48C0E985
:1027A00000534FF6FE738460C0E90334846101F086
:1027B00065FE08B172B6FEE7002327480CA9CDE9F3
:1027C0000C3302F0A9F908B172B6FEE701251390A7
:1027D000CDE91450169008221F4813A901F094FF68
:1027E00008B172B6FEE71D4C1D4BCDE90C00C4E9E3
:1027F000003041F61F43C4E903300323CDE9133011
:102800000A23CDE91550CDE91730CDE91950A06064
:10281000A06113A920461B9301F05CFE08B172B6BB
:10282000FEE7CDE90C000CA9204602F075F905463B
:10283000C0B172B6FEE700BF0010024000180140B0
:102840000008014000100140000C0140001401404C
:10285000C019002000340140E01B00200C1B0020A8
:10286000000400400146102208A804F053F91C227D
:1028700029460CA8CDE9065504F04CF9294620223A
:1028800013A804F047F9A023864C87492046C4E9E1
:1028900000134FF47A73C4E903358023A5606561A2
:1028A000A36101F093FD08B172B6FEE74FF48053C7
:1028B000204608A9089301F0B5FF08B172B6FEE7FB
:1028C000204601F0AFFD08B172B6FEE7CDE9060083
:1028D00006A9204602F020F908B172B6FEE760238F
:1028E000CDE91000CDE90C300E9012900C2220465C
:1028F0000CA901F07BFE08B172B6FEE74FF400535D
:10290000CDE91300CDE9150017901A9013A92046C0
:10291000189302F037F908B172B6FEE7614800F08B
:10292000C5FB4FF4E1336148614A0C24C0E9002340
:102930000023C0E90233C0E905430361C36102F02B
:10294000C1F908B172B6FEE701254FF00A094FF64A
:10295000FF780327574E584BCDE90C00C6E90030ED
:10296000C6E90380CDE91370CDE91550CDE9179084
:10297000CDE91950B060B06113A93046CDF86C9024
:1029800001F0A8FD08B172B6FEE7CDE90C000CA974
:10299000304602F0C1F808B172B6FEE7474E484B28
:1029A000CDE90C00C6E90030C6E90208CDE9137094
:1029B000CDE91550CDE91790CDE919503061B061DE
:1029C00013A93046CDF86C9001F084FD08B172B6C1
:1029D000FEE7CDE90C000CA9304602F09DF808B1E5
:1029E00072B6FEE74FF46027364E374BCDE9130041
:1029F0001590B06030733075706030463360F761A9
:102A0000356100F035FD08B172B6FEE70B23159075
:102A100013A93046CDE9133500F086FC08B172B633
:102A2000FEE72A4E2A4BCDE913001590B0603073B3
:102A30003075706030463360F761356100F018FD25
:102A400008B172B6FEE7159013A93046CDE91345DB
:102A500000F06AFC044608B172B6FEE700F03CF9EB
:102A600002F042FB21461B4A1B4802F079FB1B4B3C
:102A7000214618601A4A1B4802F072FB1A4B214685
:102A800018601A4A1A4802F06BFB1A4B214618606C
:102A9000194A1A4802F064FB194B186002F040FB17
:102AA000FEE700BF901B0020002C0140501A0020C0
:102AB00000480040081A002000080040C41A002006
:102AC000000C0040541B002000240140941A0020F8
:102AD00000280140A47500083D080008BC1900202A
:102AE0005C750008C1150008841B002038750008BB
:102AF000E9080008881B0020807500089D24000854
:102B0000B41900207047000070B50A46044601B1B0
:102B100001224FF48071124800F042FF0825104E48
:102B200000222021304600F03BFF23064CBF01224B
:102B300000224021304600F033FF013D01222021D8
:102B4000304600F02DFF640015F0FF05E4B2E7D138
:102B5000BDE8704001224FF48071014800F020BFB1
:102B60000018014070B5B0240E4E00212046FFF73A
:102B7000CBFF00210846FFF7C7FF00211020FFF719
:102B8000C3FF002516F8350001210135FFF7BCFF12
:102B9000802DF7D10134E4B2B82C06F10106E4D15E
:102BA00070BD00BF321C002008230020074900220E
:102BB00001F832000132802AFAD1013B13F0FF0301
:102BC00001F10101F3D1FFF7CDBF00BF321C00209E
:102BD000030630B513D43F2911D8012301F00705AE
:102BE000094CC908C1F10701C5F10705C9B204EBD9
:102BF000C00003FA05F5435C12B12B43435430BDCA
:102C000023EA0503FAE700BF321C00202DE9F74F45
:102C1000A2F1200598461E4BEDB203EB051300937D
:102C20000C23824689460C4600271A4A9DF830B08C
:102C300003FB05230193B84502D103B0BDE8F08F33
:102C4000B8F10C0F0CBF019B009BDE5D04F1080383
:102C5000DDB2330658BFBBFA8BF2214604F1010402
:102C60004CBF5A4652095046E4B2FFF7B1FFA4EBFD
:102C7000090276004245F6B207D14D460AF101003D
:102C80005FFA80FA2C460137D5E7A542E1D1F9E792
:102C90003C7A0008C8750008F7B504460D460127C0
:102CA000561E16F8013F0BB903B0F0BD7A2C82BF57
:102CB0001035EDB200243A2D03D90025FFF774FF3B
:102CC0002C46009720460C23294632780834FFF71B
:102CD0009DFFE4B2E5E7000010B500F06FFE404B49
:102CE000404C1A6A22F001021A621A6A22F00402A7
:102CF0001A6200F069FE00228021204600F050FE9A
:102D0000642000F0FFFA01222046802100F048FEF6
:102D10000021AE20FFF7F8FE0021D520FFF7F4FEDA
:102D200000215020FFF7F0FE0021A820FFF7ECFE65
:102D300000213F20FFF7E8FE0021D320FFF7E4FE4B
:102D400000210846FFF7E0FE00214020FFF7DCFEEF
:102D500000218D20FFF7D8FE00211420FFF7D4FEBC
:102D600000212020FFF7D0FE00210220FFF7CCFE3B
:102D70000021A120FFF7C8FE0021C020FFF7C4FEFC
:102D80000021DA20FFF7C0FE00211220FFF7BCFE71
:102D900000218120FFF7B8FE0021EF20FFF7B4FEED
:102DA0000021D920FFF7B0FE0021F120FFF7ACFE93
:102DB0000021DB20FFF7A8FE00213020FFF7A4FE52
:102DC0000021A420FFF7A0FE0021A620FFF79CFE13
:102DD0000021AF20FFF798FEBDE81040FFF7E4BEEA
:102DE0000010024000180140114B07B59A690F21ED
:102DF00042F001029A619A696FF0010002F001024B
:102E00000092009ADA6942F08052DA61DB690022AE
:102E100003F080530193019B00F0C6FB054A536801
:102E200023F0E06343F00073536003B05DF804FBEC
:102E30000010024000000140102210B5044688B086
:102E40000DEB0200002103F065FE23681B4A93424C
:102E50001CD11B4B9A6942F400729A619A6902F480
:102E600000720092009A9A6942F010029A619B697E
:102E700003F010030193019B0223049303231148E1
:102E800004A9059300F0A2FC08B010BD0E4A9342BD
:102E9000FAD10B4B9A6942F480629A619A6902F402
:102EA00080620292029A9A6942F010029A619B69CA
:102EB00003F010030393039B0423DEE70024014087
:102EC000001002400010014000280140102210B5FF
:102ED000044688B00DEB0200002103F01BFE2368BE
:102EE000174A93420BD1174B9A6942F400629A61D8
:102EF0009B6903F400630193019B08B010BD124A63
:102F00009342FAD10F4B11489A6904A942F4005236
:102F10009A619A6902F400520292029A9A6942F006
:102F200010029A619B694FF4707203F010030393CF
:102F3000039B0223CDE90423079300F047FCDCE761
:102F4000002C0140001002400034014000100140FC
:102F500010B5044686B01022002102A803F0DAFD65
:102F60002368B3F1804F2ED103F50433DA690024CE
:102F700042F00102DA61DA69144802F001020092BB
:102F8000009A9A6902A942F008029A619B69049426
:102F900003F008030193019B4FF48063CDE90234F1
:102FA00000F014FC0A4A1C205368052123F44073E6
:102FB00043F0E06343F400735360224600F0F4FAF8
:102FC0001C2000F023FB06B010BD00BF000C014028
:102FD0000000014010B504468AB01022002106A866
:102FE00003F098FD23682B4A93421AD12A4BDA69E1
:102FF00042F00202DA61DA6902F002020092009AFB
:103000009A6942F004029A619B6903F004030193F8
:10301000019BC023069300232048CDE9073306A96E
:103020001CE01F4A93421DD11B4B1E48DA6906A9BA
:1030300042F00402DA61DA6902F004020292029AB2
:103040009A6942F008029A619B69C02203F0080362
:103050000393039B0023CDE90623089300F0B6FBFE
:103060000AB010BD104A9342FAD10B4BDA6942F014
:103070000802DA61DA6902F008020492049A9A6995
:1030800042F004029A619B6903F004030593059BD7
:103090000323BFE700040040001002400008014085
:1030A00000080040000C0140000C004010B5044630
:1030B00086B01022002102A803F02CFD2268104BDC
:1030C0009A421BD103F564439A690E4842F04002CC
:1030D0009A619B694FF4804203F040030193019B86
:1030E000022302A9CDE90223059300F06FFB064AF3
:1030F000536843F0E06343F0C003536006B010BD73
:10310000002C0140001801400000014010B50446A9
:1031100086B01022002102A803F0FCFC22681F4B9D
:103120009A4239D103F5E433DA691D4842F480222A
:10313000DA61DA6902A902F480220092009A9A699F
:10314000002442F010029A619B694FF4806203F000
:1031500010030193019B0223CDE90223032305936E
:1031600000F034FB4FF400630D4802A9CDE90234AE
:10317000049400F02BFB0B4A27205368052123F011
:10318000300343F0E06343F010035360224600F045
:103190000BFA272000F03AFA06B010BD00480040B4
:1031A0000010014000000140FEE7FEE7FEE7FEE7F9
:1031B000FEE7704708B500F093F802F0EBFF012836
:1031C00003D0BDE8084003F0CDBA08BD014801F0C6
:1031D0000FB800BFE01B0020014801F053BE00BF44
:1031E000501A00200B4B0246196810B509B90A495C
:1031F0001960186809490A4C0244091B8A4206D919
:1032000003F050FC0C2303604FF0FF3010BD1A6038
:10321000FCE700BFA400002088200020000001205F
:1032200000040000704700000C480D490D4A0023BF
:1032300002E0D458C4500433C4188C42F9D30A4A6B
:103240000A4C002301E013600432A242FBD3FFF7D3
:10325000E9FF03F02DFCFFF791F970470000002013
:1032600074000020A4810008740000208820002041
:10327000FEE7000038B50E4B054618784FF47A7318
:10328000B3FBF0F30B4A1068B0FBF3F000F0CCF99D
:10329000044658B90F2D09D8024629464FF0FF3091
:1032A00000F082F92046044B1D6038BD0120FCE788
:1032B000040000200000002008000020074A08B594
:1032C0001368032043F01003136000F05BF90F2034
:1032D000FFF7D0FFFFF788FD002008BD0020024067
:1032E000034A044B11681B780B441360704700BFFE
:1032F0003420002004000020014B1868704700BFF4
:103300003420002038B50446FFF7F6FF0546631C5D
:103310001EBF044B1B78E418FFF7EEFF431BA342CC
:10332000FAD338BD04000020002373B5019390F850
:1033300024300446012B6CD0012380F824304D68E2
:103340000268062D086805EB850322D81F26556BF9
:10335000053B9E4025EA060500FA03F32B43536321
:1033600009288B6800EB40054FF0070129D9D66882
:103370001E3DA94026EA0101AB400B43D360A0F1FA
:103380001003012B25D90020002384F8243002B03B
:1033900070BD0C2D4FF01F0509D8166B233B9D40C7
:1033A00026EA050500FA03F32B431363D8E7D66A30
:1033B000413B9D4026EA050500FA03F32B43D36207
:1033C000CEE71069A94020EA0101AB400B4313612D
:1033D000D9E7114B9A4216D193681B02D3D4936854
:1033E000102843F400039360CDD10C4B0C4A1B68AA
:1033F000B3FBF2F20A2353430193019B002BC2D08B
:10340000019B013BF8E7A36A012043F02003A3627C
:10341000BAE70220BBE700BF002401400000002003
:1034200040420F0038B5036804469A68D10701D4BA
:10343000002038BD9A6822F001029A60FFF75CFF15
:10344000054623689B68DB07F2D5FFF755FF401B55
:103450000228F6D923689B68DA07F2D5A36A01200F
:1034600043F01003A362E36A43F00103E362E0E781
:10347000F8B50446002877D0836A23B9C36280F880
:103480002430FFF7D9FC2046FFF7CCFFA36A13F0E6
:1034900010036BD1002869D1A26A374E22F48852FA
:1034A00022F0020242F00202A262D4E90021B242FA
:1034B000E56904D1B5F5402F08BF4FF40025267B00
:1034C00041EA46012943A568B5F5807F37D0012D33
:1034D0000CBF4FF4807C4FF0000C277D012F06D1EC
:1034E0007EBBA769013F4CEA473646F4006C56683C
:1034F000B5F5807F26F4694646EA0C065660976863
:103500001E4E06EA070646EA0106966001D0012D26
:1035100002D12369013B1B05D56A25F470052B43B5
:10352000D3629268164B1340994213D10023E36291
:10353000A36A23F0030343F00103A362F8BDAC4682
:10354000CBE7A66A46F02006A662E66A46F00106C8
:10355000E662CCE7A36A23F0120343F01003A362F0
:10356000E36A43F00103E3620120E7E7A36A43F063
:103570001003A362F8E700BF003C0140FDF7E1FF44
:10358000FE0E1FFF07490302CA6803F4E06322F43A
:10359000E0621204120C134343F0BF6343F40033A0
:1035A000CB60704700ED00E0164B30B5DC68C4F32B
:1035B0000224C4F10703251D042B28BF0423062D74
:1035C0004FF0FF3598BF002405FA03F388BF033C92
:1035D00021EA0303A34005FA04F422EA04020028C6
:1035E00043EA0203ACBF00F16040074A4FEA03130D
:1035F000DBB2ABBF00F5614000F00F0080F8003394
:10360000135430BD00ED00E014ED00E0002808DBAD
:103610000123420900F01F0003FA00F0014B43F8B8
:103620002200704700E100E00138B0F1807F0AD24B
:10363000F021064B064A586082F82310002007222A
:1036400098601A6070470120704700BF10E000E0EA
:1036500000ED00E090F82130022B06D004238363B4
:10366000002380F820300120704703681A6822F098
:103670000E021A601A6822F001021A600123D0E9D2
:103680000F218B4053604FF48073038400207047F8
:1036900008B590F82130022B03D004238363012066
:1036A00008BD036843491A6822F00E021A601A68BE
:1036B00022F001021A60404A934241D98B4238D02D
:1036C00014318B4237D014318B4236D014318B42B7
:1036D00023D014318B4223D014318B4223D0934218
:1036E00024D002F56272934223D01432934222D046
:1036F0001432934221D01432934214BF4FF48033DA
:103700004FF480532D4A53604FF480730384436B0E
:10371000002B4DD098470020C2E74FF48053F1E7CB
:103720004FF48033EEE74FF48013EBE74FF08073F4
:10373000E8E70123E6E71023E4E74FF48073E1E7CD
:103740008B422ED01E498B422DD014318B422CD06F
:1037500014318B4219D014318B4219D014318B4261
:1037600019D093421AD0174A93421AD01432934276
:1037700019D01432934218D01432934214BF4FF42C
:1037800080334FF48053104ABDE74FF48053FAE77B
:103790004FF48033F7E74FF48013F4E74FF0807372
:1037A000F1E70123EFE71023EDE74FF48073EAE739
:1037B000184675E7080002408000024000040240FD
:1037C0001C00024008040240000002402DE9F74FAF
:1037D000002216466B4F6C4BDFF8B4C1DFF8B4E142
:1037E0000C6834FA06F502D103B0BDE8F08F4FF053
:1037F000010808FA06F804EA080538EA040440F06B
:1038000082804C68032C07D8013C022C00F28D808A
:10381000DFE804F09EA3A900122C00F0A18074D868
:10382000112C00F09780FF2D98BF82464FF00F09B2
:1038300088BF00F1040A4FEA8604DAF8008088BFE6
:10384000203C09FA04FB28EA0B0802FA04F448EACF
:103850000404CAF80040D1F804A01AF0805F52D0E6
:10386000BC6926F0030844F00104BC61BC6908F19E
:10387000804804F00104019408F5803806F0030B39
:10388000019C4FEA8B0BD8F8084009FA0BF924EA9F
:1038900009093E4CA0426AD004F58064A04268D079
:1038A00004F58064A04266D004F58064A04264D030
:1038B00004F58064A04262D060450CBF0524062454
:1038C00004FA0BF444EA0904C8F808401C681AF426
:1038D000803F14BF2C43AC431C605C681AF4003F6B
:1038E00014BF2C43AC435C609C681AF4801F14BF67
:1038F0002C43AC439C60DC681AF4001F14BF2543C2
:1039000024EA0505DD6001366AE774450DD018D854
:10391000DFF884904C4508D009F570294C4504D057
:10392000A9F580194C457FF47EAF8A68EAB1012A77
:1039300008BFC0F810804FF0080218BFC0F814800C
:1039400071E7DFF858904C45EFD009F58039E9E789
:10395000CA6868E7CA68043265E7CA68083262E77D
:10396000CA680C325FE700225DE704225BE70024AF
:10397000A6E70124A4E70224A2E70324A0E7042485
:103980009EE700BF00100240000401400008014013
:10399000001C014000002210000012100000311035
:1039A0000AB1016170470904FBE7C36801EA030239
:1039B00021EA030141EA0241016170470122014B02
:1039C0001A60704720000E420022014B1A607047B7
:1039D00020000E422DE9F341054638B30368DB07AA
:1039E00010D42B689F075ED42B68190700F19580CF
:1039F0002B685A0700F1BF80E869002840F02C814D
:103A0000002029E08F4C636803F00C03042B07D0DF
:103A1000636803F00C03082B0AD16368DE0307D543
:103A200023689C03DDD56B68002BDAD1012013E0FD
:103A30006B68B3F5803F12D1236843F48033236071
:103A4000FFF75AFC064623689803CAD4FFF754FCD4
:103A5000801B6428F7D9032002B0BDE8F0819BB930
:103A6000236823F480332360236823F480232360B6
:103A7000FFF742FC064623689903B2D5FFF73CFCEA
:103A8000801B6428F7D9E6E7B3F5A02F236803D19C
:103A900043F480232360CFE723F48033236023683B
:103AA00023F48023CBE7674C636813F00C0F07D037
:103AB000636803F00C03082B10D16368DA030DD49C
:103AC00023689B0702D52B69012BAFD123686A6954
:103AD00023F0F80343EAC203236085E72A695A4BBF
:103AE0006AB101221A60FFF707FC064623689F07A8
:103AF000ECD4FFF701FC801B0228F7D9ABE71A6072
:103B0000FFF7FAFB0646236898077FF56DAFFFF7CE
:103B1000F3FB801B0228F6D99DE7AA69494E4B4B5F
:103B2000DAB101221A60FFF7E7FB0446736A9B07CC
:103B30000DD54FF4FA52464B1B68B3FBF2F30193D9
:103B400000BF019B5A1E0192002BF9D150E7FFF7ED
:103B5000D3FB001B0228E9D97DE71A60FFF7CCFBF5
:103B60000446736A9F077FF543AFFFF7C5FB001B51
:103B70000228F6D96FE7334CE369D80024D4012733
:103B8000E36943F08053E361E36903F080530093FA
:103B9000009B304E3368D90518D5EB68012B26D130
:103BA000236A43F001032362FFF7A6FB41F2883842
:103BB0000646236A9B073FD5002F3FF41DAFE369FC
:103BC00023F08053E36117E70027E2E7336843F40B
:103BD00080733360FFF790FB80463368DA05DCD4EE
:103BE000FFF78AFBA0EB08006428F6D933E7ABB9EE
:103BF000236A41F2883823F001032362236A23F009
:103C000004032362FFF778FB0646236A9807D3D59F
:103C1000FFF772FB801B4045F7D91CE7052B236A91
:103C200003D143F004032362BAE723F001032362C4
:103C3000236A23F00403B6E7FFF75EFB801B4045D1
:103C4000B7D908E700100240000042428004424217
:103C500000000020007000402A4B5A681C4602F009
:103C60000C02082A3DD00023274E022833602BD1B6
:103C7000FFF742FB0746236899011FD42B6AB3F56F
:103C8000803F05D16268A96822F400320A4362606D
:103C9000696A62680B4322F4741213436360012360
:103CA0003360FFF729FB054623689A013FF5A8AE6C
:103CB000FFF722FB401B0228F6D9CCE6FFF71CFBDE
:103CC000C01B0228D7D9C6E6FFF716FB05462368B6
:103CD0009B017FF595AEFFF70FFB401B0228F6D93D
:103CE000B9E601283FF4B8AE5B682A6A03F4803174
:103CF00091427FF49BAE6A6A03F4701393423FF4DF
:103D00007FAE93E6001002406000424230B5184B8F
:103D100087B002AC03F110052246186859680833D1
:103D200003C2AB421446F7D140F201231149ADF86A
:103D300004304B6803F00C02082A17D1C3F3834206
:103D400006A80244DB0312F8102C0CD54B680A4875
:103D5000C3F34043504306AA134413F8143CB0FB8A
:103D6000F3F007B030BD05485043FAE70248F8E7E2
:103D7000448000080010024000127A0000093D0053
:103D80002DE9F0410D46044610B90120BDE8F0814F
:103D9000444A136803F007038B4228D321688E0737
:103DA00030D4CA0743D43F4A136803F00703AB4239
:103DB00065D822683C4D12F0040F6CD1130706D56C
:103DC0006B68226923F4605343EAC2036B60FFF718
:103DD0009DFF6B68354AC3F30313D35CD840344B63
:103DE0001860344B1868FFF745FA0020CEE71368D7
:103DF00023F007030B431360136803F007038B42A0
:103E0000C3D1CBE7284B11F0040F1EBF5A6842F410
:103E1000E0625A60080742BF5A6842F460525A6032
:103E20005A68A06822F0F00202435A60B9E762685B
:103E30001D4E012A33681AD113F4003FA5D07368D0
:103E400041F2883823F0030313437360FFF754FAF9
:103E500007467368626803F00C03B3EB820FA2D0CD
:103E6000FFF74AFAC01B4045F3D903208EE7022A28
:103E700002D113F0007FE1E713F0020FDEE71368D1
:103E800023F007032B431360136803F00703AB42CF
:103E90007FF47BAF8DE76B68E16823F4E0630B434D
:103EA0006B608BE700200240001002402C8000086D
:103EB0000000002008000020044B054A5B68C3F3A3
:103EC0000223D35C034A1068D840704700100240B8
:103ED0003C80000800000020044B054A5B68C3F3E7
:103EE000C223D35C034A1068D840704700100240D8
:103EF0003C8000080000002003682DE9F341D90749
:103F0000054620D5354CE369DA0032D40127E36950
:103F100043F08053E361E36903F080530193019B15
:103F20002F4E3368DB0526D5236A13F4407336D150
:103F3000236A6A6823F44073134323621FB1E36961
:103F400023F08053E3612868830706D52349AB68D3
:103F50004A6822F440421A434A6010F010001BD015
:103F60001E4A69695368002023F480030B435360A1
:103F700012E00027D4E7336843F480733360FFF71F
:103F8000BBF980463368D805CED4FFF7B5F9A0EB6E
:103F900008006428F6D9032002B0BDE8F0816A6801
:103FA00002F440729A42C3D001200E4A236A106084
:103FB000002023F4407110602162D907B8D5FFF7C3
:103FC0009BF941F288380646236A9A07B0D4FFF776
:103FD00093F9801B4045F7D9DDE700BF0010024090
:103FE0000070004040044242036A70B523F00103B0
:103FF0000362036A446882690D6822F073022A43EF
:104000008D6823F002032B430E4DA84202D00E4EC2
:10401000B04210D1CE6823F008033343A84223F006
:10402000040302D0084DA84205D1D1E9055624F475
:10403000407435432C43446082614A6842630362A2
:1040400070BD00BF002C014000340140036A70B510
:1040500023F480730362036A4468C2690D6822F026
:1040600073022A438D6823F4007343EA0523114D3C
:10407000A84203D005F50065A84214D1CD6823F409
:10408000006343EA05230B4D23F48063A84203D069
:1040900005F50065A84206D1D1E9055624F440543F
:1040A000354344EA05144460C2614A68C26303624E
:1040B00070BD00BF002C0140036A30B523F480536B
:1040C0000362036A4468C2690D6822F4E64242EA68
:1040D00005228D6823F4005343EA0533084DA842B6
:1040E00003D005F50065A84204D14D6924F480444D
:1040F00044EA85144460C2614A680264036230BDC8
:10410000002C01407047034630B590F83E2090F8EF
:104110003F0093F8425093F84340D2B2C0B2EDB2A0
:10412000E4B2C1B9012A45D1012D45D1022283F85B
:104130003E2083F842201A68116A21F001011162C1
:10414000116A41F00101002011621A68136843F0FE
:104150000103136030BD042911D101282AD1012C9B
:10416000F8D1022283F83F2083F843201A68116AAD
:1041700021F010011162116A41F01001E3E7012AF8
:1041800018D1012818D1012DE4D1012CE2D102224D
:1041900083F83E2083F83F2083F8422083F84320B1
:1041A0001A68116A21F001011162116A41F00101DE
:1041B0001162DCE70120CDE71046CBE7082910D0DB
:1041C00004D841B1042909D0002070470C29FBD143
:1041D0000368186C70470368586B70470368986BE6
:1041E00070470368D86B70477047704770477047D7
:1041F000036810B51A69044691070ED5DA6892076C
:104200000BD56FF002021A61012202779B699B07AE
:1042100077D0FEF7C5F80023237723681A69500783
:1042200010D5DA6851070DD56FF004021A61022229
:1042300022779B69204613F4407F68D0FEF7B0F8E0
:104240000023237723681A6912070FD5DA6810074D
:104250000CD56FF008021A6104222277DB69204630
:1042600099075AD0FEF79CF80023237723681A6930
:10427000D20610D5DA68D0060DD56FF010021A619B
:1042800008222277DB69204613F4407F4BD0FEF7EB
:1042900087F80023237723681A69D10708D5DA68DD
:1042A000D20705D56FF0010220461A61FFF79CFF87
:1042B00023681A69100608D5DA68110605D56FF06B
:1042C000800220461A6100F084FC23681A695206B5
:1042D00008D5DA68500605D56FF0400220461A610D
:1042E000FFF785FF23681A69910622D5DA689206DE
:1042F0001FD56FF020022046BDE810401A6100F083
:1043000067BCFFF772FF2046FFF770FF83E7FFF7F8
:104310006CFF2046FFF76AFF92E7FFF766FF204633
:10432000FFF764FFA0E7FFF760FF2046FFF75EFF9F
:10433000AFE710BD244A0368904212D002F5006234
:1043400090420ED0B0F1804F0BD0A2F5983290423F
:1043500007D002F58062904203D002F5806290425D
:104360001DD14A6823F070031343174A904212D0BC
:1043700002F5006290420ED0B0F1804F0BD0A2F552
:104380009832904207D002F58062904203D002F545
:104390008062904203D1CA6823F4407313434A6990
:1043A00023F08003134303608B68C3620B6883624E
:1043B000054B984203D003F50063984201D10B6985
:1043C0000363012343617047002C014010B504468C
:1043D00030B390F83D3003F0FF021BB980F83C2069
:1043E000FEF774FD0223206884F83D30211DFFF79D
:1043F000A1FF0123002084F8463084F83E3084F881
:104400003F3084F8403084F8413084F8423084F8FA
:10441000433084F8443084F8453084F83D3010BD92
:104420000120FCE710B5044630B390F83D3003F0AE
:10443000FF021BB980F83C20FFF764FE02232068CE
:1044400084F83D30211DFFF775FF0123002084F81B
:10445000463084F83E3084F83F3084F8403084F8A9
:10446000413084F8423084F8433084F8443084F892
:10447000453084F83D3010BD0120FCE710B50446FE
:1044800030B390F83D3003F0FF021BB980F83C20B8
:10449000FEF75EFD0223206884F83D30211DFFF702
:1044A00049FF0123002084F8463084F83E3084F828
:1044B0003F3084F8403084F8413084F8423084F84A
:1044C000433084F8443084F8453084F83D3010BDE2
:1044D0000120FCE7F8B50D46044600284DD090F8C1
:1044E0003D3003F0FF021BB980F83C20FEF772FD5F
:1044F0000223214684F83D3051F8040B836823F4ED
:10450000804323F007038360FFF714FF20682B68C4
:1045100086688269A9681E43AB6922F4407222F062
:10452000030241EA0323134323F47C422B69E96924
:104530001B0143EA0123E968076A0B43296A22F059
:10454000FC0243EA01331343696927F022026F68D2
:10455000866047EA01178361174301230762002041
:1045600084F8463084F83E3084F83F3084F8423096
:1045700084F8433084F83D30F8BD0120FCE70000AA
:10458000036A70B523F010030362036A446882690A
:104590000D6822F4E64242EA05228D6823F02003EA
:1045A00043EA0513104DA84203D005F50065A84263
:1045B00014D1CD6823F0800343EA05130A4D23F09C
:1045C0004003A84203D005F50065A84206D1D1E911
:1045D000055624F44064354344EA8504446082610E
:1045E0004A688263036270BD002C014038B590F8C0
:1045F0003C300446012B52D00123082A80F83C307D
:104600003CD006D8C2B1042A27D0002084F83C0050
:1046100038BD0C2AF9D10068FFF74EFD23680969FF
:10462000DA6942F40062DA61DA6922F48062DA61FE
:10463000DA6942EA012230E00068FFF7D5FC23681E
:1046400009699A6942F008029A619A6922F00402A3
:104650009A619A690A439A61D7E70068FFF790FF69
:10466000236809699A6942F400629A619A6922F49E
:1046700080629A619A6942EA0122ECE70068FFF7DA
:10468000E5FC23680969DA6942F00802DA61DA694F
:1046900022F00402DA61DA690A43DA61B5E702203E
:1046A000B6E7000070B5046A164E24F001040462F7
:1046B000B0428469056A21D006F50066B0421DD07B
:1046C000B0F1804F1AD0A6F59836B04216D006F554
:1046D0008066B04212D006F58066B0420ED044F03B
:1046E00001021B01DBB222F0F0021A4301F00A01C1
:1046F00025F00A0319438261016270BD24F00304AE
:104700002243EEE7002C0140F8B590F83C30044617
:10471000012B0E46154679D0012380F83C30F36812
:10472000006806C975B9FFF7BDFF2368B1689A69CB
:1047300022F00C029A619A690A439A61002084F877
:104740003C00F8BD042DB66822D1056A090125F0A8
:10475000100505628769D0F820E027F4407C1D032E
:104760004CEA022C2CF4704CADB22EF0A00E01F0ED
:10477000A00145EA0C0541EA0E01856101628369E9
:1047800023F440638361836943EA06268661D5E7A3
:10479000082D056A1CD125F480750562C769056A74
:1047A00027F0030717431B010902DBB227F0F007CC
:1047B00025F4007501F400711F432943C7610162AC
:1047C000C36923F00C03C361C3691E43C661B5E727
:1047D00025F480550562C569076A25F4407545EAE8
:1047E00002251B03090325F470459BB227F40057EB
:1047F00001F400512B433943C3610162C36923F4BF
:104800004063C361C36943EA0626DFE7022098E7F5
:1048100010B584680A4324F47F4442EA0322224309
:10482000826010BD70B590F83C300446012B4FF00B
:10483000020027D0012384F83D00206884F83C3032
:10484000836823F47F4323F0770383600B68602B36
:104850004DD032D8402B62D015D8202B03D009D8A8
:1048600033F0100208D1826822F07002134343F043
:10487000070320E0302BF6D00123002084F83D30E0
:1048800084F83C0070BD502BF6D14A68CE68016AAE
:10489000056A21F00A0125F00105056283690A43D2
:1048A00023F0F00343EA061383610262836823F076
:1048B000700343F057038360DEE7702B0CD0B3F531
:1048C000005FD9D1CB68D1E90121FFF7A1FF2268B0
:1048D000936843F4804308E0CB68D1E90121FFF7F6
:1048E00097FF2268936843F077039360C4E74D68AD
:1048F000CE68016A21F0100101628269036A22F424
:10490000704223F0A00343EA051342EA06328261B3
:104910000362836823F0700343F06703CBE74A68C0
:10492000CE68016A056A21F00A0125F001050562D9
:1049300083690A4323F0F00343EA061383610262AA
:10494000836823F0700343F04703B4E710B50124F4
:10495000036A01F01F018C4023EA04030362036A27
:104960008A401A43026210BD10B5044629B990F876
:104970003E30012B1DD0012032E0042907D190F8F0
:104980003F30012BF7D1022380F83F3014E0082993
:1049900007D190F84030012BEDD1022380F8403050
:1049A0000AE090F84130012BE5D1022380F8413034
:1049B00002E0022380F83E3001222068FFF7C6FFA4
:1049C0002368154A93420CD014498B4209D0B3F1A5
:1049D000804F10D19A6802F00702062A16D10020F3
:1049E00010BD596C934241F400415964F2D00B4A16
:1049F0009342EFD0EBE70A4A9342EBD002F5806294
:104A00009342E7D002F580629342E3D01A6842F005
:104A100001021A60E3E700BF002C014000340140AE
:104A200000040040FFF7A0BF10B5044600293AD1AA
:104A300090F83E0094F84230C0B20128DBB266D153
:104A4000012B65D102232068002942D184F83E3031
:104A500084F84230C36843F00203C3600122FFF7C9
:104A600075FF23682B4A934212D002F500629342ED
:104A70000ED0B3F1804F0BD0A2F59832934207D0FD
:104A800002F58062934203D002F58062934204D122
:104A90009A6802F00702062A03D01A6842F001025F
:104AA0001A60002034E0042905D190F83F0094F802
:104AB0004330C0B2C1E708290BBF90F8400094F81A
:104AC000410094F8443094F845300CBFC0B2C0B2F5
:104AD000B3E7042907D184F83F3084F84330C36832
:104AE00043F00403B9E7082907D184F8403084F87B
:104AF0004430C36843F00803AFE70C2984F8413021
:104B000084F84530AAD1C36843F01003A5E701201B
:104B100010BD00BF002C014030B590F83C3002467B
:104B2000012B4FF002002AD0136882F83D005C6828
:104B30000D6824F070042C4398685C60104CA3420C
:104B400012D004F50064A3420ED0B3F1804F0BD015
:104B5000A4F59834A34207D004F58064A34203D09F
:104B600004F58064A34204D1496820F08000014329
:104B700099600123002082F83D3082F83C0030BD6E
:104B8000002C014090F83C30012B1FD0CB688A6884
:104B900023F4407313434A6823F4806313430A6881
:104BA00023F4006313430A6923F4805313434A69CF
:104BB00023F400531343CA6923F480431343026868
:104BC0005364002380F83C30184670470220704739
:104BD000704770470368DA6822F49072DA605A69A5
:104BE00022F001025A61026B012A02BFDA6822F048
:104BF0001002DA60202380F83E3000230363704700
:104C000010B504460368C1681A6922F440520A4389
:104C10001A6182680069D9680243606921F4B05161
:104C200021F00C0102430A43DA605A69A16922F4B7
:104C300040720A435A610E4A934215D1FFF74CF96C
:104C400019234343626820689200B3FBF2F36422A5
:104C5000B3FBF2F102FB11331B013233B3FBF2F36E
:104C600003EB0113836010BDFFF726F9E8E700BFEF
:104C700000380140F8B504460E4617461D46226826
:104C8000136836EA030301D1002014E06B1CF7D04F
:104C900095B923680320DA6822F4D072DA605A6981
:104CA00022F001025A61202384F83D3084F83E301E
:104CB000002384F83C30F8BDFEF71EFBC01B854284
:104CC000DDD2E6E710B5044640B390F83D3003F07E
:104CD000FF021BB980F83C20FEF718FA2423226853
:104CE00084F83D30D368204623F40053D360FFF7A7
:104CF00087FF236800201A6922F490421A615A69DA
:104D000022F02A025A61DA6842F40052DA60202363
:104D1000206484F83D3084F83E3010BD0120FCE76B
:104D20002DE9F843994690F83D300446202B0E4675
:104D3000174648D1002944D0002A42D090F83C3090
:104D4000012B40D00123002580F83C30212305644D
:104D500080F83D30FEF7D0FAA3688046B3F5805F57
:104D6000A784E78403D123690BB935461E46002387
:104D700084F83C30E38C9BB253B94B464246402109
:104D80002046FFF777FF50B9202384F83D3007E035
:104D90004B46424680212046FFF76CFF10B10320AE
:104DA000BDE8F88322684EB935F8023BC3F3080327
:104DB0005360E18C013989B2E184DBE716F8013BED
:104DC000F6E70120ECE70220EAE77047704708B5F4
:104DD0000023406AC385C384FFF7F8FF08BD70470E
:104DE00013B590F83E30222B49D18168836AB1F522
:104DF000805F026833D10169002933D15268C2F360
:104E0000080223F8022BC48D8362013CA4B2C4853E
:104E10001CBB0368DA6822F02002DA60DA6822F448
:104E20008072DA605A6922F001025A61202280F809
:104E30003E20026B012A1FD10463DA6822F01002BF
:104E4000DA601A68D20605D501941A6801925B6887
:104E50000193019B818DFFF7C2FF002010E039B95B
:104E6000016929B95268D2B21A70836A0133CAE75C
:104E7000526802F07F02F7E7FDF744FEEDE70220FB
:104E800002B010BD036837B51A68044612F00F0F60
:104E9000D9685D6908D195065FD58D065DD503B0EB
:104EA000BDE83040FFF79CBF05F0010001F49075AC
:104EB000054352D0D50705D5CB0542BF236C43F03F
:104EC00001032364550704D518B1236C43F0020392
:104ED0002364930704D518B1236C43F004032364BF
:104EE000150707D501F0200303431EBF236C43F0D1
:104EF00008032364236C53B3920604D58B0602D5B2
:104F00002046FFF76DFF236820465B69256C03F0A0
:104F1000400305F008051D431BD0FFF75BFE236827
:104F20005A69550610D55A69A06B22F040025A61A1
:104F300050B1534B4363FEF7ABFB40B1A06B436BE7
:104F400003B0BDE8304018472046FFF73FFF03B0ED
:104F500030BDFFF73BFF2564F9E7206B012855D1F1
:104F6000D00653D5CD0651D5002101911A68019282
:104F70005A680192019A5A6912F040022AD0A06B35
:104F80000268526892B2002AE1D0A58D9542DED91E
:104F9000E2858269202A15D0DA6822F48072DA600C
:104FA0005A6922F001025A615A6922F040025A619C
:104FB000202284F83E202163DA6822F01002DA60B1
:104FC000FEF748FBE38DA18DC91A89B22046FFF791
:104FD00006FFBCE7E18D88B2E18D89B20029B6D029
:104FE000A18D091A89B20029B1D0D86820F4907037
:104FF000D860586920F001005861202084F83E00F4
:105000002263DA6822F01002DA60DFE7100626D5A4
:105010000D0624D594F83D20212A98D1A168226A52
:10502000B1F5805F16D12169A1B932F8021BC1F335
:10503000080159602262E28C013A92B2E284002AAD
:1050400085D1DA6822F08002DA60DA6842F0400244
:10505000DA607CE7511C216212785A60EBE7500657
:105060007FF575AF4A067FF572AFDA68204622F009
:105070004002DA60202384F83D30FFF7A6FE66E7A1
:10508000CF4D0008C285828581620346222200201E
:10509000186483F83C0083F83E201B68DA6842F409
:1050A0008072DA605A6942F001025A61DA6842F0AD
:1050B0002002DA60704770B490F83E60202E10D164
:1050C00061B15AB190F83C40012C0AD0012480F81B
:1050D0003C400024046370BCFFF7D4BF012070BCC7
:1050E00070470220FBE70000EFF3058313B16FF078
:1050F00005007047EFF31083002BF8D1074B1868B9
:10510000022806D1EFF31183002BF0D14FF0FF30CE
:1051100070470028FAD101221A607047040300206A
:1051200010B5EFF3058313B16FF0050010BDEFF379
:105130001084002CF8D1094B1A68022A06D1EFF32B
:105140001183002BF0D14FF0FF30EFE7012AFAD1A5
:1051500002221A6000F0A0FD2046E7E704030020C9
:10516000F0B51446002287B00B460592EFF3058296
:1051700052BBEFF310823ABB264A1268022A02D1D0
:10518000EFF3118202BBF8B100228DF81320002C3E
:1051900030D0216809B90DF11301A569002D08BFB0
:1051A00018256A1E372AAC462AD86268D20727D447
:1051B000666966B1B208D4E9027E57B1BEF15B0FF1
:1051C00002D9246904B1EEB9059807B0F0BD802278
:1051D000F1E7BEF1000FF7D12469002CF4D105AC42
:1051E000CDE900C492B200F02AFD01281CBF0023C3
:1051F0000593E9E74FF0180C80220DF11301EEE75B
:105200000020E2E7CDE90147009500F0E1FC0590C0
:10521000DAE700BF0403002008B5EFF3058313B1FC
:105220006FF0050008BDEFF31083002BF8D1074B9A
:105230001B68022B03D1EFF31183002BF0D1002860
:10524000F0D000F07FFE0020ECE700BF0403002058
:10525000034B0360034B0B6080231360704700BF58
:10526000A8020020A8000020034B0360034B0B6042
:105270004FF4807313607047080700200803002074
:105280004FF0FF3200F10803C0E9022343600361DD
:1052900000230360704700230361704743689A68E6
:1052A0004B608A609A6851609960036808610133B5
:1052B0000360704730B50C68631C0AD103695A68F3
:1052C0004A6091608B605960036808610133036034
:1052D00030BD00F10802134652681568A542FAD99C
:1052E000EDE70369D0E901128A6051605968814293
:1052F00008BF5A60002202611A68013A1A601868F1
:10530000704710B5044601F0D5F9A46B01F0F4F92B
:10531000B4FA84F0400910BDF8B51546026C044695
:10532000866B52B9076847BB406800F043FF0546EB
:10533000676001362846A663F8BD65B9806801F04C
:10534000DBFBA368226C13446268A3609342F0D332
:105350002368A360EDE7C06801F0CEFB226CE36830
:1053600051429B1A2268E36093423EBF63685B1818
:10537000E360022D01D116B1013E0025D9E7354683
:10538000D7E703461A6C084610B462B1DC68596866
:1053900014448C4228BF1968DC6028BFD960D968E2
:1053A00010BC01F0A9BB10BC704770B5044601F0F9
:1053B00081F994F8455004F124066DB2002D14DCF7
:1053C000FF2384F8453001F097F901F073F994F860
:1053D000445004F110066DB2002D12DCFF2384F856
:1053E0004430BDE8704001F087B9636A002BE7D014
:1053F000304600F041FE08B100F0C6FE013D6DB23E
:10540000DCE72369002BE9D0304600F035FE08B117
:1054100000F0BAFE013D6DB2DEE7000038B50D4682
:10542000044640B94FF0500383F31188BFF36F8FE8
:10543000BFF34F8FFEE701F03DF9D4E90F314B4345
:105440002268D0185B1A13446060E3600020FF23D9
:10545000A063A26084F8443084F8453095B923698C
:1054600063B104F1100000F007FE38B14FF0805234
:10547000094B1A60BFF34F8FBFF36F8F01F03CF9F8
:10548000012038BD04F11000FFF7FAFE04F12400FA
:10549000FFF7F6FEF2E700BF04ED00E037B50D467A
:1054A0001C4640B94FF0500383F31188BFF36F8F50
:1054B000BFF34F8FFEE743B94FF0500383F31188DA
:1054C000BFF36F8FBFF34F8FFEE74AB191B94FF033
:1054D000500383F31188BFF36F8FBFF34F8FFEE745
:1054E00041B14FF0500383F31188BFF36F8FBFF3C7
:1054F0004F8FFEE750230193019B502B08D04FF0B4
:10550000500383F31188BFF36F8FBFF34F8FFEE714
:105510000121002D08BF2246C4E90F0584F846107A
:1055200020462260FFF77AFF20469DF8183084F865
:105530004C3003B030BD00002DE9FF4788461F46C0
:105540000446019240B94FF0500383F31188BFF332
:105550006F8FBFF34F8FFEE751B9036C43B14FF02C
:10556000500383F31188BFF36F8FBFF34F8FFEE7B4
:10557000022F0BD1E36B012B08D04FF0500383F3C4
:105580001188BFF36F8FBFF34F8FFEE700F002FE6D
:10559000064650B9019B4BB14FF0500383F311887D
:1055A000BFF36F8FBFF34F8FFEE700264FF0000968
:1055B000DFF8E4A037E0019D1DB901F09DF800205F
:1055C00050E016B902A800F097FD01F095F800F040
:1055D000A7FB01F06FF894F84430FF2B08BF84F864
:1055E000449094F84530FF2B08BF84F8459001F0B3
:1055F00083F801A902A800F08BFD002846D101F034
:1056000059F8A26BE36B9A422FD101F075F801991A
:1056100004F1100000F0F6FC2046FFF7C6FE00F093
:105620001DFC50B3012601F045F8A26BE36B9A42D2
:1056300001D3022FBFD13A4641462046FFF76CFE08
:10564000636A1BB104F1240000F016FD38B14FF07D
:105650008052114B1A60BFF34F8FBFF36F8F01F071
:105660004BF8012004B0BDE8F08701F045F8204672
:10567000FFF79BFE00F0F2FBD4E74FF08053CAF82F
:105680000030BFF34F8FBFF36F8FCBE72046FFF79C
:105690008CFE00F0E3FB92E704ED00E02DE9F84317
:1056A000894690461F46044640B94FF0500383F3A5
:1056B0001188BFF36F8FBFF34F8FFEE751B9036CB3
:1056C00043B14FF0500383F31188BFF36F8FBFF3E3
:1056D0004F8FFEE7022F0BD1E36B012B08D04FF069
:1056E000500383F31188BFF36F8FBFF34F8FFEE733
:1056F00001F0C0F8EFF311864FF0500383F31188E7
:10570000BFF36F8FBFF34F8FA26BE36B9A4201D34E
:10571000022F22D194F845503A46494620466DB2B0
:10572000FFF7FAFD6B1C13D1636A0BB901200BE084
:1057300004F1240000F0A0FC0028F7D0B8F1000F1D
:10574000F4D00120C8F8000086F31188BDE8F88382
:1057500001356DB284F84550E8E70020F4E7000019
:105760002DE9F04385B00F460446019240B94FF051
:10577000500383F31188BFF36F8FBFF34F8FFEE7A2
:1057800051B9036C43B14FF0500383F31188BFF359
:105790006F8FBFF34F8FFEE700F0FCFC064650B959
:1057A000019B4BB14FF0500383F31188BFF36F8F10
:1057B000BFF34F8FFEE700264FF00008DFF8DC90C4
:1057C0003BE0019D1DB900F097FF002052E016B9A3
:1057D00002A800F091FC00F08FFF00F0A1FA00F0A9
:1057E00069FF94F84430FF2B08BF84F8448094F894
:1057F0004530FF2B08BF84F8458000F07DFF01A9EC
:1058000002A800F085FC00283DD12046FFF779FD75
:1058100098B3019904F1240000F0F4FB2046FFF74F
:10582000C4FD00F01BFB38B94FF08053C9F80030BD
:10583000BFF34F8FBFF36F8F012600F03BFFA56BC7
:10584000002DBED039462046013DFFF79AFDA563E5
:10585000236963B104F1100000F00EFC38B14FF081
:1058600080520E4B1A60BFF34F8FBFF36F8F00F063
:1058700043FF012005B0BDE8F0832046FFF795FD0A
:1058800000F0ECFAD8E72046FFF78FFD00F0E6FACB
:105890002046FFF736FD0028CED096E704ED00E065
:1058A000002330B5064A52F8335002EBC3041DB949
:1058B00042F83310606030BD0133082BF3D1FAE7B2
:1058C0003820002070B504460D46164600F0F2FE62
:1058D00094F84430FF2B04BF002384F8443094F83C
:1058E0004530FF2B04BF002384F8453000F004FF4F
:1058F000A36B2BB93246294604F1240000F09CFB2F
:105900002046BDE87040FFF750BD00002DE9F04192
:10591000044600F0CFFE2F4B2F4D1A682F4F013257
:105920001A602E68002E49D12C601B68012B1FD1F4
:10593000B84640460136FFF7A3FC382E08F114089C
:10594000F7D1DFF8C480264E4046FFF799FC304679
:10595000FFF796FC2348FFF793FC2348FFF790FCE2
:105960002248FFF78DFC224BC3F80080214B1E60BC
:105970001420214A136801331360204A63641168BC
:10598000E36A8B4200FB037004F1040188BF1360DB
:10599000FFF784FC00F0B0FE194B1B6863B12B6865
:1059A000DA6AE36A9A4207D24FF08052154B1A60C6
:1059B000BFF34F8FBFF36F8FBDE8F081104B1B68B3
:1059C000002BD5D12B68DA6AE36A9A4298BF2C6023
:1059D000CEE700BFD00B0020640700207007002036
:1059E000FC0B0020180C0020440C0020300C002080
:1059F000680700206C070020E00B0020E40B00206B
:105A00002C0C002004ED00E0E80B0020064A13688F
:105A10001968064B19B94FF0FF321A6070471268C7
:105A2000D268D2685268F8E768070020100C00209E
:105A30002DE9F0470D46DDE909844FEA82094A461F
:105A40000646A521206B1F4601F064F8226BA9F1E0
:105A5000040991446B1E29F0070904F134020F3543
:105A600013F8011F02F8011B197809B1AB42F7D1F5
:105A7000089D4FF0000A372D28BF3725201DC4E9A7
:105A8000135AE56284F843A0FFF705FCC5F1380519
:105A900004F11800FFF7FFFBC4F854A03A46314662
:105AA00048462461A561646284F858A000F0DEFDD8
:105AB0002060B8F1000F01D0C8F80040BDE8F087C1
:105AC00010B590F8593004463BB9006B00F0AEFFBA
:105AD0002046BDE8104000F0A9BF012BF9D0022BF1
