:020000040800F2
:1000000000000120891A0008151A0008171A0008B4
:10001000191A00081B1A00081D1A00080000000029
:10002000000000000000000000000000C14A0008BD
:100030001F1A000800000000514B0008211A000898
:10004000D11A0008D11A0008D11A0008D11A0008E4
:10005000D11A0008D11A0008D11A0008D11A0008D4
:10006000D11A0008D11A0008D11A0008D11A0008C4
:10007000D11A0008D11A0008D11A0008D11A0008B4
:10008000D11A0008D11A0008D11A0008D11A0008A4
:10009000D11A0008D11A0008D11A0008D11A000894
:1000A000D11A0008D11A0008D11A0008D11A000884
:1000B000D11A0008D11A0008D11A0008D11A000874
:1000C000D11A0008D11A0008D11A0008D11A000864
:1000D000D11A0008D11A0008D11A0008391A0008EC
:1000E000D11A0008D11A0008D11A0008D11A000844
:1000F000D11A0008D11A0008D11A0008D11A000834
:10010000D11A0008D11A0008D11A0008D11A000823
:10011000D11A0008D11A0008D11A0008D11A000813
:10012000D11A0008D11A0008D11A0008D11A000803
:1001300000000000000000000000000000000000BF
:1001400000000000000000000000000000000000AF
:10015000000000000000000000000000000000009F
:10016000000000000000000000000000000000008F
:10017000000000000000000000000000000000007F
:10018000000000000000000000000000000000006F
:10019000000000000000000000000000000000005F
:1001A000000000000000000000000000000000004F
:1001B000000000000000000000000000000000003F
:1001C000000000000000000000000000000000002F
:1001D000000000000000000000000000000000001F
:0401E0005FF8E0F1F3
:1001F00010B5054C237833B9044B13B10448AFF361
:1002000000800123237010BD740000200000000056
:10021000DC58000808B5034B1BB103490348AFF392
:10022000008008BD0000000078000020DC580008B5
:10023000F0B587B001AA16461F4B03F10805144616
:1002400018685968083303C4AB422246F7D11868CE
:100250009B882060A38000230C211848CDF8123021
:10026000ADF8163002F070FE154A1649164804F033
:1002700071FE164D164F144C29460522384603F0E0
:1002800032F90A213246084601F05CF92946204637
:1002900004F080FE224628210A2001F053F94FF491
:1002A00080610C4801F0B1FF01F0B2F84FF4FA7030
:1002B00003F0CAF9E0E700BFF4580008441B00202F
:1002C0002359000808590008E11B00208C1B00205E
:1002D000381A0020001801402DE9F04F082189B09C
:1002E000A14802F031FE3C21A04802F03CFBA04FA7
:1002F0009E4CA0484FF47A7504F0E8FD90FBF5F3AE
:1003000005FB1308984D002B00F084820A3B0C2B50
:1003100000F2AD800C2B00F2AA80DFE813F00D0094
:1003200069003101A800A800A800A800A800A80042
:10033000A800E60143025B02236801224FF48051CA
:100340008D485E6A01F05CFF00222021384601F0F2
:1003500057FF4FF47A722B6840F23F25DA6301F0C1
:10036000FBFB05FB08F502464FF0000B4FF6FF784C
:10037000DFF8089209F1070AAB45BAD2019201F001
:10038000EBFB019A801A3228F6D923685A6A1B6857
:10039000D90626D5964220DDB31A1A46494603A847
:1003A000019304F0D7FD1421322003AA01F0CAF80A
:1003B00022685146126803A8C2F3001204F0CAFD75
:1003C00014210A2003AA01F0BDF82268566A01F040
:1003D000C3FB019B02469B44CEE7A8EB0202B31885
:1003E000DBE7964201DA931BD7E7A8EB0606F6E7B0
:1003F000236801224FF480515F485E6A01F000FFDC
:1004000000222021384601F0FBFE4FF47A722B685F
:100410004FF0000BDA6301F09FFB40F2CD2902465A
:10042000DFF8588108F1070ACB4524D94FF0000BBB
:100430002B680122C3F83CB023684FF480514E482A
:100440005E6A01F0DDFE5A462021384601F0D8FEF2
:1004500040F2DC522B6841F2F719DA6301F07CFBC1
:100460000246DFF8188108F1070ACB453FD9002280
:100470002B68DA633DE7019201F06EFB019A801A66
:100480003228D1D923685A6A1B68DB0627D59642E1
:1004900020DDB31A1A46414603A8019304F05AFD21
:1004A0001421322003AA01F04DF822685146126847
:1004B00003A8C2F3001204F04DFD14210A2003AA80
:1004C00001F040F82268566A01F046FB019B0246A3
:1004D0009B44A9E7C2F57F42FF32B318DAE79642A0
:1004E00001DA931BD6E7C6F57F46FF36F5E70192A2
:1004F00001F032FB019A801A3228B6D92268536A79
:100500001268D00627D59E4220DDF31A1A464146CE
:1005100003A8019304F01EFD1421322003AA01F068
:1005200011F822685146126803A8C2F3001204F0C1
:1005300011FD14210A2003AA01F004F82268566A6A
:1005400001F00AFB019B02469B448EE7C3F57F4303
:10055000FF333344DAE79E4201DA9B1BD6E7C6F548
:100560007F46FF36F5E700BFA8190020F0190020EC
:1005700000100140E11B0020001801400C59000848
:10058000236801224FF48051A4485E6A01F038FECE
:1005900000222021384601F033FE4FF47A722B6896
:1005A0004FF0000BDA6301F0D7FA40F2CD29024692
:1005B000DFF8708208F1070ACB4552D94FF0000BE3
:1005C0002B680122C3F83CB023684FF48051934854
:1005D0005E6A01F015FE5A462021384601F010FEF1
:1005E0004FF4C8722B6840F2B129DA6301F0B4FA13
:1005F0000346DFF8308208F1070ACB453FF679AEB3
:10060000019301F0A9FA019BC01A3228F5D922689A
:10061000536A1268D20660D59E42DBBFC3F57F43A2
:10062000FF33F51A9D192A46414603A804F092FCAF
:100630001421322003AA00F085FF236851461A686E
:1006400003A8C2F3001204F085FC14210A2003AAB7
:1006500000F078FF2368AB445E6A01F07DFA034640
:10066000CBE7019201F078FA019A801A3228A3D9D7
:1006700023685A6A1B68D90627D5964220DDB31A2B
:100680001A46414603A8019304F064FC1421322069
:1006900003AA00F057FF22685146126803A8C2F36C
:1006A000001204F057FC14210A2003AA00F04AFFAC
:1006B0002268566A01F050FA019B02469B447BE790
:1006C000C2F57F42FF32B318DAE7964201DA931B94
:1006D000D6E7C6F57F46FF36F5E79E42A5BFC6F5CD
:1006E0007F45FF359D1BED189DE7236800224FF4E1
:1006F00080514A485E6A01F083FD0122202138467C
:1007000001F07EFD4FF47A722B6840F23F25DA63E8
:1007100001F022FA05FB08F502464FF0000B4FF6F8
:10072000FF78DFF8009109F1070AAB45BFF4E1ADAE
:10073000019201F011FA019A801A3228F5D9236842
:100740005A6A1B68DB0626D5B24220DAB31A1A466B
:10075000494603A8019304F0FDFB1421322003AAAB
:1007600000F0F0FE22685146126803A8C2F300129E
:1007700004F0F0FB14210A2003AA00F0E3FE226833
:10078000566A01F0E9F9019B02469B44CDE7A8EBCC
:100790000202B318DBE7B24201DD931BD7E7A8EBF7
:1007A0000606F6E7642002F04FFF00224FF4805166
:1007B0001A4801F025FD01223846202101F020FDD4
:1007C0002C2040F2DC5200FB08F02B68DA6302F0C8
:1007D0003BFF8EE5642002F037FF00224FF480518A
:1007E0000E4801F00DFD01222021384601F008FDE0
:1007F0004FF4C87225202B6800FB08F0DA6302F082
:1008000023FF5522064B64201B681A6400222B68C4
:10081000DA63DCE72A68D3636BE500BF00180140A8
:10082000441B00200C59000810B50A4C3C212046FE
:1008300002F099F82368084C3C2120465B6A02F0DC
:1008400092F823685B6A01F087F9012002F0FCFE50
:10085000FBE700BF7C1A0020F01900202DE9F04FC3
:100860000C2189B0A54802F06FFB3C21A44802F09E
:100870007AF84FF00109A24CA2484FF47A7604F0BE
:1008800025FB90FBF6F5A04F06FB15089B4E002DAF
:1008900000F0AD820A3D0C2D00F2CC820C2D00F24E
:1008A000C982DFE815F00D006D003701C702C702ED
:1008B000C702C702C702C702C702020261027F0263
:1008C0004B2223684FF400415D6A3B688F481A64ED
:1008D000012201F095FC00224FF400618B4801F0E9
:1008E0008FFC4FF47A72336840F23F261A6401F0AD
:1008F00033F94FF0000B82464FF6FF7706FB08F600
:10090000DFF80C8208F10F09B34502D34FF001095B
:10091000B2E701F021F9A0EB0A003228F4D92368EC
:100920005A6A1B68D90625D5954220DDAB1A1A46AE
:10093000414603A8019304F00DFB1E21322003AAB7
:1009400000F000FE22684946126803A8C2F30012B4
:1009500004F000FB1E210A2003AA00F0F3FD226828
:10096000556A01F0F9F8019B82469B44CCE7BA1A1C
:10097000AB18DCE7954201DA531BD8E77D1BF7E79C
:100980004B2223684FF40041D3F824803B685F4832
:100990001A64012201F034FC00224FF400615B482C
:1009A00001F02EFC4FF47A7233684FF0000A1A649B
:1009B00001F0D2F80246DFF8589109F10F0B40F22E
:1009C000CD239A4553D900255D2233684FF4004169
:1009D0001D643B684D481A64236801225F6A01F078
:1009E0000FFC2A464FF40061484801F009FC4FF41F
:1009F000C8723368AB461A6401F0AEF840F2B12811
:100A00008246434E06F10F09C3453FF67FAF01F022
:100A1000A3F8A0EB0A003228F6D92268536A1268BC
:100A2000D00662D59F42DBBFC3F57F43FF33FD1A7B
:100A3000DD192A46314603A804F08CFA1E21322023
:100A400003AA00F07FFD236849461A6803A8C2F391
:100A5000001204F07FFA1E210A2003AA00F072FDA2
:100A60002368AB445F6A01F077F88246CCE70192D5
:100A700001F072F8019A801A3228A0D92268556ACA
:100A80001268D30627D5A84520DDA8EB05052A4620
:100A9000494603A804F05EFA1E21322003AA00F0A2
:100AA00051FD22685946126803A8C2F3001204F0EF
:100AB00051FA1E210A2003AA00F044FD2268AA442C
:100AC000D2F8248001F048F8024678E7C5F57F4562
:100AD000FF354544DBE7A84502DAA5EB0805D6E774
:100AE000C8F57F4808F1FF08F3E79F42A5BFC7F5A7
:100AF0007F45FF35DD1BED189BE700BFA8190020DF
:100B00007C1A0020E11B0020441B0020000C014047
:100B10000C5900084B2223684FF40041D3F824807D
:100B20003B68BE481A64012201F06AFB00224FF4C0
:100B30000061BA4801F064FB4FF47A7233684FF0F9
:100B4000000A1A6401F008F80246DFF8E49209F19D
:100B50000F0B40F2CD239A452BD900253A2233685A
:100B60004FF400411D643B68AC481A6423680122BD
:100B7000D3F8248001F044FB2A464FF40061A748D3
:100B800001F03EFB40F2DC523368AA461A6400F0E2
:100B9000E3FF0246DFF8989209F10F0B41F2F713D9
:100BA0009A4544D955223B681A64002233681A6476
:100BB000ACE6019200F0D0FF019A801A3228C8D921
:100BC0002268556A1268D10627D5A84520DDA8EB12
:100BD00005052A46494603A804F0BCF91E21322027
:100BE00003AA00F0AFFC22685946126803A8C2F3BA
:100BF000001204F0AFF91E210A2003AA00F0A2FCA3
:100C00002268AA44D2F8248000F0A6FF0246A0E79A
:100C1000C5F57F45FF354544DBE7A84502DAA5EB7E
:100C20000805D6E7C8F57F4808F1FF08F3E7019209
:100C300000F092FF019A801A3228AFD92268556AD3
:100C40001268D20627D5A84520DDA8EB05052A465F
:100C5000494603A804F07EF91E21322003AA00F0C1
:100C600071FC22685946126803A8C2F3001204F00E
:100C700071F91E210A2003AA00F064FC2268AA442C
:100C8000D2F8248000F068FF024687E7C5F57F456B
:100C9000FF354544DBE7A84502DAA5EB0805D6E7B2
:100CA000C8F57F4808F1FF08F3E74B2223684FF4AB
:100CB00000415D6A3B6859481A64002201F0A0FABD
:100CC00001224FF40061554801F09AFA4FF47A720C
:100CD000336840F23F261A6400F03EFF4FF0000BED
:100CE00002464FF6FF7706FB08F6DFF8448108F16D
:100CF0000F095E457FF60AAE019200F02DFF019AC2
:100D0000801A3228F5D923685A6A1B68DB0625D574
:100D1000954220DDAB1A1A46414603A8019304F020
:100D200019F91E21322003AA00F00CFC2268494662
:100D3000126803A8C2F3001204F00CF91E210A2065
:100D400003AA00F0FFFB2268556A00F005FF019B33
:100D500002469B44CDE7BA1AAB18DCE7954201DAAC
:100D6000531BD8E77D1BF7E75D223B6864201A64BC
:100D700002F06AFC00224FF40041284801F040FADA
:100D800001224FF40061254801F03AFA4FF4C8728D
:100D90002B20336800FB08F01A6402F055FC4B224C
:100DA0003B6804E73A223B6864201A6402F04CFC7A
:100DB00000224FF40041194801F022FA4FF400617B
:100DC0000122164801F01CFA40F2DC52262033685A
:100DD00000FB08F01A6402F037FC55223B686420DF
:100DE0001A64002233681A6402F02EFC8EE54B224E
:100DF0003B681A6433681D64B9F1000F3FF43CADE1
:100E0000074A0849084804F0A5F84FF6FF73052281
:100E10000549064802F09CF9A9462DE5000C014061
:100E20002959000808590008DC1B0020381A002046
:100E30000C5900084B223B681A64002233681A647C
:100E40001AE500BF10B596B0242200210DA804F0C9
:100E500079F81422002101A804F074F81822002166
:100E60000DEB020004F06EF80224012210230CA8FE
:100E7000CDE910230C9401F0DDF9014608B172B6FA
:100E8000FEE70F23CDE90300CDE90130059001A86D
:100E900001F0A6FB08B172B6FEE7089006A806941A
:100EA00001F05AFC08B172B6FEE716B010BD0000A2
:100EB00080B59AB000F032FEFFF7C4FF1022002187
:100EC00011A804F03FF8AF4B4FF4AF519A69AE4808
:100ED00042F040029A619A69012602F040020092B3
:100EE000009A9A69002542F010029A619A690324D7
:100EF00002F010020192019A9A694FF0200842F024
:100F000004029A619A694FF4805702F00402029237
:100F1000029A9A6942F008029A619B69002203F0E2
:100F200008030393039B01F06BF900223C219748CF
:100F300001F066F900222021954801F061F90022B4
:100F40004FF40841934801F05BF94FF4BC63CDE9DD
:100F5000113602238C4811A9CDE9135301F066F82C
:100F60003C238A4811A9CDE911361494139501F058
:100F70005DF8874811A9CDE91354CDE9118601F038
:100F800055F8814811A9CDE91354CDE9117601F046
:100F90004DF84FF408437F4811A9CDE91136CDE94A
:100FA000135401F043F81022294606A803F0CAFFA3
:100FB0001C2229460AA8CDE9045503F0C3FF424686
:100FC000294611A803F0BEFF734C744B2046C4E9B8
:100FD000003541F61F43C4E90555C4E90335A56052
:100FE00001F068FD08B172B6FEE7204606A9069733
:100FF00001F0A9FE08B172B6FEE7204601F086FDB9
:1010000008B172B6FEE7CDE9040004A9204601F05C
:101010009DFF024608B172B6FEE76023CDE90C00E1
:10102000CDE90A30CDE90E0010900AA9204601F062
:1010300025FE08B172B6FEE7042220460AA901F097
:101040001DFE08B172B6FEE7082220460AA901F08B
:1010500015FE08B172B6FEE70C2220460AA901F07F
:101060000DFE08B172B6FEE74FF40053CDE9110052
:10107000CDE913001590189011A92046169301F0A0
:101080009BFF034608B172B6FEE74FF08042CDE900
:101090000A00434811A9C0E900234FF6FF72CDE9C9
:1010A0001163C0E90323CDE91363CDE91533CDE91D
:1010B000176383608361199301F054FD08B172B620
:1010C000FEE7002336480AA9CDE90A3301F03EFFC6
:1010D00008B172B6FEE7334C334B0122C4E900304D
:1010E00041F61F43C4E903300323CDE911300A233D
:1010F000CDE90A00CDE91320CDE91530CDE917205F
:10110000A060A06111A92046199301F02BFD08B140
:1011100072B6FEE7CDE90A000AA9204601F016FFE3
:10112000054608B172B6FEE70146102206A803F094
:1011300009FF1C2229460AA8CDE9045503F002FF45
:101140002946202211A803F0FDFEA023174C1849C0
:101150002046C4E900134FF47A73C4E903358023B1
:10116000A5606561A36101F0A5FC08B172B6FEE758
:101170004FF48053204606A9069301F0E4FDC8B160
:1011800072B6FEE70010024000180140000801405E
:1011900000100140000C0140A8190020003401405B
:1011A000941B0020C41A002000040040441B0020AF
:1011B000002C0140204601F0A9FC08B172B6FEE700
:1011C000CDE9040004A9204601F0C0FE08B172B6C2
:1011D000FEE76023CDE90E00CDE90A300C901090B7
:1011E0000C2220460AA901F049FD08B172B6FEE7BB
:1011F0004FF40053CDE91100CDE91300159018907C
:1012000011A92046169301F0D7FE054608B172B623
:10121000FEE7204600F080FB4FF4E1335048514A8E
:10122000C0E90255C0E900230C230561C0E905357A
:10123000C56101F05FFF08B172B6FEE7002301252A
:101240004FF00A084FF6FF770326474C474A2046DF
:1012500011A9CDE90A33C4E90023C4E90373CDE938
:101260001163CDE91353CDE91583CDE91753A3607D
:10127000A361CDF8648001F075FC08B172B6FEE799
:10128000CDE90A000AA9204601F060FE08B172B655
:10129000FEE7374C374BCDE90A00C4E90030C4E91A
:1012A0000207CDE91160CDE91350CDE91580CDE9F4
:1012B00017502061A06111A92046CDF8648001F08B
:1012C00051FC08B172B6FEE7CDE90A000AA9204632
:1012D00001F03CFE08B172B6FEE7274C274BCDE982
:1012E000110023604FF460231390A06020732075D9
:1012F00060602046E361256100F0EAFC08B172B647
:10130000FEE70B23139011A92046CDE9113500F01B
:101310003BFC044608B172B6FEE700F033F902F078
:10132000FBF82146164A174802F032F9164B2146BF
:101330001860164A164802F02BF9164B2146186021
:10134000154A164802F024F9154B21461860154A33
:10135000154802F01DF9154B186002F0F9F8FEE788
:10136000381A002000480040F01900200008004012
:101370007C1A0020000C00400C1B002000240140BF
:10138000D059000831020008A4190020885900082B
:101390005D0800083C1B002064590008D9020008C1
:1013A000401B0020AC59000829080008A0190020A3
:1013B0007047000070B50A46044601B101224FF49F
:1013C0008071124800F01CFF0825104E00222021D9
:1013D000304600F015FF23064CBF012200224021B9
:1013E000304600F00DFF013D01222021304600F083
:1013F00007FF640015F0FF05E4B2E7D1BDE87040D7
:1014000001224FF48071014800F0FABE001801403B
:1014100070B5B0240E4E00212046FFF7CBFF00210F
:101420000846FFF7C7FF00211020FFF7C3FF002584
:1014300016F8350001210135FFF7BCFF802DF7D1EB
:101440000134E4B2B82C06F10106E4D170BD00BF4E
:10145000E61B0020082300200749002201F8320083
:101460000132802AFAD1013B13F0FF0301F101019F
:10147000F3D1FFF7CDBF00BFE61B0020030630B558
:1014800013D43F2911D8012301F00705094CC908DD
:10149000C1F10701C5F10705C9B204EBC00003FAA9
:1014A00005F5435C12B12B43435430BD23EA0503D9
:1014B000FAE700BFE61B00202DE9F74FA2F1200557
:1014C00098461E4BEDB203EB051300930C238246A6
:1014D00089460C4600271A4A9DF830B003FB0523C5
:1014E0000193B84502D103B0BDE8F08FB8F10C0FFD
:1014F0000CBF019B009BDE5D04F10803DDB23306E7
:1015000058BFBBFA8BF2214604F101044CBF5A4686
:1015100052095046E4B2FFF7B1FFA4EB090276008E
:101520004245F6B207D14D460AF101005FFA80FA52
:101530002C460137D5E7A542E1D1F9E7685E0008FE
:10154000F4590008F7B504460D460127561E16F853
:10155000013F0BB903B0F0BD7A2C82BF1035EDB25C
:1015600000243A2D03D90025FFF774FF2C4600977D
:1015700020460C23294632780834FFF79DFFE4B259
:10158000E5E7000010B500F049FE404B404C1A6AF8
:1015900022F001021A621A6A22F004021A6200F0B2
:1015A00043FE00228021204600F02AFE642000F045
:1015B000D9FA01222046802100F022FE0021AE202F
:1015C000FFF7F8FE0021D520FFF7F4FE00215020A0
:1015D000FFF7F0FE0021A820FFF7ECFE00213F20DE
:1015E000FFF7E8FE0021D320FFF7E4FE00210846C4
:1015F000FFF7E0FE00214020FFF7DCFE00218D20F8
:10160000FFF7D8FE00211420FFF7D4FE0021202090
:10161000FFF7D0FE00210220FFF7CCFE0021A12021
:10162000FFF7C8FE0021C020FFF7C4FE0021DA202A
:10163000FFF7C0FE00211220FFF7BCFE0021812031
:10164000FFF7B8FE0021EF20FFF7B4FE0021D920FC
:10165000FFF7B0FE0021F120FFF7ACFE0021DB20F8
:10166000FFF7A8FE00213020FFF7A4FE0021A420F0
:10167000FFF7A0FE0021A620FFF79CFE0021AF206F
:10168000FFF798FEBDE81040FFF7E4BE00100240EF
:1016900000180140114B07B59A690F2142F0010271
:1016A0009A619A696FF0010002F001020092009ABB
:1016B000DA6942F08052DA61DB69002203F080537C
:1016C0000193019B00F0A0FB054A536823F0E063FF
:1016D00043F00073536003B05DF804FB0010024058
:1016E0000000014010B5044686B01022002102A877
:1016F00003F028FC2268104B9A421BD103F56C437F
:101700009A690E4842F400729A619A6902A902F439
:1017100000720092009A9A6942F010029A619B69E5
:10172000022203F010030193019B0323CDE902235E
:1017300000F07CFC06B010BD002401400010014008
:10174000102210B5044688B00DEB0200002103F012
:10175000F9FB2368174A93420BD1174B9A6942F45D
:1017600000629A619B6903F400630193019B08B0D6
:1017700010BD124A9342FAD10F4B11489A6904A93D
:1017800042F400529A619A6902F400520292029A5B
:101790009A6942F010029A619B694FF4707203F0EB
:1017A00010030393039B0223CDE90423079300F066
:1017B0003DFCDCE7002C01400010024000340140F9
:1017C0000010014010B504468EB0102200210AA876
:1017D00003F0B8FB2368B3F1804F39D103F504332C
:1017E000DA69002442F00102DA61DA69434802F062
:1017F00001020192019A9A690AA942F004029A61CF
:101800009A6902F004020292029A9A6942F008026E
:101810009A619B690C9403F008030393039B4FF4B4
:101820000043CDE90A3400F001FC082334480AA93A
:10183000CDE90A340C9400F0F9FB324A536823F4E2
:10184000407343F0E06343F4807353600EB010BD07
:101850002D4A93421AD12D4BDA6942F00202DA6125
:10186000DA6902F002020492049A9A6942F00402D0
:101870009A619B6903F004030593059BC0230A93B7
:1018800000231E48CDE90B330AA91CE0204A9342ED
:101890001CD11E4B1A48DA690AA942F00402DA6127
:1018A000DA6902F004020692069A9A6942F0080286
:1018B0009A619B69C02203F008030793079B0023EA
:1018C000CDE90A230C9300F0B1FBBFE7114A934224
:1018D000BCD10E4BDA6942F00802DA61DA6902F033
:1018E00008020892089A9A6942F004029A619B6978
:1018F00003F004030993099B0323C0E70008014098
:10190000000C0140000001400004004000100240B3
:1019100000080040000C004010B5044686B01022BC
:10192000002102A803F00EFB2268104B9A421BD143
:1019300003F564439A690E4842F040029A619B693C
:101940004FF4804203F040030193019B022302A95C
:10195000CDE90223059300F069FB064A536843F082
:10196000E06343F0C003536006B010BD002C01409B
:10197000001801400000014010B5044686B0102256
:10198000002102A803F0DEFA22681F4B9A4239D1E7
:1019900003F5E433DA691D4842F48022DA61DA693A
:1019A00002A902F480220092009A9A69002442F06F
:1019B00010029A619B694FF4806203F01003019357
:1019C000019B0223CDE902230323059300F02EFBA4
:1019D0004FF400630D4802A9CDE90234049400F0ED
:1019E00025FB0B4A27205368052123F0300343F0E1
:1019F000E06343F010035360224600F005FA27200D
:101A000000F034FA06B010BD00480040001001405C
:101A100000000140FEE7FEE7FEE7FEE7FEE7704755
:101A200008B500F08DF802F0CDFD012803D0BDE827
:101A3000084003F0AFB808BD014801F03BBC00BF4F
:101A4000381A00200B4B0246196810B509B90A492B
:101A50001960186809490A4C0244091B8A4206D9D0
:101A600003F038FA0C2303604FF0FF3010BD1A600A
:101A7000FCE700BF90000020402000200000012073
:101A800000040000704700000C480D490D4A002377
:101A900002E0D458C4500433C4188C42F9D30A4A23
:101AA0000A4C002301E013600432A242FBD3FFF78B
:101AB000E9FF03F015FAFFF7FBF97047000000207B
:101AC00074000020D0650008740000203C20002035
:101AD000FEE7000038B50E4B054618784FF47A73D0
:101AE000B3FBF0F30B4A1068B0FBF3F000F0CCF955
:101AF000044658B90F2D09D8024629464FF0FF3049
:101B000000F082F92046044B1D6038BD0120FCE73F
:101B1000040000200000002008000020074A08B54B
:101B20001368032043F01003136000F05BF90F20EB
:101B3000FFF7D0FFFFF7AEFD002008BD00200240F8
:101B4000034A044B11681B780B441360704700BFB5
:101B5000E81F002004000020014B1868704700BFF8
:101B6000E81F002038B50446FFF7F6FF0546631C62
:101B70001EBF044B1B78E418FFF7EEFF431BA34284
:101B8000FAD338BD04000020002373B5019390F808
:101B900024300446012B6CD0012380F824304D689A
:101BA0000268062D086805EB850322D81F26556BB1
:101BB000053B9E4025EA060500FA03F32B435363D9
:101BC00009288B6800EB40054FF0070129D9D6683A
:101BD0001E3DA94026EA0101AB400B43D360A0F1B2
:101BE0001003012B25D90020002384F8243002B0F3
:101BF00070BD0C2D4FF01F0509D8166B233B9D407F
:101C000026EA050500FA03F32B431363D8E7D66AE7
:101C1000413B9D4026EA050500FA03F32B43D362BE
:101C2000CEE71069A94020EA0101AB400B431361E4
:101C3000D9E7114B9A4216D193681B02D3D493680B
:101C4000102843F400039360CDD10C4B0C4A1B6861
:101C5000B3FBF2F20A2353430193019B002BC2D042
:101C6000019B013BF8E7A36A012043F02003A36234
:101C7000BAE70220BBE700BF0024014000000020BB
:101C800040420F0038B5036804469A68D10701D472
:101C9000002038BD9A6822F001029A60FFF75CFFCD
:101CA000054623689B68DB07F2D5FFF755FF401B0D
:101CB0000228F6D923689B68DA07F2D5A36A0120C7
:101CC00043F01003A362E36A43F00103E362E0E739
:101CD000F8B50446002877D0836A23B9C36280F838
:101CE0002430FFF7FFFC2046FFF7CCFFA36A13F078
:101CF00010036BD1002869D1A26A374E22F48852B2
:101D000022F0020242F00202A262D4E90021B242B1
:101D1000E56904D1B5F5402F08BF4FF40025267BB7
:101D200041EA46012943A568B5F5807F37D0012DEA
:101D30000CBF4FF4807C4FF0000C277D012F06D1A3
:101D40007EBBA769013F4CEA473646F4006C5668F3
:101D5000B5F5807F26F4694646EA0C06566097681A
:101D60001E4E06EA070646EA0106966001D0012DDE
:101D700002D12369013B1B05D56A25F470052B436D
:101D8000D3629268164B1340994213D10023E36249
:101D9000A36A23F0030343F00103A362F8BDAC463A
:101DA000CBE7A66A46F02006A662E66A46F0010680
:101DB000E662CCE7A36A23F0120343F01003A362A8
:101DC000E36A43F00103E3620120E7E7A36A43F01B
:101DD0001003A362F8E700BF003C0140FDF7E1FFFC
:101DE000FE0E1FFF07490302CA6803F4E06322F4F2
:101DF000E0621204120C134343F0BF6343F4003358
:101E0000CB60704700ED00E0164B30B5DC68C4F3E2
:101E10000224C4F10703251D042B28BF0423062D2B
:101E20004FF0FF3598BF002405FA03F388BF033C49
:101E300021EA0303A34005FA04F422EA040200287D
:101E400043EA0203ACBF00F16040074A4FEA0313C4
:101E5000DBB2ABBF00F5614000F00F0080F800334B
:101E6000135430BD00ED00E014ED00E0002808DB65
:101E70000123420900F01F0003FA00F0014B43F870
:101E80002200704700E100E00138B0F1807F0AD203
:101E9000F021064B064A586082F8231000200722E2
:101EA00098601A6070470120704700BF10E000E0A2
:101EB00000ED00E090F82130022B06D0042383636C
:101EC000002380F820300120704703681A6822F050
:101ED0000E021A601A6822F001021A600123D0E98A
:101EE0000F218B4053604FF48073038400207047B0
:101EF00008B590F82130022B03D00423836301201E
:101F000008BD036843491A6822F00E021A601A6875
:101F100022F001021A60404A934241D98B4238D0E4
:101F200014318B4237D014318B4236D014318B426E
:101F300023D014318B4223D014318B4223D09342CF
:101F400024D002F56272934223D01432934222D0FD
:101F50001432934221D01432934214BF4FF4803391
:101F60004FF480532D4A53604FF480730384436BC6
:101F7000002B4DD098470020C2E74FF48053F1E783
:101F80004FF48033EEE74FF48013EBE74FF08073AC
:101F9000E8E70123E6E71023E4E74FF48073E1E785
:101FA0008B422ED01E498B422DD014318B422CD027
:101FB00014318B4219D014318B4219D014318B4219
:101FC00019D093421AD0174A93421AD0143293422E
:101FD00019D01432934218D01432934214BF4FF4E4
:101FE00080334FF48053104ABDE74FF48053FAE733
:101FF0004FF48033F7E74FF48013F4E74FF080732A
:10200000F1E70123EFE71023EDE74FF48073EAE7F0
:10201000184675E7080002408000024000040240B4
:102020001C00024008040240000002402DE9F74F66
:10203000002216466B4F6C4BDFF8B4C1DFF8B4E1F9
:102040000C6834FA06F502D103B0BDE8F08F4FF00A
:10205000010808FA06F804EA080538EA040440F022
:1020600082804C68032C07D8013C022C00F28D8042
:10207000DFE804F09EA3A900122C00F0A18074D820
:10208000112C00F09780FF2D98BF82464FF00F096A
:1020900088BF00F1040A4FEA8604DAF8008088BF9E
:1020A000203C09FA04FB28EA0B0802FA04F448EA87
:1020B0000404CAF80040D1F804A01AF0805F52D09E
:1020C000BC6926F0030844F00104BC61BC6908F156
:1020D000804804F00104019408F5803806F0030BF1
:1020E000019C4FEA8B0BD8F8084009FA0BF924EA57
:1020F00009093E4CA0426AD004F58064A04268D031
:1021000004F58064A04266D004F58064A04264D0E7
:1021100004F58064A04262D060450CBF052406240B
:1021200004FA0BF444EA0904C8F808401C681AF4DD
:10213000803F14BF2C43AC431C605C681AF4003F22
:1021400014BF2C43AC435C609C681AF4801F14BF1E
:102150002C43AC439C60DC681AF4001F14BF254379
:1021600024EA0505DD6001366AE774450DD018D80C
:10217000DFF884904C4508D009F570294C4504D00F
:10218000A9F580194C457FF47EAF8A68EAB1012A2F
:1021900008BFC0F810804FF0080218BFC0F81480C4
:1021A00071E7DFF858904C45EFD009F58039E9E741
:1021B000CA6868E7CA68043265E7CA68083262E735
:1021C000CA680C325FE700225DE704225BE7002467
:1021D000A6E70124A4E70224A2E70324A0E704243D
:1021E0009EE700BF001002400004014000080140CB
:1021F000001C0140000022100000121000003110ED
:102200000AB1016170470904FBE7C36801EA0302F0
:1022100021EA030141EA0241016170470122014BB9
:102220001A60704720000E420022014B1A6070476E
:1022300020000E422DE9F341054638B30368DB0761
:1022400010D42B689F075ED42B68190700F1958086
:102250002B685A0700F1BF80E869002840F02C8104
:10226000002029E08F4C636803F00C03042B07D097
:10227000636803F00C03082B0AD16368DE0307D5FB
:1022800023689C03DDD56B68002BDAD1012013E0B5
:102290006B68B3F5803F12D1236843F48033236029
:1022A000FFF75AFC064623689803CAD4FFF754FC8C
:1022B000801B6428F7D9032002B0BDE8F0819BB9E8
:1022C000236823F480332360236823F4802323606E
:1022D000FFF742FC064623689903B2D5FFF73CFCA2
:1022E000801B6428F7D9E6E7B3F5A02F236803D154
:1022F00043F480232360CFE723F4803323602368F3
:1023000023F48023CBE7674C636813F00C0F07D0EE
:10231000636803F00C03082B10D16368DA030DD453
:1023200023689B0702D52B69012BAFD123686A690B
:1023300023F0F80343EAC203236085E72A695A4B76
:102340006AB101221A60FFF707FC064623689F075F
:10235000ECD4FFF701FC801B0228F7D9ABE71A6029
:10236000FFF7FAFB0646236898077FF56DAFFFF786
:10237000F3FB801B0228F6D99DE7AA69494E4B4B17
:10238000DAB101221A60FFF7E7FB0446736A9B0784
:102390000DD54FF4FA52464B1B68B3FBF2F3019391
:1023A00000BF019B5A1E0192002BF9D150E7FFF7A5
:1023B000D3FB001B0228E9D97DE71A60FFF7CCFBAD
:1023C0000446736A9F077FF543AFFFF7C5FB001B09
:1023D0000228F6D96FE7334CE369D80024D40127EB
:1023E000E36943F08053E361E36903F080530093B2
:1023F000009B304E3368D90518D5EB68012B26D1E8
:10240000236A43F001032362FFF7A6FB41F28838F9
:102410000646236A9B073FD5002F3FF41DAFE369B3
:1024200023F08053E36117E70027E2E7336843F4C2
:1024300080733360FFF790FB80463368DA05DCD4A5
:10244000FFF78AFBA0EB08006428F6D933E7ABB9A5
:10245000236A41F2883823F001032362236A23F0C0
:1024600004032362FFF778FB0646236A9807D3D557
:10247000FFF772FB801B4045F7D91CE7052B236A49
:1024800003D143F004032362BAE723F0010323627C
:10249000236A23F00403B6E7FFF75EFB801B404589
:1024A000B7D908E7001002400000424280044242CF
:1024B00000000020007000402A4B5A681C4602F0C1
:1024C0000C02082A3DD00023274E022833602BD16E
:1024D000FFF742FB0746236899011FD42B6AB3F527
:1024E000803F05D16268A96822F400320A43626025
:1024F000696A62680B4322F4741213436360012318
:102500003360FFF729FB054623689A013FF5A8AE23
:10251000FFF722FB401B0228F6D9CCE6FFF71CFB95
:10252000C01B0228D7D9C6E6FFF716FB054623686D
:102530009B017FF595AEFFF70FFB401B0228F6D9F4
:10254000B9E601283FF4B8AE5B682A6A03F480312B
:1025500091427FF49BAE6A6A03F4701393423FF496
:102560007FAE93E6001002406000424230B5184B47
:1025700087B002AC03F11005224618685968083389
:1025800003C2AB421446F7D140F201231149ADF822
:1025900004304B6803F00C02082A17D1C3F38342BE
:1025A00006A80244DB0312F8102C0CD54B680A482D
:1025B000C3F34043504306AA134413F8143CB0FB42
:1025C000F3F007B030BD05485043FAE70248F8E79A
:1025D000706400080010024000127A0000093D00FB
:1025E0002DE9F0410D46044610B90120BDE8F08107
:1025F000444A136803F007038B4228D321688E07EF
:1026000030D4CA0743D43F4A136803F00703AB42F0
:1026100065D822683C4D12F0040F6CD1130706D523
:102620006B68226923F4605343EAC2036B60FFF7CF
:102630009DFF6B68354AC3F30313D35CD840344B1A
:102640001860344B1868FFF745FA0020CEE713688E
:1026500023F007030B431360136803F007038B4257
:10266000C3D1CBE7284B11F0040F1EBF5A6842F4C8
:10267000E0625A60080742BF5A6842F460525A60EA
:102680005A68A06822F0F00202435A60B9E7626813
:102690001D4E012A33681AD113F4003FA5D0736888
:1026A00041F2883823F0030313437360FFF754FAB1
:1026B00007467368626803F00C03B3EB820FA2D085
:1026C000FFF74AFAC01B4045F3D903208EE7022AE0
:1026D00002D113F0007FE1E713F0020FDEE7136889
:1026E00023F007032B431360136803F00703AB4287
:1026F0007FF47BAF8DE76B68E16823F4E0630B4305
:102700006B608BE700200240001002405864000814
:102710000000002008000020044B054A5B68C3F35A
:102720000223D35C034A1068D8407047001002406F
:102730006864000800000020044B054A5B68C3F38E
:10274000C223D35C034A1068D8407047001002408F
:10275000686400080000002003682DE9F341D907F0
:10276000054620D5354CE369DA0032D40127E36908
:1027700043F08053E361E36903F080530193019BCD
:102780002F4E3368DB0526D5236A13F4407336D108
:10279000236A6A6823F44073134323621FB1E36919
:1027A00023F08053E3612868830706D52349AB688B
:1027B0004A6822F440421A434A6010F010001BD0CD
:1027C0001E4A69695368002023F480030B43536059
:1027D00012E00027D4E7336843F480733360FFF7D7
:1027E000BBF980463368D805CED4FFF7B5F9A0EB26
:1027F00008006428F6D9032002B0BDE8F0816A68B9
:1028000002F440729A42C3D001200E4A236A10603B
:10281000002023F4407110602162D907B8D5FFF77A
:102820009BF941F288380646236A9A07B0D4FFF72D
:1028300093F9801B4045F7D9DDE700BF0010024047
:102840000070004040044242036A70B523F0010367
:102850000362036A446882690D6822F073022A43A6
:102860008D6823F002032B430E4DA84202D00E4E7A
:10287000B04210D1CE6823F008033343A84223F0BE
:10288000040302D0084DA84205D1D1E9055624F42D
:10289000407435432C43446082614A68426303625A
:1028A00070BD00BF002C014000340140036A70B5C8
:1028B00023F480730362036A4468C2690D6822F0DE
:1028C00073022A438D6823F4007343EA0523114DF4
:1028D000A84203D005F50065A84214D1CD6823F4C1
:1028E000006343EA05230B4D23F48063A84203D021
:1028F00005F50065A84206D1D1E9055624F44054F7
:10290000354344EA05144460C2614A68C263036205
:1029100070BD00BF002C0140036A30B523F4805322
:102920000362036A4468C2690D6822F4E64242EA1F
:1029300005228D6823F4005343EA0533084DA8426D
:1029400003D005F50065A84204D14D6924F4804404
:1029500044EA85144460C2614A680264036230BD7F
:10296000002C01407047034630B590F83E2090F8A7
:102970003F0093F8425093F84340D2B2C0B2EDB258
:10298000E4B2C1B9012A45D1012D45D1022283F813
:102990003E2083F842201A68116A21F00101116279
:1029A000116A41F00101002011621A68136843F0B6
:1029B0000103136030BD042911D101282AD1012C53
:1029C000F8D1022283F83F2083F843201A68116A65
:1029D00021F010011162116A41F01001E3E7012AB0
:1029E00018D1012818D1012DE4D1012CE2D1022205
:1029F00083F83E2083F83F2083F8422083F8432069
:102A00001A68116A21F001011162116A41F0010195
:102A10001162DCE70120CDE71046CBE7244A0368CA
:102A2000904212D002F5006290420ED0B0F1804F79
:102A30000BD0A2F59832904207D002F58062904206
:102A400003D002F5806290421DD14A6823F07003E2
:102A50001343174A904212D002F5006290420ED002
:102A6000B0F1804F0BD0A2F59832904207D002F51A
:102A70008062904203D002F58062904203D1CA681E
:102A800023F4407313434A6923F080031343036024
:102A90008B68C3620B688362054B984203D003F5D1
:102AA0000063984201D10B690363012343617047BE
:102AB000002C014010B5044630B390F83D3003F0CF
:102AC000FF021BB980F83C20FEF73AFE0223206883
:102AD00084F83D30211DFFF7A1FF0123002084F879
:102AE000463084F83E3084F83F3084F8403084F833
:102AF000413084F8423084F8433084F8443084F81C
:102B0000453084F83D3010BD0120FCE710B5044687
:102B100030B390F83D3003F0FF021BB980F83C2041
:102B2000FFF720FF0223206884F83D30211DFFF7C6
:102B300075FF0123002084F8463084F83E3084F885
:102B40003F3084F8403084F8413084F8423084F8D3
:102B5000433084F8443084F8453084F83D3010BD6B
:102B60000120FCE7F8B50D46044600284DD090F84A
:102B70003D3003F0FF021BB980F83C20FEF722FE37
:102B80000223214684F83D3051F8040B836823F476
:102B9000804323F007038360FFF740FF20682B6822
:102BA00086688269A9681E43AB6922F4407222F0EC
:102BB000030241EA0323134323F47C422B69E969AE
:102BC0001B0143EA0123E968076A0B43296A22F0E3
:102BD000FC0243EA01331343696927F022026F685C
:102BE000866047EA011783611743012307620020CB
:102BF00084F8463084F83E3084F83F3084F8423020
:102C000084F8433084F83D30F8BD0120FCE7000033
:102C1000036A70B523F010030362036A4468826993
:102C20000D6822F4E64242EA05228D6823F0200373
:102C300043EA0513104DA84203D005F50065A842EC
:102C400014D1CD6823F0800343EA05130A4D23F025
:102C50004003A84203D005F50065A84206D1D1E99A
:102C6000055624F44064354344EA85044460826197
:102C70004A688263036270BD002C014038B590F849
:102C80003C300446012B52D00123082A80F83C3006
:102C90003CD006D8C2B1042A27D0002084F83C00DA
:102CA00038BD0C2AF9D10068FFF736FE23680969A0
:102CB000DA6942F40062DA61DA6922F48062DA6188
:102CC000DA6942EA012230E00068FFF7BDFD2368BF
:102CD00009699A6942F008029A619A6922F004022D
:102CE0009A619A690A439A61D7E70068FFF790FFF3
:102CF000236809699A6942F400629A619A6922F428
:102D000080629A619A6942EA0122ECE70068FFF763
:102D1000CDFD23680969DA6942F00802DA61DA69EF
:102D200022F00402DA61DA690A43DA61B5E70220C7
:102D3000B6E710B584680A4324F47F4442EA0322CC
:102D40002243826010BD70B590F83C300446012BE0
:102D50004FF0020027D0012384F83D00206884F85A
:102D60003C30836823F47F4323F0770383600B6850
:102D7000602B4DD032D8402B62D015D8202B03D0F9
:102D800009D833F0100208D1826822F07002134390
:102D900043F0070320E0302BF6D00123002084F815
:102DA0003D3084F83C0070BD502BF6D14A68CE68A7
:102DB000016A056A21F00A0125F0010505628369AF
:102DC0000A4323F0F00343EA061383610262836837
:102DD00023F0700343F057038360DEE7702B0CD0C1
:102DE000B3F5005FD9D1CB68D1E90121FFF7A1FF8D
:102DF0002268936843F4804308E0CB68D1E901215D
:102E0000FFF797FF2268936843F077039360C4E766
:102E10004D68CE68016A21F0100101628269036A7F
:102E200022F4704223F0A00343EA051342EA06327B
:102E300082610362836823F0700343F06703CBE78A
:102E40004A68CE68016A056A21F00A0125F0010589
:102E5000056283690A4323F0F00343EA06138361A2
:102E60000262836823F0700343F04703B4E710B5B0
:102E70000124036A01F01F018C4023EA040303626A
:102E8000036A8A401A43026210BD000010B504466E
:102E900029B990F83E30012B1DD0012032E00429E1
:102EA00007D190F83F30012BF7D1022380F83F3053
:102EB00014E0082907D190F84030012BEDD102230E
:102EC00080F840300AE090F84130012BE5D1022330
:102ED00080F8413002E0022380F83E300122206871
:102EE000FFF7C5FF2368154A93420CD014498B4263
:102EF00009D0B3F1804F10D19A6802F00702062A78
:102F000016D1002010BD596C934241F40041596420
:102F1000F2D00B4A9342EFD0EBE70A4A9342EBD050
:102F200002F580629342E7D002F580629342E3D0DB
:102F30001A6842F001021A60E3E700BF002C01406A
:102F40000034014000040040FFF7A0BF30B590F806
:102F50003C300246012B4FF002002AD0136882F861
:102F60003D005C680D6824F070042C4398685C6038
:102F7000104CA34212D004F50064A3420ED0B3F16A
:102F8000804F0BD0A4F59834A34207D004F5806499
:102F9000A34203D004F58064A34204D1496820F021
:102FA0008000014399600123002082F83D3082F8BF
:102FB0003C0030BD002C014090F83C30012B1FD06C
:102FC000CB688A6823F4407313434A6823F4806310
:102FD00013430A6823F4006313430A6923F48053FC
:102FE00013434A6923F400531343CA6923F480430B
:102FF000134302685364002380F83C30184670473E
:10300000022070470368DA6822F49072DA605A6925
:1030100022F001025A61026B012A02BFDA6822F033
:103020001002DA60202380F83E30002303637047EB
:1030300010B504460368C1681A6922F440520A4375
:103040001A6182680069D9680243606921F4B0514D
:1030500021F00C0102430A43DA605A69A16922F4A3
:1030600040720A435A610E4A934215D1FFF764FB3E
:1030700019234343626820689200B3FBF2F3642291
:10308000B3FBF2F102FB11331B013233B3FBF2F35A
:1030900003EB0113836010BDFFF73EFBE8E700BFC1
:1030A00000380140F8B504460E4617461D46226812
:1030B000136836EA030301D1002014E06B1CF7D03B
:1030C00095B923680320DA6822F4D072DA605A696D
:1030D00022F001025A61202384F83D3084F83E300A
:1030E000002384F83C30F8BDFEF736FDC01B854256
:1030F000DDD2E6E710B5044640B390F83D3003F06A
:10310000FF021BB980F83C20FEF736FC242322681E
:1031100084F83D30D368204623F40053D360FFF792
:1031200087FF236800201A6922F490421A615A69C5
:1031300022F02A025A61DA6842F40052DA6020234F
:10314000206484F83D3084F83E3010BD0120FCE757
:103150002DE9F843994690F83D300446202B0E4661
:10316000174648D1002944D0002A42D090F83C307C
:10317000012B40D00123002580F83C302123056439
:1031800080F83D30FEF7E8FCA3688046B3F5805F29
:10319000A784E78403D123690BB935461E46002373
:1031A00084F83C30E38C9BB253B94B4642464021F5
:1031B0002046FFF777FF50B9202384F83D3007E021
:1031C0004B46424680212046FFF76CFF10B103209A
:1031D000BDE8F88322684EB935F8023BC3F3080313
:1031E0005360E18C013989B2E184DBE716F8013BD9
:1031F000F6E70120ECE70220EAE77047704708B5E0
:103200000023406AC385C384FFF7F8FF08BD7047F9
:1032100013B590F83E30222B49D18168836AB1F50D
:10322000805F026833D10169002933D15268C2F34B
:10323000080223F8022BC48D8362013CA4B2C4852A
:103240001CBB0368DA6822F02002DA60DA6822F434
:103250008072DA605A6922F001025A61202280F8F5
:103260003E20026B012A1FD10463DA6822F01002AB
:10327000DA601A68D20605D501941A6801925B6873
:103280000193019B818DFFF7C2FF002010E039B947
:10329000016929B95268D2B21A70836A0133CAE748
:1032A000526802F07F02F7E7FEF782F8EDE70220AE
:1032B00002B010BD036837B51A68044612F00F0F4C
:1032C000D9685D6908D195065FD58D065DD503B0D7
:1032D000BDE83040FFF79CBF05F0010001F4907598
:1032E000054352D0D50705D5CB0542BF236C43F02B
:1032F00001032364550704D518B1236C43F002037E
:103300002364930704D518B1236C43F004032364AA
:10331000150707D501F0200303431EBF236C43F0BC
:1033200008032364236C53B3920604D58B0602D59D
:103330002046FFF76DFF236820465B69256C03F08C
:10334000400305F008051D431BD0FFF75BFE236813
:103350005A69550610D55A69A06B22F040025A618D
:1033600050B1534B4363FEF7C3FD40B1A06B436BB9
:1033700003B0BDE8304018472046FFF73FFF03B0D9
:1033800030BDFFF73BFF2564F9E7206B012855D1DD
:10339000D00653D5CD0651D5002101911A6801926E
:1033A0005A680192019A5A6912F040022AD0A06B21
:1033B0000268526892B2002AE1D0A58D9542DED90A
:1033C000E2858269202A15D0DA6822F48072DA60F8
:1033D0005A6922F001025A615A6922F040025A6188
:1033E000202284F83E202163DA6822F01002DA609D
:1033F000FEF760FDE38DA18DC91A89B22046FFF763
:1034000006FFBCE7E18D88B2E18D89B20029B6D014
:10341000A18D091A89B20029B1D0D86820F4907022
:10342000D860586920F001005861202084F83E00DF
:103430002263DA6822F01002DA60DFE7100626D590
:103440000D0624D594F83D20212A98D1A168226A3E
:10345000B1F5805F16D12169A1B932F8021BC1F321
:10346000080159602262E28C013A92B2E284002A99
:1034700085D1DA6822F08002DA60DA6842F0400230
:10348000DA607CE7511C216212785A60EBE7500643
:103490007FF575AF4A067FF572AFDA68204622F0F5
:1034A0004002DA60202384F83D30FFF7A6FE66E78D
:1034B000FF310008C28582858162034622220020F6
:1034C000186483F83C0083F83E201B68DA6842F4F5
:1034D0008072DA605A6942F001025A61DA6842F099
:1034E0002002DA60704770B490F83E60202E10D150
:1034F00061B15AB190F83C40012C0AD0012480F807
:103500003C400024046370BCFFF7D4BF012070BCB2
:1035100070470220FBE70000EFF3058313B16FF063
:1035200005007047EFF31083002BF8D1074B1868A4
:10353000022806D1EFF31183002BF0D14FF0FF30BA
:1035400070470028FAD101221A607047F00200206B
:1035500010B5EFF3058313B16FF0050010BDEFF365
:103560001084002CF8D1094B1A68022A06D1EFF317
:103570001183002BF0D14FF0FF30EFE7012AFAD191
:1035800002221A6000F0A0FD2046E7E7F0020020CA
:10359000F0B51446002287B00B460592EFF3058282
:1035A00052BBEFF310823ABB264A1268022A02D1BC
:1035B000EFF3118202BBF8B100228DF81320002C2A
:1035C00030D0216809B90DF11301A569002D08BF9C
:1035D00018256A1E372AAC462AD86268D20727D433
:1035E000666966B1B208D4E9027E57B1BEF15B0FDD
:1035F00002D9246904B1EEB9059807B0F0BD802264
:10360000F1E7BEF1000FF7D12469002CF4D105AC2D
:10361000CDE900C492B200F02AFD01281CBF0023AE
:103620000593E9E74FF0180C80220DF11301EEE746
:103630000020E2E7CDE90147009500F0E1FC0590AC
:10364000DAE700BFF002002008B5EFF3058313B1FD
:103650006FF0050008BDEFF31083002BF8D1074B86
:103660001B68022B03D1EFF31183002BF0D100284C
:10367000F0D000F07FFE0020ECE700BFF002002059
:10368000034B0360034B0B6080231360704700BF44
:103690009402002094000020034B0360034B0B6056
:1036A0004FF4807313607047F4060020F40200208A
:1036B0004FF0FF3200F10803C0E9022343600361C9
:1036C00000230360704700230361704743689A68D2
:1036D0004B608A609A6851609960036808610133A1
:1036E0000360704730B50C68631C0AD103695A68DF
:1036F0004A6091608B605960036808610133036020
:1037000030BD00F10802134652681568A542FAD987
:10371000EDE70369D0E901128A605160596881427E
:1037200008BF5A60002202611A68013A1A601868DC
:10373000704710B5044601F0D5F9A46B01F0F4F917
:10374000B4FA84F0400910BDF8B51546026C044681
:10375000866B52B9076847BB406800F043FF0546D7
:10376000676001362846A663F8BD65B9806801F038
:10377000DBFBA368226C13446268A3609342F0D31E
:103780002368A360EDE7C06801F0CEFB226CE3681C
:1037900051429B1A2268E36093423EBF63685B1804
:1037A000E360022D01D116B1013E0025D9E735466F
:1037B000D7E703461A6C084610B462B1DC68596852
:1037C00014448C4228BF1968DC6028BFD960D968CE
:1037D00010BC01F0A9BB10BC704770B5044601F0E5
:1037E00081F994F8455004F124066DB2002D14DCE3
:1037F000FF2384F8453001F097F901F073F994F84C
:10380000445004F110066DB2002D12DCFF2384F841
:103810004430BDE8704001F087B9636A002BE7D0FF
:10382000304600F041FE08B100F0C6FE013D6DB229
:10383000DCE72369002BE9D0304600F035FE08B103
:1038400000F0BAFE013D6DB2DEE7000038B50D466E
:10385000044640B94FF0500383F31188BFF36F8FD4
:10386000BFF34F8FFEE701F03DF9D4E90F314B4331
:103870002268D0185B1A13446060E3600020FF23C5
:10388000A063A26084F8443084F8453095B9236978
:1038900063B104F1100000F007FE38B14FF0805220
:1038A000094B1A60BFF34F8FBFF36F8F01F03CF9E4
:1038B000012038BD04F11000FFF7FAFE04F12400E6
:1038C000FFF7F6FEF2E700BF04ED00E037B50D4666
:1038D0001C4640B94FF0500383F31188BFF36F8F3C
:1038E000BFF34F8FFEE743B94FF0500383F31188C6
:1038F000BFF36F8FBFF34F8FFEE74AB191B94FF01F
:10390000500383F31188BFF36F8FBFF34F8FFEE730
:1039100041B14FF0500383F31188BFF36F8FBFF3B2
:103920004F8FFEE750230193019B502B08D04FF09F
:10393000500383F31188BFF36F8FBFF34F8FFEE700
:103940000121002D08BF2246C4E90F0584F8461066
:1039500020462260FFF77AFF20469DF8183084F851
:103960004C3003B030BD00002DE9FF4788461F46AC
:103970000446019240B94FF0500383F31188BFF31E
:103980006F8FBFF34F8FFEE751B9036C43B14FF018
:10399000500383F31188BFF36F8FBFF34F8FFEE7A0
:1039A000022F0BD1E36B012B08D04FF0500383F3B0
:1039B0001188BFF36F8FBFF34F8FFEE700F002FE59
:1039C000064650B9019B4BB14FF0500383F3118869
:1039D000BFF36F8FBFF34F8FFEE700264FF0000954
:1039E000DFF8E4A037E0019D1DB901F09DF800204B
:1039F00050E016B902A800F097FD01F095F800F02C
:103A0000A7FB01F06FF894F84430FF2B08BF84F84F
:103A1000449094F84530FF2B08BF84F8459001F09E
:103A200083F801A902A800F08BFD002846D101F01F
:103A300059F8A26BE36B9A422FD101F075F8019906
:103A400004F1100000F0F6FC2046FFF7C6FE00F07F
:103A50001DFC50B3012601F045F8A26BE36B9A42BE
:103A600001D3022FBFD13A4641462046FFF76CFEF4
:103A7000636A1BB104F1240000F016FD38B14FF069
:103A80008052114B1A60BFF34F8FBFF36F8F01F05D
:103A90004BF8012004B0BDE8F08701F045F820465E
:103AA000FFF79BFE00F0F2FBD4E74FF08053CAF81B
:103AB0000030BFF34F8FBFF36F8FCBE72046FFF788
:103AC0008CFE00F0E3FB92E704ED00E02DE9F84303
:103AD000894690461F46044640B94FF0500383F391
:103AE0001188BFF36F8FBFF34F8FFEE751B9036C9F
:103AF00043B14FF0500383F31188BFF36F8FBFF3CF
:103B00004F8FFEE7022F0BD1E36B012B08D04FF054
:103B1000500383F31188BFF36F8FBFF34F8FFEE71E
:103B200001F0C0F8EFF311864FF0500383F31188D2
:103B3000BFF36F8FBFF34F8FA26BE36B9A4201D33A
:103B4000022F22D194F845503A46494620466DB29C
:103B5000FFF7FAFD6B1C13D1636A0BB901200BE070
:103B600004F1240000F0A0FC0028F7D0B8F1000F09
:103B7000F4D00120C8F8000086F31188BDE8F8836E
:103B800001356DB284F84550E8E70020F4E7000005
:103B90002DE9F04385B00F460446019240B94FF03D
:103BA000500383F31188BFF36F8FBFF34F8FFEE78E
:103BB00051B9036C43B14FF0500383F31188BFF345
:103BC0006F8FBFF34F8FFEE700F0FCFC064650B945
:103BD000019B4BB14FF0500383F31188BFF36F8FFC
:103BE000BFF34F8FFEE700264FF00008DFF8DC90B0
:103BF0003BE0019D1DB900F097FF002052E016B98F
:103C000002A800F091FC00F08FFF00F0A1FA00F094
:103C100069FF94F84430FF2B08BF84F8448094F87F
:103C20004530FF2B08BF84F8458000F07DFF01A9D7
:103C300002A800F085FC00283DD12046FFF779FD61
:103C400098B3019904F1240000F0F4FB2046FFF73B
:103C5000C4FD00F01BFB38B94FF08053C9F80030A9
:103C6000BFF34F8FBFF36F8F012600F03BFFA56BB3
:103C7000002DBED039462046013DFFF79AFDA563D1
:103C8000236963B104F1100000F00EFC38B14FF06D
:103C900080520E4B1A60BFF34F8FBFF36F8F00F04F
:103CA00043FF012005B0BDE8F0832046FFF795FDF6
:103CB00000F0ECFAD8E72046FFF78FFD00F0E6FAB7
:103CC0002046FFF736FD0028CED096E704ED00E051
:103CD000002330B5064A52F8335002EBC3041DB935
:103CE00042F83310606030BD0133082BF3D1FAE79E
:103CF000EC1F002070B504460D46164600F0F2FE9B
:103D000094F84430FF2B04BF002384F8443094F827
:103D10004530FF2B04BF002384F8453000F004FF3A
:103D2000A36B2BB93246294604F1240000F09CFB1A
:103D30002046BDE87040FFF750BD00002DE9F0417E
:103D4000044600F0CFFE2F4B2F4D1A682F4F013243
:103D50001A602E68002E49D12C601B68012B1FD1E0
:103D6000B84640460136FFF7A3FC382E08F1140888
:103D7000F7D1DFF8C480264E4046FFF799FC304665
:103D8000FFF796FC2348FFF793FC2348FFF790FCCE
:103D90002248FFF78DFC224BC3F80080214B1E60A8
:103DA0001420214A136801331360204A63641168A8
:103DB000E36A8B4200FB037004F1040188BF1360C7
:103DC000FFF784FC00F0B0FE194B1B6863B12B6851
:103DD000DA6AE36A9A4207D24FF08052154B1A60B2
:103DE000BFF34F8FBFF36F8FBDE8F081104B1B689F
:103DF000002BD5D12B68DA6AE36A9A4298BF2C600F
:103E0000CEE700BFBC0B0020500700205C0700205D
:103E1000E80B0020040C0020300C00201C0C0020BB
:103E20005407002058070020CC0B0020D00B0020A6
:103E3000180C002004ED00E0D40B0020064A1368A3
:103E40001968064B19B94FF0FF321A6070471268B3
:103E5000D268D2685268F8E754070020FC0B0020B3
:103E60002DE9F0470D46DDE909844FEA82094A460B
:103E70000646A521206B1F4601F064F8226BA9F1CC
:103E8000040991446B1E29F0070904F134020F352F
:103E900013F8011F02F8011B197809B1AB42F7D1E1
:103EA000089D4FF0000A372D28BF3725201DC4E993
:103EB000135AE56284F843A0FFF705FCC5F1380505
:103EC00004F11800FFF7FFFBC4F854A03A4631464E
:103ED00048462461A561646284F858A000F0DEFDC4
:103EE0002060B8F1000F01D0C8F80040BDE8F087AD
:103EF00010B590F8593004463BB9006B00F0AEFFA6
:103F00002046BDE8104000F0A9BF012BF9D0022BDC
:103F100008D04FF0500383F31188BFF36F8FBFF3C6
:103F20004F8FFEE710BD000080B5DFF85C80124FB8
:103F3000124C134D236863B9124B1B68012BF8D93F
:103F40004FF08053C8F80030BFF34F8FBFF36F8F2F
:103F5000EEE700F0C7FDFB68DE68301DFFF7D9FB18
:103F60002B68013B2B602368013B236000F0DCFDE4
:103F70003046FFF7BDFFDDE7300C0020C00B00200E
:103F8000BC0B00205C07002004ED00E0F8B50546FE
:103F9000154B164E1C6830680F460430FFF7B9FB0E
:103FA0006B1C334607D137B1316811480431BDE885
:103FB000F840FFF78BBB1A686419546007D30D4AA9
:103FC00010681968BDE8F8400431FFF78BBB0A4A56
:103FD000106819680431FFF785FB084B1A68A24284
:103FE00088BF1C60F8BD00BF440C002050070020B3
:103FF0001C0C00205807002054070020FC0B002058
:1040000070B586B0DDE90B5445B94FF0500383F32A
:104010001188BFF36F8FBFF34F8FFEE744B94FF0A6
:10402000500383F31188BFF36F8FBFF34F8FFEE709
:104030005C260496049E5C2E08D04FF0500383F358
:104040001188BFF36F8FBFF34F8FFEE72563022503
:1040500084F8595005AD01950A9D02940095FFF72B
:10406000FFFE2046FFF76AFE059806B070BD2DE9F9
:10407000F043074685B0900088461646994600F002
:1040800063FE0546E8B15C2000F05EFE0446A8B180
:10409000002380F859300D9B056301930C9B324639
:1040A00041460290009338464B46FFF7D9FE204622
:1040B000FFF744FE012005B0BDE8F083284600F07C
:1040C000CDFE4FF0FF30F6E710B5002488B007AA08
:1040D00006A905A8CDE90544FFF7D2FA059B079A82
:1040E0000293069B1549CDE9004315482346FFF787
:1040F00087FFA8B100F00AFB012813D14FF050034D
:1041000083F31188BFF36F8FBFF34F8F4FF0FF32F0
:104110000C4B1A600C4B18600C4B1C6000F06AFDD5
:1041200008B010BD0130FBD14FF0500383F311886C
:10413000BFF36F8FBFF34F8FFEE700BF81640008AE
:10414000293F0008FC0B0020180C0020440C002024
:10415000024A136801331360704700BFC80B002088
:10416000014B1868704700BF440C00202DE9F84F40
:104170003B4B1B68002B6DD13A4B1D6801351D6010
:10418000BDB9394B1A68126842B14FF0500383F33E
:104190001188BFF36F8FBFF34F8FFEE7334A196863
:1041A000106818601160324A136801331360FFF71A
:1041B00045FE304E002433682F4FAB4210D92F4BB1
:1041C0001B68DA6A14235343FB58022B28BF0124CF
:1041D0002B4B1B68002B0CBF20460120BDE8F88F3D
:1041E000DFF88490DFF8A0A0D9F800301B681BB975
:1041F0004FF0FF333360E2E7D9F80030DB68D3F8E3
:104200000CB0DBF80420954201D23260D7E70BF105
:1042100004084046FFF77DFADBF828201AB10BF1BD
:104220001800FFF776FA1423DBF82C00DAF80020E8
:104230004146904288BFCAF8000003FB0070FFF7B8
:1042400045FA0E4BDBF82C201968CB6A9A4228BF3E
:104250000124C9E70B4A0024136801331360B7E750
:10426000C80B0020440C00205407002058070020F1
:10427000000C0020FC0B00205C07002050070020F1
:10428000480C0020C40B0020D00B00202DE9F04189
:104290002F4C236843B94FF0500383F31188BFF3C9
:1042A0006F8FBFF34F8FFEE700F01CFC2368013BCC
:1042B000236024682CB1002400F036FC2046BDE8C1
:1042C000F081244B1B68002BF5D0234D234EDFF8E3
:1042D000A0801DE0EB68DC68271D04F11800FFF7E3
:1042E00018FA3846FFF715FA1420E36A326800FB23
:1042F00003809342394688BF3360FFF7E7F9184BD4
:10430000E26A1B68DB6A9A4202D30122154B1A60EB
:104310002B68002BDED10CB1FFF790FD124D2C68FD
:1043200044B101270F4EFFF721FF00B13760013C78
:10433000F9D12C600B4B1B68002BBCD04FF0805286
:104340000A4B1A60BFF34F8FBFF36F8F0124B3E79F
:10435000C80B0020BC0B0020040C0020D00B002058
:1043600050070020480C0020C40B002004ED00E0A2
:104370005C07002008B540B94FF080520D4B1A6021
:10438000BFF34F8FBFF36F8F08BD0B4B196841B15F
:104390004FF0500383F31188BFF36F8FBFF34F8F3C
:1043A000FEE7FFF7D5FEFFF7F1FDFFF76FFF0028EF
:1043B000E2D0E9E704ED00E0C80B0020184BF0B5AF
:1043C0001A68184B12B101221A60F0BD1A60164A21
:1043D00014271646154D2B6807FB03F15458501847
:1043E00094B14468083164680A44944208BF626822
:1043F000446008BF4260142202FB03625268D16825
:104400000B4A11602B60E0E743B94FF0500383F390
:104410001188BFF36F8FBFF34F8FFEE7013BDBE7E0
:10442000C80B0020480C00205C070020D00B0020A7
:104430005007002010B50C4640B94FF0500383F3ED
:104440001188BFF36F8FBFF34F8FFEE7054B1968DD
:104450001831FFF747F92046BDE810400121FFF76A
:1044600095BD00BF5007002038B50D46144640B931
:104470004FF0500383F31188BFF36F8FBFF34F8F5B
:10448000FEE7084B19681831FFF720F9002C214688
:1044900008BF2846BDE8384018BF4FF0FF30FFF78F
:1044A00075BD00BF5007002038B5C368DC6844B94B
:1044B0004FF0500383F31188BFF36F8FBFF34F8F1B
:1044C000FEE704F118052846FFF723F9104B1B6897
:1044D000DBB9251D2846FFF71CF90E4A1420116888
:1044E000E36A8B42294688BF13600B4A00FB032016
:1044F000FFF7ECF8094BE26A1B68DB6A9A4285BF5A
:104500000120074B0020186038BD29460548EFE719
:10451000C80B0020D00B00205C07002050070020B3
:10452000480C0020040C0020034B1B680360034B65
:104530001B684360704700BF000C0020440C002043
:1045400070B50C46054640B94FF0500383F311880F
:10455000BFF36F8FBFF34F8FFEE741B94FF05003AA
:1045600083F31188BFF36F8FBFF34F8FFEE700F027
:10457000B9FA0F4B196823685A1C10D00D482E68E1
:1045800000686A68864201D08A420FD9881A83423D
:104590000AD95B1A134428462360FFF7C5FF00249D
:1045A00000F0C2FA204670BD002323600124F7E723
:1045B000440C0020000C00200122014B1A607047BF
:1045C000480C0020054B1B6833B1054B1B68002BC2
:1045D0000CBF02200020704701207047180C0020FB
:1045E000C80B002038B508B9002038BD1B4B1C682B
:1045F000844208D04FF0500383F31188BFF36F8FCC
:10460000BFF34F8FFEE7236D43B94FF0500383F3A1
:104610001188BFF36F8FBFF34F8FFEE7E16AE26C43
:10462000013B91422365DFD0002BDDD1251D2846BB
:10463000FFF76FF81420E36CC3F13802A261084A57
:10464000E36211688B4288BF1360064A294600FB6B
:104650000320FFF73BF80120C7E700BF5007002009
:10466000D00B00205C070020F7B5114C00F03AFA9F
:104670002568BDB90F4F104E3846FFF719F8304680
:10468000FFF716F80D4B10211F600D4B0A201E601E
:104690000C4A0D4B0095FFF719F9206010B10B493A
:1046A000FFF716FB03B0BDE8F04000F03DBA00BFD5
:1046B000700D0020F40C0020080D00204C0C002090
:1046C000500C0020540C0020200D002086640008AF
:1046D000914208B5416000610AD8D21A83699A42B2
:1046E0000DD2084B011D1868FEF7FCFF002008BD25
:1046F0009A4201D2994202D2034B011DF3E70120F5
:10470000F5E700BF500C00204C0C002010B588B01D
:10471000FFF7AAFF124B1B68B3B1002407AA06A932
:1047200005A8CDE90544FEF7B7FF059B079A02935C
:10473000069B0C49019302230B4800932346FFF785
:104740005FFC0A4B186040B94FF0500383F31188A7
:10475000BFF36F8FBFF34F8FFEE7012008B010BD8E
:10476000700D00208B64000845480008740D00207F
:104770007FB5164604461A4640B94FF0500383F3FE
:104780001188BFF36F8FBFF34F8FFEE70D4D286881
:1047900080B10529CDE9001602940DDCFFF712FF68
:1047A0000023022818BF1A46694608BF089A2868DD
:1047B000FFF7DAF804B070BD00236946FFF786F909
:1047C000F8E700BF700D00202DE9F3414FF000081D
:1047D0001A4D2B681A6832B9194A1168136029609A
:1047E00002B0BDE8F081DB68DC681E68271D384632
:1047F000FEF78FFF636A20469847E369012BE8D1F3
:10480000A36933449E4206D2394628686360246116
:10481000FEF768FFDDE70023324619462046CDF853
:104820000080FFF7A5FF0028D3D14FF0500383F39A
:104830001188BFF36F8FBFF34F8FFEE74C0C002042
:10484000500C00202DE9F04F774EDFF8EC91B04688
:1048500087B03368D3F800B0BBF1000F48D0DB68F5
:10486000D3F800A0FFF774FCFFF77AFC6F4D044605
:104870002B682F4698423DD2FFF7A6FF2C60FFF72A
:1048800005FD4FF0000BDFF8ACA10022DAF80000C4
:1048900002A9FFF77DF90028DBD0029B0498002BCA
:1048A00072DB049C6369002B76D1FFF759FC3B68EF
:1048B0000546984201D2FFF787FF029B3D60092B16
:1048C000E3D801A252F823F0A1490008A149000849
:1048D000A14900088B480008EF490008154A000864
:1048E000A1490008A14900088B480008EF490008C9
:1048F000DA46B7E72860BBF1000F2AD0824541D8DD
:10490000FFF7C4FCD8F80030DB68DD68281DFEF72F
:1049100000FFEB69012B18D1A969534622462846AE
:104920005144FFF7D5FE80B1002352461946284670
:104930000093FFF71DFF40B94FF0500383F3118838
:10494000BFF36F8FBFF34F8FFEE728466B6A984720
:1049500097E7374B1B681A68B2FA82F25209354B57
:10496000AAEB04011868FFF7C5F9FFF78FFC0028D0
:1049700087D14FF08053C9F80030BFF34F8FBFF39A
:104980006F8F7EE70022EAE7039B05999847029B19
:10499000002BFFF67AAF84E7201DFEF7BAFE84E70E
:1049A000A169039B2A4620461944FFF791FE00287F
:1049B0003FF46BAF636A20469847E369012B7FF4AD
:1049C00064AF0023A269039920460A44CDF800B0E1
:1049D0001946FFF7CDFE00287FF457AF4FF0500384
:1049E00083F31188BFF36F8FBFF34F8FFEE70399F7
:1049F000A16141B94FF0500383F31188BFF36F8F6A
:104A0000BFF34F8FFEE72B462A4620462944FFF787
:104A10005FFE3AE794F82C30002B7FF436AF204647
:104A200000F01CFA31E700BF4C0C00201C0D0020E8
:104A3000500C0020700D002004ED00E006480068D6
:104A4000006880F3088862B661B6BFF34F8FBFF38A
:104A50006F8F00DF00BF000008ED00E0002382B090
:104A600001930D4B1B68013308D04FF0500383F3C3
:104A70001188BFF36F8FBFF34F8FFEE74FF05003E6
:104A800083F31188BFF36F8FBFF34F8F019B002B10
:104A9000FCD002B0704700BF0C0000204FF08073C4
:104AA00040F8043C054B21F0010140F8081C40F897
:104AB0000C3C40F8202C4038704700BF5D4A00088D
:104AC000074B19680868B0E8F00F80F30988BFF356
:104AD0006F8F4FF0000080F311884EF00D0E70477D
:104AE000500700204FF0500383F31188BFF36F8FFE
:104AF000BFF34F8F0A4A13680133012B13600DD1A6
:104B0000084B1B6813F0FF0F08D04FF0500383F3DE
:104B10001188BFF36F8FBFF34F8FFEE7704700BF61
:104B20000C00002004ED00E0084A136843B94FF080
:104B3000500383F31188BFF36F8FBFF34F8FFEE7EE
:104B4000013B13600BB983F3118870470C00002000
:104B5000EFF30980BFF36F8F0D4B1A6820E9F00F58
:104B600010602DE908404FF0500080F31188FFF7E6
:104B700025FC4FF0000080F31188BDE8084019685B
:104B80000868B0E8F00F80F30988BFF36F8F7047B3
:104B90005007002008B54FF0500383F31188BFF38E
:104BA0006F8FBFF34F8FFFF7E1FA18B14FF08052CC
:104BB000024B1A60002383F3118808BD04ED00E066
:104BC0000023084A084913600B604FF47A71074BC1
:104BD0001B68B3FBF1F30649013B0B60072313602D
:104BE000704700BF10E000E018E000E00000002087
:104BF00014E000E013B5264B00211A78D2B20192DE
:104C0000FF221A701B78234ADBB28DF803309DF81F
:104C1000033003F05003137007231F4A13609DF8FD
:104C200003005C1E00060CD411B1032B136011D0DD
:104C30004FF0500383F31188BFF36F8FBFF34F8F93
:104C4000FEE79DF8033001215B00DBB28DF80330F5
:104C50002346E4E74FF4407300241360019B0C4AA1
:104C6000DBB213700D4B1A6842F470021A601A68B6
:104C700042F070421A60FFF7A3FF094B1C60FFF778
:104C8000DDFEFFF79BFBFFF7E9FE204602B010BDFB
:104C900000E400E0780D00207C0D002020ED00E015
:104CA0000C000020EFF305830F2B0ED9104A9B5CFC
:104CB000104A12789A4208D94FF0500383F31188B2
:104CC000BFF36F8FBFF34F8FFEE70B4B0B4A1B6891
:104CD000126803F4E063934208D94FF0500383F362
:104CE0001188BFF36F8FBFF34F8FFEE7704700BF90
:104CF000F0E300E0780D00200CED00E07C0D0020DA
:104D000010B50F4B1A461B688342FBD35468111928
:104D1000884201BF41681046091951604468011971
:104D20008B4207D1074909688B421FBF59681B682E
:104D3000091941609042036018BF106010BD00BFA8
:104D400090190020800D00202DE9F0410446FFF766
:104D5000FFF93B4B3B481A689C46D2B900213A4ABE
:104D60003A4B55071CBF073222F007021A60596000
:104D7000374B23F00703C3E90011991AC2E9003148
:104D8000CCF80030334B1960334B19604FF00043BF
:104D90000360076827424ED1002C3FD004F108037E
:104DA00061071CBF23F007030833002B43D02A4AB6
:104DB000166890469E423ED3244A15686968994217
:104DC00001D22868A8B9DCF80000A84233D02868CE
:104DD000C91A10291468106012D9E81842070BD0BC
:104DE0004FF0500383F31188BFF36F8FBFF34F8FE2
:104DF000FEE72A460546E1E741606B60FFF780FF6A
:104E00006B681449F61A1F4300230868C8F800604D
:104E1000864238BF0E6008346F602B60FFF736FAA9
:104E200063070AD04FF0500383F31188BFF36F8FED
:104E3000BFF34F8FFEE70024F0E72046BDE8F08186
:104E4000800D002084190020840D0020901900207E
:104E50007C1900208C1900208819002010B5044608
:104E600070B3184A50F8043C1268134208D14FF04E
:104E7000500383F31188BFF36F8FBFF34F8FFEE7AB
:104E800050F8081C41B14FF0500383F31188BFF371
:104E90006F8FBFF34F8FFEE723EA020340F8043C15
:104EA000FFF756F9084A54F8043C1168A4F10800C9
:104EB0000B441360FFF724FFBDE81040FFF7E6B98D
:104EC00010BD00BF84190020881900200A2200218B
:104ED00000F0EEB8014B1868704700BF10000020CA
:104EE00070B500260C4D0D4C641BA410A64209D1D0
:104EF00000F0F4FC00260A4D0A4C641BA410A642E4
:104F000005D170BD55F8043B98470136EEE755F8DA
:104F1000043B98470136F2E7C8650008C8650008F9
:104F2000C8650008CC6500080A44914200F1FF33CF
:104F300000D1704710B511F8014B914203F8014FB1
:104F4000F9D110BD03460244934200D1704703F8E3
:104F5000011BF9E70EB46FF0004100B59CB01DAB2A
:104F600002900690079104910848094953F8042BD0
:104F70000591006802A9019300F000F90022029B4C
:104F80001A701CB05DF804EB03B0704710000020ED
:104F90000802FFFF034611F8012B03F8012B002A3A
:104FA000F9D17047012B2DE9F047864601D0242B1B
:104FB00006D9FFF78FFF162303600020BDE8F087B6
:104FC0008C463A4E60461CF8014BA55D15F008056D
:104FD000F8D12D2C33D14FF001089CF8004000F19E
:104FE000020C002B5DD0102B0CD1302C0AD19CF878
:104FF000000000F0DF0058284ED110239CF801403B
:105000000CF1020C002508F10047013FB7FBF3F952
:10501000284603FB197AA4F13006092E18D8344625
:10502000A34224DD002D1FDB81451DD301D1A24504
:105030001ADB012500FB03401CF8014BEBE72B2C8E
:1050400008BF9CF80040A84608BF00F1020CC8E762
:10505000A4F14106192E01D8373CE1E7A4F161061D
:10506000192E04D8573CDBE74FF0FF35E4E7002D5D
:1050700008DA22233846CEF80030002A9ED00CF100
:10508000FF3107E0B8F1000F00D04042002A95D070
:10509000002DF4D1116091E73024002BB2D1082308
:1050A000B0E7302CA3D00A23ACE700BF946400081B
:1050B00013460A46014602480068FFF773BF00BF67
:1050C000100000202DE9F0478E6882469E420C4673
:1050D00090461F4638D88A8912F4906F32D02568DE
:1050E00009690133A5EB010965694B4405EB4505E9
:1050F00005EBD5756D109D4238BF1D46530531D562
:10510000294600F045FB064650B90C234FF0FF300E
:10511000CAF80030A38943F04003A381BDE8F087BB
:105120004A462169FFF700FFA38923F4906343F007
:105130008003A38126614E4426603E466561A5EB4F
:105140000905A560BE4200D93E4632464146206868
:1051500000F0B8FAA36822689B1B32440020A360C9
:105160002260DBE72A4600F06DFB06460028E1D10D
:105170005046216900F0C0FAC7E700002DE9F04F62
:1051800098468B8907461B060D4614469DB00ED5E2
:105190000B6963B9402100F0FBFA2860286120B94F
:1051A0000C233B604FF0FF30D1E040236B610023C4
:1051B000099320238DF8293030234FF00109CDF8D1
:1051C0000C80DFF8A4818DF82A3023469A4613F824
:1051D000012B0AB1252AF9D1BAEB040B0BD05B469F
:1051E000224629463846FFF76DFF013000F0AA80BD
:1051F000099A5A4409929AF80030002B00F0A280D4
:1052000000234FF0FF32CDE905230AF1010A049390
:1052100007938DF853301A935446052214F8011B56
:10522000514800F041FA049AD8B9D00644BF20236F
:105230008DF85330110744BF2B238DF853309AF863
:1052400000302A2B15D0544600204FF00A0C079A44
:10525000214611F8013B303B092B4ED9B0B10792E2
:1052600014E0A0EB080309FA03F31343A2460493E6
:10527000D2E7039B191D1B680391002BBBBF5B4248
:1052800042F0020207930793B8BF049223782E2BB3
:105290000CD163782A2B35D1039B02341A1D1B686D
:1052A0000392002BB8BF4FF0FF330593DFF8C8A07F
:1052B00003225046217800F0F7F940B14023A0EBDB
:1052C0000A0003FA00F0049B01340343049314F82A
:1052D000011B062225488DF8281000F0E5F900286A
:1052E00038D0234B1BBB039B073323F00703083342
:1052F0000393099B3344099367E70C4601200CFB99
:105300000232A5E700234FF00A0C19460134059339
:10531000204610F8012B303A092A03D9002BC5D0BA
:105320000591C3E7044601230CFB0121F0E703AB21
:1053300000932A4638460F4B04A9AFF30080421C65
:105340000646D6D1AB895B063FF52CAF09981DB058
:10535000BDE8F08F03AB00932A463846054B04A9FD
:1053600000F07CF8EBE700BF946500089E6500083C
:1053700000000000C55000089A6500082DE9F047BC
:10538000164699468A680B6907469342B8BF13468A
:10539000336091F843200C46DDF820800AB10133D8
:1053A00033602368990642BF33680233336025684F
:1053B00015F0060506D104F1190AE36832689B1A54
:1053C000AB4228DC94F84320131E226818BF012347
:1053D00092062DD44946384604F14302C0470130B5
:1053E00020D02368E56803F00603042B18BF0025CE
:1053F00032684FF00006A36808BFAD1A226908BFE3
:1054000025EAE5759342C4BF9B1AED181A34B542DC
:105410001AD1002008E00123524649463846C047C9
:10542000013003D14FF0FF30BDE8F0870135C4E70C
:105430003020E11881F843005A1C94F845102244AA
:10544000023382F84310C5E7012322464946384615
:10545000C0470130E6D00136D9E700002DE9FF470B
:105460000C46277E9146782F80469A460C9904F187
:10547000430207D8622F0AD8002F00F0D980582F96
:1054800000F0A48004F1420684F842703AE0A7F1EB
:105490006303152BF6D801A050F823F0F55400084B
:1054A00009550008855400088554000885540008F3
:1054B00085540008095500088554000885540008E3
:1054C000855400088554000817560008395500080F
:1054D000F95500088554000885540008395600081D
:1054E0008554000839550008855400088554000883
:1054F000015600080B6804F142061A1D1B680A6079
:1055000084F842300123A4E0256808682E0600F1E3
:1055100004030AD505680B60002D03DA2D236D42C4
:1055200084F843300A235E4819E015F0400F0568FF
:105530000B6018BF2DB2EFE70B682568181D0860D7
:10554000280601D51D6802E06906FBD51D886F2F6E
:105550000CBF08230A235248002184F843106668D0
:10556000002EA8BF2168A660A4BF21F0040121601D
:105570000DB9002E4DD01646B5FBF3F103FB1157C4
:10558000C75D06F8017D2F46BB420D46F4D9082BB6
:105590000BD12368DF0708D5236961689942DEBF14
:1055A000302306F8013C06F1FF36921B22614B4680
:1055B00021464046CDF800A003AAFFF7DFFE0130E8
:1055C0004CD14FF0FF3004B0BDE8F087344884F888
:1055D00045700E68236856F8045B1F060E6014D5EC
:1055E000D90744BF43F0200323601DB9236823F08B
:1055F000200323601023AFE7236843F020032360D8
:105600007823284884F84530E3E75E0648BFADB20A
:10561000E6E71646BBE70B6826681D1D60690D604E
:1056200035061B6801D5186002E07106FBD51880AD
:10563000002316462361BAE70B681A1D0A601E682C
:1056400000213046626800F02FF808B1801B6060CE
:1056500063682361002384F84330A8E73246494653
:1056600040462369D0470130ABD023689B0713D451
:10567000E068039B9842B8BF1846A4E7012332466E
:1056800049464046D04701309BD00135E368039935
:105690005B1AAB42F2DCEBE7002504F11906F5E7F3
:1056A000A5650008B6650008034610B5C9B20244F6
:1056B0009342184601D1002003E0047801338C4264
:1056C000F6D110BD884210B501EB020402D9844224
:1056D000234607D8431EA14208D011F8012B03F836
:1056E000012FF8E7014602448A4200D110BD13F8A9
:1056F000014D02F8014DF7E738B50546002943D0C2
:1057000051F8043C0C1F002BB8BFE41800F0D0F88F
:105710001E4A1368104633B9636014602846BDE81A
:10572000384000F0CBB8A3420AD9216862189342EE
:1057300001BF1A685B685218226063600460EDE77D
:105740001A465B680BB1A342FAD911685018A042FF
:105750000BD120680144501883421160DED11868D3
:105760005B68014411605360D8E702D90C232B60B9
:10577000D4E7206821188B4201BF19685B680918BB
:10578000216063605460C9E738BD00BF98190020EC
:10579000F8B5CD1C25F0030508350C2D38BF0C25B8
:1057A000002D064601DBA94203D90C2333600020FB
:1057B000F8BD00F07DF821490A6814469CB9204FD5
:1057C0003B6823B92146304600F062F8386029462C
:1057D000304600F05DF8431C23D10C233046336083
:1057E00000F06CF8E3E723685B1B17D40B2B03D99D
:1057F00023601C44256004E06368A2420CBF0B6078
:105800005360304600F05AF804F10B00231D20F0DD
:105810000700C21ACCD01B1AA350C9E722466468FD
:10582000CCE7C41C24F00304A042E3D0211A304684
:1058300000F02EF80130DDD1CFE700BF981900202D
:105840009C190020F8B5074614460E4621B91146AA
:10585000BDE8F840FFF79CBF22B9FFF74DFF254692
:105860002846F8BD00F030F8A0420FD22146384655
:10587000FFF78EFF05460028F2D031462246FFF79B
:1058800053FB31463846FFF737FFE9E73546E7E790
:1058900038B50023054D044608462B60FCF7D2F8C6
:1058A000431C02D12B6803B1236038BD2C2000209B
:1058B000014800F011B800BF34200020014800F07A
:1058C0000CB800BF3420002051F8043C181F002BF6
:1058D000BCBF0B58C018704770477047F8B500BF81
:1058E000F8BC08BC9E467047F8B500BFF8BC08BCC1
:0458F0009E46704719
:1058F40048656C6C6F20576F726C64210000000067
:105904000000000025730000533A25356400004C64
:10591400443A253264000052443A2532640000308F
:10592400303030300052454144590053656E736F36
:10593400725461736B004C6566744D6F746F72546E
:1059440061736B0052696768744D6F746F72546150
:10595400736B0064656661756C745461736B0000ED
:105964003A59000800000000000000000000000098
:105974000000000000020000080000000000000019
:10598400000000004859000800000000000000006A
:1059940000000000000000000002000008000000F9
:1059A40000000000000000002F5900080000000063
:1059B40000000000000000000000000000020000E1
:1059C4000800000000000000000000005759000813
:1059D40000000000000000000000000000000000C3
:1059E4000002000018000000000000000000000099
:1059F40000000000000000000000000000000000A3
:105A04003F40000000000000000030004000300073
:105A14004000000009000BC03D000BC03D00090020
:105A240018C024407FE0224031800000180024C0C8
:105A34001B000D803240018003801C4027401C80E5
:105A4400074000401000600000000000000000005B
:105A54000000000000001F80204040200000402083
:105A640020401F8000000000090006001F8006007F
:105A740009000000040004003F800400040000004A
:105A8400001000600000000000000000040004009A
:105A940004000400040000000000004000000000B6
:105AA40000000000002001C0060038004000000093
:105AB4001F802040204020401F8000000000104034
:105AC4003FC000400000000018C021402240244094
:105AD4001840000010802040244024401B80000017
