:020000040800F2
:1000000000000120A5120008311200083312000878
:1000100035120008371200083912000800000000ED
:10002000000000000000000000000000913F0008F8
:100030003B12000800000000214000083D120008AB
:10004000ED120008ED120008ED120008ED12000894
:10005000ED120008ED120008ED120008ED12000884
:10006000ED120008ED120008ED120008ED12000874
:10007000ED120008ED120008ED120008ED12000864
:10008000ED120008ED120008ED120008ED12000854
:10009000ED120008ED120008ED120008ED12000844
:1000A000ED120008ED120008ED120008ED12000834
:1000B000ED120008ED120008ED120008ED12000824
:1000C000ED120008ED120008ED120008ED12000814
:1000D000ED120008ED120008ED120008551200089C
:1000E000ED120008ED120008ED120008ED120008F4
:1000F000ED120008ED120008ED120008ED120008E4
:10010000ED120008ED120008ED120008ED120008D3
:10011000ED120008ED120008ED120008ED120008C3
:10012000ED120008ED120008ED120008ED120008B3
:1001300000000000000000000000000000000000BF
:1001400000000000000000000000000000000000AF
:10015000000000000000000000000000000000009F
:10016000000000000000000000000000000000008F
:10017000000000000000000000000000000000007F
:10018000000000000000000000000000000000006F
:10019000000000000000000000000000000000005F
:1001A000000000000000000000000000000000004F
:1001B000000000000000000000000000000000003F
:1001C000000000000000000000000000000000002F
:1001D000000000000000000000000000000000001F
:0401E0005FF8E0F1F3
:1001F00010B5054C237833B9044B13B10448AFF361
:1002000000800123237010BD740000200000000056
:10021000AC4D000808B5034B1BB103490348AFF3CD
:10022000008008BD0000000078000020AC4D0008F0
:10023000F0B587B001AA16461F4B03F10805144616
:1002400018685968083303C4AB422246F7D11868CE
:100250009B882060A38000230C211848CDF8123021
:10026000ADF8163002F0D8F8154A1649164804F0D1
:10027000D9F8164D164F144C29460522384602F07F
:100280009AFB0A213246084600F098FD294620468E
:1002900004F0E8F8224628210A2000F08FFD4FF4F0
:1002A00080610C4801F091FA00F0EEFC4FF4FA7016
:1002B00002F032FCE0E700BFC44D0008141B002030
:1002C000F34D0008D84D0008B11B00205C1B002036
:1002D000381A002000180140F8B508214F4802F0F4
:1002E0009BF84F4F4D4C4F4E384604F057F84FF4A3
:1002F0007A7590FBF5F305FB1305002B00F0878062
:100300000A3B0C2B00F286800C2B00F28380DFE886
:1003100003F00722378181818181818156687300D2
:1003200001224FF48051404801F04AFA0022304641
:10033000202101F045FA4FF4966240F28D30236897
:10034000DA63684302F0E8FB0022C8202368DA631E
:1003500002F0E2FBC8E7642002F0DEFB01224FF46A
:100360008051314801F02CFA00223046202101F062
:1003700027FA40F2DC522F2023686843DA63E7E76C
:10038000642002F0C9FB01224FF48051264801F09D
:1003900017FA00222021304601F012FA4FF4C872F9
:1003A000282023686843DA6302F0B6FB55221F4B0E
:1003B00064201B681A6400222368DA63C8E70022FD
:1003C0004FF48051184801F0FBF9012230462021FA
:1003D00001F0F6F94FF4966223684FF46170DA6326
:1003E000AFE7642002F098FB00224FF480510E48E2
:1003F00001F0E6F90122B8E7642002F08DFB00224B
:100400004FF48051084801F0DBF90122C2E722686D
:10041000D36369E700222368DA6365E7A81900203F
:10042000B11B00200010014000180140141B0020E7
:100430002DE9F8430C216B4801F0EEFF4FF0010964
:10044000DFF8BC81684D674C404603F0A7FF4FF4CE
:100450007A7790FBF7F607FB1607002E00F0A380D3
:100460000A3E0C2E00F2B6800C2E00F2B380DFE8BC
:1004700006F0072646B1B1B1B1B1B1B1687E8C00CA
:100480004B222B684FF400411A645848012201F0B6
:1004900097F9002255484FF4006101F091F94FF4AB
:1004A0007A7240F28D3023681A64784302F034FB8C
:1004B0000022C82023681A6402F02EFB1CE05D2293
:1004C0002B6864201A6402F027FB01224FF40041DC
:1004D000464801F075F900224FF40061434801F0ED
:1004E0006FF94FF4C8722E20236878431A6402F023
:1004F00013FB4B222B681A644FF00109A4E73A2240
:100500002B6864201A6402F007FB01224FF40041BB
:10051000364801F055F900224FF40061334801F0EC
:100520004FF940F2DC522920236878431A6402F024
:10053000F3FA55222B6864201A64002223681A6497
:10054000BAE74B222B684FF400411A642748002277
:1005500001F036F9012225484FF4006101F030F92D
:100560004FF47A7223684FF461701A649DE75D223C
:100570002B6864201A6402F0CFFA00224FF4004185
:100580001A4801F01DF90122A6E73A222B686420DF
:100590001A6402F0C1FA00224FF40041134801F03E
:1005A0000FF90122B8E74B222B681A6423681E64F6
:1005B000B9F1000F3FF448AF0D4A0E490E4803F061
:1005C00031FF4FF6FF7305220B490C4802F028F863
:1005D000B14639E74B222B681A64002223681A645B
:1005E00032E700BFA8190020141B0020000C0140B6
:1005F000F94D0008D84D0008AC1B0020381A002027
:10060000B11B00202DE9F04F424D87B03C21424EF6
:10061000284601F010FC2B683C2130465C6A01F052
:100620000AFC33683D4FD3F824A000F0A3FE8346B4
:1006300007F1070807F10F0900F09CFEA0EB0B0083
:10064000642846D92B685A6A1B68D9064AD5944251
:1006500043DDA21A394601A803F0E4FE1E21322030
:1006600001AA00F0ABFB2B6841461A6801A8C2F34F
:10067000001203F0D7FE01AA1E210A2000F09EFB03
:100680002B685C6A00F076FE33685A6A1B68DB06EA
:1006900035D592452EDDAAEB0202394601A803F0BA
:1006A000C1FE1421322001AA00F088FB33684946BC
:1006B0001A6801A8C2F3001203F0B4FE14210A2044
:1006C00001AA00F07BFB3368D3F824A000F052FEAF
:1006D0008346012002F020FAAEE7C2F57F42FF32E6
:1006E0002244B7E7944201DA121BB3E7C4F57F4412
:1006F000FF34F5E7C2F57F42FF325244CDE7924521
:1007000002DAA2EB0A02C8E7CAF57F4A0AF1FF0A39
:10071000F3E700BF7C1A0020F0190020DC4D000830
:1007200000B591B02422002107A803F073FE142223
:10073000002101A803F06EFE02230121069310237D
:1007400006A8CDE90A1301F055F8014608B172B6C2
:10075000FEE70F23CDE90300CDE90130059001A8A4
:1007600001F01EFA08B172B6FEE711B05DF804FBA5
:1007700080B59AB000F0E0FDFFF7D2FF1022002113
:1007800011A803F047FEAF4B4FF4AF519A69AE4842
:1007900042F040029A619A69012602F040020092FA
:1007A000009A9A69002542F004029A619A6903242A
:1007B00002F004020192019A9A694FF0200842F077
:1007C00010029A619A694FF4805702F01002029267
:1007D000029A9A6942F008029A619B69002203F02A
:1007E00008030393039B00F0EBFF00223C21974892
:1007F00000F0E6FF00222021954800F0E1FF0022F2
:100800004FF40841934800F0DBFF4FF4BC63CDE99F
:10081000113602238C4811A9CDE9135300F0E6FEEE
:100820003C238A4811A9CDE911361494139500F0A0
:10083000DDFE874811A9CDE91354CDE9118600F0FA
:10084000D5FE814811A9CDE91354CDE9117600F008
:10085000CDFE4FF408437F4811A9CDE91136CDE90B
:10086000135400F0C3FE1022294606A803F0D2FD5F
:100870001C2229460AA8CDE9045503F0CBFD4246C7
:10088000294611A803F0C6FD734C744B2046C4E9F9
:10089000003541F61F43C4E90555C4E90335A56099
:1008A00001F070FB08B172B6FEE7204606A9069774
:1008B00001F0B1FC08B172B6FEE7204601F08EFBF4
:1008C00008B172B6FEE7CDE9040004A9204601F0A4
:1008D000A5FD024608B172B6FEE76023CDE90C0023
:1008E000CDE90A30CDE90E0010900AA9204601F0AA
:1008F0002DFC08B172B6FEE7042220460AA901F0D9
:1009000025FC08B172B6FEE7082220460AA901F0CC
:100910001DFC08B172B6FEE70C2220460AA901F0C0
:1009200015FC08B172B6FEE74FF40053CDE9110093
:10093000CDE913001590189011A92046169301F0E7
:10094000A3FD034608B172B6FEE74FF08042CDE941
:100950000A00434811A9C0E900234FF6FF72CDE910
:100960001163C0E90323CDE91363CDE91533CDE964
:10097000176383608361199301F05CFB08B172B661
:10098000FEE7002336480AA9CDE90A3301F046FD07
:1009900008B172B6FEE7334C334B0122C4E9003094
:1009A00041F61F43C4E903300323CDE911300A2384
:1009B000CDE90A00CDE91320CDE91530CDE91720A6
:1009C000A060A06111A92046199301F033FB08B182
:1009D00072B6FEE7CDE90A000AA9204601F01EFD25
:1009E000054608B172B6FEE70146102206A803F0DC
:1009F00011FD1C2229460AA8CDE9045503F00AFD81
:100A00002946202211A803F005FDA023174C184900
:100A10002046C4E900134FF47A73C4E903358023F8
:100A2000A5606561A36101F0ADFA08B172B6FEE799
:100A30004FF48053204606A9069301F0ECFBC8B1A1
:100A400072B6FEE7001002400018014000080140A5
:100A500000100140000C0140A819002000340140A2
:100A6000641B0020C41A002000040040141B002056
:100A7000002C0140204601F0B1FA08B172B6FEE741
:100A8000CDE9040004A9204601F0C8FC08B172B603
:100A9000FEE76023CDE90E00CDE90A300C901090FE
:100AA0000C2220460AA901F051FB08B172B6FEE7FC
:100AB0004FF40053CDE91100CDE9130015901890C3
:100AC00011A92046169301F0DFFC054608B172B665
:100AD000FEE7204600F02EFB4FF4E1334048414A48
:100AE000C0E90255C0E900230C230561C0E90535C2
:100AF000C56101F067FD08B172B6FEE700234FF053
:100B000001080A274FF6FF760325374C374A20465F
:100B100011A9CDE90A33C4E90023C4E90363CDE98F
:100B20001153CDE91383CDE91573CDE91783A36084
:100B3000A361199701F07EFA08B172B6FEE7CDE91C
:100B40000A000AA9204601F069FC08B172B6FEE766
:100B5000274C284BCDE90A00C4E90030C4E902065D
:100B6000CDE91150CDE91380CDE91570CDE917809D
:100B70002061A06111A92046199701F05BFA08B124
:100B800072B6FEE7CDE90A000AA9204601F046FC4C
:100B9000044608B172B6FEE700F030F901F024FF18
:100BA0002146154A154801F05BFF154B2146186098
:100BB000144A154801F054FF144B21461860144A9A
:100BC000144801F04DFF144B21461860134A144895
:100BD00001F046FF134B186001F022FFFEE700BF53
:100BE000381A002000480040F0190020000800409A
:100BF0007C1A0020000C0040A04E000831020008C2
:100C0000A4190020584E0008310400080C1B0020D5
:100C1000344E0008D9020008101B00207C4E00084A
:100C200005060008A01900207047000070B50A46AC
:100C3000044601B101224FF48071124800F0C0FD5A
:100C40000825104E00222021304600F0B9FD230671
:100C50004CBF012200224021304600F0B1FD013D91
:100C600001222021304600F0ABFD640015F0FF05A5
:100C7000E4B2E7D1BDE8704001224FF48071014831
:100C800000F09EBD0018014070B5B0240E4E00214A
:100C90002046FFF7CBFF00210846FFF7C7FF0021E2
:100CA0001020FFF7C3FF002516F83500012101359C
:100CB000FFF7BCFF802DF7D10134E4B2B82C06F168
:100CC0000106E4D170BD00BFB61B00200823002040
:100CD0000749002201F832000132802AFAD1013B93
:100CE00013F0FF0301F10101F3D1FFF7CDBF00BF06
:100CF000B61B0020030630B513D43F2911D80123B9
:100D000001F00705094CC908C1F10701C5F1070544
:100D1000C9B204EBC00003FA05F5435C12B12B43E2
:100D2000435430BD23EA0503FAE700BFB61B002099
:100D30002DE9F74FA2F1200598461E4BEDB203EBCB
:100D4000051300930C23824689460C4600271A4A55
:100D50009DF830B003FB05230193B84502D103B0E1
:100D6000BDE8F08FB8F10C0F0CBF019B009BDE5D5E
:100D700004F10803DDB2330658BFBBFA8BF22146FB
:100D800004F101044CBF5A4652095046E4B2FFF741
:100D9000B1FFA4EB090276004245F6B207D14D46F9
:100DA0000AF101005FFA80FA2C460137D5E7A54227
:100DB000E1D1F9E738530008C44E0008F7B50446FE
:100DC0000D460127561E16F8013F0BB903B0F0BDC2
:100DD0007A2C82BF1035EDB200243A2D03D90025BC
:100DE000FFF774FF2C46009720460C2329463278E3
:100DF0000834FFF79DFFE4B2E5E7000010B500F00E
:100E0000EDFC404B404C1A6A22F001021A621A6A49
:100E100022F004021A6200F0E7FC00228021204642
:100E200000F0CEFC642000F0ABFA012220468021C5
:100E300000F0C6FC0021AE20FFF7F8FE0021D5200F
:100E4000FFF7F4FE00215020FFF7F0FE0021A8205C
:100E5000FFF7ECFE00213F20FFF7E8FE0021D32042
:100E6000FFF7E4FE00210846FFF7E0FE00214020E6
:100E7000FFF7DCFE00218D20FFF7D8FE00211420B3
:100E8000FFF7D4FE00212020FFF7D0FE0021022032
:100E9000FFF7CCFE0021A120FFF7C8FE0021C020F3
:100EA000FFF7C4FE0021DA20FFF7C0FE0021122068
:100EB000FFF7BCFE00218120FFF7B8FE0021EF20E4
:100EC000FFF7B4FE0021D920FFF7B0FE0021F1208A
:100ED000FFF7ACFE0021DB20FFF7A8FE0021302049
:100EE000FFF7A4FE0021A420FFF7A0FE0021A6200A
:100EF000FFF79CFE0021AF20FFF798FEBDE81040F1
:100F0000FFF7E4BE0010024000180140114B07B586
:100F10009A690F2142F001029A619A696FF001000B
:100F200002F001020092009ADA6942F08052DA611E
:100F3000DB69002203F080530193019B00F044FA27
:100F4000054A536823F0E06343F08063536003B0C5
:100F50005DF804FB0010024000000140102210B5B3
:100F6000044688B00DEB0200002103F053FA236819
:100F7000174A93420BD1174B9A6942F400629A6167
:100F80009B6903F400630193019B08B010BD124AF2
:100F90009342FAD10F4B11489A6904A942F40052C6
:100FA0009A619A6902F400520292029A9A6942F096
:100FB00010029A619B694FF4707203F0100303935F
:100FC000039B0223CDE90423079300F00FFBDCE72A
:100FD000002C01400010024000340140001001408C
:100FE00010B504468EB0102200210AA803F012FAB0
:100FF0002368B3F1804F39D103F50433DA69002453
:1010000042F00102DA61DA69434802F0010201921A
:10101000019A9A690AA942F004029A619A6902F057
:1010200004020292029A9A6942F008029A619B694C
:101030000C9403F008030393039B4FF40043CDE9A2
:101040000A3400F0D3FA082334480AA9CDE90A3457
:101050000C9400F0CBFA324A536823F4407343F007
:10106000E06343F4807353600EB010BD2D4A934289
:101070001AD12D4BDA6942F00202DA61DA6902F024
:1010800002020492049A9A6942F004029A619B69EE
:1010900003F004030593059BC0230A9300231E4815
:1010A000CDE90B330AA91CE0204A93421CD11E4B08
:1010B0001A48DA690AA942F00402DA61DA6902F030
:1010C00004020692069A9A6942F008029A619B69A4
:1010D000C02203F008030793079B0023CDE90A23EE
:1010E0000C9300F083FABFE7114A9342BCD10E4B38
:1010F000DA6942F00802DA61DA6902F0080208925D
:10110000089A9A6942F004029A619B6903F0040309
:101110000993099B0323C0E700080140000C01402C
:1011200000000140000400400010024000080040A0
:10113000000C004010B5044686B01022002102A821
:1011400003F068F92268104B9A421BD103F56443FF
:101150009A690E4842F040029A619B694FF48042BE
:1011600003F040030193019B022302A9CDE902236E
:10117000059300F03BFA064A536843F0E06343F0FE
:10118000C003536006B010BD002C014000180140A0
:101190000000014010B5044686B01022002102A8CC
:1011A00003F038F922681F4B9A4239D103F5E43332
:1011B000DA691D4842F48022DA61DA6902A902F490
:1011C00080220092009A9A69002442F010029A61EB
:1011D0009B694FF4806203F010030193019B02238B
:1011E000CDE902230323059300F000FA4FF40063D6
:1011F0000D4802A9CDE90234049400F0F7F90B4A36
:1012000027205368052123F0300343F0E06343F0C7
:1012100010035360224600F0D7F8272000F006F9AB
:1012200006B010BD00480040001001400000014021
:10123000FEE7FEE7FEE7FEE7FEE7704708B500F0D1
:101240008DF802F027FC012803D0BDE8084002F029
:1012500009BF08BD014801F095BA00BF381A002047
:101260000B4B0246196810B509B90A49196018688C
:1012700009490A4C0244091B8A4206D903F092F834
:101280000C2303604FF0FF3010BD1A60FCE700BF75
:101290009000002010200020000001200004000029
:1012A000704700000C480D490D4A002302E0D45855
:1012B000C4500433C4188C42F9D30A4A0A4C0023A0
:1012C00001E013600432A242FBD3FFF7E9FF03F011
:1012D0006FF8FFF74DFA70470000002074000020FF
:1012E000A05A0008740000200C200020FEE7000037
:1012F00038B50E4B054618784FF47A73B3FBF0F30C
:101300000B4A1068B0FBF3F000F09EF8044658B9A1
:101310000F2D09D8024629464FF0FF3000F054F84F
:101320002046044B1D6038BD0120FCE7040000206E
:101330000000002008000020074A08B513680320B9
:1013400043F01003136000F02DF80F20FFF7D0FFDB
:10135000FFF7DCFD002008BD00200240034A044BDB
:1013600011681B780B441360704700BFB81F002042
:1013700004000020014B1868704700BFB81F002010
:1013800038B50446FFF7F6FF0546631C1EBF044B45
:101390001B78E418FFF7EEFF431BA342FAD338BDD6
:1013A0000400002007490302CA6803F4E06322F442
:1013B000E0621204120C134343F0BF6343F40033A2
:1013C000CB60704700ED00E0164B30B5DC68C4F32D
:1013D0000224C4F10703251D042B28BF0423062D76
:1013E0004FF0FF3598BF002405FA03F388BF033C94
:1013F00021EA0303A34005FA04F422EA04020028C8
:1014000043EA0203ACBF00F16040074A4FEA03130E
:10141000DBB2ABBF00F5614000F00F0080F8003395
:10142000135430BD00ED00E014ED00E0002808DBAF
:101430000123420900F01F0003FA00F0014B43F8BA
:101440002200704700E100E00138B0F1807F0AD24D
:10145000F021064B064A586082F82310002007222C
:1014600098601A6070470120704700BF10E000E0EC
:1014700000ED00E090F82130022B06D004238363B6
:10148000002380F820300120704703681A6822F09A
:101490000E021A601A6822F001021A600123D0E9D4
:1014A0000F218B4053604FF48073038400207047FA
:1014B00008B590F82130022B03D004238363012068
:1014C00008BD036843491A6822F00E021A601A68C0
:1014D00022F001021A60404A934241D98B4238D02F
:1014E00014318B4237D014318B4236D014318B42B9
:1014F00023D014318B4223D014318B4223D093421A
:1015000024D002F56272934223D01432934222D047
:101510001432934221D01432934214BF4FF48033DB
:101520004FF480532D4A53604FF480730384436B10
:10153000002B4DD098470020C2E74FF48053F1E7CD
:101540004FF48033EEE74FF48013EBE74FF08073F6
:10155000E8E70123E6E71023E4E74FF48073E1E7CF
:101560008B422ED01E498B422DD014318B422CD071
:1015700014318B4219D014318B4219D014318B4263
:1015800019D093421AD0174A93421AD01432934278
:1015900019D01432934218D01432934214BF4FF42E
:1015A00080334FF48053104ABDE74FF48053FAE77D
:1015B0004FF48033F7E74FF48013F4E74FF0807374
:1015C000F1E70123EFE71023EDE74FF48073EAE73B
:1015D000184675E7080002408000024000040240FF
:1015E0001C00024008040240000002402DE9F74FB1
:1015F000002216466B4F6C4BDFF8B4C1DFF8B4E144
:101600000C6834FA06F502D103B0BDE8F08F4FF054
:10161000010808FA06F804EA080538EA040440F06C
:1016200082804C68032C07D8013C022C00F28D808C
:10163000DFE804F09EA3A900122C00F0A18074D86A
:10164000112C00F09780FF2D98BF82464FF00F09B4
:1016500088BF00F1040A4FEA8604DAF8008088BFE8
:10166000203C09FA04FB28EA0B0802FA04F448EAD1
:101670000404CAF80040D1F804A01AF0805F52D0E8
:10168000BC6926F0030844F00104BC61BC6908F1A0
:10169000804804F00104019408F5803806F0030B3B
:1016A000019C4FEA8B0BD8F8084009FA0BF924EAA1
:1016B00009093E4CA0426AD004F58064A04268D07B
:1016C00004F58064A04266D004F58064A04264D032
:1016D00004F58064A04262D060450CBF0524062456
:1016E00004FA0BF444EA0904C8F808401C681AF428
:1016F000803F14BF2C43AC431C605C681AF4003F6D
:1017000014BF2C43AC435C609C681AF4801F14BF68
:101710002C43AC439C60DC681AF4001F14BF2543C3
:1017200024EA0505DD6001366AE774450DD018D856
:10173000DFF884904C4508D009F570294C4504D059
:10174000A9F580194C457FF47EAF8A68EAB1012A79
:1017500008BFC0F810804FF0080218BFC0F814800E
:1017600071E7DFF858904C45EFD009F58039E9E78B
:10177000CA6868E7CA68043265E7CA68083262E77F
:10178000CA680C325FE700225DE704225BE70024B1
:10179000A6E70124A4E70224A2E70324A0E7042487
:1017A0009EE700BF00100240000401400008014015
:1017B000001C014000002210000012100000311037
:1017C0000AB1016170470904FBE7C36801EA03023B
:1017D00021EA030141EA0241016170470122014B04
:1017E0001A60704720000E420022014B1A607047B9
:1017F00020000E422DE9F341054638B30368DB07AC
:1018000010D42B689F075ED42B68190700F19580D0
:101810002B685A0700F1BF80E869002840F02C814E
:10182000002029E08F4C636803F00C03042B07D0E1
:10183000636803F00C03082B0AD16368DE0307D545
:1018400023689C03DDD56B68002BDAD1012013E0FF
:101850006B68B3F5803F12D1236843F48033236073
:10186000FFF788FD064623689803CAD4FFF782FD78
:10187000801B6428F7D9032002B0BDE8F0819BB932
:10188000236823F480332360236823F480232360B8
:10189000FFF770FD064623689903B2D5FFF76AFD8E
:1018A000801B6428F7D9E6E7B3F5A02F236803D19E
:1018B00043F480232360CFE723F48033236023683D
:1018C00023F48023CBE7674C636813F00C0F07D039
:1018D000636803F00C03082B10D16368DA030DD49E
:1018E00023689B0702D52B69012BAFD123686A6956
:1018F00023F0F80343EAC203236085E72A695A4BC1
:101900006AB101221A60FFF735FD064623689F077A
:10191000ECD4FFF72FFD801B0228F7D9ABE71A6044
:10192000FFF728FD0646236898077FF56DAFFFF7A0
:1019300021FD801B0228F6D99DE7AA69494E4B4B31
:10194000DAB101221A60FFF715FD0446736A9B079E
:101950000DD54FF4FA52464B1B68B3FBF2F30193DB
:1019600000BF019B5A1E0192002BF9D150E7FFF7EF
:1019700001FD001B0228E9D97DE71A60FFF7FAFC98
:101980000446736A9F077FF543AFFFF7F3FC001B24
:101990000228F6D96FE7334CE369D80024D4012735
:1019A000E36943F08053E361E36903F080530093FC
:1019B000009B304E3368D90518D5EB68012B26D132
:1019C000236A43F001032362FFF7D4FC41F2883815
:1019D0000646236A9B073FD5002F3FF41DAFE369FE
:1019E00023F08053E36117E70027E2E7336843F40D
:1019F00080733360FFF7BEFC80463368DA05DCD4C1
:101A0000FFF7B8FCA0EB08006428F6D933E7ABB9C0
:101A1000236A41F2883823F001032362236A23F00A
:101A200004032362FFF7A6FC0646236A9807D3D572
:101A3000FFF7A0FC801B4045F7D91CE7052B236A64
:101A400003D143F004032362BAE723F001032362C6
:101A5000236A23F00403B6E7FFF78CFC801B4045A4
:101A6000B7D908E700100240000042428004424219
:101A700000000020007000402A4B5A681C4602F00B
:101A80000C02082A3DD00023274E022833602BD1B8
:101A9000FFF770FC0746236899011FD42B6AB3F542
:101AA000803F05D16268A96822F400320A4362606F
:101AB000696A62680B4322F4741213436360012362
:101AC0003360FFF757FC054623689A013FF5A8AE3F
:101AD000FFF750FC401B0228F6D9CCE6FFF74AFC82
:101AE000C01B0228D7D9C6E6FFF744FC0546236889
:101AF0009B017FF595AEFFF73DFC401B0228F6D910
:101B0000B9E601283FF4B8AE5B682A6A03F4803175
:101B100091427FF49BAE6A6A03F4701393423FF4E0
:101B20007FAE93E6001002406000424230B5184B91
:101B300087B002AC03F110052246186859680833D3
:101B400003C2AB421446F7D140F201231149ADF86C
:101B500004304B6803F00C02082A17D1C3F3834208
:101B600006A80244DB0312F8102C0CD54B680A4877
:101B7000C3F34043504306AA134413F8143CB0FB8C
:101B8000F3F007B030BD05485043FAE70248F8E7E4
:101B9000405900080010024000127A0000093D0080
:101BA0002DE9F0410D46044610B90120BDE8F08151
:101BB000444A136803F007038B4228D321688E0739
:101BC00030D4CA0743D43F4A136803F00703AB423B
:101BD00065D822683C4D12F0040F6CD1130706D56E
:101BE0006B68226923F4605343EAC2036B60FFF71A
:101BF0009DFF6B68354AC3F30313D35CD840344B65
:101C00001860344B1868FFF773FB0020CEE71368A9
:101C100023F007030B431360136803F007038B42A1
:101C2000C3D1CBE7284B11F0040F1EBF5A6842F412
:101C3000E0625A60080742BF5A6842F460525A6034
:101C40005A68A06822F0F00202435A60B9E762685D
:101C50001D4E012A33681AD113F4003FA5D07368D2
:101C600041F2883823F0030313437360FFF782FBCC
:101C700007467368626803F00C03B3EB820FA2D0CF
:101C8000FFF778FBC01B4045F3D903208EE7022AFB
:101C900002D113F0007FE1E713F0020FDEE71368D3
:101CA00023F007032B431360136803F00703AB42D1
:101CB0007FF47BAF8DE76B68E16823F4E0630B434F
:101CC0006B608BE70020024000100240285900089A
:101CD0000000002008000020044B054A5B68C3F3A5
:101CE0000223D35C034A1068D840704700100240BA
:101CF0003859000800000020044B054A5B68C3F314
:101D0000C223D35C034A1068D840704700100240D9
:101D10003859000800000020036A70B523F0010361
:101D20000362036A446882690D6822F073022A43E1
:101D30008D6823F002032B430E4DA84202D00E4EB5
:101D4000B04210D1CE6823F008033343A84223F0F9
:101D5000040302D0084DA84205D1D1E9055624F468
:101D6000407435432C43446082614A684263036295
:101D700070BD00BF002C014000340140036A70B503
:101D800023F480730362036A4468C2690D6822F019
:101D900073022A438D6823F4007343EA0523114D2F
:101DA000A84203D005F50065A84214D1CD6823F4FC
:101DB000006343EA05230B4D23F48063A84203D05C
:101DC00005F50065A84206D1D1E9055624F4405432
:101DD000354344EA05144460C2614A68C263036241
:101DE00070BD00BF002C0140036A30B523F480535E
:101DF0000362036A4468C2690D6822F4E64242EA5B
:101E000005228D6823F4005343EA0533084DA842A8
:101E100003D005F50065A84204D14D6924F480443F
:101E200044EA85144460C2614A680264036230BDBA
:101E3000002C01407047034630B590F83E2090F8E2
:101E40003F0093F8425093F84340D2B2C0B2EDB293
:101E5000E4B2C1B9012A45D1012D45D1022283F84E
:101E60003E2083F842201A68116A21F001011162B4
:101E7000116A41F00101002011621A68136843F0F1
:101E80000103136030BD042911D101282AD1012C8E
:101E9000F8D1022283F83F2083F843201A68116AA0
:101EA00021F010011162116A41F01001E3E7012AEB
:101EB00018D1012818D1012DE4D1012CE2D1022240
:101EC00083F83E2083F83F2083F8422083F84320A4
:101ED0001A68116A21F001011162116A41F00101D1
:101EE0001162DCE70120CDE71046CBE7244A036806
:101EF000904212D002F5006290420ED0B0F1804FB5
:101F00000BD0A2F59832904207D002F58062904241
:101F100003D002F5806290421DD14A6823F070031D
:101F20001343174A904212D002F5006290420ED03D
:101F3000B0F1804F0BD0A2F59832904207D002F555
:101F40008062904203D002F58062904203D1CA6859
:101F500023F4407313434A6923F08003134303605F
:101F60008B68C3620B688362054B984203D003F50C
:101F70000063984201D10B690363012343617047F9
:101F8000002C014010B5044630B390F83D3003F00A
:101F9000FF021BB980F83C20FEF7E0FF0223206817
:101FA00084F83D30211DFFF7A1FF0123002084F8B4
:101FB000463084F83E3084F83F3084F8403084F86E
:101FC000413084F8423084F8433084F8443084F857
:101FD000453084F83D3010BD0120FCE710B50446C3
:101FE00030B390F83D3003F0FF021BB980F83C207D
:101FF000FFF720FF0223206884F83D30211DFFF702
:1020000075FF0123002084F8463084F83E3084F8C0
:102010003F3084F8403084F8413084F8423084F80E
:10202000433084F8443084F8453084F83D3010BDA6
:102030000120FCE7F8B50D46044600284DD090F885
:102040003D3003F0FF021BB980F83C20FEF7C8FFCB
:102050000223214684F83D3051F8040B836823F4B1
:10206000804323F007038360FFF740FF20682B685D
:1020700086688269A9681E43AB6922F4407222F027
:10208000030241EA0323134323F47C422B69E969E9
:102090001B0143EA0123E968076A0B43296A22F01E
:1020A000FC0243EA01331343696927F022026F6897
:1020B000866047EA01178361174301230762002006
:1020C00084F8463084F83E3084F83F3084F842305B
:1020D00084F8433084F83D30F8BD0120FCE700006F
:1020E000036A70B523F010030362036A44688269CF
:1020F0000D6822F4E64242EA05228D6823F02003AF
:1021000043EA0513104DA84203D005F50065A84227
:1021100014D1CD6823F0800343EA05130A4D23F060
:102120004003A84203D005F50065A84206D1D1E9D5
:10213000055624F44064354344EA850444608261D2
:102140004A688263036270BD002C014038B590F884
:102150003C300446012B52D00123082A80F83C3041
:102160003CD006D8C2B1042A27D0002084F83C0015
:1021700038BD0C2AF9D10068FFF736FE23680969DB
:10218000DA6942F40062DA61DA6922F48062DA61C3
:10219000DA6942EA012230E00068FFF7BDFD2368FA
:1021A00009699A6942F008029A619A6922F0040268
:1021B0009A619A690A439A61D7E70068FFF790FF2E
:1021C000236809699A6942F400629A619A6922F463
:1021D00080629A619A6942EA0122ECE70068FFF79F
:1021E000CDFD23680969DA6942F00802DA61DA692B
:1021F00022F00402DA61DA690A43DA61B5E7022003
:10220000B6E710B584680A4324F47F4442EA032207
:102210002243826010BD70B590F83C300446012B1B
:102220004FF0020027D0012384F83D00206884F895
:102230003C30836823F47F4323F0770383600B688B
:10224000602B4DD032D8402B62D015D8202B03D034
:1022500009D833F0100208D1826822F070021343CB
:1022600043F0070320E0302BF6D00123002084F850
:102270003D3084F83C0070BD502BF6D14A68CE68E2
:10228000016A056A21F00A0125F0010505628369EA
:102290000A4323F0F00343EA061383610262836872
:1022A00023F0700343F057038360DEE7702B0CD0FC
:1022B000B3F5005FD9D1CB68D1E90121FFF7A1FFC8
:1022C0002268936843F4804308E0CB68D1E9012198
:1022D000FFF797FF2268936843F077039360C4E7A2
:1022E0004D68CE68016A21F0100101628269036ABB
:1022F00022F4704223F0A00343EA051342EA0632B7
:1023000082610362836823F0700343F06703CBE7C5
:102310004A68CE68016A056A21F00A0125F00105C4
:10232000056283690A4323F0F00343EA06138361DD
:102330000262836823F0700343F04703B4E710B5EB
:102340000124036A01F01F018C4023EA04030362A5
:10235000036A8A401A43026210BD000010B50446A9
:1023600029B990F83E30012B1DD0012032E004291C
:1023700007D190F83F30012BF7D1022380F83F308E
:1023800014E0082907D190F84030012BEDD1022349
:1023900080F840300AE090F84130012BE5D102236B
:1023A00080F8413002E0022380F83E3001222068AC
:1023B000FFF7C5FF2368154A93420CD014498B429E
:1023C00009D0B3F1804F10D19A6802F00702062AB3
:1023D00016D1002010BD596C934241F4004159645C
:1023E000F2D00B4A9342EFD0EBE70A4A9342EBD08C
:1023F00002F580629342E7D002F580629342E3D017
:102400001A6842F001021A60E3E700BF002C0140A5
:102410000034014000040040FFF7A0BF30B590F841
:102420003C300246012B4FF002002AD0136882F89C
:102430003D005C680D6824F070042C4398685C6073
:10244000104CA34212D004F50064A3420ED0B3F1A5
:10245000804F0BD0A4F59834A34207D004F58064D4
:10246000A34203D004F58064A34204D1496820F05C
:102470008000014399600123002082F83D3082F8FA
:102480003C0030BD002C014090F83C30012B1FD0A7
:10249000CB688A6823F4407313434A6823F480634B
:1024A00013430A6823F4006313430A6923F4805337
:1024B00013434A6923F400531343CA6923F4804346
:1024C000134302685364002380F83C301846704779
:1024D000022070470368DA6822F49072DA605A6961
:1024E00022F001025A61026B012A02BFDA6822F06F
:1024F0001002DA60202380F83E3000230363704727
:1025000010B504460368C1681A6922F440520A43B0
:102510001A6182680069D9680243606921F4B05188
:1025200021F00C0102430A43DA605A69A16922F4DE
:1025300040720A435A610E4A934215D1FFF7DCFB01
:1025400019234343626820689200B3FBF2F36422CC
:10255000B3FBF2F102FB11331B013233B3FBF2F395
:1025600003EB0113836010BDFFF7B6FBE8E700BF84
:1025700000380140F8B504460E4617461D4622684D
:10258000136836EA030301D1002014E06B1CF7D076
:1025900095B923680320DA6822F4D072DA605A69A8
:1025A00022F001025A61202384F83D3084F83E3045
:1025B000002384F83C30F8BDFEF7DCFEC01B8542EA
:1025C000DDD2E6E710B5044640B390F83D3003F0A5
:1025D000FF021BB980F83C20FEF7DCFD24232268B3
:1025E00084F83D30D368204623F40053D360FFF7CE
:1025F00087FF236800201A6922F490421A615A6901
:1026000022F02A025A61DA6842F40052DA6020238A
:10261000206484F83D3084F83E3010BD0120FCE792
:102620002DE9F843994690F83D300446202B0E469C
:10263000174648D1002944D0002A42D090F83C30B7
:10264000012B40D00123002580F83C302123056474
:1026500080F83D30FEF78EFEA3688046B3F5805FBC
:10266000A784E78403D123690BB935461E460023AE
:1026700084F83C30E38C9BB253B94B464246402130
:102680002046FFF777FF50B9202384F83D3007E05C
:102690004B46424680212046FFF76CFF10B10320D5
:1026A000BDE8F88322684EB935F8023BC3F308034E
:1026B0005360E18C013989B2E184DBE716F8013B14
:1026C000F6E70120ECE70220EAE77047704708B51B
:1026D0000023406AC385C384FFF7F8FF08BD704735
:1026E00013B590F83E30222B49D18168836AB1F549
:1026F000805F026833D10169002933D15268C2F387
:10270000080223F8022BC48D8362013CA4B2C48565
:102710001CBB0368DA6822F02002DA60DA6822F46F
:102720008072DA605A6922F001025A61202280F830
:102730003E20026B012A1FD10463DA6822F01002E6
:10274000DA601A68D20605D501941A6801925B68AE
:102750000193019B818DFFF7C2FF002010E039B982
:10276000016929B95268D2B21A70836A0133CAE783
:10277000526802F07F02F7E7FEF756FAEDE7022013
:1027800002B010BD036837B51A68044612F00F0F87
:10279000D9685D6908D195065FD58D065DD503B012
:1027A000BDE83040FFF79CBF05F0010001F49075D3
:1027B000054352D0D50705D5CB0542BF236C43F066
:1027C00001032364550704D518B1236C43F00203B9
:1027D0002364930704D518B1236C43F004032364E6
:1027E000150707D501F0200303431EBF236C43F0F8
:1027F00008032364236C53B3920604D58B0602D5D9
:102800002046FFF76DFF236820465B69256C03F0C7
:10281000400305F008051D431BD0FFF75BFE23684E
:102820005A69550610D55A69A06B22F040025A61C8
:1028300050B1534B4363FEF73BFE40B1A06B436B7B
:1028400003B0BDE8304018472046FFF73FFF03B014
:1028500030BDFFF73BFF2564F9E7206B012855D118
:10286000D00653D5CD0651D5002101911A680192A9
:102870005A680192019A5A6912F040022AD0A06B5C
:102880000268526892B2002AE1D0A58D9542DED945
:10289000E2858269202A15D0DA6822F48072DA6033
:1028A0005A6922F001025A615A6922F040025A61C3
:1028B000202284F83E202163DA6822F01002DA60D8
:1028C000FEF7D8FDE38DA18DC91A89B22046FFF726
:1028D00006FFBCE7E18D88B2E18D89B20029B6D050
:1028E000A18D091A89B20029B1D0D86820F490705E
:1028F000D860586920F001005861202084F83E001B
:102900002263DA6822F01002DA60DFE7100626D5CB
:102910000D0624D594F83D20212A98D1A168226A79
:10292000B1F5805F16D12169A1B932F8021BC1F35C
:10293000080159602262E28C013A92B2E284002AD4
:1029400085D1DA6822F08002DA60DA6842F040026B
:10295000DA607CE7511C216212785A60EBE750067E
:102960007FF575AF4A067FF572AFDA68204622F030
:102970004002DA60202384F83D30FFF7A6FE66E7C8
:10298000CF260008C285828581620346222200206C
:10299000186483F83C0083F83E201B68DA6842F430
:1029A0008072DA605A6942F001025A61DA6842F0D4
:1029B0002002DA60704770B490F83E60202E10D18B
:1029C00061B15AB190F83C40012C0AD0012480F842
:1029D0003C400024046370BCFFF7D4BF012070BCEE
:1029E00070470220FBE70000EFF3058313B16FF09F
:1029F00005007047EFF31083002BF8D1074B1868E0
:102A0000022806D1EFF31183002BF0D14FF0FF30F5
:102A100070470028FAD101221A607047F0020020A6
:102A200010B5EFF3058313B16FF0050010BDEFF3A0
:102A30001084002CF8D1094B1A68022A06D1EFF352
:102A40001183002BF0D14FF0FF30EFE7012AFAD1CC
:102A500002221A6000F0A0FD2046E7E7F002002005
:102A6000F0B51446002287B00B460592EFF30582BD
:102A700052BBEFF310823ABB264A1268022A02D1F7
:102A8000EFF3118202BBF8B100228DF81320002C65
:102A900030D0216809B90DF11301A569002D08BFD7
:102AA00018256A1E372AAC462AD86268D20727D46E
:102AB000666966B1B208D4E9027E57B1BEF15B0F18
:102AC00002D9246904B1EEB9059807B0F0BD80229F
:102AD000F1E7BEF1000FF7D12469002CF4D105AC69
:102AE000CDE900C492B200F02AFD01281CBF0023EA
:102AF0000593E9E74FF0180C80220DF11301EEE782
:102B00000020E2E7CDE90147009500F0E1FC0590E7
:102B1000DAE700BFF002002008B5EFF3058313B138
:102B20006FF0050008BDEFF31083002BF8D1074BC1
:102B30001B68022B03D1EFF31183002BF0D1002887
:102B4000F0D000F07FFE0020ECE700BFF002002094
:102B5000034B0360034B0B6080231360704700BF7F
:102B60009402002094000020034B0360034B0B6091
:102B70004FF4807313607047F4060020F4020020C5
:102B80004FF0FF3200F10803C0E902234360036104
:102B900000230360704700230361704743689A680D
:102BA0004B608A609A6851609960036808610133DC
:102BB0000360704730B50C68631C0AD103695A681A
:102BC0004A6091608B60596003680861013303605B
:102BD00030BD00F10802134652681568A542FAD9C3
:102BE000EDE70369D0E901128A60516059688142BA
:102BF00008BF5A60002202611A68013A1A60186818
:102C0000704710B5044601F0D5F9A46B01F0F4F952
:102C1000B4FA84F0400910BDF8B51546026C0446BC
:102C2000866B52B9076847BB406800F043FF054612
:102C3000676001362846A663F8BD65B9806801F073
:102C4000DBFBA368226C13446268A3609342F0D359
:102C50002368A360EDE7C06801F0CEFB226CE36857
:102C600051429B1A2268E36093423EBF63685B183F
:102C7000E360022D01D116B1013E0025D9E73546AA
:102C8000D7E703461A6C084610B462B1DC6859688D
:102C900014448C4228BF1968DC6028BFD960D96809
:102CA00010BC01F0A9BB10BC704770B5044601F020
:102CB00081F994F8455004F124066DB2002D14DC1E
:102CC000FF2384F8453001F097F901F073F994F887
:102CD000445004F110066DB2002D12DCFF2384F87D
:102CE0004430BDE8704001F087B9636A002BE7D03B
:102CF000304600F041FE08B100F0C6FE013D6DB265
:102D0000DCE72369002BE9D0304600F035FE08B13E
:102D100000F0BAFE013D6DB2DEE7000038B50D46A9
:102D2000044640B94FF0500383F31188BFF36F8F0F
:102D3000BFF34F8FFEE701F03DF9D4E90F314B436C
:102D40002268D0185B1A13446060E3600020FF2300
:102D5000A063A26084F8443084F8453095B92369B3
:102D600063B104F1100000F007FE38B14FF080525B
:102D7000094B1A60BFF34F8FBFF36F8F01F03CF91F
:102D8000012038BD04F11000FFF7FAFE04F1240021
:102D9000FFF7F6FEF2E700BF04ED00E037B50D46A1
:102DA0001C4640B94FF0500383F31188BFF36F8F77
:102DB000BFF34F8FFEE743B94FF0500383F3118801
:102DC000BFF36F8FBFF34F8FFEE74AB191B94FF05A
:102DD000500383F31188BFF36F8FBFF34F8FFEE76C
:102DE00041B14FF0500383F31188BFF36F8FBFF3EE
:102DF0004F8FFEE750230193019B502B08D04FF0DB
:102E0000500383F31188BFF36F8FBFF34F8FFEE73B
:102E10000121002D08BF2246C4E90F0584F84610A1
:102E200020462260FFF77AFF20469DF8183084F88C
:102E30004C3003B030BD00002DE9FF4788461F46E7
:102E40000446019240B94FF0500383F31188BFF359
:102E50006F8FBFF34F8FFEE751B9036C43B14FF053
:102E6000500383F31188BFF36F8FBFF34F8FFEE7DB
:102E7000022F0BD1E36B012B08D04FF0500383F3EB
:102E80001188BFF36F8FBFF34F8FFEE700F002FE94
:102E9000064650B9019B4BB14FF0500383F31188A4
:102EA000BFF36F8FBFF34F8FFEE700264FF000098F
:102EB000DFF8E4A037E0019D1DB901F09DF8002086
:102EC00050E016B902A800F097FD01F095F800F067
:102ED000A7FB01F06FF894F84430FF2B08BF84F88B
:102EE000449094F84530FF2B08BF84F8459001F0DA
:102EF00083F801A902A800F08BFD002846D101F05B
:102F000059F8A26BE36B9A422FD101F075F8019941
:102F100004F1100000F0F6FC2046FFF7C6FE00F0BA
:102F20001DFC50B3012601F045F8A26BE36B9A42F9
:102F300001D3022FBFD13A4641462046FFF76CFE2F
:102F4000636A1BB104F1240000F016FD38B14FF0A4
:102F50008052114B1A60BFF34F8FBFF36F8F01F098
:102F60004BF8012004B0BDE8F08701F045F8204699
:102F7000FFF79BFE00F0F2FBD4E74FF08053CAF856
:102F80000030BFF34F8FBFF36F8FCBE72046FFF7C3
:102F90008CFE00F0E3FB92E704ED00E02DE9F8433E
:102FA000894690461F46044640B94FF0500383F3CC
:102FB0001188BFF36F8FBFF34F8FFEE751B9036CDA
:102FC00043B14FF0500383F31188BFF36F8FBFF30A
:102FD0004F8FFEE7022F0BD1E36B012B08D04FF090
:102FE000500383F31188BFF36F8FBFF34F8FFEE75A
:102FF00001F0C0F8EFF311864FF0500383F311880E
:10300000BFF36F8FBFF34F8FA26BE36B9A4201D375
:10301000022F22D194F845503A46494620466DB2D7
:10302000FFF7FAFD6B1C13D1636A0BB901200BE0AB
:1030300004F1240000F0A0FC0028F7D0B8F1000F44
:10304000F4D00120C8F8000086F31188BDE8F883A9
:1030500001356DB284F84550E8E70020F4E7000040
:103060002DE9F04385B00F460446019240B94FF078
:10307000500383F31188BFF36F8FBFF34F8FFEE7C9
:1030800051B9036C43B14FF0500383F31188BFF380
:103090006F8FBFF34F8FFEE700F0FCFC064650B980
:1030A000019B4BB14FF0500383F31188BFF36F8F37
:1030B000BFF34F8FFEE700264FF00008DFF8DC90EB
:1030C0003BE0019D1DB900F097FF002052E016B9CA
:1030D00002A800F091FC00F08FFF00F0A1FA00F0D0
:1030E00069FF94F84430FF2B08BF84F8448094F8BB
:1030F0004530FF2B08BF84F8458000F07DFF01A913
:1031000002A800F085FC00283DD12046FFF779FD9C
:1031100098B3019904F1240000F0F4FB2046FFF776
:10312000C4FD00F01BFB38B94FF08053C9F80030E4
:10313000BFF34F8FBFF36F8F012600F03BFFA56BEE
:10314000002DBED039462046013DFFF79AFDA5630C
:10315000236963B104F1100000F00EFC38B14FF0A8
:1031600080520E4B1A60BFF34F8FBFF36F8F00F08A
:1031700043FF012005B0BDE8F0832046FFF795FD31
:1031800000F0ECFAD8E72046FFF78FFD00F0E6FAF2
:103190002046FFF736FD0028CED096E704ED00E08C
:1031A000002330B5064A52F8335002EBC3041DB970
:1031B00042F83310606030BD0133082BF3D1FAE7D9
:1031C000BC1F002070B504460D46164600F0F2FE06
:1031D00094F84430FF2B04BF002384F8443094F863
:1031E0004530FF2B04BF002384F8453000F004FF76
:1031F000A36B2BB93246294604F1240000F09CFB56
:103200002046BDE87040FFF750BD00002DE9F041B9
:10321000044600F0CFFE2F4B2F4D1A682F4F01327E
:103220001A602E68002E49D12C601B68012B1FD11B
:10323000B84640460136FFF7A3FC382E08F11408C3
:10324000F7D1DFF8C480264E4046FFF799FC3046A0
:10325000FFF796FC2348FFF793FC2348FFF790FC09
:103260002248FFF78DFC224BC3F80080214B1E60E3
:103270001420214A136801331360204A63641168E3
:10328000E36A8B4200FB037004F1040188BF136002
:10329000FFF784FC00F0B0FE194B1B6863B12B688C
:1032A000DA6AE36A9A4207D24FF08052154B1A60ED
:1032B000BFF34F8FBFF36F8FBDE8F081104B1B68DA
:1032C000002BD5D12B68DA6AE36A9A4298BF2C604A
:1032D000CEE700BFBC0B0020500700205C07002099
:1032E000E80B0020040C0020300C00201C0C0020F7
:1032F0005407002058070020CC0B0020D00B0020E2
:10330000180C002004ED00E0D40B0020064A1368DE
:103310001968064B19B94FF0FF321A6070471268EE
:10332000D268D2685268F8E754070020FC0B0020EE
:103330002DE9F0470D46DDE909844FEA82094A4646
:103340000646A521206B1F4601F064F8226BA9F107
:10335000040991446B1E29F0070904F134020F356A
:1033600013F8011F02F8011B197809B1AB42F7D11C
:10337000089D4FF0000A372D28BF3725201DC4E9CE
:10338000135AE56284F843A0FFF705FCC5F1380540
:1033900004F11800FFF7FFFBC4F854A03A46314689
:1033A00048462461A561646284F858A000F0DEFDFF
:1033B0002060B8F1000F01D0C8F80040BDE8F087E8
:1033C00010B590F8593004463BB9006B00F0AEFFE1
:1033D0002046BDE8104000F0A9BF012BF9D0022B18
:1033E00008D04FF0500383F31188BFF36F8FBFF302
:1033F0004F8FFEE710BD000080B5DFF85C80124FF4
:10340000124C134D236863B9124B1B68012BF8D97A
:103410004FF08053C8F80030BFF34F8FBFF36F8F6A
:10342000EEE700F0C7FDFB68DE68301DFFF7D9FB53
:103430002B68013B2B602368013B236000F0DCFD1F
:103440003046FFF7BDFFDDE7300C0020C00B002049
:10345000BC0B00205C07002004ED00E0F8B5054639
:10346000154B164E1C6830680F460430FFF7B9FB49
:103470006B1C334607D137B1316811480431BDE8C0
:10348000F840FFF78BBB1A686419546007D30D4AE4
:1034900010681968BDE8F8400431FFF78BBB0A4A91
:1034A000106819680431FFF785FB084B1A68A242BF
:1034B00088BF1C60F8BD00BF440C002050070020EE
:1034C0001C0C00205807002054070020FC0B002093
:1034D00070B586B0DDE90B5445B94FF0500383F366
:1034E0001188BFF36F8FBFF34F8FFEE744B94FF0E2
:1034F000500383F31188BFF36F8FBFF34F8FFEE745
:103500005C260496049E5C2E08D04FF0500383F393
:103510001188BFF36F8FBFF34F8FFEE7256302253E
:1035200084F8595005AD01950A9D02940095FFF766
:10353000FFFE2046FFF76AFE059806B070BD2DE934
:10354000F043074685B0900088461646994600F03D
:1035500063FE0546E8B15C2000F05EFE0446A8B1BB
:10356000002380F859300D9B056301930C9B324674
:1035700041460290009338464B46FFF7D9FE20465D
:10358000FFF744FE012005B0BDE8F083284600F0B7
:10359000CDFE4FF0FF30F6E710B5002488B007AA43
:1035A00006A905A8CDE90544FFF7D2FA059B079ABD
:1035B0000293069B1549CDE9004315482346FFF7C2
:1035C00087FFA8B100F00AFB012813D14FF0500388
:1035D00083F31188BFF36F8FBFF34F8F4FF0FF322C
:1035E0000C4B1A600C4B18600C4B1C6000F06AFD11
:1035F00008B010BD0130FBD14FF0500383F31188A8
:10360000BFF36F8FBFF34F8FFEE700BF5159000824
:10361000F9330008FC0B0020180C0020440C00209B
:10362000024A136801331360704700BFC80B0020C3
:10363000014B1868704700BF440C00202DE9F84F7B
:103640003B4B1B68002B6DD13A4B1D6801351D604B
:10365000BDB9394B1A68126842B14FF0500383F379
:103660001188BFF36F8FBFF34F8FFEE7334A19689E
:10367000106818601160324A136801331360FFF755
:1036800045FE304E002433682F4FAB4210D92F4BEC
:103690001B68DA6A14235343FB58022B28BF01240A
:1036A0002B4B1B68002B0CBF20460120BDE8F88F78
:1036B000DFF88490DFF8A0A0D9F800301B681BB9B0
:1036C0004FF0FF333360E2E7D9F80030DB68D3F81E
:1036D0000CB0DBF80420954201D23260D7E70BF141
:1036E00004084046FFF77DFADBF828201AB10BF1F9
:1036F0001800FFF776FA1423DBF82C00DAF8002024
:103700004146904288BFCAF8000003FB0070FFF7F3
:1037100045FA0E4BDBF82C201968CB6A9A4228BF79
:103720000124C9E70B4A0024136801331360B7E78B
:10373000C80B0020440C002054070020580700202C
:10374000000C0020FC0B00205C070020500700202C
:10375000480C0020C40B0020D00B00202DE9F041C4
:103760002F4C236843B94FF0500383F31188BFF304
:103770006F8FBFF34F8FFEE700F01CFC2368013B07
:10378000236024682CB1002400F036FC2046BDE8FC
:10379000F081244B1B68002BF5D0234D234EDFF81E
:1037A000A0801DE0EB68DC68271D04F11800FFF71E
:1037B00018FA3846FFF715FA1420E36A326800FB5E
:1037C00003809342394688BF3360FFF7E7F9184B0F
:1037D000E26A1B68DB6A9A4202D30122154B1A6027
:1037E0002B68002BDED10CB1FFF790FD124D2C6839
:1037F00044B101270F4EFFF721FF00B13760013CB4
:10380000F9D12C600B4B1B68002BBCD04FF08052C1
:103810000A4B1A60BFF34F8FBFF36F8F0124B3E7DA
:10382000C80B0020BC0B0020040C0020D00B002093
:1038300050070020480C0020C40B002004ED00E0DD
:103840005C07002008B540B94FF080520D4B1A605C
:10385000BFF34F8FBFF36F8F08BD0B4B196841B19A
:103860004FF0500383F31188BFF36F8FBFF34F8F77
:10387000FEE7FFF7D5FEFFF7F1FDFFF76FFF00282A
:10388000E2D0E9E704ED00E0C80B0020184BF0B5EA
:103890001A68184B12B101221A60F0BD1A60164A5C
:1038A00014271646154D2B6807FB03F15458501882
:1038B00094B14468083164680A44944208BF62685D
:1038C000446008BF4260142202FB03625268D16860
:1038D0000B4A11602B60E0E743B94FF0500383F3CC
:1038E0001188BFF36F8FBFF34F8FFEE7013BDBE71C
:1038F000C80B0020480C00205C070020D00B0020E3
:103900005007002010B50C4640B94FF0500383F328
:103910001188BFF36F8FBFF34F8FFEE7054B196818
:103920001831FFF747F92046BDE810400121FFF7A5
:1039300095BD00BF5007002038B50D46144640B96C
:103940004FF0500383F31188BFF36F8FBFF34F8F96
:10395000FEE7084B19681831FFF720F9002C2146C3
:1039600008BF2846BDE8384018BF4FF0FF30FFF7CA
:1039700075BD00BF5007002038B5C368DC6844B986
:103980004FF0500383F31188BFF36F8FBFF34F8F56
:10399000FEE704F118052846FFF723F9104B1B68D2
:1039A000DBB9251D2846FFF71CF90E4A14201168C3
:1039B000E36A8B42294688BF13600B4A00FB032051
:1039C000FFF7ECF8094BE26A1B68DB6A9A4285BF95
:1039D0000120074B0020186038BD29460548EFE755
:1039E000C80B0020D00B00205C07002050070020EF
:1039F000480C0020040C0020034B1B680360034BA1
:103A00001B684360704700BF000C0020440C00207E
:103A100070B50C46054640B94FF0500383F311884A
:103A2000BFF36F8FBFF34F8FFEE741B94FF05003E5
:103A300083F31188BFF36F8FBFF34F8FFEE700F062
:103A4000B9FA0F4B196823685A1C10D00D482E681C
:103A500000686A68864201D08A420FD9881A834278
:103A60000AD95B1A134428462360FFF7C5FF0024D8
:103A700000F0C2FA204670BD002323600124F7E75E
:103A8000440C0020000C00200122014B1A607047FA
:103A9000480C0020054B1B6833B1054B1B68002BFD
:103AA0000CBF02200020704701207047180C002036
:103AB000C80B002038B508B9002038BD1B4B1C6866
:103AC000844208D04FF0500383F31188BFF36F8F07
:103AD000BFF34F8FFEE7236D43B94FF0500383F3DD
:103AE0001188BFF36F8FBFF34F8FFEE7E16AE26C7F
:103AF000013B91422365DFD0002BDDD1251D2846F7
:103B0000FFF76FF81420E36CC3F13802A261084A92
:103B1000E36211688B4288BF1360064A294600FBA6
:103B20000320FFF73BF80120C7E700BF5007002044
:103B3000D00B00205C070020F7B5114C00F03AFADA
:103B40002568BDB90F4F104E3846FFF719F83046BB
:103B5000FFF716F80D4B10211F600D4B0A201E6059
:103B60000C4A0D4B0095FFF719F9206010B10B4975
:103B7000FFF716FB03B0BDE8F04000F03DBA00BF10
:103B8000700D0020F40C0020080D00204C0C0020CB
:103B9000500C0020540C0020200D00205659000825
:103BA000914208B5416000610AD8D21A83699A42ED
:103BB0000DD2084B011D1868FEF7FCFF002008BD60
:103BC0009A4201D2994202D2034B011DF3E7012030
:103BD000F5E700BF500C00204C0C002010B588B059
:103BE000FFF7AAFF124B1B68B3B1002407AA06A96E
:103BF00005A8CDE90544FEF7B7FF059B079A029398
:103C0000069B0C49019302230B4800932346FFF7C0
:103C10005FFC0A4B186040B94FF0500383F31188E2
:103C2000BFF36F8FBFF34F8FFEE7012008B010BDC9
:103C3000700D00205B590008153D0008740D002030
:103C40007FB5164604461A4640B94FF0500383F339
:103C50001188BFF36F8FBFF34F8FFEE70D4D2868BC
:103C600080B10529CDE9001602940DDCFFF712FFA3
:103C70000023022818BF1A46694608BF089A286818
:103C8000FFF7DAF804B070BD00236946FFF786F944
:103C9000F8E700BF700D00202DE9F3414FF0000858
:103CA0001A4D2B681A6832B9194A116813602960D5
:103CB00002B0BDE8F081DB68DC681E68271D38466D
:103CC000FEF78FFF636A20469847E369012BE8D12E
:103CD000A36933449E4206D2394628686360246152
:103CE000FEF768FFDDE70023324619462046CDF88F
:103CF0000080FFF7A5FF0028D3D14FF0500383F3D6
:103D00001188BFF36F8FBFF34F8FFEE74C0C00207D
:103D1000500C00202DE9F04F774EDFF8EC91B046C3
:103D200087B03368D3F800B0BBF1000F48D0DB6830
:103D3000D3F800A0FFF774FCFFF77AFC6F4D044640
:103D40002B682F4698423DD2FFF7A6FF2C60FFF765
:103D500005FD4FF0000BDFF8ACA10022DAF80000FF
:103D600002A9FFF77DF90028DBD0029B0498002B05
:103D700072DB049C6369002B76D1FFF759FC3B682A
:103D80000546984201D2FFF787FF029B3D60092B51
:103D9000E3D801A252F823F0713E0008713E0008FA
:103DA000713E00085B3D0008BF3E0008E53E00088C
:103DB000713E0008713E00085B3D0008BF3E0008F0
:103DC000DA46B7E72860BBF1000F2AD0824541D818
:103DD000FFF7C4FCD8F80030DB68DD68281DFEF76B
:103DE00000FFEB69012B18D1A969534622462846EA
:103DF0005144FFF7D5FE80B10023524619462846AC
:103E00000093FFF71DFF40B94FF0500383F3118873
:103E1000BFF36F8FBFF34F8FFEE728466B6A98475B
:103E200097E7374B1B681A68B2FA82F25209354B92
:103E3000AAEB04011868FFF7C5F9FFF78FFC00280B
:103E400087D14FF08053C9F80030BFF34F8FBFF3D5
:103E50006F8F7EE70022EAE7039B05999847029B54
:103E6000002BFFF67AAF84E7201DFEF7BAFE84E749
:103E7000A169039B2A4620461944FFF791FE0028BA
:103E80003FF46BAF636A20469847E369012B7FF4E8
:103E900064AF0023A269039920460A44CDF800B01C
:103EA0001946FFF7CDFE00287FF457AF4FF05003BF
:103EB00083F31188BFF36F8FBFF34F8FFEE7039932
:103EC000A16141B94FF0500383F31188BFF36F8FA5
:103ED000BFF34F8FFEE72B462A4620462944FFF7C3
:103EE0005FFE3AE794F82C30002B7FF436AF204683
:103EF00000F01CFA31E700BF4C0C00201C0D002024
:103F0000500C0020700D002004ED00E00648006811
:103F1000006880F3088862B661B6BFF34F8FBFF3C5
:103F20006F8F00DF00BF000008ED00E0002382B0CB
:103F300001930D4B1B68013308D04FF0500383F3FE
:103F40001188BFF36F8FBFF34F8FFEE74FF0500321
:103F500083F31188BFF36F8FBFF34F8F019B002B4B
:103F6000FCD002B0704700BF0C0000204FF08073FF
:103F700040F8043C054B21F0010140F8081C40F8D2
:103F80000C3C40F8202C4038704700BF2D3F000803
:103F9000074B19680868B0E8F00F80F30988BFF391
:103FA0006F8F4FF0000080F311884EF00D0E7047B8
:103FB000500700204FF0500383F31188BFF36F8F39
:103FC000BFF34F8F0A4A13680133012B13600DD1E1
:103FD000084B1B6813F0FF0F08D04FF0500383F31A
:103FE0001188BFF36F8FBFF34F8FFEE7704700BF9D
:103FF0000C00002004ED00E0084A136843B94FF0BC
:10400000500383F31188BFF36F8FBFF34F8FFEE729
:10401000013B13600BB983F3118870470C0000203B
:10402000EFF30980BFF36F8F0D4B1A6820E9F00F93
:1040300010602DE908404FF0500080F31188FFF721
:1040400025FC4FF0000080F31188BDE80840196896
:104050000868B0E8F00F80F30988BFF36F8F7047EE
:104060005007002008B54FF0500383F31188BFF3C9
:104070006F8FBFF34F8FFFF7E1FA18B14FF0805207
:10408000024B1A60002383F3118808BD04ED00E0A1
:104090000023084A084913600B604FF47A71074BFC
:1040A0001B68B3FBF1F30649013B0B600723136068
:1040B000704700BF10E000E018E000E000000020C2
:1040C00014E000E013B5264B00211A78D2B2019219
:1040D000FF221A701B78234ADBB28DF803309DF85B
:1040E000033003F05003137007231F4A13609DF839
:1040F00003005C1E00060CD411B1032B136011D019
:104100004FF0500383F31188BFF36F8FBFF34F8FCE
:10411000FEE79DF8033001215B00DBB28DF8033030
:104120002346E4E74FF4407300241360019B0C4ADC
:10413000DBB213700D4B1A6842F470021A601A68F1
:1041400042F070421A60FFF7A3FF094B1C60FFF7B3
:10415000DDFEFFF79BFBFFF7E9FE204602B010BD36
:1041600000E400E0780D00207C0D002020ED00E050
:104170000C000020EFF305830F2B0ED9104A9B5C37
:10418000104A12789A4208D94FF0500383F31188ED
:10419000BFF36F8FBFF34F8FFEE70B4B0B4A1B68CC
:1041A000126803F4E063934208D94FF0500383F39D
:1041B0001188BFF36F8FBFF34F8FFEE7704700BFCB
:1041C000F0E300E0780D00200CED00E07C0D002015
:1041D00010B50F4B1A461B688342FBD35468111964
:1041E000884201BF416810460919516044680119AD
:1041F0008B4207D1074909688B421FBF59681B686A
:10420000091941609042036018BF106010BD00BFE3
:1042100090190020800D00202DE9F0410446FFF7A1
:10422000FFF93B4B3B481A689C46D2B900213A4AF9
:104230003A4B55071CBF073222F007021A6059603B
:10424000374B23F00703C3E90011991AC2E9003183
:10425000CCF80030334B1960334B19604FF00043FA
:104260000360076827424ED1002C3FD004F10803B9
:1042700061071CBF23F007030833002B43D02A4AF1
:10428000166890469E423ED3244A15686968994252
:1042900001D22868A8B9DCF80000A84233D0286809
:1042A000C91A10291468106012D9E81842070BD0F7
:1042B0004FF0500383F31188BFF36F8FBFF34F8F1D
:1042C000FEE72A460546E1E741606B60FFF780FFA5
:1042D0006B681449F61A1F4300230868C8F8006089
:1042E000864238BF0E6008346F602B60FFF736FAE5
:1042F00063070AD04FF0500383F31188BFF36F8F29
:10430000BFF34F8FFEE70024F0E72046BDE8F081C1
:10431000800D002084190020840D002090190020B9
:104320007C1900208C1900208819002010B5044643
:1043300070B3184A50F8043C1268134208D14FF089
:10434000500383F31188BFF36F8FBFF34F8FFEE7E6
:1043500050F8081C41B14FF0500383F31188BFF3AC
:104360006F8FBFF34F8FFEE723EA020340F8043C50
:10437000FFF756F9084A54F8043C1168A4F1080004
:104380000B441360FFF724FFBDE81040FFF7E6B9C8
:1043900010BD00BF84190020881900200A220021C6
:1043A00000F0EEB8014B1868704700BF1000002005
:1043B00070B500260C4D0D4C641BA410A64209D10B
:1043C00000F0F4FC00260A4D0A4C641BA410A6421F
:1043D00005D170BD55F8043B98470136EEE755F816
:1043E000043B98470136F2E7985A0008985A0008AB
:1043F000985A00089C5A00080A44914200F1FF3381
:1044000000D1704710B511F8014B914203F8014FEC
:10441000F9D110BD03460244934200D1704703F81E
:10442000011BF9E70EB46FF0004100B59CB01DAB65
:1044300002900690079104910848094953F8042B0B
:104440000591006802A9019300F000F90022029B87
:104450001A701CB05DF804EB03B070471000002028
:104460000802FFFF034611F8012B03F8012B002A75
:10447000F9D17047012B2DE9F047864601D0242B56
:1044800006D9FFF78FFF162303600020BDE8F087F1
:104490008C463A4E60461CF8014BA55D15F00805A8
:1044A000F8D12D2C33D14FF001089CF8004000F1D9
:1044B000020C002B5DD0102B0CD1302C0AD19CF8B3
:1044C000000000F0DF0058284ED110239CF8014076
:1044D0000CF1020C002508F10047013FB7FBF3F98E
:1044E000284603FB197AA4F13006092E18D8344661
:1044F000A34224DD002D1FDB81451DD301D1A24540
:104500001ADB012500FB03401CF8014BEBE72B2CC9
:1045100008BF9CF80040A84608BF00F1020CC8E79D
:10452000A4F14106192E01D8373CE1E7A4F1610658
:10453000192E04D8573CDBE74FF0FF35E4E7002D98
:1045400008DA22233846CEF80030002A9ED00CF13B
:10455000FF3107E0B8F1000F00D04042002A95D0AB
:10456000002DF4D1116091E73024002BB2D1082343
:10457000B0E7302CA3D00A23ACE700BF6459000891
:1045800013460A46014602480068FFF773BF00BFA2
:10459000100000202DE9F0478E6882469E420C46AE
:1045A00090461F4638D88A8912F4906F32D0256819
:1045B00009690133A5EB010965694B4405EB450524
:1045C00005EBD5756D109D4238BF1D46530531D59D
:1045D000294600F045FB064650B90C234FF0FF304A
:1045E000CAF80030A38943F04003A381BDE8F087F7
:1045F0004A462169FFF700FFA38923F4906343F043
:104600008003A38126614E4426603E466561A5EB8A
:104610000905A560BE4200D93E46324641462068A3
:1046200000F0B8FAA36822689B1B32440020A36004
:104630002260DBE72A4600F06DFB06460028E1D148
:104640005046216900F0C0FAC7E700002DE9F04F9D
:1046500098468B8907461B060D4614469DB00ED51D
:104660000B6963B9402100F0FBFA2860286120B98A
:104670000C233B604FF0FF30D1E040236B610023FF
:10468000099320238DF8293030234FF00109CDF80C
:104690000C80DFF8A4818DF82A3023469A4613F85F
:1046A000012B0AB1252AF9D1BAEB040B0BD05B46DA
:1046B000224629463846FFF76DFF013000F0AA80F8
:1046C000099A5A4409929AF80030002B00F0A2800F
:1046D00000234FF0FF32CDE905230AF1010A0493CC
:1046E00007938DF853301A935446052214F8011B92
:1046F000514800F041FA049AD8B9D00644BF2023AB
:104700008DF85330110744BF2B238DF853309AF89E
:1047100000302A2B15D0544600204FF00A0C079A7F
:10472000214611F8013B303B092B4ED9B0B107921D
:1047300014E0A0EB080309FA03F31343A246049321
:10474000D2E7039B191D1B680391002BBBBF5B4283
:1047500042F0020207930793B8BF049223782E2BEE
:104760000CD163782A2B35D1039B02341A1D1B68A8
:104770000392002BB8BF4FF0FF330593DFF8C8A0BA
:1047800003225046217800F0F7F940B14023A0EB16
:104790000A0003FA00F0049B01340343049314F865
:1047A000011B062225488DF8281000F0E5F90028A5
:1047B00038D0234B1BBB039B073323F0070308337D
:1047C0000393099B3344099367E70C4601200CFBD4
:1047D0000232A5E700234FF00A0C19460134059375
:1047E000204610F8012B303A092A03D9002BC5D0F6
:1047F0000591C3E7044601230CFB0121F0E703AB5D
:1048000000932A4638460F4B04A9AFF30080421CA0
:104810000646D6D1AB895B063FF52CAF09981DB093
:10482000BDE8F08F03AB00932A463846054B04A938
:1048300000F07CF8EBE700BF645A00086E5A0008ED
:1048400000000000954500086A5A00082DE9F0476D
:10485000164699468A680B6907469342B8BF1346C5
:10486000336091F843200C46DDF820800AB1013313
:1048700033602368990642BF33680233336025688A
:1048800015F0060506D104F1190AE36832689B1A8F
:10489000AB4228DC94F84320131E226818BF012382
:1048A00092062DD44946384604F14302C0470130F0
:1048B00020D02368E56803F00603042B18BF002509
:1048C00032684FF00006A36808BFAD1A226908BF1E
:1048D00025EAE5759342C4BF9B1AED181A34B54218
:1048E0001AD1002008E00123524649463846C04705
:1048F000013003D14FF0FF30BDE8F0870135C4E748
:104900003020E11881F843005A1C94F845102244E5
:10491000023382F84310C5E7012322464946384650
:10492000C0470130E6D00136D9E700002DE9FF4746
:104930000C46277E9146782F80469A460C9904F1C2
:10494000430207D8622F0AD8002F00F0D980582FD1
:1049500000F0A48004F1420684F842703AE0A7F126
:104960006303152BF6D801A050F823F0C5490008C1
:10497000D94900085549000855490008554900081B
:1049800055490008D949000855490008554900080B
:104990005549000855490008E74A0008094A000837
:1049A000C94A00085549000855490008094B000844
:1049B00055490008094A00085549000855490008AA
:1049C000D14A00080B6804F142061A1D1B680A60F0
:1049D00084F842300123A4E0256808682E0600F11F
:1049E00004030AD505680B60002D03DA2D236D4200
:1049F00084F843300A235E4819E015F0400F05683B
:104A00000B6018BF2DB2EFE70B682568181D086012
:104A1000280601D51D6802E06906FBD51D886F2FA9
:104A20000CBF08230A235248002184F8431066680B
:104A3000002EA8BF2168A660A4BF21F00401216058
:104A40000DB9002E4DD01646B5FBF3F103FB1157FF
:104A5000C75D06F8017D2F46BB420D46F4D9082BF1
:104A60000BD12368DF0708D5236961689942DEBF4F
:104A7000302306F8013C06F1FF36921B22614B46BB
:104A800021464046CDF800A003AAFFF7DFFE013023
:104A90004CD14FF0FF3004B0BDE8F087344884F8C3
:104AA00045700E68236856F8045B1F060E6014D527
:104AB000D90744BF43F0200323601DB9236823F0C6
:104AC000200323601023AFE7236843F02003236013
:104AD0007823284884F84530E3E75E0648BFADB246
:104AE000E6E71646BBE70B6826681D1D60690D608A
:104AF00035061B6801D5186002E07106FBD51880E9
:104B0000002316462361BAE70B681A1D0A601E6867
:104B100000213046626800F02FF808B1801B606009
:104B200063682361002384F84330A8E7324649468E
:104B300040462369D0470130ABD023689B0713D48C
:104B4000E068039B9842B8BF1846A4E701233246A9
:104B500049464046D04701309BD00135E368039970
:104B60005B1AAB42F2DCEBE7002504F11906F5E72E
:104B7000755A0008865A0008034610B5C9B20244A7
:104B80009342184601D1002003E0047801338C429F
:104B9000F6D110BD884210B501EB020402D984425F
:104BA000234607D8431EA14208D011F8012B03F871
:104BB000012FF8E7014602448A4200D110BD13F8E4
:104BC000014D02F8014DF7E738B50546002943D0FD
:104BD00051F8043C0C1F002BB8BFE41800F0D0F8CB
:104BE0001E4A1368104633B9636014602846BDE856
:104BF000384000F0CBB8A3420AD92168621893422A
:104C000001BF1A685B685218226063600460EDE7B8
:104C10001A465B680BB1A342FAD911685018A0423A
:104C20000BD120680144501883421160DED118680E
:104C30005B68014411605360D8E702D90C232B60F4
:104C4000D4E7206821188B4201BF19685B680918F6
:104C5000216063605460C9E738BD00BF9819002027
:104C6000F8B5CD1C25F0030508350C2D38BF0C25F3
:104C7000002D064601DBA94203D90C233360002036
:104C8000F8BD00F07DF821490A6814469CB9204F10
:104C90003B6823B92146304600F062F83860294667
:104CA000304600F05DF8431C23D10C2330463360BE
:104CB00000F06CF8E3E723685B1B17D40B2B03D9D8
:104CC00023601C44256004E06368A2420CBF0B60B3
:104CD0005360304600F05AF804F10B00231D20F019
:104CE0000700C21ACCD01B1AA350C9E72246646839
:104CF000CCE7C41C24F00304A042E3D0211A3046C0
:104D000000F02EF80130DDD1CFE700BF9819002068
:104D10009C190020F8B5074614460E4621B91146E5
:104D2000BDE8F840FFF79CBF22B9FFF74DFF2546CD
:104D30002846F8BD00F030F8A0420FD22146384690
:104D4000FFF78EFF05460028F2D031462246FFF7D6
:104D500053FB31463846FFF737FFE9E73546E7E7CB
:104D600038B50023054D044608462B60FCF778FA59
:104D7000431C02D12B6803B1236038BDFC1F002007
:104D8000014800F011B800BF04200020014800F0E5
:104D90000CB800BF0420002051F8043C181F002B61
:104DA000BCBF0B58C018704770477047F8B500BFBC
:104DB000F8BC08BC9E467047F8B500BFF8BC08BCFC
:044DC0009E46704754
:104DC40048656C6C6F20576F726C642100000000A2
:104DD4000000000025730000533A2535640000529A
:104DE400443A25326400004C443A253264000030D1
:104DF400303030300052454144590053656E736F72
:104E0400725461736B004C6566744D6F746F7254A9
:104E140061736B0052696768744D6F746F7254618B
:104E2400736B0064656661756C745461736B000028
:104E34000A4E00080000000000000000000000000E
:104E44000000000000020000080000000000000054
:104E540000000000184E00080000000000000000E0
:104E64000000000000000000000200000800000034
:104E74000000000000000000FF4D000800000000DA
:104E8400000000000000000000000000000200001C
:104E9400080000000000000000000000274E000889
:104EA40000000000000000000000000000000000FE
:104EB40000020000180000000000000000000000D4
:104EC40000000000000000000000000000000000DE
:104ED4003F400000000000000000300040003000AF
:104EE4004000000009000BC03D000BC03D0009005C
:104EF40018C024407FE0224031800000180024C004
:104F04001B000D803240018003801C4027401C8020
:104F14000740004010006000000000000000000096
:104F24000000000000001F802040402000004020BE
:104F340020401F8000000000090006001F800600BA
:104F440009000000040004003F8004000400000085
:104F540000100060000000000000000004000400D5
:104F640004000400040000000000004000000000F1
:104F740000000000002001C00600380040000000CE
:104F84001F802040204020401F800000000010406F
:104F94003FC000400000000018C0214022402440CF
:104FA4001840000010802040244024401B80000052
:104FB40002000D0011003FC0014000003C8024406D
:104FC40024402440238000001F8024402440344097
:104FD400038000003000200027C0380020000000BB
:104FE4001B802440244024401B8000001C0022C05D
:104FF400224022401F800000000000000840000002
:105004000000000000000000046000000000000038
:10501400000004000A00110020804040090009003B
:105024000900090009000000000040402080110030
:105034000A00040018002000234024001800000087
:105044001F802040274029401F400000004007C027
:1050540039000F0001C0004020403FC024402440DC
:105064001B8000001F802040204020403080000032
:1050740020403FC0204020401F80000020403FC00F
:1050840024402E4030C0000020403FC024402E0069
:10509400300000000F0010802040224033800200C6
:1050A40020403FC0040004003FC020402040204076
:1050B4003FC02040204000000060202020203FC04E
:1050C4002000200020403FC024400B0030C020407E
:1050D40020403FC020400040004000C03FC03C0092
:1050E40003C03C003FC0000020403FC00C402300F0
:1050F4003FC020001F802040204020401F8000002F
:1051040020403FC024402400180000001F8021409C
:10511400214020E01FA0000020403FC02440260082
:1051240019C0004018C024402440224031800000AF
:10513400300020403FC020403000000020003F806D
:10514400004000403F80200020003E0001C00700D6
:1051540038002000380007C03C0007C038000000B9
:10516400204039C0060039C02040000020003840EB
:1051740007C0384020000000304021C0264038409D
:1051840020C00000000000007FE04020402000001C
:10519400000070000C00038000400000000040206C
:1051A40040207FE0000000000000200040002000BC
:1051B400000000000010001000100010001000108B
:1051C4000000000040000000000000000000028019
:1051D4000540054003C0004020003FC00440044097
:1051E40003800000000003800440044006400000E7
:1051F40000000380044024403FC0004000000380BE
:105204000540054003400000000004401FC0244046
:1052140024402000000002E0055005500650042000
:1052240020403FC00440040003C00040000004408C
:1052340027C000400000000000100010041027E008
:105244000000000020403FC00140070004C00440AB
:10525400204020403FC000400040000007C0040040
:1052640007C0040003C00000044007C00440040059
:1052740003C0004000000380044004400380000099
:10528400041007F004500440038000000000038071
:105294000440045007F00010044007C0024004001A
:1052A40004000000000006400540054004C0000062
:1052B400000004001F800440004000000400078038
:1052C4000040044007C000400400070004C00180FF
:1052D40006000400060001C0070001C0060000002B
:1052E400044006C0010006C004400000041007107A
:1052F40004E00180060004000000044005C00640EC
:10530400044000000000000004007BE04020000096
:10531400000000000000FFF000000000000040203A
:105324007BE00400000000004000800040002000FA
:105334002000400000000000000000000000000009
:10534400000000000000000000001FCC000C000062
:105354000000000000000800300060000800300079
:1053640060000000022003FC1E20022003FC1E201B
:105374000220000000000E1811043FFF10840C7876
:10538400000000000F0010840F3800C00778188454
:105394000078000000780F8410C411240E9800E4F3
:1053A400008400080800680070000000000000008D
:1053B4000000000000000000000007E018182004AE
:1053C40040020000000040022004181807E000001A
:1053D400000000000240024001800FF00180024002
:1053E400024000000080008000800FF800800080F0
:1053F400008000000001000D000E0000000000000D
:105404000000000000000080008000800080008018
:10541400008000800000000C000C00000000000070
:105424000000000000000006001800600180060073
:1054340018002000000007F00808100410040808F1
:1054440007F000000000080408041FFC0004000426
:105454000000000000000E0C1014102410441184ED
:105464000E0C000000000C18100411041104128822
:105474000C700000000000E00320042408241FFC3A
:105484000024000000001F981084110411041088E7
:1054940010700000000007F0088811041104188837
:1054A4000070000000001C00100010FC13001C0021
:1054B4001000000000000E381144108410841144C0
:1054C4000E38000000000700088C104410440888BF
:1054D40007F00000000000000000030C030C0000B3
:1054E40000000000000000000001010600000000B0
:1054F40000000000000000800140022004100808A1
:1055040010040000022002200220022002200220B7
:1055140002200000000010040808041002200140CA
:105524000080000000000E001200100C106C1080AF
:105534000F00000003E00C1813E4142417C4082817
:1055440007D000000004003C03C41C40074000E4F2
:10555400001C000410041FFC1104110411040E8823
:105564000070000003E00C1810041004100410086C
:105574001C10000010041FFC100410041004080880
:1055840007F0000010041FFC1104110417C41004D8
:105594000818000010041FFC1104110017C01000AB
:1055A4000800000003E00C181004100410441C78D8
:1055B4000040000010041FFC108400800080108450
:1055C4001FFC10040000100410041FFC100410043D
:1055D4000000000000030001100110011FFE100074
:1055E4001000000010041FFC110403801464181C34
:1055F4001004000010041FFC100400040004000444
:10560400000C000010041FFC1F0000FC1F001FFC06
:105614001004000010041FFC0C04030000E0101828
:105624001FFC100007F008081004100410040808F8
:1056340007F0000010041FFC1084108010801080FC
:105644000F00000007F0081810241024101C080A8A
:1056540007F2000010041FFC1104110011C01130E6
:105664000E0C000400000E1C11041084108410445D
:105674001C3800001800100010041FFC1004100057
:105684001800000010001FF81004000400041004A7
:105694001FF8100010001E0011E0001C00701380A1
:1056A4001C0010001FC0103C00E01F0000E0103C74
:1056B4001FC000001004180C163401C001C01634B9
:1056C400180C100410001C00130400FC13041C002C
:1056D400100000000804101C1064108413041C043F
:1056E400101800000000000000007FFE400240028D
:1056F40040020000000030000C0003800060001C29
:105704000003000000004002400240027FFE00004F
:1057140000000000000000002000400040004000A5
:10572400200000000001000100010001000100014F
:1057340000010001000040004000200000000000C3
:1057440000000000000000980124014401440144C9
:1057540000FC000410001FFC008801040104008800
:1057640000700000000000700088010401040104BE
:105774000088000000000070008801040104110882
:105784001FFC0004000000F80144014401440144EA
:1057940000C800000000010401040FFC11041104FE
:1057A40011001800000000D601290129012901C9AE
:1057B4000106000010041FFC008401000100010424
:1057C40000FC000400000104190419FC0004000496
:1057D400000000000000000300010101190119FE8E
:1057E4000000000010041FFC0024004001B4010C60
:1057F400010400000000100410041FFC0004000455
:1058040000000000010401FC0104010001FC01048A
:10581400010000FC010401FC0084010001000104FA
:1058240000FC0004000000F8010401040104010468
:1058340000F80000010101FF008501040104008853
:1058440000700000000000700088010401040105DC
:1058540001FF00010104010401FC008401040100B2
:1058640001800000000000CC012401240124012453
:105874000198000000000100010007F80104010480
:1058840000000000010001F8000400040004010805
:1058940001FC0004010001800170000C0010016093
:1058A4000180010001F0010C003001C00030010C46
:1058B40001F0010000000104018C00740170018CEE
:1058C40001040000010101810171000E0018016052
:1058D4000180010000000184010C013401440184B1
:1058E400010C0000000000000000000001003EFC6C
:1058F400400240020000000000000000FFFF000022
:10590400000000000000400240023EFC01000000D4
:1059140000000000000060008000800040004000A3
:105924002000200000000000000000000102030429
:10593400060708090000000001020304020304052D
:10594400060708090A0B0C0D0E0F10100049444CF1
:105954004500546D725100546D72205376630000FB
:10596400202020202020202020282828282820200B
:105974002020202020202020202020202020202023
:10598400881010101010101010101010101010109B
:10599400040404040404040404041010101010107B
:1059A4001041414141414101010101010101010154
:1059B4000101010101010101010101101010101088
:1059C4001042424242424202020202020202020225
:1059D400020202020202020202020210101010204D
:1059E40000000000000000000000000000000000B3
:1059F40000000000000000000000000000000000A3
:105A04000000000000000000000000000000000092
:105A14000000000000000000000000000000000082
:105A24000000000000000000000000000000000072
:105A34000000000000000000000000000000000062
:105A44000000000000000000000000000000000052
:105A54000000000000000000000000000000000042
:105A6400232D302B2000686C4C0065666745464743
:105A740000303132333435363738394142434445C6
:105A84004600303132333435363738396162636435
:045A94006566000043
:045A980015020008EB
:045A9C00F10100080C
:105AA0000024F4000100000010000000AAAAAAAA25
:105AB00014000020000000000000000000000000B2
:105AC00000000000000000000000000000000000D6
