:020000040800F2
:100000000000012011090008E9080008EB080008B9
:10001000ED080008EF080008F108000800000000E3
:10002000000000000000000000000000C12D0008DA
:10003000F308000800000000512E0008F508000831
:100040005909000859090008590900085909000808
:1000500059090008590900085909000859090008F8
:1000600059090008590900085909000859090008E8
:1000700059090008590900085909000859090008D8
:1000800059090008590900085909000859090008C8
:1000900059090008590900085909000859090008B8
:1000A00059090008590900085909000859090008A8
:1000B0005909000859090008590900085909000898
:1000C0005909000859090008590900085909000888
:1000D0005909000859090008590900085909000878
:1000E0005909000859090008590900085909000868
:1000F0005909000859090008590900085909000858
:100100005909000859090008590900085909000847
:100110005909000859090008590900085909000837
:100120005909000859090008590900085909000827
:1001300000000000000000000000000000000000BF
:1001400000000000000000000000000000000000AF
:10015000000000000000000000000000000000009F
:10016000000000000000000000000000000000008F
:10017000000000000000000000000000000000007F
:10018000000000000000000000000000000000006F
:10019000000000000000000000000000000000005F
:1001A000000000000000000000000000000000004F
:1001B000000000000000000000000000000000003F
:1001C000000000000000000000000000000000002F
:1001D000000000000000000000000000000000001F
:0401E0005FF8E0F1F3
:1001F00010B5054C237833B9044B13B10448AFF361
:1002000000800123237010BD1000002000000000BA
:100210004032000808B5034B1BB103490348AFF354
:10022000008008BD000000001400002040320008DB
:1002300008B5054C20464FF4806100F032FD41F2D4
:10024000883001F07BFBF5E7001801407FB501AC79
:1002500026460F4B03F108022546186859680833F3
:1002600003C593422C46F7D118689B882860AB8061
:100270000023CDF81230ADF816300A213246084678
:1002800000F032FA00F096F9012001F057FBF4E794
:1002900058320008F8B500212648264E01F058FAD9
:1002A0000421244801F054FA00243746224D01224B
:1002B0000421284600F0F0FC00220821284600F026
:1002C000EBFC01222021284600F0E6FC0022102150
:1002D000284600F0E1FC01343368A4B25C630A20D4
:1002E0009C6301F02BFBB4F57A6FE0D140F69F746C
:1002F00000220421284600F0CFFC012208212846D4
:1003000000F0CAFC00222021284600F0C5FC012292
:100310001021284600F0C0FC3B680A205C639C6307
:1003200001F00CFB013CE3D24FF47A7001F006FBC4
:100330000024BCE7341900200008014000B591B04A
:100340002422002107A802F073FF1422002101A833
:1003500002F06EFF022301210693102306A8CDE9C7
:100360000A1300F0B3FC014608B172B6FEE70F2392
:10037000CDE90300CDE90130059001A800F07CFE35
:1003800008B172B6FEE711B05DF804FB00B599B094
:1003900000F008FBFFF7D2FF1022002110A802F0A6
:1003A00047FF5F4B4FF4BC619A695E4842F04002E0
:1003B0009A619A69012402F040020092009A9A69B7
:1003C000002542F004029A619A6902F00402019247
:1003D000019A9A6942F010029A619B69002203F027
:1003E00010030293029B00F057FC00223C214E4870
:1003F00000F052FC4FF4BC63CDE9103402234948AD
:1004000010A9CDE9125300F05DFB3C23CDE9103477
:100410000323454810A91393129500F053FB1022B3
:10042000294605A802F004FF1C22294609A8CDE9A7
:10043000035502F0FDFE2022294610A802F0F8FE26
:100440003A4C3B4B2046C4E9003541F61F43C4E912
:100450000555C4E90335A56000F086FF08B172B602
:10046000FEE74FF48053204605A9059301F06FF88D
:1004700008B172B6FEE7204600F0A2FF08B172B6DE
:10048000FEE7CDE9030003A9204601F063F9024627
:1004900008B172B6FEE76023CDE90B00CDE9093063
:1004A000CDE90D000F9009A9204600F0EBFF08B13F
:1004B00072B6FEE70422204609A900F0E3FF08B166
:1004C00072B6FEE74FF40053CDE91000CDE91200FB
:1004D0001490179010A92046159301F071F9044665
:1004E00008B172B6FEE700F01FF901F08FF921465E
:1004F000104A114801F0C6F9104B21461860104A05
:10050000104801F0BFF9104B214618600F4A1048FF
:1005100001F0B8F90F4B186001F094F9FEE700BF45
:10052000001002400018014000080140341900206A
:1005300000340140D4320008310200083019002094
:10054000B03200084D0200087C1900208C320008EF
:10055000950200088019002070B50A46044601B1D2
:1005600001224FF48071124800F096FB0825104ECE
:1005700000222021304600F08FFB23064CBF0122D1
:1005800000224021304600F087FB013D012220215E
:10059000304600F081FB640015F0FF05E4B2E7D1BE
:1005A000BDE8704001224FF48071014800F074BB37
:1005B0000018014070B5B0240E4E00212046FFF710
:1005C000CBFF00210846FFF7C7FF00211020FFF7EF
:1005D000C3FF002516F8350001210135FFF7BCFFE8
:1005E000802DF7D10134E4B2B82C06F10106E4D134
:1005F00070BD00BF84190020082300200749002295
:1006000001F832000132802AFAD1013B13F0FF03D6
:1006100001F10101F3D1FFF7CDBF00BF8419002024
:10062000030630B513D43F2911D8012301F0070583
:10063000094CC908C1F10701C5F10705C9B204EBAE
:10064000C00003FA05F5435C12B12B43435430BD9F
:1006500023EA0503FAE700BF841900202DE9F74FCC
:10066000A2F1200598461E4BEDB203EB0513009353
:100670000C23824689460C4600271A4A9DF830B062
:1006800003FB05230193B84502D103B0BDE8F08F09
:10069000B8F10C0F0CBF019B009BDE5D04F1080359
:1006A000DDB2330658BFBBFA8BF2214604F10104D8
:1006B0004CBF5A4652095046E4B2FFF7B1FFA4EBD3
:1006C000090276004245F6B207D14D460AF1010013
:1006D0005FFA80FA2C460137D5E7A542E1D1F9E768
:1006E0006C370008F8320008F7B504460D460127BC
:1006F000561E16F8013F0BB903B0F0BD7A2C82BF2D
:100700001035EDB200243A2D03D90025FFF774FF10
:100710002C46009720460C23294632780834FFF7F0
:100720009DFFE4B2E5E7000010B500F0C3FA404BCE
:10073000404C1A6A22F001021A621A6A22F004027C
:100740001A6200F0BDFA00228021204600F0A4FACF
:10075000642000F04BF901222046802100F09CFA31
:100760000021AE20FFF7F8FE0021D520FFF7F4FEB0
:1007700000215020FFF7F0FE0021A820FFF7ECFE3B
:1007800000213F20FFF7E8FE0021D320FFF7E4FE21
:1007900000210846FFF7E0FE00214020FFF7DCFEC5
:1007A00000218D20FFF7D8FE00211420FFF7D4FE92
:1007B00000212020FFF7D0FE00210220FFF7CCFE11
:1007C0000021A120FFF7C8FE0021C020FFF7C4FED2
:1007D0000021DA20FFF7C0FE00211220FFF7BCFE47
:1007E00000218120FFF7B8FE0021EF20FFF7B4FEC3
:1007F0000021D920FFF7B0FE0021F120FFF7ACFE69
:100800000021DB20FFF7A8FE00213020FFF7A4FE27
:100810000021A420FFF7A0FE0021A620FFF79CFEE8
:100820000021AF20FFF798FEBDE81040FFF7E4BEBF
:100830000010024000180140114B07B59A690F21C2
:1008400042F001029A619A696FF0010002F0010220
:100850000092009ADA6942F08052DA61DB69002284
:1008600003F080530193019B00F0E4F8054A5368BC
:1008700023F0E06343F08063536003B05DF804FB52
:10088000001002400000014010B5044686B010225E
:10089000002102A802F0CCFC2268114B9A421CD124
:1008A00003F55C439A690F4842F400529A619A69D1
:1008B00002A902F400520092009A9A6942F01002D2
:1008C0009A619B69C02203F010030193019B0223EC
:1008D000CDE90223059300F0F5F806B010BD00BF86
:1008E0000034014000100140FEE7FEE7FEE7FEE7AE
:1008F000FEE7704708B500F067F801F0DDFF01285A
:1009000003D0BDE8084002F0C5BA08BD704700003A
:100910000C480D490D4A002302E0D458C45004335A
:10092000C4188C42F9D30A4A0A4C002301E0136030
:100930000432A242FBD3FFF7E9FF02F047FCFFF7C6
:1009400025FD70470000002010000020983D0008A1
:1009500010000020C81D0020FEE7000038B50E4B37
:10096000054618784FF47A73B3FBF0F30B4A10681E
:10097000B0FBF3F000F090F8044658B90F2D09D8F9
:10098000024629464FF0FF3000F054F82046044B51
:100990001D6038BD0120FCE704000020000000209D
:1009A00008000020074A08B51368032043F010032D
:1009B000136000F02DF80F20FFF7D0FFFFF73CFF8A
:1009C000002008BD00200240034A044B11681B7838
:1009D0000B441360704700BF841D002004000020FA
:1009E000014B1868704700BF841D002038B50446CD
:1009F000FFF7F6FF0546631C1EBF044B1B78E41887
:100A0000FFF7EEFF431BA342FAD338BD04000020DA
:100A100007490302CA6803F4E06322F4E0621204A7
:100A2000120C134343F0BF6343F40033CB607047B1
:100A300000ED00E0164B30B5DC68C4F30224C4F1CD
:100A40000703251D042B28BF0423062D4FF0FF3577
:100A500098BF002405FA03F388BF033C21EA03038F
:100A6000A34005FA04F422EA0402002843EA020340
:100A7000ACBF00F16040074A4FEA0313DBB2ABBFE3
:100A800000F5614000F00F0080F80033135430BDD2
:100A900000ED00E014ED00E00138B0F1807F0AD2F3
:100AA000F021064B064A586082F8231000200722E6
:100AB00098601A6070470120704700BF10E000E0A6
:100AC00000ED00E02DE9F74F002216466B4F6C4B0E
:100AD000DFF8B4C1DFF8B4E10C6834FA06F502D1EE
:100AE00003B0BDE8F08F4FF0010808FA06F804EAF9
:100AF000080538EA040440F082804C68032C07D8CB
:100B0000013C022C00F28D80DFE804F09EA3A900D6
:100B1000122C00F0A18074D8112C00F09780FF2DCA
:100B200098BF82464FF00F0988BF00F1040A4FEAD0
:100B30008604DAF8008088BF203C09FA04FB28EA22
:100B40000B0802FA04F448EA0404CAF80040D1F899
:100B500004A01AF0805F52D0BC6926F0030844F06C
:100B60000104BC61BC6908F1804804F001040194EF
:100B700008F5803806F0030B019C4FEA8B0BD8F880
:100B8000084009FA0BF924EA09093E4CA0426AD050
:100B900004F58064A04268D004F58064A04266D069
:100BA00004F58064A04264D004F58064A04262D061
:100BB00060450CBF0524062404FA0BF444EA09043A
:100BC000C8F808401C681AF4803F14BF2C43AC439B
:100BD0001C605C681AF4003F14BF2C43AC435C609B
:100BE0009C681AF4801F14BF2C43AC439C60DC68E3
:100BF0001AF4001F14BF254324EA0505DD60013601
:100C00006AE774450DD018D8DFF884904C4508D0B9
:100C100009F570294C4504D0A9F580194C457FF49D
:100C20007EAF8A68EAB1012A08BFC0F810804FF091
:100C3000080218BFC0F8148071E7DFF858904C45DF
:100C4000EFD009F58039E9E7CA6868E7CA68043275
:100C500065E7CA68083262E7CA680C325FE70022BB
:100C60005DE704225BE70024A6E70124A4E7022451
:100C7000A2E70324A0E704249EE700BF001002407F
:100C80000004014000080140001C01400000221047
:100C900000001210000031100AB101617047090410
:100CA000FBE7C36801EA030221EA030141EA0241CA
:100CB000016170470122014B1A60704720000E420B
:100CC0000022014B1A60704720000E422DE9F341CB
:100CD000054638B30368DB0710D42B689F075ED442
:100CE0002B68190700F195802B685A0700F1BF8027
:100CF000E869002840F02C81002029E08F4C6368CF
:100D000003F00C03042B07D0636803F00C03082BDB
:100D10000AD16368DE0307D523689C03DDD56B68C1
:100D2000002BDAD1012013E06B68B3F5803F12D1BC
:100D3000236843F480332360FFF752FE064623689E
:100D40009803CAD4FFF74CFE801B6428F7D9032010
:100D500002B0BDE8F0819BB9236823F4803323609F
:100D6000236823F480232360FFF73AFE06462368B6
:100D70009903B2D5FFF734FE801B6428F7D9E6E764
:100D8000B3F5A02F236803D143F480232360CFE77A
:100D900023F480332360236823F48023CBE7674C5C
:100DA000636813F00C0F07D0636803F00C03082B83
:100DB00010D16368DA030DD423689B0702D52B6931
:100DC000012BAFD123686A6923F0F80343EAC20319
:100DD000236085E72A695A4B6AB101221A60FFF73E
:100DE000FFFD064623689F07ECD4FFF7F9FD801B43
:100DF0000228F7D9ABE71A60FFF7F2FD0646236831
:100E000098077FF56DAFFFF7EBFD801B0228F6D941
:100E10009DE7AA69494E4B4BDAB101221A60FFF7F0
:100E2000DFFD0446736A9B070DD54FF4FA52464B1B
:100E30001B68B3FBF2F3019300BF019B5A1E0192A2
:100E4000002BF9D150E7FFF7CBFD001B0228E9D9B1
:100E50007DE71A60FFF7C4FD0446736A9F077FF5BC
:100E600043AFFFF7BDFD001B0228F6D96FE7334CF7
:100E7000E369D80024D40127E36943F08053E36198
:100E8000E36903F080530093009B304E3368D9052B
:100E900018D5EB68012B26D1236A43F001032362A6
:100EA000FFF79EFD41F288380646236A9B073FD52F
:100EB000002F3FF41DAFE36923F08053E36117E790
:100EC0000027E2E7336843F480733360FFF788FD5F
:100ED00080463368DA05DCD4FFF782FDA0EB08001A
:100EE0006428F6D933E7ABB9236A41F2883823F096
:100EF00001032362236A23F004032362FFF770FDDA
:100F00000646236A9807D3D5FFF76AFD801B404544
:100F1000F7D91CE7052B236A03D143F004032362AE
:100F2000BAE723F001032362236A23F00403B6E740
:100F3000FFF756FD801B4045B7D908E70010024077
:100F40000000424280044242000000200070004045
:100F50002A4B5A681C4602F00C02082A3DD0002396
:100F6000274E022833602BD1FFF73AFD074623684E
:100F700099011FD42B6AB3F5803F05D16268A96837
:100F800022F400320A436260696A62680B4322F409
:100F900074121343636001233360FFF721FD05469C
:100FA00023689A013FF5A8AEFFF71AFD401B0228FF
:100FB000F6D9CCE6FFF714FDC01B0228D7D9C6E648
:100FC000FFF70EFD054623689B017FF595AEFFF701
:100FD00007FD401B0228F6D9B9E601283FF4B8AE58
:100FE0005B682A6A03F4803191427FF49BAE6A6A9F
:100FF00003F4701393423FF47FAE93E60010024077
:101000006000424230B5184B87B002AC03F11005C6
:10101000224618685968083303C2AB421446F7D118
:1010200040F201231149ADF804304B6803F00C0283
:10103000082A17D1C3F3834206A80244DB0312F83F
:10104000102C0CD54B680A48C3F34043504306AA02
:10105000134413F8143CB0FBF3F007B030BD05485F
:101060005043FAE70248F8E76C3D000800100240E0
:1010700000127A0000093D002DE9F0410D460446BA
:1010800010B90120BDE8F081444A136803F007035A
:101090008B4228D321688E0730D4CA0743D43F4AF5
:1010A000136803F00703AB4265D822683C4D12F089
:1010B000040F6CD1130706D56B68226923F46053C3
:1010C00043EAC2036B60FFF79DFF6B68354AC3F3C9
:1010D0000313D35CD840344B1860344B1868FFF7C7
:1010E0003DFC0020CEE7136823F007030B43136099
:1010F000136803F007038B42C3D1CBE7284B11F0F1
:10110000040F1EBF5A6842F4E0625A60080742BFEB
:101110005A6842F460525A605A68A06822F0F0029D
:1011200002435A60B9E762681D4E012A33681AD13A
:1011300013F4003FA5D0736841F2883823F003030D
:1011400013437360FFF74CFC07467368626803F053
:101150000C03B3EB820FA2D0FFF742FCC01B40454B
:10116000F3D903208EE7022A02D113F0007FE1E7D2
:1011700013F0020FDEE7136823F007032B4313601D
:10118000136803F00703AB427FF47BAF8DE76B6816
:10119000E16823F4E0630B436B608BE700200240BF
:1011A000001002405C3D0008000000200800002004
:1011B000036A70B523F001030362036A446882691D
:1011C0000D6822F073022A438D6823F002032B433B
:1011D0000E4DA84202D00E4EB04210D1CE6823F080
:1011E00008033343A84223F0040302D0084DA84269
:1011F00005D1D1E9055624F4407435432C434460AD
:1012000082614A684263036270BD00BF002C0140E6
:1012100000340140036A70B523F480730362036AEB
:101220004468C2690D6822F073022A438D6823F472
:10123000007343EA0523114DA84203D005F500656C
:10124000A84214D1CD6823F4006343EA05230B4D73
:1012500023F48063A84203D005F50065A84206D1B7
:10126000D1E9055624F44054354344EA051444605A
:10127000C2614A68C263036270BD00BF002C0140B6
:10128000036A30B523F480530362036A4468C26979
:101290000D6822F4E64242EA05228D6823F40053E9
:1012A00043EA0533084DA84203D005F50065A8427E
:1012B00004D14D6924F4804444EA85144460C26139
:1012C0004A680264036230BD002C01407047000090
:1012D000244A0368904212D002F5006290420ED078
:1012E000B0F1804F0BD0A2F59832904207D002F5B2
:1012F0008062904203D002F5806290421DD14A681C
:1013000023F070031343174A904212D002F5006293
:1013100090420ED0B0F1804F0BD0A2F5983290429F
:1013200007D002F58062904203D002F580629042BD
:1013300003D1CA6823F4407313434A6923F080033E
:10134000134303608B68C3620B688362054B98424A
:1013500003D003F50063984201D10B6903630123B5
:1013600043617047002C014010B5044630B390F83B
:101370003D3003F0FF021BB980F83C20FFF784FAF0
:101380000223206884F83D30211DFFF7A1FF0123CF
:10139000002084F8463084F83E3084F83F3084F8EA
:1013A000403084F8413084F8423084F8433084F887
:1013B000443084F8453084F83D3010BD0120FCE70E
:1013C00010B5044630B390F83D3003F0FF021BB96E
:1013D00080F83C20FFF77AFF0223206884F83D3034
:1013E000211DFFF775FF0123002084F8463084F8A3
:1013F0003E3084F83F3084F8403084F8413084F83F
:10140000423084F8433084F8443084F8453084F81E
:101410003D3010BD0120FCE7036A70B523F01003D6
:101420000362036A446882690D6822F4E64242EA74
:1014300005228D6823F0200343EA0513104DA842CE
:1014400003D005F50065A84214D1CD6823F08003D0
:1014500043EA05130A4D23F04003A84203D005F5E3
:101460000065A84206D1D1E9055624F4406435430D
:1014700044EA8504446082614A688263036270BD05
:10148000002C014038B590F83C300446012B52D076
:101490000123082A80F83C303CD006D8C2B1042A87
:1014A00027D0002084F83C0038BD0C2AF9D1006810
:1014B000FFF7E6FE23680969DA6942F40062DA613F
:1014C000DA6922F48062DA61DA6942EA012230E004
:1014D0000068FFF76DFE236809699A6942F0080207
:1014E0009A619A6922F004029A619A690A439A61A0
:1014F000D7E70068FFF790FF236809699A6942F40B
:1015000000629A619A6922F480629A619A6942EA59
:101510000122ECE70068FFF77DFE23680969DA69BC
:1015200042F00802DA61DA6922F00402DA61DA696B
:101530000A43DA61B5E70220B6E710B584680A43CA
:1015400024F47F4442EA03222243826010BD70B536
:1015500090F83C300446012B4FF0020027D00123C5
:1015600084F83D00206884F83C30836823F47F438E
:1015700023F0770383600B68602B4DD032D8402B6B
:1015800062D015D8202B03D009D833F0100208D12F
:10159000826822F07002134343F0070320E0302BEF
:1015A000F6D00123002084F83D3084F83C0070BD63
:1015B000502BF6D14A68CE68016A056A21F00A010B
:1015C00025F00105056283690A4323F0F00343EA2D
:1015D000061383610262836823F0700343F05703AC
:1015E0008360DEE7702B0CD0B3F5005FD9D1CB68F8
:1015F000D1E90121FFF7A1FF2268936843F48043FA
:1016000008E0CB68D1E90121FFF797FF22689368D2
:1016100043F077039360C4E74D68CE68016A21F018
:10162000100101628269036A22F4704223F0A00370
:1016300043EA051342EA063282610362836823F0BB
:10164000700343F06703CBE74A68CE68016A056A16
:1016500021F00A0125F00105056283690A4323F0A0
:10166000F00343EA061383610262836823F0700388
:1016700043F04703B4E710B50124036A01F01F01EA
:101680008C4023EA04030362036A8A401A4302621D
:1016900010BD000010B5044629B990F83E30012B6A
:1016A0001DD0012032E0042907D190F83F30012BF2
:1016B000F7D1022380F83F3014E0082907D190F8D1
:1016C0004030012BEDD1022380F840300AE090F841
:1016D0004130012BE5D1022380F8413002E00223A2
:1016E00080F83E3001222068FFF7C5FF2368154AC5
:1016F00093420CD014498B4209D0B3F1804F10D1E2
:101700009A6802F00702062A16D1002010BD596C13
:10171000934241F400415964F2D00B4A9342EFD016
:10172000EBE70A4A9342EBD002F580629342E7D09E
:1017300002F580629342E3D01A6842F001021A6017
:10174000E3E700BF002C01400034014000040040EA
:10175000FFF7A0BF30B590F83C300246012B4FF0A8
:1017600002002AD0136882F83D005C680D6824F0FE
:1017700070042C4398685C60104CA34212D004F5AE
:101780000064A3420ED0B3F1804F0BD0A4F598347F
:10179000A34207D004F58064A34203D004F580641B
:1017A000A34204D1496820F08000014399600123DD
:1017B000002082F83D3082F83C0030BD002C014012
:1017C00090F83C30012B1FD0CB688A6823F440731B
:1017D00013434A6823F4806313430A6823F40063C5
:1017E00013430A6923F4805313434A6923F40053D3
:1017F0001343CA6923F480431343026853640023EC
:1018000080F83C301846704702207047EFF305839C
:1018100013B16FF005007047EFF31083002BF8D180
:10182000074B1868022806D1EFF31183002BF0D183
:101830004FF0FF3070470028FAD101221A6070473C
:101840008802002010B5EFF3058313B16FF0050097
:1018500010BDEFF31084002CF8D1094B1A68022A4E
:1018600006D1EFF31183002BF0D14FF0FF30EFE7FB
:10187000012AFAD102221A6000F0A0FD2046E7E713
:1018800088020020F0B51446002287B00B4605926E
:10189000EFF3058252BBEFF310823ABB264A12687F
:1018A000022A02D1EFF3118202BBF8B100228DF8B7
:1018B0001320002C30D0216809B90DF11301A5695E
:1018C000002D08BF18256A1E372AAC462AD8626840
:1018D000D20727D4666966B1B208D4E9027E57B14F
:1018E000BEF15B0F02D9246904B1EEB9059807B0C7
:1018F000F0BD8022F1E7BEF1000FF7D12469002C82
:10190000F4D105ACCDE900C492B200F02AFD012863
:101910001CBF00230593E9E74FF0180C80220DF15E
:101920001301EEE70020E2E7CDE90147009500F062
:10193000E1FC0590DAE700BF8802002008B5EFF36C
:10194000058313B16FF0050008BDEFF31083002B82
:10195000F8D1074B1B68022B03D1EFF31183002B47
:10196000F0D10028F0D000F07FFE0020ECE700BFAF
:1019700088020020034B0360034B0B60802313603D
:10198000704700BF2C0200202C000020034B036096
:10199000034B0B604FF48073136070478C0600207C
:1019A0008C0200204FF0FF3200F10803C0E902234F
:1019B00043600361002303607047002303617047A5
:1019C00043689A684B608A609A68516099600368BE
:1019D000086101330360704730B50C68631C0AD19D
:1019E00003695A684A6091608B60596003680861B6
:1019F0000133036030BD00F10802134652681568D8
:101A0000A542FAD9EDE70369D0E901128A60516075
:101A10005968814208BF5A60002202611A68013A7F
:101A20001A601868704710B5044601F0DBF9A46B22
:101A300001F0FAF9B4FA84F0400910BDF8B5154682
:101A4000026C0446866B52B9076847BB406800F0D9
:101A500043FF0546676001362846A663F8BD65B9B1
:101A6000806801F0D7FBA368226C13446268A3600E
:101A70009342F0D32368A360EDE7C06801F0CAFB8E
:101A8000226CE36851429B1A2268E36093423EBF96
:101A900063685B18E360022D01D116B1013E002599
:101AA000D9E73546D7E703461A6C084610B462B149
:101AB000DC68596814448C4228BF1968DC6028BF70
:101AC000D960D96810BC01F0A5BB10BC704770B5D7
:101AD000044601F087F994F8455004F124066DB2EC
:101AE000002D14DCFF2384F8453001F09DF901F04E
:101AF00079F994F8445004F110066DB2002D12DC0F
:101B0000FF2384F84430BDE8704001F08DB9636A6A
:101B1000002BE7D0304600F041FE08B100F0C6FED1
:101B2000013D6DB2DCE72369002BE9D0304600F0BF
:101B300035FE08B100F0BAFE013D6DB2DEE70000EF
:101B400038B50D46044640B94FF0500383F3118871
:101B5000BFF36F8FBFF34F8FFEE701F043F9D4E976
:101B60000F314B432268D0185B1A13446060E36066
:101B70000020FF23A063A26084F8443084F845303D
:101B800095B9236963B104F1100000F007FE38B184
:101B90004FF08052094B1A60BFF34F8FBFF36F8F26
:101BA00001F042F9012038BD04F11000FFF7FAFE00
:101BB00004F12400FFF7F6FEF2E700BF04ED00E0B9
:101BC00037B50D461C4640B94FF0500383F31188DA
:101BD000BFF36F8FBFF34F8FFEE743B94FF0500352
:101BE00083F31188BFF36F8FBFF34F8FFEE74AB1C6
:101BF00091B94FF0500383F31188BFF36F8FBFF398
:101C00004F8FFEE741B14FF0500383F31188BFF3CC
:101C10006F8FBFF34F8FFEE750230193019B502B33
:101C200008D04FF0500383F31188BFF36F8FBFF3D9
:101C30004F8FFEE70121002D08BF2246C4E90F05A2
:101C400084F8461020462260FFF77AFF20469DF870
:101C5000183084F84C3003B030BD00002DE9FF4748
:101C600088461F460446019240B94FF0500383F363
:101C70001188BFF36F8FBFF34F8FFEE751B9036C2D
:101C800043B14FF0500383F31188BFF36F8FBFF35D
:101C90004F8FFEE7022F0BD1E36B012B08D04FF0E3
:101CA000500383F31188BFF36F8FBFF34F8FFEE7AD
:101CB00000F002FE064650B9019B4BB14FF05003B5
:101CC00083F31188BFF36F8FBFF34F8FFEE70026BA
:101CD0004FF00009DFF8E4A037E0019D1DB901F0E5
:101CE000A3F8002050E016B902A800F097FD01F01B
:101CF0009BF800F0A7FB01F075F894F84430FF2B37
:101D000008BF84F8449094F84530FF2B08BF84F84E
:101D1000459001F089F801A902A800F08BFD002888
:101D200046D101F05FF8A26BE36B9A422FD101F02C
:101D30007BF8019904F1100000F0F6FC2046FFF753
:101D4000C6FE00F01DFC50B3012601F04BF8A26B5B
:101D5000E36B9A4201D3022FBFD13A464146204657
:101D6000FFF76CFE636A1BB104F1240000F016FD5E
:101D700038B14FF08052114B1A60BFF34F8FBFF351
:101D80006F8F01F051F8012004B0BDE8F08701F039
:101D90004BF82046FFF79BFE00F0F2FBD4E74FF034
:101DA0008053CAF80030BFF34F8FBFF36F8FCBE77C
:101DB0002046FFF78CFE00F0E3FB92E704ED00E025
:101DC0002DE9F843894690461F46044640B94FF036
:101DD000500383F31188BFF36F8FBFF34F8FFEE77C
:101DE00051B9036C43B14FF0500383F31188BFF333
:101DF0006F8FBFF34F8FFEE7022F0BD1E36B012BE9
:101E000008D04FF0500383F31188BFF36F8FBFF3F7
:101E10004F8FFEE701F0C6F8EFF311864FF0500345
:101E200083F31188BFF36F8FBFF34F8FA26BE36B08
:101E30009A4201D3022F22D194F845503A4649469E
:101E400020466DB2FFF7FAFD6B1C13D1636A0BB924
:101E500001200BE004F1240000F0A0FC0028F7D0E2
:101E6000B8F1000FF4D00120C8F8000086F3118803
:101E7000BDE8F88301356DB284F84550E8E70020ED
:101E8000F4E700002DE9F04385B00F4604460192C7
:101E900040B94FF0500383F31188BFF36F8FBFF346
:101EA0004F8FFEE751B9036C43B14FF0500383F3FA
:101EB0001188BFF36F8FBFF34F8FFEE700F0FCFC7C
:101EC000064650B9019B4BB14FF0500383F3118884
:101ED000BFF36F8FBFF34F8FFEE700264FF0000870
:101EE000DFF8DC903BE0019D1DB900F09DFF002074
:101EF00052E016B902A800F091FC00F095FF00F046
:101F0000A1FA00F06FFF94F84430FF2B08BF84F86B
:101F1000448094F84530FF2B08BF84F8458000F0DA
:101F200083FF01A902A800F085FC00283DD12046CE
:101F3000FFF779FD98B3019904F1240000F0F4FB58
:101F40002046FFF7C4FD00F01BFB38B94FF080536B
:101F5000C9F80030BFF34F8FBFF36F8F012600F039
:101F600041FFA56B002DBED039462046013DFFF74D
:101F70009AFDA563236963B104F1100000F00EFC23
:101F800038B14FF080520E4B1A60BFF34F8FBFF342
:101F90006F8F00F049FF012005B0BDE8F0832046B7
:101FA000FFF795FD00F0ECFAD8E72046FFF78FFD2C
:101FB00000F0E6FA2046FFF736FD0028CED096E77F
:101FC00004ED00E0002330B5064A52F8335002EB2E
:101FD000C3041DB942F83310606030BD0133082BD3
:101FE000F3D1FAE7881D002070B504460D46164669
:101FF00000F0F8FE94F84430FF2B04BF002384F86F
:10200000443094F84530FF2B04BF002384F845305A
:1020100000F00AFFA36B2BB93246294604F12400D5
:1020200000F09CFB2046BDE87040FFF750BD00006B
:102030002DE9F041044600F0D5FE2F4B2F4D1A68D4
:102040002F4F01321A602E68002E49D12C601B6878
:10205000012B1FD1B84640460136FFF7A3FC382EAE
:1020600008F11408F7D1DFF8C480264E4046FFF788
:1020700099FC3046FFF796FC2348FFF793FC234872
:10208000FFF790FC2248FFF78DFC224BC3F800803D
:10209000214B1E601420214A136801331360204A2B
:1020A00063641168E36A8B4200FB037004F104016E
:1020B00088BF1360FFF784FC00F0B6FE194B1B6865
:1020C00063B12B68DA6AE36A9A4207D24FF0805212
:1020D000154B1A60BFF34F8FBFF36F8FBDE8F081D0
:1020E000104B1B68002BD5D12B68DA6AE36A9A4241
:1020F00098BF2C60CEE700BF540B0020E8060020FC
:10210000F4060020800B00209C0B0020C80B002050
:10211000B40B0020EC060020F0060020640B002029
:10212000680B0020B00B002004ED00E06C0B0020D9
:10213000064A13681968064B19B94FF0FF321A6046
:1021400070471268D268D2685268F8E7EC0600203F
:10215000940B00202DE9F0470D46DDE909844FEA94
:1021600082094A460646A521206B1F4601F060F809
:10217000226BA9F1040991446B1E29F0070904F1AF
:1021800034020F3513F8011F02F8011B197809B149
:10219000AB42F7D1089D4FF0000A372D28BF3725F5
:1021A000201DC4E9135AE56284F843A0FFF705FC3B
:1021B000C5F1380504F11800FFF7FFFBC4F854A07F
:1021C0003A46314648462461A561646284F858A0C5
:1021D00000F0DEFD2060B8F1000F01D0C8F800402B
:1021E000BDE8F08710B590F8593004463BB9006B54
:1021F00000F0B4FF2046BDE8104000F0AFBF012B57
:10220000F9D0022B08D04FF0500383F31188BFF3AD
:102210006F8FBFF34F8FFEE710BD000080B5DFF872
:102220005C80124F124C134D236863B9124B1B682C
:10223000012BF8D94FF08053C8F80030BFF34F8F0F
:10224000BFF36F8FEEE700F0CDFDFB68DE68301D59
:10225000FFF7D9FB2B68013B2B602368013B236010
:1022600000F0E2FD3046FFF7BDFFDDE7C80B0020C0
:10227000580B0020540B0020F406002004ED00E071
:10228000F8B50546154B164E1C6830680F460430ED
:10229000FFF7B9FB6B1C334607D137B131681148E2
:1022A0000431BDE8F840FFF78BBB1A68641954602D
:1022B00007D30D4A10681968BDE8F8400431FFF7EC
:1022C0008BBB0A4A106819680431FFF785FB084B7D
:1022D0001A68A24288BF1C60F8BD00BFDC0B00205A
:1022E000E8060020B40B0020F0060020EC060020D9
:1022F000940B002070B586B0DDE90B5445B94FF062
:10230000500383F31188BFF36F8FBFF34F8FFEE746
:1023100044B94FF0500383F31188BFF36F8FBFF3BD
:102320004F8FFEE75C260496049E5C2E08D04FF08B
:10233000500383F31188BFF36F8FBFF34F8FFEE716
:102340002563022584F8595005AD01950A9D029434
:102350000095FFF7FFFE2046FFF76AFE059806B0DE
:1023600070BD2DE9F043074685B0900088461646BB
:10237000994600F069FE0546E8B15C2000F064FE75
:102380000446A8B1002380F859300D9B05630193E2
:102390000C9B324641460290009338464B46FFF76D
:1023A000D9FE2046FFF744FE012005B0BDE8F083CA
:1023B000284600F0D3FE4FF0FF30F6E710B50024BA
:1023C00088B007AA06A905A8CDE90544FFF7D2FA07
:1023D000059B079A0293069B1549CDE900431548D2
:1023E0002346FFF787FFA8B100F00AFB012813D1AD
:1023F0004FF0500383F31188BFF36F8FBFF34F8FFC
:102400004FF0FF320C4B1A600C4B18600C4B1C60E9
:1024100000F070FD08B010BD0130FBD14FF050034B
:1024200083F31188BFF36F8FBFF34F8FFEE700BFB9
:102430007D3D00081D220008940B0020B00B0020F9
:10244000DC0B0020024A136801331360704700BFA1
:10245000600B0020014B1868704700BFDC0B0020A8
:102460002DE9F84F3B4B1B68002B6DD13A4B1D6893
:1024700001351D60BDB9394B1A68126842B14FF081
:10248000500383F31188BFF36F8FBFF34F8FFEE7C5
:10249000334A1968106818601160324A13680133B2
:1024A0001360FFF745FE304E002433682F4FAB42D8
:1024B00010D92F4B1B68DA6A14235343FB58022BA5
:1024C00028BF01242B4B1B68002B0CBF204601208A
:1024D000BDE8F88FDFF88490DFF8A0A0D9F80030CD
:1024E0001B681BB94FF0FF333360E2E7D9F80030C7
:1024F000DB68D3F80CB0DBF80420954201D23260DF
:10250000D7E70BF104084046FFF77DFADBF82820F7
:102510001AB10BF11800FFF776FA1423DBF82C0040
:10252000DAF800204146904288BFCAF8000003FB59
:102530000070FFF745FA0E4BDBF82C201968CB6AC8
:102540009A4228BF0124C9E70B4A002413680133CB
:102550001360B7E7600B0020DC0B0020EC060020C6
:10256000F0060020980B0020940B0020F4060020B9
:10257000E8060020E00B00205C0B0020680B002028
:102580002DE9F0412F4C236843B94FF0500383F3FA
:102590001188BFF36F8FBFF34F8FFEE700F022FC6F
:1025A0002368013B236024682CB1002400F03CFC2C
:1025B0002046BDE8F081244B1B68002BF5D0234D4D
:1025C000234EDFF8A0801DE0EB68DC68271D04F1D6
:1025D0001800FFF718FA3846FFF715FA1420E36AD7
:1025E000326800FB03809342394688BF3360FFF7AF
:1025F000E7F9184BE26A1B68DB6A9A4202D30122B0
:10260000154B1A602B68002BDED10CB1FFF790FD43
:10261000124D2C6844B101270F4EFFF721FF00B186
:102620003760013CF9D12C600B4B1B68002BBCD0F0
:102630004FF080520A4B1A60BFF34F8FBFF36F8F7A
:102640000124B3E7600B0020540B00209C0B0020FA
:10265000680B0020E8060020E00B00205C0B002047
:1026600004ED00E0F406002008B540B94FF08052B8
:102670000D4B1A60BFF34F8FBFF36F8F08BD0B4B2D
:10268000196841B14FF0500383F31188BFF36F8F86
:10269000BFF34F8FFEE7FFF7D5FEFFF7F1FDFFF722
:1026A0006FFF0028E2D0E9E704ED00E0600B0020B6
:1026B000184BF0B51A68184B12B101221A60F0BD20
:1026C0001A60164A14271646154D2B6807FB03F1AE
:1026D0005458501894B14468083164680A449442CC
:1026E00008BF6268446008BF4260142202FB0362B4
:1026F0005268D1680B4A11602B60E0E743B94FF094
:10270000500383F31188BFF36F8FBFF34F8FFEE742
:10271000013BDBE7600B0020E00B0020F40600200B
:10272000680B0020E806002010B50C4640B94FF0B9
:10273000500383F31188BFF36F8FBFF34F8FFEE712
:10274000054B19681831FFF747F92046BDE81040DE
:102750000121FFF795BD00BFE806002038B50D4602
:10276000144640B94FF0500383F31188BFF36F8FC5
:10277000BFF34F8FFEE7084B19681831FFF720F9B8
:10278000002C214608BF2846BDE8384018BF4FF04E
:10279000FF30FFF775BD00BFE806002038B5C368FD
:1027A000DC6844B94FF0500383F31188BFF36F8F97
:1027B000BFF34F8FFEE704F118052846FFF723F912
:1027C000104B1B68DBB9251D2846FFF71CF90E4A84
:1027D00014201168E36A8B42294688BF13600B4AB4
:1027E00000FB0320FFF7ECF8094BE26A1B68DB6A89
:1027F0009A4285BF0120074B0020186038BD29464A
:102800000548EFE7600B0020680B0020F40600206D
:10281000E8060020E00B00209C0B0020034B1B6807
:102820000360034B1B684360704700BF980B002098
:10283000DC0B002070B50C46054640B94FF0500344
:1028400083F31188BFF36F8FBFF34F8FFEE741B95A
:102850004FF0500383F31188BFF36F8FBFF34F8F97
:10286000FEE700F0BFFA0F4B196823685A1C10D01E
:102870000D482E6800686A68864201D08A420FD9E6
:10288000881A83420AD95B1A134428462360FFF74B
:10289000C5FF002400F0C8FA204670BD0023236065
:1028A0000124F7E7DC0B0020980B00200122014BEC
:1028B0001A607047E00B0020054B1B6833B1054BD5
:1028C0001B68002B0CBF02200020704701207047BE
:1028D000B00B0020600B002038B508B9002038BDCF
:1028E0001B4B1C68844208D04FF0500383F31188BF
:1028F000BFF36F8FBFF34F8FFEE7236D43B94FF0E8
:10290000500383F31188BFF36F8FBFF34F8FFEE740
:10291000E16AE26C013B91422365DFD0002BDDD1FF
:10292000251D2846FFF76FF81420E36CC3F1380229
:10293000A261084AE36211688B4288BF1360064AAD
:10294000294600FB0320FFF73BF80120C7E700BF43
:10295000E8060020680B0020F4060020F7B5114CB3
:1029600000F040FA2568BDB90F4F104E3846FFF70A
:1029700019F83046FFF716F80D4B10211F600D4B6C
:102980000A201E600C4A0D4B0095FFF719F92060D4
:1029900010B10B49FFF716FB03B0BDE8F04000F0A3
:1029A00043BA00BF080D00208C0C0020A00C0020B2
:1029B000E40B0020E80B0020EC0B0020B80C0020FA
:1029C000823D0008914208B5416000610AD8D21AE0
:1029D00083699A420DD2084B011D1868FEF7FCFF6F
:1029E000002008BD9A4201D2994202D2034B011D38
:1029F000F3E70120F5E700BFE80B0020E40B00201F
:102A000010B588B0FFF7AAFF124B1B68B3B10024C2
:102A100007AA06A905A8CDE90544FEF7B7FF059B5F
:102A2000079A0293069B0C49019302230B480093DB
:102A30002346FFF75FFC0A4B186040B94FF0500384
:102A400083F31188BFF36F8FBFF34F8FFEE7012031
:102A500008B010BD080D0020873D0008392B000884
:102A60000C0D00207FB5164604461A4640B94FF0BB
:102A7000500383F31188BFF36F8FBFF34F8FFEE7CF
:102A80000D4D286880B10529CDE9001602940DDCB2
:102A9000FFF712FF0023022818BF1A46694608BF35
:102AA000089A2868FFF7DAF804B070BD0023694679
:102AB000FFF786F9F8E700BF080D00202DE9F34184
:102AC0004FF000081A4D2B681A6832B9194A11687C
:102AD0001360296002B0BDE8F081DB68DC681E6825
:102AE000271D3846FEF78FFF636A20469847E36943
:102AF000012BE8D1A36933449E4206D239462868A7
:102B000063602461FEF768FFDDE700233246194663
:102B10002046CDF80080FFF7A5FF0028D3D14FF065
:102B2000500383F31188BFF36F8FBFF34F8FFEE71E
:102B3000E40B0020E80B00202DE9F04F774EDFF882
:102B4000EC91B04687B03368D3F800B0BBF1000F0A
:102B500048D0DB68D3F800A0FFF774FCFFF77AFCDD
:102B60006F4D04462B682F4698423DD2FFF7A6FFD3
:102B70002C60FFF705FD4FF0000BDFF8ACA1002241
:102B8000DAF8000002A9FFF77DF90028DBD0029BEC
:102B90000498002B72DB049C6369002B76D1FFF74D
:102BA00059FC3B680546984201D2FFF787FF029B1C
:102BB0003D60092BE3D801A252F823F0952C0008C0
:102BC000952C0008952C00087F2B0008E32C0008AA
:102BD000092D0008952C0008952C00087F2B000873
:102BE000E32C0008DA46B7E72860BBF1000F2AD0D3
:102BF000824541D8FFF7C4FCD8F80030DB68DD68B7
:102C0000281DFEF700FFEB69012B18D1A969534677
:102C1000224628465144FFF7D5FE80B10023524694
:102C2000194628460093FFF71DFF40B94FF05003A7
:102C300083F31188BFF36F8FBFF34F8FFEE72846F2
:102C40006B6A984797E7374B1B681A68B2FA82F2AB
:102C50005209354BAAEB04011868FFF7C5F9FFF7D5
:102C60008FFC002887D14FF08053C9F80030BFF3A4
:102C70004F8FBFF36F8F7EE70022EAE7039B059932
:102C80009847029B002BFFF67AAF84E7201DFEF7E2
:102C9000BAFE84E7A169039B2A4620461944FFF740
:102CA00091FE00283FF46BAF636A20469847E369C2
:102CB000012B7FF464AF0023A269039920460A44E4
:102CC000CDF800B01946FFF7CDFE00287FF457AFCE
:102CD0004FF0500383F31188BFF36F8FBFF34F8F13
:102CE000FEE70399A16141B94FF0500383F31188C6
:102CF000BFF36F8FBFF34F8FFEE72B462A46204668
:102D00002944FFF75FFE3AE794F82C30002B7FF45C
:102D100036AF204600F022FA31E700BFE40B002076
:102D2000B40C0020E80B0020080D002004ED00E0AA
:102D300006480068006880F3088862B661B6BFF391
:102D40004F8FBFF36F8F00DF00BF000008ED00E082
:102D5000002382B001930D4B1B68013308D04FF064
:102D6000500383F31188BFF36F8FBFF34F8FFEE7DC
:102D70004FF0500383F31188BFF36F8FBFF34F8F72
:102D8000019B002BFCD002B0704700BF0C0000205C
:102D90004FF0807340F8043C054B21F0010140F8EE
:102DA000081C40F80C3C40F8202C4038704700BF0D
:102DB000512D00080000000000000000000000008D
:102DC000074B19680868B0E8F00F80F30988BFF373
:102DD0006F8F4FF0000080F311884EF00D0E70479A
:102DE000E80600204FF0500383F31188BFF36F8F84
:102DF000BFF34F8F0A4A13680133012B13600DD1C3
:102E0000084B1B6813F0FF0F08D04FF0500383F3FB
:102E10001188BFF36F8FBFF34F8FFEE7704700BF7E
:102E20000C00002004ED00E0084A136843B94FF09D
:102E3000500383F31188BFF36F8FBFF34F8FFEE70B
:102E4000013B13600BB983F3118870470C0000201D
:102E5000EFF30980BFF36F8F0D4B1A6820E9F00F75
:102E600010602DE908404FF0500080F31188FFF703
:102E70001FFC4FF0000080F31188BDE8084019687E
:102E80000868B0E8F00F80F30988BFF36F8F7047D0
:102E9000E806002008B54FF0500383F31188BFF314
:102EA0006F8FBFF34F8FFFF7DBFA18B14FF08052EF
:102EB000024B1A60002383F3118808BD04ED00E083
:102EC0000023084A084913600B604FF47A71074BDE
:102ED0001B68B3FBF1F30649013B0B60072313604A
:102EE000704700BF10E000E018E000E000000020A4
:102EF00014E000E013B5264B00211A78D2B20192FB
:102F0000FF221A701B78234ADBB28DF803309DF83C
:102F1000033003F05003137007231F4A13609DF81A
:102F200003005C1E00060CD411B1032B136011D0FA
:102F30004FF0500383F31188BFF36F8FBFF34F8FB0
:102F4000FEE79DF8033001215B00DBB28DF8033012
:102F50002346E4E74FF4407300241360019B0C4ABE
:102F6000DBB213700D4B1A6842F470021A601A68D3
:102F700042F070421A60FFF7A3FF094B1C60FFF795
:102F8000D7FEFFF795FBFFF7E3FE204602B010BD2A
:102F900000E400E0100D0020140D002020ED00E002
:102FA0000C000020EFF305830F2B0ED9104A9B5C19
:102FB000104A12789A4208D94FF0500383F31188CF
:102FC000BFF36F8FBFF34F8FFEE70B4B0B4A1B68AE
:102FD000126803F4E063934208D94FF0500383F37F
:102FE0001188BFF36F8FBFF34F8FFEE7704700BFAD
:102FF000F0E300E0100D00200CED00E0140D0020C7
:1030000010B50F4B1A461B688342FBD35468111945
:10301000884201BF4168104609195160446801198E
:103020008B4207D1074909688B421FBF59681B684B
:10303000091941609042036018BF106010BD00BFC5
:1030400028190020180D00202DE9F0410446FFF753
:10305000F9F93B4B3B481A689C46D2B900213A4AE1
:103060003A4B55071CBF073222F007021A6059601D
:10307000374B23F00703C3E90011991AC2E9003165
:10308000CCF80030334B1960334B19604FF00043DC
:103090000360076827424ED1002C3FD004F108039B
:1030A00061071CBF23F007030833002B43D02A4AD3
:1030B000166890469E423ED3244A15686968994234
:1030C00001D22868A8B9DCF80000A84233D02868EB
:1030D000C91A10291468106012D9E81842070BD0D9
:1030E0004FF0500383F31188BFF36F8FBFF34F8FFF
:1030F000FEE72A460546E1E741606B60FFF780FF87
:103100006B681449F61A1F4300230868C8F800606A
:10311000864238BF0E6008346F602B60FFF730FACC
:1031200063070AD04FF0500383F31188BFF36F8F0A
:10313000BFF34F8FFEE70024F0E72046BDE8F081A3
:10314000180D00201C1900201C0D0020281900203B
:1031500014190020241900202019002010B504465D
:1031600070B3184A50F8043C1268134208D14FF06B
:10317000500383F31188BFF36F8FBFF34F8FFEE7C8
:1031800050F8081C41B14FF0500383F31188BFF38E
:103190006F8FBFF34F8FFEE723EA020340F8043C32
:1031A000FFF750F9084A54F8043C1168A4F10800EC
:1031B0000B441360FFF724FFBDE81040FFF7E0B9B0
:1031C00010BD00BF1C1900202019002070B500267A
:1031D0000C4D0D4C641BA410A64209D100F030F830
:1031E00000260A4D0A4C641BA410A64205D170BDEE
:1031F00055F8043B98470136EEE755F8043B9847ED
:103200000136F2E7903D0008903D0008903D00082F
:10321000943D00080A44914200F1FF3300D1704709
:1032200010B511F8014B914203F8014FF9D110BDCF
:1032300003460244934200D1704703F8011BF9E7AB
:10324000F8B500BFF8BC08BC9E467047F8B500BF93
:08325000F8BC08BC9E46704763
:1032580048656C6C6F20576F726C64210000000029
:10326800000000004D6F746F725461736B005368F7
:103278006F775461736B0064656661756C74546133
:10328800736B00006C3200080000000000000000B2
:10329800000000000000000000020000080000001C
:1032A8000000000000000000763200080000000066
:1032B8000000000000000000000000000002000004
:1032C8000800000000000000000000007F32000835
:1032D80000000000000000000000000000000000E6
:1032E80000020000180000000000000000000000BC
:1032F80000000000000000000000000000000000C6
:103308003F40000000000000000030004000300096
:103318004000000009000BC03D000BC03D00090043
:1033280018C024407FE0224031800000180024C0EB
:103338001B000D803240018003801C4027401C8008
:10334800074000401000600000000000000000007E
:103358000000000000001F802040402000004020A6
:1033680020401F8000000000090006001F800600A2
:1033780009000000040004003F800400040000006D
:1033880000100060000000000000000004000400BD
:1033980004000400040000000000004000000000D9
:1033A80000000000002001C00600380040000000B6
:1033B8001F802040204020401F8000000000104057
:1033C8003FC000400000000018C0214022402440B7
:1033D8001840000010802040244024401B8000003A
:1033E80002000D0011003FC0014000003C80244055
:1033F80024402440238000001F802440244034407F
:10340800038000003000200027C0380020000000A2
:103418001B802440244024401B8000001C0022C044
:10342800224022401F8000000000000008400000E9
:103438000000000000000000046000000000000020
:10344800000004000A001100208040400900090023
:103458000900090009000000000040402080110018
:103468000A0004001800200023402400180000006F
:103478001F802040274029401F400000004007C00F
:1034880039000F0001C0004020403FC024402440C4
:103498001B8000001F80204020402040308000001A
:1034A80020403FC0204020401F80000020403FC0F7
:1034B80024402E4030C0000020403FC024402E0051
:1034C800300000000F0010802040224033800200AE
:1034D80020403FC0040004003FC02040204020405E
:1034E8003FC02040204000000060202020203FC036
:1034F8002000200020403FC024400B0030C0204066
:1035080020403FC020400040004000C03FC03C0079
:1035180003C03C003FC0000020403FC00C402300D7
:103528003FC020001F802040204020401F80000016
:1035380020403FC024402400180000001F80214084
:10354800214020E01FA0000020403FC0244026006A
:1035580019C0004018C02440244022403180000097
:10356800300020403FC020403000000020003F8055
:10357800004000403F80200020003E0001C00700BE
:1035880038002000380007C03C0007C038000000A1
:10359800204039C0060039C02040000020003840D3
:1035A80007C0384020000000304021C02640384085
:1035B80020C00000000000007FE040204020000004
:1035C800000070000C000380004000000000402054
:1035D80040207FE0000000000000200040002000A4
:1035E8000000000000100010001000100010001073
:1035F8000000000040000000000000000000028001
:103608000540054003C0004020003FC0044004407E
:1036180003800000000003800440044006400000CE
:1036280000000380044024403FC0004000000380A5
:103638000540054003400000000004401FC024402E
:1036480024402000000002E00550055006500420E8
:1036580020403FC00440040003C000400000044074
:1036680027C000400000000000100010041027E0F0
:103678000000000020403FC00140070004C0044093
:10368800204020403FC000400040000007C0040028
:1036980007C0040003C00000044007C00440040041
:1036A80003C0004000000380044004400380000081
:1036B800041007F004500440038000000000038059
:1036C8000440045007F00010044007C00240040002
:1036D80004000000000006400540054004C000004A
:1036E800000004001F800440004000000400078020
:1036F8000040044007C000400400070004C00180E7
:1037080006000400060001C0070001C00600000012
:10371800044006C0010006C0044000000410071061
:1037280004E00180060004000000044005C00640D3
:10373800044000000000000004007BE0402000007E
:10374800000000000000FFF0000000000000402022
:103758007BE00400000000004000800040002000E2
:1037680020004000000000000000000000000000F1
:10377800000000000000000000001FCC000C00004A
:103788000000000000000800300060000800300061
:1037980060000000022003FC1E20022003FC1E2003
:1037A8000220000000000E1811043FFF10840C785E
:1037B800000000000F0010840F3800C0077818843C
:1037C8000078000000780F8410C411240E9800E4DB
:1037D8000084000808006800700000000000000075
:1037E8000000000000000000000007E01818200496
:1037F80040020000000040022004181807E0000002
:10380800000000000240024001800FF001800240E9
:10381800024000000080008000800FF800800080D7
:10382800008000000001000D000E000000000000F4
:103838000000000000000080008000800080008000
:10384800008000800000000C000C00000000000058
:10385800000000000000000600180060018006005B
:1038680018002000000007F00808100410040808D9
:1038780007F000000000080408041FFC000400040E
:103888000000000000000E0C1014102410441184D5
:103898000E0C000000000C1810041104110412880A
:1038A8000C700000000000E00320042408241FFC22
:1038B8000024000000001F981084110411041088CF
:1038C80010700000000007F008881104110418881F
:1038D8000070000000001C00100010FC13001C0009
:1038E8001000000000000E381144108410841144A8
:1038F8000E38000000000700088C104410440888A7
:1039080007F00000000000000000030C030C00009A
:103918000000000000000000000101060000000097
:103928000000000000000080014002200410080888
:10393800100400000220022002200220022002209F
:1039480002200000000010040808041002200140B2
:103958000080000000000E001200100C106C108097
:103968000F00000003E00C1813E4142417C40828FF
:1039780007D000000004003C03C41C40074000E4DA
:10398800001C000410041FFC1104110411040E880B
:103998000070000003E00C18100410041004100854
:1039A8001C10000010041FFC100410041004080868
:1039B80007F0000010041FFC1104110417C41004C0
:1039C8000818000010041FFC1104110017C0100093
:1039D8000800000003E00C181004100410441C78C0
:1039E8000040000010041FFC108400800080108438
:1039F8001FFC10040000100410041FFC1004100425
:103A08000000000000030001100110011FFE10005B
:103A18001000000010041FFC110403801464181C1B
:103A28001004000010041FFC10040004000400042B
:103A3800000C000010041FFC1F0000FC1F001FFCEE
:103A48001004000010041FFC0C04030000E0101810
:103A58001FFC100007F008081004100410040808E0
:103A680007F0000010041FFC1084108010801080E4
:103A78000F00000007F0081810241024101C080A72
:103A880007F2000010041FFC1104110011C01130CE
:103A98000E0C000400000E1C110410841084104445
:103AA8001C3800001800100010041FFC100410003F
:103AB8001800000010001FF810040004000410048F
:103AC8001FF8100010001E0011E0001C0070138089
:103AD8001C0010001FC0103C00E01F0000E0103C5C
:103AE8001FC000001004180C163401C001C01634A1
:103AF800180C100410001C00130400FC13041C0014
:103B0800100000000804101C1064108413041C0426
:103B1800101800000000000000007FFE4002400274
:103B280040020000000030000C0003800060001C10
:103B38000003000000004002400240027FFE000037
:103B4800000000000000000020004000400040008D
:103B58002000000000010001000100010001000137
:103B680000010001000040004000200000000000AB
:103B780000000000000000980124014401440144B1
:103B880000FC000410001FFC0088010401040088E8
:103B980000700000000000700088010401040104A6
:103BA800008800000000007000880104010411086A
:103BB8001FFC0004000000F80144014401440144D2
:103BC80000C800000000010401040FFC11041104E6
:103BD80011001800000000D601290129012901C996
:103BE8000106000010041FFC00840100010001040C
:103BF80000FC000400000104190419FC000400047E
:103C0800000000000000000300010101190119FE75
:103C18000000000010041FFC0024004001B4010C47
:103C2800010400000000100410041FFC000400043C
:103C380000000000010401FC0104010001FC010472
:103C4800010000FC010401FC0084010001000104E2
:103C580000FC0004000000F8010401040104010450
:103C680000F80000010101FF00850104010400883B
:103C780000700000000000700088010401040105C4
:103C880001FF00010104010401FC0084010401009A
:103C980001800000000000CC01240124012401243B
:103CA8000198000000000100010007F80104010468
:103CB80000000000010001F80004000400040108ED
:103CC80001FC0004010001800170000C001001607B
:103CD8000180010001F0010C003001C00030010C2E
:103CE80001F0010000000104018C00740170018CD6
:103CF80001040000010101810171000E001801603A
:103D08000180010000000184010C01340144018498
:103D1800010C0000000000000000000001003EFC53
:103D2800400240020000000000000000FFFF000009
:103D3800000000000000400240023EFC01000000BC
:103D4800000000000000600080008000400040008B
:103D58002000200000000000000000000102030411
:103D68000607080902030405060708090A0B0C0DD3
:103D78000E0F10100049444C4500546D7251005408
:083D88006D7220537663000008
:043D90001502000810
:043D9400F101000831
:103D98000024F4000100000010000000AAAAAAAA4A
:0400000508000911D5
:00000001FF
